:0200000407FCF7
:10000000B06FFC072505FC072D05FC074505FC071F
:1000100000000000000000000000000000000000E0
:100020000000000000000000000000005D05FC076B
:1000300000000000000000005F05FC07ED2BFC073E
:100040008D27FC07815BFC071D27F007F12BFC07C0
:10005000092BFC076305FC074927FC076305FC0720
:100060005527FC076305FC07AD29FC07B729FC07EA
:10007000C129FC07CB29FC07D529FC07B72BFC07B6
:10008000352CFC076305FC076305FC076305FC07CB
:100090006305FC076305FC076305FC076305FC07B4
:0200000407FCF7
:100510000348854601F0E4FF00480047954BFC077F
:10052000B06FFC070F4880470F4800470420714612
:10053000084203D0EFF309800C490847EFF3088025
:100540000A49084704207146084203D0EFF30980A6
:1005500007490847EFF3088005490847FEE7FEE72B
:10056000FEE7FEE73560FC071105FC07192BFC07C9
:10057000AD2AFC073EB50D4D6D1E14D002880A420F
:10058000FAD16D1E0FD002880A42FAD0084A1368C9
:100590000124234313606D1E05D002880A42FAD15C
:1005A000044A10683EBD00203EBD0000C0C62D00BC
:1005B00010E000E018E000E070B50E4604460022AE
:1005C000032151F7C8F9054652F794FB6880284685
:1005D00051F7D2F952F78EFB7188884200D3084652
:1005E0000146204651F7AFFA002070BD0246FF4B8E
:1005F00092009A580120126900290ED0517F5E2383
:100600009B5C002B0BD0052906D1517E090702D532
:10061000917C090700D400207047917DEFE7022903
:10062000F9D00429F7D00529F6D10020EDE70246DC
:1006300030B59300ED4A0120D2581269137DD47E63
:10064000157F2340547D2C40012901D0022909D176
:10065000957C527E15402A0704D41A462243D207BD
:1006600000D10020032901D0042904D1590702D464
:10067000610700D4002030BDF8B514460D46104681
:100680005BF74BFC240A002830D0D949A2008B58D4
:1006900001271E8BBF023E431E83132826D0142839
:1006A00024D0152811D088582D210A5C0123D106A9
:1006B00000290CDA0146A0318E7D002E07D08B7503
:1006C0003D21204645F796FE10E00220F8BD1107B7
:1006D00003D50021A0308175F7E7A030837520464F
:1006E00043F782FB2946204643F7C1FB0020F8BDB3
:1006F000FFB581B01546170A10465BF70EFC0028BF
:1007000038D0132836D0142834D0290A8C00B84E9B
:10071000152815D0FF20294603305BF7E5FC30593A
:100720002D21095CC90603D5A030C07D00280ED05C
:100730003D026D1CA8B25BF7F0FB19280CD00FE04E
:1007400030590121A030C175022005B0F0BD3D2116
:10075000384645F74FFE0DE0A8B201215BF7ABFB31
:1007600030590122018B520291430183384602998C
:1007700043F77DFB0020E8E7F0B59D498700C959A4
:10078000002680314A8C8B8C1B2A00D21B228C8B3A
:10079000944200D222468A849A4200D001260B8CD1
:1007A000CD8C1B2B00D21B23CC8B9C4200D223462A
:1007B000CB84AB4200D001260B8ECD8D9C46FF230F
:1007C00049339D4201D21C4600E02C460D8DA542C6
:1007D00000D325460D86654500D001264C8EA446E3
:1007E0008C8D9C4200D21C464B8DA34200D21C46ED
:1007F0004C86644500D00126EB080B3B9BB29A4225
:1008000000D213468B86522379495843794BCA59F3
:100810001C6880320419D28C8034E285C9591A6868
:1008200080318018498E803001863046F0BD10B589
:1008300004467148008D8007800F012800D00020F9
:100840006071002807D057F7D1FE01460622A01D8F
:100850005DF72CFC10BD06226849A01DF8E770B5B5
:100860000546002442F787F82855641C082CF9DB5C
:1008700070BDF8B5022707700126044646700D4684
:1008800088795F49C96988472A2108552879002154
:100890000007000FA07003005DF75CFC0705070967
:1008A000100D100B1000A1700AE0A67026E00320C6
:1008B00002E0A77004E00420A07001E001281DD030
:1008C000A888000A801FC0B2A0721F2800D9A17298
:1008D000284642F705F9811D2046A27A0B305DF7C4
:1008E000E5FB284642F7FCF801460622201D5DF78D
:1008F000DDFB28794006C00FE070F8BDA172F0E77B
:10090000F7B544688CB0254624350395054607465F
:1009100024354CF7F9F906464420405B5221484300
:10092000344909684018C03040896946088401216B
:10093000384647F728F94CF75CF809900E9800699B
:100940008088000AC1002F480818298940182D49BD
:100950005B315DF731FB01466868039D4718403500
:10096000288906900090A0680099381A4001400933
:100970005DF722FB0A910098C019401A4001400916
:100980006946A060098C4900C919891C49014909B7
:10099000884204D20699401840014009A0600146EF
:1009A0000998081A400118494009884215D90020C1
:1009B0002B89A268401CD21852015209A260EA8910
:1009C000521CEA81A368099A9A1A520152098A4272
:1009D000EED801B20D9847F777F9A1680998081A7F
:1009E0004201607D5209824221D80FE02C7EFD0732
:1009F0001879FD074C76FD074C7EFD07CF79FD0782
:100A0000B47FFD0716020000FFFFFF032A89891843
:100A100049014909A1602A890A99511A814206D9D6
:100A200001210D9847F750F9E889401CE881298990
:100A3000A0685DF7C1FAF1802889B080208A3081F2
:100A4000A88870810020B081C807C00FB073A88843
:100A5000522148438E30308230464CF760F903987B
:100A6000466320460FB0F0BDFFB5002093B00646A8
:100A70000124FE4949680A7821460C2A0CD06A46AE
:100A8000117300221192002E09D015990291169D22
:100A90001F2D54D9402052E000242246119413996E
:100AA0000291149DF4E7029989184978012905D02B
:100AB000172903D0182901D0192912D1631E04E087
:100AC00003AFFF5C8F4204D05B1E5BB2002BF7DAF2
:100AD00003E0002B01DB4A2003E003AB1955641C43
:100AE000E4B20B005DF736FB1D261010101010103D
:100AF00010101026262626262626262626262626D8
:100B00001010101010102600119B03E00BAFFF5CBB
:100B10008F4204D05B1E5BB2002BF7DA03E0002BA0
:100B200001DB4A2006E0119F0BABD9551199491CF6
:100B3000C9B211910299895C521C89188AB2AA42E1
:100B400001D20028AFD0AA4200D04A20761CF6B2CB
:100B5000022E01D2002894D017B0F0BD10B50022AB
:100B6000134607E084186478012C07D0845C521C7B
:100B7000A21892B28A42F5D3184610BD8018837825
:100B8000FAE7F0B50646A9B01546002084006318C0
:100B9000DA789F7812025B783A4352BA1B041A4300
:100BA0000B5D07241B061A43231A9F0020AB401C31
:100BB000DA510828EAD300218A0090190746C37841
:100BC00080781B02034378785BBA00040343B05C6F
:100BD00010AA00060343601A8000135038462230E2
:100BE000437800781B0203433846203047785BBACD
:100BF0003F0400783B43000603430F27781A800028
:100C0000491C13500829D7D35CF7E4F80146304655
:100C10005CF75DFD00282DD05CF7DCF8034620AAC8
:100C200010A968465DF75EF900226846A11A8B009C
:100C30009600C75C7119CF70C75A3F0A8F70C758AA
:100C40003F0C4F70C35820311B0EAB550F239B1A1E
:100C50009B00C65CCE70C65A521C360A8E70C658AF
:100C6000360C4E70C3581B0E0B70082ADED30020C2
:100C700029B0F0BD0120FBE7F7B500251746064671
:100C800041232A4629460A205AF792FF0446002E9D
:100C900010D0012E02D0022E0CD105E02022611CC2
:100CA000002041F781FE04E0621C3946019841F7BB
:100CB0002BFE207020465AF794FF2846FEBDF8B55B
:100CC0006B48009007680C46002F7BD005461C350A
:100CD000287E002876D0012802D0022872D102E0B6
:100CE0002078002819D038896249002688423AD1F4
:100CF00007204BF701FC002835D042233E2200217B
:100D00005D485AF755FF082101702178002913D05A
:100D1000032141702178817043E055480226611C0F
:100D200014302E76202204465DF7C0F9224653493E
:100D3000304641F7F3FD45E0002146701F22531A6B
:100D40001B1947185B78491CBB702029F7DB002171
:100D50003F22531A47181B1920375B78491CBB7078
:100D60002029F6DB1DE043493889491C88421AD105
:100D700008204BF7C1FB002815D022233E2200217A
:100D80003D485AF715FF09210170217800291BD031
:100D9000122141700021FF224318491C9A7020291A
:100DA000FADB4DF7B5FE2E7640205BF784FB00980A
:100DB00041F7B8FE5AF73FFF00980068002801D0BD
:100DC00041F7A7FD0020F8BD002146701F22531AED
:100DD0001B1947185B78491CBB702029F7DBE0E73B
:100DE00070B5087800250C46012809D01D2810D0C0
:100DF0002B2812D04022194655F79AFE284670BD7E
:100E00005BF743FA1948012504601D4857F723FA98
:100E1000F4E71C4841F7E6FCF0E71B4801680029AD
:100E2000ECD101210160194841F7E2FDE6E770B518
:100E3000104D174C223DAB422ED10F4809232A46B4
:100E40000021C01E5AF7B4FE044608221149401C76
:100E50005DF72CF9207908210843207100252570C1
:100E600020464DF755FE284670BD00004C7EFD071C
:100E7000287AFD07252000000408000089E7F10713
:100E8000030C0000C3C3C3C35077FD07CC7DFD072F
:100E90000DC3F0075CE5F107A047E5E7F1B584B0C5
:100EA0000498FF4980000C5804980502A81D029080
:100EB000002C15D06068818804290CD34188861DD8
:100EC0000C38009101903146049857F79AFFF54984
:100ED000884206D160680C385AF7ADFE0020606089
:100EE00033E4F178B2780F02019928431743C880A0
:100EF000384640383F2819D803223946049854F719
:100F000007F80600E6D0B07B0128E3D13420B073A7
:100F100029460A310423E448029A5AF749FEB18966
:100F20004180102101705AF75CFED3E761683420DC
:100F30000870022100985AF72DFD05463146009AA7
:100F40005DF7B4F868782978000208436168C880C2
:100F5000E878A978000208436168062F08810BD061
:100F6000042F09D06068052F10D00C385AF763FEA3
:100F700028465AF78AFDB1E760688188052913D3AE
:100F8000297981726168287988720DE08188052944
:100F90000AD32979817261682879887260688188AA
:100FA000062901D36979C17260685AF71AFEDFE732
:100FB000FFB587B00E4609985AF7AFFF0999090A9D
:100FC0000391002876D08800B54905900D58B7499F
:100FD000B079096B0A225043B478081841F780FDB4
:100FE00001906868002808D0012C2DD00398FFF7E5
:100FF00055FF6868002802D026E0022C5AD1B0883C
:101000000127022805D30198417800780C02044397
:1010100002E051F76FFE044651F76CFEA04201D288
:101020000224002720464C3083B29E49A048099AEA
:101030005AF7BEFD241D68604480002F01D00020B7
:1010400000E034206968087068680028BAD0811D03
:101050000091B2880199841C071D01928088238821
:1010600082189A4209D8009A8018019A5DF71EF8F2
:10107000398801980818388009E01A1A009BC018AE
:101080005DF714F820883880696834200870388843
:1010900004280FD300984178027808021043218871
:1010A000001D884207D280B220803988814207D94A
:1010B000388002E068E0884202D96968342008700C
:1010C0003888218888425FD1686800990C3801907F
:1010D000039857F796FE69680978002951D171493C
:1010E00088424ED003990F0201993843C880208866
:1010F000022101905AF74EFC0490228800995CF777
:10110000D5FF049800283FD06968002088800198A6
:1011100002226B46039907C36868049B821C011D69
:10112000801D41F7B7FB6968087004985AF7ADFC59
:1011300068684188002902D00178002954D00189CB
:1011400040393F2944D8017830291ED00146544AFD
:1011500005980C391058083041F700FD696803986C
:10116000891D41F7A8FB4628686801891FD0032222
:10117000039853F7CDFE00282CD0808A00282CD06D
:1011800028E00398FFF78AFE42E04A49098D0906E4
:10119000C90F07D048490C380968099A898D89B266
:1011A0005AF73CFD68680C385AF745FD12E00322F7
:1011B000039853F7ADFE04000CD039460A310423DE
:1011C0003948099A5AF7F4FCA1894180102101702D
:1011D0005AF707FD002068601AE06868002201895C
:1011E000039841F763FBF5E70189084640383F283B
:1011F0000ED80322039853F78BFE002808D0808A6C
:10120000002805D1686800220189039841F74EFB48
:10121000B07941F758FC00200BB0F0BDFFB58BB0A2
:10122000064616980027022821D00D9801881498A8
:1012300081427DD37188084640383F2802D81598EE
:1012400053F7A7FE0C98361D0088149A80190E9942
:101250005CF72CFF0C980188149808180C990880EA
:101260000D9801881498081A0D99088069E10020EA
:101270000E9D079069782C78090221433180E97826
:10128000AC780902214371808C46403904242D1D1D
:10129000024603468E46402900D3287861460DE079
:1012A000AC7DFD07FFFF0000260E0000E078FD0783
:1012B000010A00004C7EFD075876FD0704291FD067
:1012C000052914D0062918D070463F283ED8159815
:1012D00053F75FFE0006000E04D0FC48008D0006A8
:1012E000C00F31D002230120F94A002712E06978AB
:1012F00000290FD0F74A17230CE0F74A0F2309E023
:10130000522802D0D22802D002E0142000E015209A
:10131000F24A1F23002A7DD098427BD280001058C9
:1013200004900028F7D0002008900590708800E015
:1013300006E14038402803D32878052430716D1C1D
:10134000701D00900498AFE03027EDE03327EBE00C
:10135000522864D00CDC4B283FD004DC41286AD0F2
:1013600042285AD111E04C2820D0502855D140E0D5
:10137000632830D004DC572818D061284DD19BE079
:101380006C2864D0772848D109E00098297801704A
:101390000098641C401CA4B26D1C009081E004986D
:1013A000401C04900178089881427AD10098A41CCE
:1013B000401C41084900881C009068782A78000287
:1013C000104308800599AD1CA4B2002969D008908B
:1013D0000020059065E00120FBE7102229460098D7
:1013E0005CF764FE009810341030A4B21035009001
:1013F00057E0204640301499039088420DD840228F
:10140000294600985CF752FE0098403000900398FF
:1014100084B200E079E0403543E0342741E008221F
:10142000294600985CF742FE009808340830A4B2C0
:101430000835009035E00622294600985CF736FE14
:101440000098A41D801DA4B2AD1D009029E0149841
:10145000001B80B203903088001B001D81B2012068
:1014600007900498401C04900098401C40084000DD
:1014700000900498007857281CD04228CDD10098BD
:101480000170090A417000982946801C0090039A57
:101490005CF70CFE03980399201884B2009840185A
:1014A00000900498401C04900078002820D0002F61
:1014B00019D01DE04908E2E71498001B80B20390A0
:1014C0000098039A401C41084900012000910790B0
:1014D000294600985CF7EAFD03980099201884B229
:1014E00003980818DCE70D990988A14200D32FE77B
:1014F0000D980088A04208D304990978002904D1E6
:101500000799002903D1A04201D034270CE00D999E
:10151000001B08800C9801880098801B001F081889
:101520000C99002F08800CD07088042809D0062858
:1015300007D04038402804D30E984079707100E0FD
:10154000342738460FB0F0BDFFB581B01F461646B0
:101550000C4610465AF7E1FC00253F2802D02189AD
:10156000062908D03B4632462146019854F79DF89B
:1015700005462846B4E4000701D50225F9E720789E
:101580000028F6D1300AA11D41F79FF8F1E7F3B525
:1015900081B00198524C850060590F464068CE8852
:1015A00001462431009146F7C1FE00994D4A403171
:1015B0000091C989701A80B2904214D2B14212D0FF
:1015C00060593146406845F76AFF60590522791C29
:1015D0001F305CF76BFD019805210002401C80B2B2
:1015E0005AF769FCFEBD60590522791C1F305CF773
:1015F0005DFD0098808841F745FFFEBDF8B53A4C87
:10160000064685000F4660594821095C24290ED101
:1016100000691022791D2E305CF748FD61592520A4
:101620004031087200221146304652F717FE6059C9
:101630004821095C0C291FD100691022791D2E3028
:101640005CF734FD60595F210069095C09072DD4FE
:1016500001462E3110221E305CF74CFD00280CD0C4
:101660006059092140300172304653F715FB01469D
:101670000022304652F77DF9F8BD0421684601701A
:101680006A460521304652F71FFB68460178602004
:10169000014368460170304653F7FEFA014668463A
:1016A00002780123304652F779FAF8BD304653F7F5
:1016B000F3FA01281AD06059072140300172002244
:1016C0001146304652F7CAFDF8BD00004C7EFD07BA
:1016D00014F3F1071CF3F10778F3F107B4F3F10702
:1016E0001879FD07FF7F00002C7EFD07615900205F
:1016F0000969C031887160590421026930461E327F
:1017000052F7E2FA605901694031897F002907D018
:101710001A21403001720021304652F729FED3E7EA
:101720001B2140300172304652F777FECCE7F8B506
:10173000FC4C05468600A0594822125C192AC3D1E8
:1017400040224930491D5CF7B1FCA0594022F649BE
:1017500049305CF7CFFC002805D0F34928462039F2
:1017600059F727FFB0E70B21684601706A4605214B
:10177000284652F7A9FA6846017860200143684676
:101780000170284653F788FA01466846027801231B
:10179000284652F703FA97E7FFB581B003980C4645
:1017A000060A00255AF7B9FB002818D0132816D0CE
:1017B000142814D0DD48B700C0592030407BC00643
:1017C00028D503985AF7A9FB15280CD0A07941F722
:1017D0007AF9304645F791FD032806D015E0A07947
:1017E00041F771F91FE002251DE0D048C0592030B3
:1017F000407B400704D53D21304641F79CFD04E085
:101800003D220021304641F7A4FD3D21304644F7FA
:10181000F1FD08E020460C38C5498180C68020468D
:101820004DF776F901252846A4E6F1B58EB00E985D
:1018300041F756F904460E98694600794006C00FF4
:101840000A9006900A208883628BBA49101A88424F
:101850007ED2E08A06287BD31921C901884277D835
:10186000238BFF21F5318B4272D85B1C99005918EC
:101870004143491C0A2349105A43914268DC217FA5
:1018800000290CD1617F002909D1A17F002906D14F
:10189000E17F002903D12021095DC90658D02746E0
:1018A00020377978C906C90E491F0C2950D2A18A60
:1018B00081424DD8E17C00294AD0421E082A01D934
:1018C000082000E0401E814242D805A844F77AFD76
:1018D00000283DD1984D0622E861214608A85CF712
:1018E000E5FBA8782E46803E00287ED060798009EE
:1018F00001280AD020460A994AF7A2FE00285ED0A5
:101900003821095C002954D059E020464AF705FFE8
:10191000E861002804D10BA920464AF714FFE861CA
:10192000F16A887A012801D0042810D1E8690028DA
:101930000ED00622253010315CF7DCFB002807D1E1
:10194000E869F16A2030C07AC97B884200D100E0A2
:10195000A2E0E969002932D0062208A825315CF707
:10196000A5FBE8692B21095C07AA253006914AF7F7
:1019700049FD00280FD0E8692030C07A002811D135
:1019800068466E49808B49F7EFFC07AA01216B4836
:101990004AF738FD06E007AA01210BA84AF732FDF5
:1019A00000280CD0E9696846808B323149F7F2FC97
:1019B00005E04218527D002A08D010296CDBF06A3D
:1019C000407A022806D0032804D00EE0491C1029D2
:1019D000EFDBF4E76846808B0A2806D307AA204687
:1019E0000A994AF70FFD002856D0002205A9204683
:1019F0004AF7B2FD00284FD1F06A407A02280BD096
:101A0000032809D000236846828A08A806994AF765
:101A1000C4FD002802D02EE00123F4E7E18A6846E5
:101A20000180218B4180618B818078780622410979
:101A3000684681737878C106C90E684641732146AD
:101A4000801D5CF733FB0E9800794006C10F684695
:101A50000173838A2146B26D45F761FC0146B0658A
:101A6000684641F707FB0020B065214668461C31F7
:101A7000808A44F7FAFC47F798FC2F4C20342079F1
:101A8000002805D0002109205AF72EFB00202071E4
:101A9000002108465AF70FFA54E570B516460C4671
:101AA000488853F7D0F80546FF2838D0012153F76E
:101AB00040F90C2804D100220121284652F722FFC8
:101AC0000023E0180079002803D15B1CDBB2082B4F
:101AD000F7D31448A9004058006900280AD04030C4
:101AE000C07F000706D4082B04D30121284651F7F4
:101AF000DAFF14E029021E23324611480A315AF750
:101B000057F805460B202870A089688228460822CD
:101B1000211D14305CF7CAFA28465AF762F80020F3
:101B200070BD00002C7EFD07EC7DFD071879FD07D8
:101B300006080000770C0000E479FD0704E5F107D2
:101B4000160E000000207047F7B5784E0D4687004E
:101B5000F15982B00E2D08D10A69002A05D0537EB2
:101B6000DB063DD5927CD2063AD540310402C979D4
:101B700020460A30C907009000290AD00146E32018
:101B800000015AF7B1FAF0594030C17949084900CB
:101B9000C1710520A11D48234002009A5AF708F898
:101BA00004460620A0806249A571A8000A58A01C1E
:101BB0000499904720465AF714F8052D10D00E2DA1
:101BC0000ED05C480099006880304269E320000133
:101BD0005AF740FAF05901224030C1791143C171DE
:101BE000C8E4F8B50C460546504980000858403016
:101BF000C079400717D4204640F762FD6946087057
:101C0000002809D007280ED00121284653F791F863
:101C100060260C2808D00EE02079474980000A5839
:101C20002146284690474FE5684602780121324315
:101C3000284652F767FE6A460521284652F744F8BF
:101C400020790128EFD00B28EDD0284653F724F84F
:101C500001466846027801233243284651F79EFF29
:101C600032E538B50D46044653F716F801280DD174
:101C7000204651F793FD69460870002807D00928CF
:101C800004D10A460521204652F71EF838BD2749DF
:101C9000A000085800690028F8D10121204653F718
:101CA00048F80C2804D100220121204652F72AFED0
:101CB00021020A3108230A46204859F779FF0446D1
:101CC0000A2020700622691D601C5CF7EFF920468F
:101CD00059F787FF38BD70B50C460546012153F70B
:101CE00028F8014670200C2911D0104AA90051583B
:101CF000096900290AD064790443284652F7CCFFC9
:101D0000014600232246284651F748FF08E762793A
:101D100001210243284652F7F5FD01E70948084929
:101D20000160094941607047704770472C7EFD078C
:101D300030F4F1075876FD076CF4F107120E00003D
:101D40008CBFF107C00008409064FC07F8B53E4C1A
:101D50006088C6076088F60FC005C50F6088400818
:101D6000400060806088FF270137B843608040F7FB
:101D700027FE40F72BFE00220821022040F71AFE22
:101D8000002800D001206188A188618849084900A5
:101D90003143618061882A02B94311436180F8BDF3
:101DA00070B5012529492A020A60BFF34F8FBFF39E
:101DB0006F8F27490A6027490B681C0A24024023B9
:101DC0001C430C60214980390A601F494C88062653
:101DD000B443241D4C804C882C434C804C883825BF
:101DE0002C434C804C889C434C800F280FD1488852
:101DF00033021843488048881043488048882A02A4
:101E0000104348804888012292039043488070BD67
:101E100010B5114CE18A114ACBB21189248BC90447
:101E2000890E6404640E001B093141430120C00285
:101E3000401A80B2584340031189000E090A090272
:101E40000143118110BD00002020005080E100E01E
:101E500080E200E008E400E000230050002C005085
:101E6000F8B5020205464123092134480A3259F7E0
:101E70009FFE27210170044600201F233049AA003D
:101E80008F581E1A4936BE5D2718401C7E702028C8
:101E9000F6DB00203F238E581F1A4937F65D2718BE
:101EA0002037401C7E702028F5DB5AF793FF01464F
:101EB000601C5BF70CFC002812D10A2000906A46D7
:101EC0000521284651F700FF284652F7E5FE009904
:101ED00060221143CAB201460123284651F75EFE33
:101EE000204659F77EFEF8BD70B5054604460089C8
:101EF00014490C3488B088421AD100201F216E4644
:101F00000A1AA25C3254401C2028F9DB20223146F8
:101F100020465CF7CBF800203F210A1AA25C32541D
:101F2000401C2028F9DB20226946A0185CF7BEF887
:101F3000284649F7DAF908B070BD0000270D000007
:101F40002C7EFD072620000010B50F49032059F70D
:101F500080FF0021032059F7AEFF10BD10B50446E5
:101F600001230A4A00210A4859F722FE09498C42F6
:101F700001D1032103E008498C4201D10021017005
:101F80004CF7C6FD10BD00007460FC0711FC00009A
:101F900001080000A5A5A5A5C3C3C3C300280BD095
:101FA00000BF00BF00BF00BF00BF00BF00BF00BF39
:101FB00000BF00BF401EF1D17047000010B50C46B5
:101FC0000123FE4A0021FE4859F7F2FDFD4A21781F
:101FD0001170002101704CF79BFD002010BD10B561
:101FE000F64A0C460123521E0021F54859F7E0FD40
:101FF000F54A21781170002101704CF789FD00200D
:1020000010BD10B5ED4A0C460123921E0021EC488C
:1020100059F7CEFDED49A288CA8722884A870A4629
:10202000E3884032138062888A87002101704CF770
:102030006FFD002010BD10B51A4682230021E04834
:1020400059F7B6FD112101704CF762FD002010BD5B
:10205000DA4A10B50123413A0021D94859F7A8FDC1
:10206000112101704CF754FD002010BDD34A10B56A
:102070000123403A0021D24859F79AFD11210170FD
:102080004CF746FD002010BD10B51A460223002172
:10209000CB4859F78DFD112101704CF739FD002017
:1020A00010BD10B51A4601230021C54859F780FD1F
:1020B000112101704CF72CFD002010BD10B51A46FF
:1020C00001230021BE4859F773FD112101704CF71F
:1020D0001FFD002010BD10B51A4682230021B8480C
:1020E00059F766FD112101704CF712FD002010BD5B
:1020F00010B51A4682230021B14859F759FD002135
:102100004170112101704CF703FD002010BD10B586
:102110001A4601230021AA4859F74AFD11210170EE
:102120004CF7F6FC002010BDA44A10B50823333A42
:102130000021A34859F73CFD0446031DC21C811C25
:10214000401C59F70DFB0146002000290BD011213E
:1021500021706070A070E070A080E08020464CF795
:10216000D7FC002010BD2070F7E77FB5002508469A
:10217000009501950C38029559F75DFD59F705FD5D
:1021800000246E460390204659F7F9FC6100891936
:10219000641CE4B24880042CF5D3884A1023313AF9
:1021A0000021874859F704FD6E461ECE1EC0103828
:1021B00005704CF7ADFC012004B070BDF8B57F4A46
:1021C0000F4608230A3A00217D4859F7F1FC804D5B
:1021D0000446286B6E12B043304328637D4938882B
:1021E000496A88476060286BB043002128633888BB
:1021F0006080217020464CF78BFC0020F8BDF8B5BC
:102200006E4A0D460423093A00216D4859F7D0FC67
:102210006F4E0446306B7712B843384330636D4AD3
:102220002888926A69689047306BB8430021306310
:1022300028886080217020464CF76AFC0020F8BD99
:1022400070B518460D465D4A01460123323A5C4896
:1022500059F7AEFC04462878002802D0012805D1A1
:1022600001E05D4800E05D4840F7BCFA12202070B4
:1022700020464CF74DFC002070BD10B518460C46AA
:102280004E4A01460823133A4D4859F791FC2188DC
:102290000122920789180968416021884180002144
:1022A00001704CF735FC002010BD10B518460C46E7
:1022B000424A01460423123A414859F779FC2288E0
:1022C00001239B07D2186168116021884180002199
:1022D00001704CF71DFC002010BD10B51C460846CF
:1022E0004AF703F9354A0123113A2146344859F790
:1022F0005FFC002101704CF70BFC002010BD70B595
:102300000C8818461646082C00D30824CA788B7807
:10231000150252225443324A1D431368E318803396
:102320001D830B791168611880314A8B120A1202E1
:102330001A434A83214A014601230E3A204859F79D
:1023400037FC002101704CF7E3FB0021304659F7C0
:10235000B2FD002070BD10B588781C46002801D061
:10236000012200E000220888114644F787F8134A4A
:1023700001230D3A2146124859F71AFC0021017039
:102380004CF7C6FB002010BD70B518460C460B4A32
:10239000014601230C3A0A4859F70AFC22785221D7
:1023A0004A430F4900230D685219C0321382227824
:1023B00052256A430D685219C03213E043FC0000F5
:1023C00001080000B476FD07DD76FD07A479FD075E
:1023D00040000040B47FFD07C3C3C3C3A5A5A5A5A6
:1023E0004C76FD07538222785224096862435118C3
:1023F000C0318B82002101704CF78AFB002070BD38
:1024000070B518460C4601460123314A314859F748
:10241000CFFB227852214A432F4900230D685219DD
:10242000C0325381227852256A430D685219C03256
:10243000938122785224096862435118C031CB81BC
:10244000002101704CF764FB002070BD70B5184688
:1024500016460D461E4A01460123D21C1D4859F757
:10246000A7FB04462888082800D3082045F750FF1A
:10247000002805D000212170A9786430017701E09F
:102480001220207020464CF743FB0021304659F7BC
:1024900012FD002070BDF8B50E4610491C461546C9
:1024A0000020C2008A5AA24209D1C00040184768E1
:1024B000002F07D02A4631461846B84702E0401C94
:1024C0001928EED322463146284602F02DFAF8BDEF
:1024D00038FC0000010800004C76FD078460FC0712
:1024E000064C0125064E05E0E36807CC2B430C3C67
:1024F00098471034B442F7D3FEF70EF85068FC0743
:102500008068FC07F0B51FB40646002082B005467F
:102510004024019100901BE0019922460F4630466D
:1025200000F0BFF8049A059B801A994110D3104619
:10253000194622465BF7FEFD361A8F410197224667
:1025400001200021009F5BF7F5FD38184D410090F8
:102550002046641E0028DFDC019B00982946324695
:1025600007B0F0BD024670B54A40D30FDB0740000C
:102570002DD04A002AD0010E140E000212020919B1
:10258000400A520A8418E50104465443000A120A1C
:102590002E045043A4194219200CC543AA18120C4A
:1025A0000125AD03521C521912047F39240400D0B6
:1025B000521C104301D44000491EC2B20C06C0098F
:1025C0002018401C4008802A02D003E0002070BD83
:1025D00040084000002900DA0020184370BD70B5A3
:1025E00002464A40D50F40004A00ED074008520815
:1025F000002814D0002A12D0C40DD30D41020120AE
:10260000C0055202490A520AE41A091812187D3408
:10261000914201D3641C00E04900002C01DA002043
:1026200070BD0023914201D3891A03434008490039
:102630000028F7D100290AD0914202D10121C9070F
:1026400005E0914201D2012101E00121C943E005E9
:10265000C018401900F036F870BDC217C10F5040C5
:1026600010B54018CA079623002100F033F810BDBA
:10267000C20F410040020123400ADB05D207090EC8
:10268000C0187F2901DA00207047962903DC9623C1
:10269000591AC84001E096398840002AF4D04042D7
:1026A000704710B5202A04DB0846203AD0400021AC
:1026B00010BD0B46D340D0402024A21A91400843BD
:1026C000194610BD002904DA401C490001D1400818
:1026D0004000704770B40024050C05D1102400049C
:1026E00002D1002921D01124050E01D100020834A5
:1026F000050F01D10001241D850F01D18000A41C0C
:10270000002801DB4000641C002908D020252E1B76
:102710000D46F540A14000D00121294308430106A0
:102720001B1B000ADB1D02D5002070BC7047DB05B7
:10273000181880180029F8DA401C4900F5D170BC3F
:1027400040084000704700000148012101807047A7
:10275000081500500C4881880088CA0708D0C207B5
:1027600006D0664A03235372894AD3895B1CD381FE
:10277000890708D5C00506D5604802214172844802
:102780008189491C8181704722200050F8B5584F3B
:102790000820388005252C0760898007554E22D0F7
:1027A000A08A400701D502F0BDFF218C80200143A3
:1027B0002184FF21718004213180218830220A4345
:1027C0002280218803220A4322804B49F288B38861
:1027D0001204D2188A42F9D335804849098B6180A6
:1027E000218C8143218438894007FCD42088302102
:1027F0008843208022880320824322800022009088
:1028000001231A403E4F3A702A064CD06D1E328882
:10281000022717439F43378004227280378817436B
:10282000378022880A43228022880243228032880D
:10283000520701D500BFFAE722888A432280228806
:1028400082432280F288B7881204D2192D481218C8
:10285000042A11D90022294842830779002F02D087
:10286000192217012548026A921CBA4200D33A463F
:1028700002621A460098C3E72048418B491C4183F5
:1028800089B2142900980ED300211C4A5183117A71
:10289000002900D01321126A521E8A4200D80A462B
:1028A0001648026200986189890706D061898143D0
:1028B0006181608C012188436084208980210143EB
:1028C0002181208A042188432082A08A8007FCD5A8
:1028D0003FF755FD0948406A0B4908600B480168FD
:1028E000490700D500BE01684907FCD5F8BDC046C0
:1028F0000033005000160050E9030000C84DFD07EA
:102900004869FC0761F8FFFF080200401000004022
:10291000FEB504461E4DA878401CA8700020029009
:10292000272C33D81B4E1C48706000200190B060EB
:1029300030680421014331600A2120465BF73CFBEB
:10294000810016A252580921C94341430819C0B257
:10295000EFF31087012484F3108821468140C9B227
:102960001046FDF707FE02903068A0433060002F4C
:1029700002D084F3108802E0019880F31088029955
:102980000548401A68614A424A416A70FEBDC04625
:102990008C68FC0710E000E0FFFFFF0000300050F3
:1029A00020300050403000508030005080B50A2068
:1029B00000F05AF880BD80B50B2000F055F880BDBE
:1029C00080B50C2000F050F880BD80B50D2000F0DF
:1029D0004BF880BD80B50E2000F046F880BD0000A9
:1029E000F8B50124032801D0054600E004258C40F9
:1029F0006D01054E069F002F01D0AC5301E0751903
:102A00006C8000F025F8F8BD02300050012800D19C
:102A10000831CBB29A4001219940064B002802D0E0
:102A20004000C01800E0981C03888B4313430380C8
:102A30007047C0466E300050032800D1042040018A
:102A4000024A825ACA4001201040704700300050AC
:102A50001A43032800D10420400149000818014905
:102A6000425270470630005070B5C0B203460A3B70
:102A700001210A469A4093B20A4C1C195C40660830
:102A8000094B1C880025360402D06D1C760CFAE731
:102A90009443AAB20D46954025431D80814040488D
:102AA000016070BDFFFF01000E14005014490A8838
:102AB000802313430B800368124A136043685360FA
:102AC00083689360C368D36003691361436953618A
:102AD00083699361C369D3611062344803685362A8
:102AE000436893628368D36243691363C368536323
:102AF000006990634888800600D4FEE700BE7047F6
:102B0000120000500000FD070248008824481021F0
:102B1000016070472C13005020490A890423134395
:102B20000B810A89022313430B810A884023134334
:102B30000B801B4A012313601A4A082313804A8919
:102B4000802313434B810368174A13604368536023
:102B500083689360C368D3600369136143695361F9
:102B600083699361C369D36110621048036853623B
:102B7000436893628368D36243691363C368536392
:102B8000006990638889800600D4FEE700BE48890A
:102B9000074A10408018001D488170470800005007
:102BA00080E200E0003300505000FD0728ED00E017
:102BB000FC7F000070477047094A9042014600D3ED
:102BC0001146401EFF2801D2012001020548018064
:102BD0000548002803D000BF00BF401EF9E770473A
:102BE000FF07000002000050E20D000070470000E7
:102BF00010B50F4CA1880F200840022806D00428E9
:102C00000BD00C280CD00128F4D110E02088022130
:102C1000884320802088802106E003F045F9E9E719
:102C200003F042F92088012188432080E2E710BDAB
:102C300004110050052000070188302291430180D3
:102C400001880322914301800421415E002906D5B9
:102C50000E490A88520702D50A88D2070DD180880A
:102C6000C00609D50A480188090605D501218180D9
:102C70000188802291430180704708880222024324
:102C80000A800888012290430880704700020050A3
:102C900000010050D648018802220A4302800549FB
:102CA000491C02D202889207FAD40021018140898E
:102CB0007047C0465F79FEFFFEB505461448029096
:102CC00002AC204600F028F81420FFF767F907202F
:102CD0008601002D00D08036C54F38880D49084048
:102CE00080193880FFF7D6FF01900220FFF756F9D0
:102CF0000025A570204600F00FF8388805490840E7
:102D000080193880FFF7C6FF3D8001994018FEBD4D
:102D1000010001013FFCFFFF10B5B549164A0A80CA
:102D200000224A80154A40231360BFF34F8FBFF340
:102D30006F8F00281ED00A88114B13400278D202F0
:102D40001A430A800F4A134640330C881C404378CC
:102D50009B0123430B800B881340827892021A4315
:102D60000A8009224A804A8802239A43C078400098
:102D70001043488010BDC0460140000080E100E0E3
:102D8000FFF70000FFFBFFFFB0B50C460025202D2C
:102D900004D03FF7F0FD60556D1CF8E70020B0BD92
:102DA000074814214180018803220A4302800188D8
:102DB00004220A430280DD48012101707047C046A9
:102DC0000016005080B50D480078C00708D10520D6
:102DD00059F7A3F800280FD12A200A49085C04E01B
:102DE0000748417D012907D1007D41424141C21E72
:102DF00050425041084380BD002080BDF976FD0758
:102E0000507DFD07F87CFD0770470000F0B593B0DA
:102E10005821394C605C002866D1019137A003A984
:102E20000A46274678C878C2384608300A46103223
:102E30000346F0CBF0C20A46203278C878C22E4C46
:102E400020680025401C206062686A41626010951D
:102E50000F95119012921834402220465BF726F904
:102E60000A2D33D00295002120292CD02748425C1E
:102E70009300E55847187A789200A658AD19E550A6
:102E8000FE78B600A05968401025E841A051BD78F1
:102E9000AD00675938186051A75847401420C74102
:102EA000A750E058C019E050A35943401820C3412F
:102EB000A3516059C0186051A35843401920C34121
:102EC000A350091DD0E7029D6D1CC9E700200A4CE4
:102ED000402807D003A9095822189369591891610D
:102EE000001DF5E710200199401E6054C0B280001B
:102EF0002018806913B0F0BD5069FC0765787061D7
:102F00006E642031362D62797465206BF461FC07A4
:102F10005821044A0023535400BA13605360906050
:102F20007047C0465069FC07F0B585B019460127C7
:102F3000FC02601C2D4A022358F73AFE04902C4DE7
:102F4000288820432880B8032988014329802888BD
:102F5000384328801420FFF721F87802A8800390D6
:102F6000E8803803298801432980BC022888A043CF
:102F70002880FFF78FFE2988029421432980F94396
:102F800041430320400201900E18B0B2870A1A4C48
:102F9000FFF780FE002F00D000BE164F791CAA88D4
:102FA0000A403243AA8044430198201882B2029B0F
:102FB0009A4200D300BEEA880A400243EA80288889
:102FC0003840288028880D49014029800C48008815
:102FD00003990840411E8841FFF76EFE049908805E
:102FE00008464BF795FD002005B0F0BD1AFE000025
:102FF00000150050FFFB0000FEFF0000FFEF000087
:103000002A00005010B51946EB48044A0024234614
:1030100058F7CEFD4BF77CFD204610BD07FE0000A3
:10302000FEB51C460F46E448224A0223214658F7C3
:10303000BFFD0446FE78BD7879783F78032F03D82A
:10304000DF48C05D884201D2002000E00120032D4E
:10305000029109D8DA494A5D0121B2420A4600D3F9
:1030600000224840104300E00120208020464BF71A
:103070004FFD208800281BD10F48FEF78FFF0196D7
:103080002A4E317BF07A0024009422462346FFF733
:10309000A7FCB17B707B009422462346FFF7A0FC7F
:1030A000384602992A46019B02F07AFF02F026FE7A
:1030B0000020FEBD09FE0000E2040000B0B51D4680
:1030C0000C467F204202BC480423294658F770FD75
:1030D00021785F2903D0332901D103490988016090
:1030E0004BF716FD0020B0BD0200005010B5194688
:1030F000ED480D4A082358F75BFD0446ED488079FA
:1031000002280ED102F050FE0848016D2180C16DE9
:103110006180816DA1805030008AE08020464BF7AD
:10312000F7FC002010BDC0460DFE0000C84DFD0795
:1031300070B51946DC48134A01252B4658F738FD6F
:103140000446114E70887580308802210143A943DE
:1031500031803088042101433180002530884007C8
:1031600006D5632D04D86420FEF718FF6D1CF5E723
:103170003088400300B2C00B207020464BF7C8FCDB
:10318000002070BD16FE00000016005070B51946F4
:10319000E8480C4A422358F70BFD04460E250570FB
:1031A000801C094E31462A465AF780FF657020463A
:1031B000223031462A465AF779FF20464BF7A8FCC1
:1031C000002070BD08FE00003068FC0770B51C468A
:1031D0000D46FC48114A0123214658F7E9FC0446F4
:1031E0002E78F5B20A2128465AF7E6FE0146FF205E
:1031F000272D0CD80922D2434A439319CAB2AC49AD
:103200008D5CD9B28D4202D31046FFF715FC2070B9
:1032100020464BF77DFC002070BDC04613FE000029
:10322000F0B587B00C46E748644A012519462B469D
:1032300058F7BEFC04902778FEB20A2130465AF7B0
:10324000BBFE0921C9434143C9196279059222791C
:103250000292E2780692A778272E2A4608D8C2B2B0
:10326000934B9A5CCBB29A4201D3002200E0012238
:1032700064780023032C10D8A40002A636591C46FB
:103280000393B746B932FC079532FC07A732FC0717
:10329000B132FC070124240207E00122520203920A
:1032A00000242A4608E0012464020394002403E079
:1032B0000324240203942C460197012F2E4600D8A4
:1032C0001E46069F012F2F4600D81F46059B642BE4
:1032D0002B4601D827403B46002B2B4600D13346D6
:1032E000002B00D11546FF24002D5ED1C6B2CFB20F
:1032F0003046394601F0BCFA029800280FD00698F3
:10330000012820D0002850D12E4801890122914364
:1033100001810024009452023046394608E00698A4
:10332000401E414241410091002430463946039AF3
:103330002346FFF755FB019A501E8241304639461D
:10334000FFF764FB31E00024009403252A021723D1
:1033500030463946FFF744FB019A501E8241304601
:103360003946FFF753FB5548018808220A4302807B
:10337000018829430180134D28890421884328812D
:103380007D20C100029841430F485AF715FE401EA8
:10339000E880E888411C0598484364215AF70CFEF0
:1033A00028802889012101432981049804704BF762
:1033B000AFFB002007B0F0BD0108000012FE0000C6
:1033C0001462FC070834005080841E00F0B585B0FC
:1033D0001C460F46EE48354A01232146039358F711
:1033E000E7FB04903D78ECB20A2120465AF7E4FD51
:1033F00006460920C04370434519272C48D87878E1
:103400000290F4B2EFB22046394601F031FA284872
:10341000005DB84202983FD302283DD2254F3E724C
:103420007D72B872039D3D70387A797A00950324D5
:10343000260210233246FFF7D3FA387A797ABA7A1D
:10344000531E9A41FFF7E2FA1B480188A943018005
:103450001A498A8B802313438B830A8808231343DA
:103460000B800A8822430A8000210180FF2109067F
:10347000134A13688B43E90759181160E8364680F0
:1034800086801049C180018829430180049806E0A4
:10349000F0B2E9B201F0ECF9FF21049801704BF7AA
:1034A00037FB002005B0F0BD0108000017FE00004A
:1034B0001462FC078C68FC070034005004000050C4
:1034C0000CE400E0FFFF0000FEB51C460D46C848B6
:1034D000194AF223214658F76BFBAC781221002CD5
:1034E00022D03C2C20D82A88FF21C90455180190ED
:1034F000471D0094002C14D002AE04222846314609
:1035000002F0BAF8F81E02990170B81E71780170C5
:10351000781EB1780170F0783870641E2D1D3F1D43
:10352000E8E700210198009C447001704BF7F0FA25
:103530000020FEBD0108000004FE0000BCB51C46D2
:103540000D46AB48204A0723214658F731FB044675
:103550002878207000210191009103282DD8C046C1
:10356000784400794000874401050C13611C184819
:1035700002220AE06878A978090208180090134826
:1035800018E013489030611C062202F075F814E030
:103590006879A97909020818019028790006E97864
:1035A00009040818A97809024018697840180090A1
:1035B00006489030694602F06FF820464BF7A8FAAB
:1035C0000020BCBD0108000003FE000018FF000041
:1035D00018FFF807F0B585B01C460D4684481F4A11
:1035E0000223214658F7E4FA0195AE781221002E05
:1035F00027D03C2E2BD80090019807880024254620
:10360000B54220D23819019909198A7912064B79E5
:103610001B049A180B791B02D218CB78D21802928D
:103620008A7A12064B7A1B049A180B7A1B02D2185C
:10363000C9795118039102A902F02EF80834AD1C83
:10364000DEE7002603E001988678002100984670A6
:1036500001704BF75DFA002005B0F0BD05FE0000DB
:1036600010B5194662480A4A0124234658F7A0FAC1
:10367000002101704BF74CFA0648082101800648EA
:1036800044800521018001880906FCD1002010BD7D
:103690001DFE0000023300500031005070B50E4690
:1036A00053483C4A002519462B4658F781FA0446F0
:1036B0003078082866D8C0467844007940008744AE
:1036C0000430292D343853595C00354805800321D6
:1036D0000902C180018141818181C18101824182D0
:1036E000818230480580C180018141818181C18111
:1036F0000182284602F067F9284602F02FF9284691
:1037000002F004F9284602F051F9284602F011F9B6
:10371000284635E0B07802F0F9F833E0708802F01E
:1037200045F9708802F01AF92CE0B07802F04BF9F4
:1037300028E07688284602F0E1F8012002F0DEF861
:10374000154805607D21C9017143144A914200D397
:10375000114641608560052101600168C903FCD5FF
:10376000002002F0CBF80DE0708802F0E2F87088DB
:10377000002804D002F0ACF804E0B07800E00020AB
:1037800002F0E4F820464BF7C3F9002070BDC046B4
:10379000010800000AFE000010E000E0FFFFFF004B
:1037A0008030005040300050B0B51D460C461048E7
:1037B000104A0823294658F7FBF900214170227866
:1037C0000270032A10D861687A4412795200974433
:1037D00001030609096803E0A2680A6004E0098899
:1037E000416001E0A2680A804BF792F90020B0BD69
:1037F0000108000006FE0000F0B589B01C460D4629
:103800000127FE02701CE94A0223214658F7D0F92D
:1038100004462878012800D19AE0002800D0B2E0C0
:10382000A878032800D9ACE0E14A135CE9788B4220
:1038300000D2A6E02B79032B00D9A2E0D35C089735
:103840006F79BB4200D29CE0AB79032B00D998E0A2
:10385000D35CEF79BB4200D293E02B7A032B00D9E3
:103860008FE0D35C6F7ABB4200D28AE06B7B002B87
:1038700008D0AB7B032B00D983E0D25CEB7B9A4270
:1038800000D27EE0CB4FB84769792879B847E9790B
:10389000A879B847697A287AB847687B002803D0A6
:1038A000E97BA87B00F0E4FFE8780023252819468F
:1038B00006D88000C04908580028194600D0018861
:1038C0000491687925281946089F06D88000BA49CE
:1038D00008580028194600D001880391E879252866
:1038E000194606D88000B44908580028194600D067
:1038F00001880291687A25281A4606D88100AE4AC6
:10390000515800291A4600D00A88E97B25290192DE
:1039100005D88900A84A5158002900D00B88069381
:10392000A6490870A649C870287AA64AD07188703E
:1039300002F072FAEFF3108087F31088A24A118820
:1039400031431180002800D140E187F3108840E125
:103950002879032815D8F54A135C69798B4210D36E
:10396000AB78032B0DD8D35CEE78B34209D36B7BD5
:10397000002B10D0AB7B032B03D8D25CEB7B9A429D
:1039800009D2FF20208002F0A7F920464BF7C0F8AB
:10399000002009B0F0BD00F06BFFE978A87800F0D6
:1039A00067FF687B002803D0E97BA87B00F060FFFD
:1039B000E878002325281A4606D88000DC490858F4
:1039C00000281A4600D0028868792528069307D86F
:1039D0008000D74908580028069301D00088069037
:1039E000A87B2528029205D88000D14908580028D4
:1039F00000D00388297BCF484182EFF3108187F301
:103A00001088CD480288202607963243028000297C
:103A1000039302D087F3108802E0002181F310881D
:103A2000C64E3188B94331803188C907FCD1C44BB7
:103A3000002004901886482199824F21198308217B
:103A400099831721198419880622914319801F210F
:103A5000C9439A8F0A409A871A8F0A401A87B54835
:103A6000418A1888384318801888402202431A80F7
:103A70001888079A104318801A88102005908243EE
:103A80001A803F22920238469F8817400F439F803A
:103A900031880890014331803188C907FCD0A94999
:103AA0000A68802717437F2297430F60A64905982D
:103AB0000860A97804200329024600D00A46510173
:103AC000EA7852005218A149092757522A79032A45
:103AD00000D0104640016A79520010180A22425262
:103AE000687B0028089F06D0E97BA87B049B009395
:103AF0007A02FEF775FF687801280DD1E87AA97A75
:103B0000B2885207FCD58E4A11821082B0884007D5
:103B1000FCD5B0888006FCD402F09CF9A87AB18864
:103B20004907FCD586490882B0884007FCD5380291
:103B30000882B0898006FCD0088AC0B22080687BE9
:103B4000002808D04B208000FEF728FAE97BA87BEC
:103B5000FEF772FF2080E878252806D88000744997
:103B60000858002801D0029901806879252806D8D4
:103B700080006F490858002801D006990180A87B71
:103B8000252806D880006A490858002801D00399E2
:103B900001803088B84330803088C007FCD1664946
:103BA0000888079A90430880EDE6C04611FE0000A1
:103BB0001462FC077148FC075C61FC078468FC0721
:103BC000C84DFD078C68FC0704000050002080F3FE
:103BD00010885F4900260E800889032290430881DF
:103BE000CF80088838430880E978A87800961202C8
:103BF00007920723574FB84769792879009605231C
:103C00003246544FB847E979A879059600960623BD
:103C1000079A504EB047697A287A089A009208238A
:103C2000079A089F4B4EB047687B002806D0E97B77
:103C3000A87B059B00937A02FEF7D2FE68780128E4
:103C40000CD1E87A0790AE7A02F0F4F8304602F030
:103C5000C5F8079802F0C2F802F0DEF802F0FAF8B0
:103C6000AE7A02F0E7F88020304302F0B7F8002087
:103C7000079002F0B3F8064602F0CEF8F0B22080CA
:103C8000687B002808D04B208000FEF787F9E97B8D
:103C9000A87BFEF7D1FE2080E878252806D8800092
:103CA00023490858002801D0049901806879252803
:103CB000069A06D880001E490858002801D00399AA
:103CC0000180E879252806D880001949085800287D
:103CD00001D002990180687A252806D8800014490D
:103CE0000858002801D001990180A87B252805D813
:103CF00080000F490858002800D00280EFF310859B
:103D000087F3108812490888B84308800A4A108847
:103D100011490140118002F07FF8002D02D087F395
:103D2000108830E6079880F310882CE61462FC07B0
:103D30005C61FC078C68FC07040000506C130050A9
:103D40000013005004E400E000E100E00630005001
:103D500000120050E129FC07FFF70000F8B50E46FD
:103D60000125EF02781C294A19462B4657F720FFF8
:103D7000044600202070307800281DD001283ED154
:103D80002348C1892943C1812903028BD2000A40FB
:103D9000C189624B0B409918C181C18928220A430D
:103DA00050218A43C281C18906220A43C281018807
:103DB00008220A43028024E01548418AB0220A43BF
:103DC00040218A434282418A124A0A404282418A01
:103DD0000F2291434182A902428A0A434282418AC8
:103DE000394341822903428A0A43428201880822D8
:103DF00091430180FEF7D4FF01F0EEFD01E0FF20CA
:103E0000207020464AF784FE0020F8BD18FE00000E
:103E100012000050FFFC0000F8B50E463848394D3E
:103E2000012419462A46234657F7C2FE0027077089
:103E30004AF76EFE49F7E4FA3078022808D00128E4
:103E400040D000285AD13748C7703948077055E02C
:103E500002F032F82C48082101802C48077072B615
:103E60002B48028904210A430281028880239A4355
:103E700002800288402313430380264A13680B43C1
:103E800013604189202291434181018902220A4322
:103E900002810189204A0A400281FE35418B294076
:103EA0004183018B1D4A0A4002830189A14301819C
:103EB0001B480780F843C149086000BF00BF00BF2E
:103EC00030BF1BE001F0F8FF10480770B078717840
:103ED0000A46024303D11348022101710AE0114A44
:103EE0001471114A4A4319218901414388180F4925
:103EF000096848620B48C4700D4804700020F8BD82
:103F00000208000001FE000000330050084BFD07CE
:103F10000800005010ED00E0FFF00000FFEF00008F
:103F2000000100505877FD07007701005876FD0723
:103F3000B477FD07BCB51C460D469A480E4A0023CF
:103F4000214657F735FE044628789D4D2871A879FB
:103F500000280BD15C48503012215AF7C0F829795B
:103F600001A8017046F7D3F80220A87120464AF74D
:103F7000CFFD0020BCBDC0460CFE0000B0B5194608
:103F80008848094A0024234657F712FE05468C4804
:103F90008079052806D101F007FF234804602846F0
:103FA0004AF7B6FD0020B0BD10FE00007CB51C46EF
:103FB0000D467C481B4A0023214657F7F9FD04466D
:103FC00028787F4E30716878F070B079002823D15E
:103FD00001A82521417031790170F178817046F78F
:103FE0001CF80120C20310490B6813430B608203C5
:103FF0000B6893430B6002030B6893430B600A68E2
:104000000A4B13400B600521B1710002674908603B
:10401000BFF34F8FBFF36F8F20464AF779FD002023
:104020007CBDC0460FFE0000E000004000FEFFFF28
:1040300080B50878624A1071487850718878D070DD
:1040400008790002C9784018108201F08FFE002024
:1040500080BDC046B0B50C461548164A0125194624
:104060002B4657F7A5FD2178052900D800250570B6
:104070004AF74EFD49F7C4F97D20FDF78FFF207800
:10408000052804D80CA1095C0DA2105C01E00B21ED
:1040900008200D4A1174D07303223EF743FB00241D
:1040A00020463EF79BFB3EF761FB2046B0BDC04675
:1040B0000108000015FE00000301060B00010000CE
:1040C00068341108011A0000C84DFD0770B50C4690
:1040D000B748084A642519462B4657F769FD064636
:1040E00021462A4659F7E2FF30464AF711FD0020E3
:1040F00070BDC04614FE0000B0B50C46AC482A4A5C
:10410000002519462B4657F753FD2178542910D026
:10411000522927D04F2942D125490D800D842549A8
:1041200003220A8001210902234A1160234A1160F7
:1041300031E001210B021D4A1360BFF34F8FBFF323
:104140006F8F1B4A15881D4315801388FF25AB43CD
:1041500064781B1913808903164B1980042111847C
:10416000022116E001210B02104A1360BFF34F8FAA
:10417000BFF36F8F0E4A15881D4315801388FF25E6
:10418000AB4364781B1913808B030A4C2380118482
:104190000821118406250A498D714AF7B9FC0020CF
:1041A000B0BDC046010800000EFE000080E100E046
:1041B00000200050042C005000E100E080E200E00C
:1041C0008C68FC07F0B58FB00D467948794A022714
:1041D00019463B4657F7ECFC06462978072937D89D
:1041E000A87802026C78E0B21218C04679440979C6
:1041F00049008F442F34373F48520303FE28089666
:10420000059752D1069500226B4811460A920A235F
:104210004B430B91042703294FD8455CD1B2A942E7
:104220004FD89C18E6B2252E03D8B600634FBE596E
:1042300000E0002636880F273740012F46D0A942DC
:1042400002D0521C0B99E5E70B99491C0A9ADEE74C
:1042500000270FE25A480088308000271CE05848A9
:10426000028017E0574801210160032000025649EF
:1042700048810FE05248018893B25B189CB29C427F
:1042800008D1891805E04E48018893B2994201D3BC
:10429000891A01800027378018E24A480027076002
:1042A0000120400248494881F5E70A2159F784FE78
:1042B0000921C94341430A190AE00A9A099207925F
:1042C00002E0002009900790069DCFE1069D0B9823
:1042D000E3B204270021252B0B9077D89C003749A7
:1042E0000959002975D002930E4609880791C0B27A
:1042F0000A92D1B200F0BCFA012738020996049064
:104300003080029E252E00D932E101A00059874657
:10431000A943FC07DB43FC07E343FC07EB43FC0733
:10432000F343FC07FB43FC070344FC070B44FC0777
:104330007145FC077145FC071344FC072544FC0745
:104340003744FC074944FC075B44FC076D44FC0709
:104350007145FC077145FC077145FC077145FC0779
:104360007F44FC078744FC078F44FC079744FC0705
:104370009F44FC07A744FC07AF44FC07B744FC0775
:10438000BF44FC07D144FC07E344FC07F544FC07A9
:104390000745FC071945FC072B45FC073D45FC0775
:1043A0004F45FC076145FC070320000206499BE0DE
:1043B0000108000002FE00001462FC075C61FC07BB
:1043C00002000050F0300050063000500991079173
:1043D0004CE100200990079048E103200002F649D3
:1043E0008BE003200002F44990E003200002F24930
:1043F00095E003200002F0499AE003200002FE4904
:104400009FE003200002FC49A4E003200002FA49D7
:10441000A9E003200002F8490A8C82430498024371
:104420000A84A5E003200002F3494A8C82430498E1
:1044300002434A849CE003200002EF498A8C8243B5
:10444000049802438A8493E003200002EA49CA8C5C
:10445000824304980243CA848AE003200002E649AA
:104460000A8D8243049802430A8581E003200002FA
:10447000E1494A8D8243049802434A8578E003204B
:104480000002DC4930E003200002DA4935E0032075
:104490000002D8493AE003200002D6493FE0032059
:1044A0000002D44944E003200002D24949E003203D
:1044B0000002D0494EE003200002CE4953E0032021
:1044C0000002CC490A8A8243049802430A824FE0E0
:1044D00003200002C7494A8A8243049802434A8261
:1044E00046E003200002C2490A888243049802433E
:1044F0000A803DE003200002BD494A8882430498B7
:1045000002434A8034E003200002B9498A8882438A
:10451000049802438A802BE003200002B449CA8831
:10452000824304980243CA8022E003200002B0497B
:104530000A898243049802430A8119E00320000299
:10454000AB494A898243049802434A8110E0032020
:104550000002A7498A898243049802438A8107E0BE
:1045600003200002A249CA89824304980243CA81F7
:104570002C20A34C582809D0A04909180A462C3AE7
:10458000002313604B602350001DF3E79D489B4CB4
:10459000A060A068FEF710FB3046FEF7B9F9E063B3
:1045A0009748407800285CD196490695E06B964D77
:1045B0005035A84221DDAF2080000090A0606160EE
:1045C000A068FEF7F9FA3046FEF7A2F9A063E06BA7
:1045D00021468B4C2063886B6063886BA8423CDD6E
:1045E000864A10463830019015463435104608305A
:1045F00001210B020395009920E0A16019208001A0
:10460000009060606068FEF7D7FA3046FEF780F9E8
:104610002064206C21467A4C2063C86B6063086C70
:10462000A8421ADA754A10464030039015464435C0
:10463000101D7D2109012F310195009B9360516070
:104640000068FEF7B9FA3046FEF762F92860019873
:104650000068206303980068606360780028069D06
:1046600059D00020FEF7A8FA059F0A9A089E3780C5
:104670002978079FFE20084006280A9226D10220AA
:1046800038431F210140032920D10797089606953A
:10469000614C26460B98C7B20A98C5B238462946DF
:1046A000FEF7CAF9002804D0761CF3D301E0641C9D
:1046B00005D238462946FEF7BFF90028F7D07D20FD
:1046C0000001FDF76BFC069D089E079F30464AF7E8
:1046D0001FFA2878FE210140062919D1022038430B
:1046E0001F210140032913D14C4E0B98C4B20A98E4
:1046F000C5B220462946FEF79FF9002803D1701E57
:1047000031040646F5D10998002801D009980780A0
:1047100000200FB0F0BD1F20C4433B4D38480019A6
:104720000390466DA81B5030FDF797FF05463448AF
:10473000006B801BFDF791FF01462846FDF74FFFF8
:104740002E490D19AE6A49680E90881BFDF785FF4A
:1047500001460E98FDF706FF0E900E98FDF788FFB4
:1047600030180499884200DC049828498842029E47
:1047700000D32648E862E86AFEF71EFA3046FEF7E4
:10478000C7F803998865886D241D1F4D04D02846FD
:104790004630896D8142C1DB0020194B9870596900
:1047A0002A46A832914201DCA94207DA0020FEF72E
:1047B00003FA069D59E7C04606300050144909889F
:1047C000996199694A1C069D00D14EE78A1C00D167
:1047D0004AE72A78072A08D100270D9788B20C905B
:1047E0000C480CA900F058FF3FE707463DE7C046DC
:1047F000863000504630005006300050E868FC0714
:104800008C68FC077E040000AC117A00FF070000F2
:104810000200005018FF0000E708C9FFB68C000036
:1048200070B511490A880888012420430880088847
:104830001E2398430880A5020C4845800525058065
:1048400005886D07FCD480880D8814262E430A2520
:10485000AE430E800D88A5430D801A400C889C4302
:10486000A2180A8070BDC0462200005000160050F9
:1048700001280BD1FE200140042907D104484188BA
:104880008906FCD401888022914301807047C0468C
:1048900012000050FEB51446002918D00546012725
:1048A000002B17D0CA182388002D18D0087828703C
:1048B0006E1C0220002B0FD002938B1C93420AD84F
:1048C0004B783370029B012B0ED8AE1C04E0002104
:1048D000084602E02E463846711B2180FEBD881C2A
:1048E000012690423046F7D88E1C48788006000E8C
:1048F000029031463018AE1C9042ECD8002D0CD0FE
:10490000E81801903046029F3A4659F7CFFBF0195C
:104910000199884203D8002002E0002001E0012034
:10492000400002997618D7E770B51346024600207A
:104930000E4C102808D0255A9D4201D00830F8E7C7
:1049400020184468002C0DD10020094C0546D82DB4
:104950000AD0665B9E4201D00835F8E764196468A6
:10496000002C01D01846A04770BDC0464068FC0727
:104970001862FC07FEB51446002905D00546012043
:10498000022B04D22E463FE0002088213DE0228801
:10499000AF18002D09D002970E784F786F702E70E7
:1049A000012A06D8AE1C02202EE0032B05D20226D7
:1049B0002AE0032B03D2AE1C26E08A7805E08A7831
:1049C000AA70EE1C029FBE42EDD80297CB1801934D
:1049D000C91C9206120E8B180093EE1C019B009FBF
:1049E0009F4211D8002D09D03046174659F75EFB7B
:1049F000F019029A904204D8002003E000201746E4
:104A000001E001204000F619711B2180FEBD00006D
:104A100070B5264C0020206005210D07698A4022D0
:104A200011436982698A9143698260611748A06273
:104A300001200004E06228888026304328803F203F
:104A4000FDF7ACFA20680721884320602888B0432E
:104A5000288070BD10B5154900220A6005200007A6
:104A6000438A402423434382438AA34343824A61C7
:104A7000064A8A6201221204CA62018880220A431D
:104A800002803F20FDF78AFA10BDC046204F101A61
:104A9000052000070088000600D400BE03480188F6
:104AA000490700D000BE0121016070470000F407F3
:104AB000F8B5254FBC68204600F048F8324EF16A40
:104AC0000022F2620D181549284659F775FA7861E7
:104AD00013494143491919200001002902D0411A04
:104AE000E13189B23961396808220A433A60B16A12
:104AF000002911D08C420FD90A4A1278002A0BD112
:104B00003279002A00D11046611A326A8918891D4B
:104B1000814200D301463162F8BDC04671020000F7
:104B20008FFDFFFF4869FC0780B506480021016042
:104B300001F0FEF80120C00703490A6882430A60B9
:104B400080BDC046AC76FD073000004080B502460F
:104B5000C00B09D00C48806B00210B4659F756FA60
:104B60008905800A401880BD0748806B4243900A3F
:104B700080BDC04680B50449096B4143034808180D
:104B8000034959F719FA80BDC84DFD0720A1070058
:104B900040420F0000B5A1B0E948082114910180FE
:104BA000E8480088C046C046E74B188807210F91A7
:104BB0008843188001201C900F252A02052426070F
:104BC000708D80050CD51046FF30198801406003B8
:104BD0000818188018884021014338208143198023
:104BE000189474881C988002002C179216951190C6
:104BF00001D104465A341C9D68020D90D3480483A9
:104C0000708C284370840D20FDF7C8F97089284303
:104C100002211B918843708170894006FCD5748005
:104C20007D20C0001D90FDF7B9F9708903210E9118
:104C30008843708170890006FCD5708C1C9988436C
:104C40007084C34A00241460708A40231843708221
:104C5000708A1393984370821A945461BD4890628D
:104C600008041290D062308880211591084330806A
:104C70003F200A90FDF792F9FFF70AFFB34A10466A
:104C80003C30B54909888180B4480068D063B44895
:104C90000188918240885082FFF7BAFEB148B2493C
:104CA00059F71DFA18984102B04859F718FAFDF75C
:104CB0003CF8AF48AF492A2259F7F8F94B20820057
:104CC000AD48AE4959F7F2F91720C043ACA400280B
:104CD0000AD0A9490A1851239B00D2182318183367
:104CE000A2CBA2C20C30F2E71C9804021094443408
:104CF000A94A1B2100290AD01E919F490B1915466C
:104D000083CD83C31E99491E0C340C32F2E73A203E
:104D1000974948859848C862A0481C9D0570A048DE
:104D2000A0490160A048A1490160A149A1480860CB
:104D3000A1480A210170A1481A990170A0483221A6
:104D40000B9101709F48189901609F4805609F482A
:104D500001609F48062101609E480F9901609E48AE
:104D6000149C04609D487F4901601098801D9C49F7
:104D700008609C49086000F0D5FC308930218843E8
:104D800030813089159A10433081308928431B992E
:104D900088433081308920433081308C1043308407
:104DA000708AA04370823089139908433081308A19
:104DB000042188433082B08A8007FCD51991B08CD9
:104DC000B02101431398C3431940B184B08C864984
:104DD0000140B184B08C16998843B084B08C11998D
:104DE0000843B0841C9AD102B08C16910843B08459
:104DF0001003B18C0143B184708A14998843708286
:104E0000308C90433084308C1599884330843089BD
:104E10000C9318403081708D0D9908424A4801D09A
:104E200018994180714837301C9A930719680140DE
:104E30001E9319600A9840026D4B19688143500314
:104E4000091819606B494A1C19680A9211431960C4
:104E5000694A118809918921318118803088159912
:104E60000843308030880E998843308010881B9921
:104E70000843108000F02CFE3DF7A2FD3DF7A6FD93
:104E800064201890FDF78AF85C4A108808905088D2
:104E900007905B4B98880690D8880590D08804903E
:104EA000508B0390574800880290188801901A9CF4
:104EB000148054805448988010990846D130D88086
:104EC000D480C32018805148821E1498009210800C
:104ED00008467C30FDF762F84D484E494E4A012C99
:104EE00000D99BE011944180FF2282801C9A0280AD
:104EF000C288D207FCD100273A463B469BB21D9D93
:104F00001535AB4218D2CD5CCC18A4786C401C9DF2
:104F10002C40D5B2AC40FFB22743521CD4B2082C6F
:104F200008D11A9DAAB23C4CA21817776D1C1A958D
:104F300000273A461033E1E7119C641CCEE7C046D7
:104F4000003300504200005082000050C84DFD0761
:104F50000000F407204F101AACFFF807A8FFF8076D
:104F600010FEF807005CFD07781600000076FD07CC
:104F7000FC76FD0758ECF1070C4BFD0714EBF1072D
:104F800000FD07001968FC071568FC0701FD070014
:104F90001968FC070068FC074C63FC07F976FD07FD
:104FA0005076FD07F062FC075476FD077466FC0737
:104FB0005876FD07B865FC07B476FD07B576FD07A2
:104FC000DD76FD075C76FD076076FD076476FD07FC
:104FD0006876FD076C76FD077076FD074C76FD0759
:104FE0004876FD074476FD07FFFC0000C8FEFFFF82
:104FF00000020040FFFF1F00F0300050002400506E
:1050000062280050022600508080000022200050BC
:10501000003500501001FC078C68FC07DB4809993B
:10502000018000211A9100980180D94808990180D7
:1050300007994180D749069B8B80059BCB80049BB9
:10504000C380039B4383D448029B0380019808805C
:10505000308815998843308010461C30CF490A4665
:105060000832B8C8B8C258201A9C0C540C604C6066
:10507000CB4800683DF71EF9CA4D2C71EC701E99A3
:105080000868109F38430860FDF78AFE00F0A4FC12
:105090002146C54A94711B9CD47011712520507112
:1050A0000B981082E970C1480170D181C04850301E
:1050B00012210B9159F713F8BE4908680A9A104358
:1050C0000860BD4A108819990843A04310801088D1
:1050D0001C9C2043108010883821014311801088C7
:1050E0000C9D284010800E984002118801431180C9
:1050F0001088384310800F98C00211880143118036
:105100001088AE4901401180AD480760AD48016884
:10511000FF2291430160AC480760AC4FFFF704FDEC
:10512000A3490C710C721A98F0824F200862708C9F
:10513000A0210143294071840F20FCF731FEE003D8
:105140001D909B4CA248A3490818A3494018800809
:10515000401E1190A14D3089000675D51E98006B38
:105160001D99084270D18F480088C0076CD157F74D
:1051700034F9607A042834D100F02EFC1A981F907C
:105180001FA8042147F736FF00282AD01C98F249AF
:10519000086008680028FCD11E98C069E16988424F
:1051A00001D21A99E1616278012A0CD1E0611A9862
:1051B0006070FFF735FBE082FCF7C8FD002810D1D6
:1051C0001C9860700DE0411AEF4A914209D9E061E4
:1051D000FFF726FBE28A111A00D2811A89B2182938
:1051E000E9D2EB48806DE44A9179012906D1002883
:1051F00004D11A98907100F0B9FDDF4AD089118A64
:1052000088420ED3907901280BD11A99D181169832
:10521000401CDC4A0B4656F7CBFC49F779FC00F002
:10522000C3FD57F7DAF81B98C043D5490978C91E62
:10523000814203D81898D74908608CE7D54A10688E
:10524000411E1160002886DCFDF7BCFD002882D0DD
:1052500072B6CA480079022802D03868406A00E075
:10526000002020902889C00700D073E156F76FFA1C
:10527000002800D16EE1C148C078002857D0B08A1C
:10528000C00700D0FCE0BD48008800284FD1C248CC
:10529000806A002802D03868406A209000F048FDFB
:1052A000B648817820A856F75DFF00283FD01E98A9
:1052B000006940063BD4B148817820A847F79AFEA0
:1052C000002834D049F73FFE002800D142E148F7DA
:1052D0009BFA002800D13DE1A848817820A856F724
:1052E00041FF00281E9816D00069400613D4A34839
:1052F000817820A847F77EFE1E9900280BD000BEBB
:10530000209A002A1AD0086A98494018DA2816D834
:10531000521E209213E093480078C00702D13DF757
:105320000DFA04E000203DF759FA3DF71FFAFDF7AA
:1053300049FD002800D10DE130BF0BE10022708D46
:105340000D99084201D000BE209A0E928E489E30E0
:10535000256B684391494018914958F72DFE0F90ED
:10536000904845438D4828188D4958F725FE0F99D8
:10537000081A1E9AD16B8C4B19400143D1638048A7
:10538000007802282CD00B982BE0C046F03000505B
:105390000024005062280050022600505069FC078B
:1053A0004C76FD075877FD078C68FC07B477FD073E
:1053B000C84DFD070002004022200050FFBF000042
:1053C00000E100E008E400E080E200E05876FD073C
:1053D000786300001005FC07030004F80033005058
:1053E00023205E4D0F9940180C908002D16B6F4BBB
:1053F00019400143D163D06B5E4908400F994905BC
:105400004018D06366480E9A824200D300BEA06C5A
:10541000E16C002358F7FAFD0903000D40180C9ABF
:10542000911C814200D0421EA26254480179481E5C
:105430008141104643F7B3FD5D48C06A80471E991D
:105440001D9A086B1042FCD01099494A1068084216
:10545000FCD010681599884310606889452803D8E6
:1054600046216981081AE0623CF75DFF404988687F
:10547000606208680006FCD5308915998843308140
:105480003F480078318A199B194331823F4A11689D
:1054900019431160718A202291437182318A1B9ACB
:1054A00011433182718A012803D110208143718216
:1054B00025E0102529437182708A184370820020EC
:1054C000974C2060718A139A11437182718A9143BB
:1054D000718260612248A0621298E0623088159F54
:1054E000384330803F20FCF759FD708A28431B4D1C
:1054F0007082119860613088B8431B4F30801799D3
:10550000308A084330821F48F430718C0140718426
:10551000708C1C9C204370840D20FCF73FFD70892B
:1055200020431B998843708170894006FCD5002078
:105530007080B18A8906AB4C199A01D514992980DB
:1055400030BF0F4908700D49C870B08A0F4908680C
:105550009043086062B6FEE5FC0000400033005056
:10556000204F101AF976FD075876FD07C8FEFFFF99
:1055700000020040FFFF1F008C68FC075877FD0702
:10558000B477FD070BFE00007F0C000010ED00E07B
:105590006479FD078068FC07787EFD0720A107007D
:1055A00040420F00540B000000FCFFFFFF03E0FF30
:1055B000B47FFD0701207047F8B515460C4601463B
:1055C0004039042913D8880001A108588746C046ED
:1055D0001156FC07E555FC072756FC073156FC071A
:1055E0003B56FC07207800282FD0082029E0072808
:1055F0000ED001282CD17B4F3C371B49062638465C
:10560000324658F777FD002824D02846394625E051
:105610002078022819D37D2080002870000A687045
:10562000002002261EE0207800280ED0C42008E0CA
:105630002078002809D0142003E02078002804D026
:105640000A202870002001260CE00420002609E032
:105650000120F8BD0548811C06262846324658F729
:1056600025FD00202670F8BD90E1F107D064FC070D
:10567000002070470120704770B514460D4606465D
:10568000FFF7E8F9FFF704FA28463146224658F7B3
:105690000DFDFFF7BDF970BDF8B50C4605460520B8
:1056A0000007009001201E4FC00732D0FFF7D2F94B
:1056B00000980088000600D400BE3888400700D05B
:1056C00000BE280C00D000BEE80840003861012070
:1056D0007861396804220A4303218A433A60002131
:1056E00002290BD00F221202BB681340C202934260
:1056F000F8D08A00A258BA61491CF1E7B8684006A0
:10570000FCD5BE68FFF784F9B00702D40835002045
:10571000CAE7009A1088802188431080F8BDC046EF
:105720000000F40770B505200507288A0221884388
:105730002882A88A0007FCD501200002698C014359
:1057400069841F481F49902258F7B0FC1E481F4922
:10575000482258F7ABFCFCF7E1FA1D481D490160EF
:10576000288830218843288028880324A043288063
:10577000194808220280A88880210843A880688AE6
:1057800008436882154807210180154E0020B0802B
:10579000308083203081E04BD87B002801D0197CF9
:1057A00003E00B211974DA73104622463CF7BAFF66
:1057B000348100F091FA688A20210143698270BD2A
:1057C000200008402865FC07C000FC07E064FC07D7
:1057D00000000840FFFF1300003300508810005005
:1057E00004100050C84DFD0703480188034A1140CA
:1057F0008918091D0180704712000050FC7F0000CD
:105800004020704770477047B0B529491431C3B282
:105810002124FF22641E06D00D8818319D42F8D144
:105820001639098800E0114690430843B0BDC046D0
:10583000B0B51F491631C3B22124FF22641E06D021
:105840000D8818319D42F8D11A39098800E01146B7
:1058500090430843B0BDC046B0B5154C002812D0E7
:105860000E342025002D21D000202080FF21218111
:10587000A11F086021460A390860A07956F760FB2D
:105880006D1E1834EEE71025302D0FD0FF20E0827A
:10589000A582002020606060A060E0602061E8B226
:1058A000214656F7D6FA6D1C1834EDE7B0BDC04658
:1058B0000848FD072020C1433A4A13880B40138053
:1058C0001388034313801088084010807047C04637
:1058D000F8B509240025074E20462946B047064F53
:1058E000B84701212046B047B84720462946B0476F
:1058F000B847F8BD7959FC07B558FC0780B5014693
:105900000A2000F039F8FFF7D5FF80BD10B5044636
:10591000002803D0601E012181408CB2E1B2042036
:1059200000F02AF8210A052000F026F8FFF7C2FF50
:1059300010BD10B50446C1B2062000F01DF8210AC2
:10594000072000F019F8FFF7B5FF10BD80B501463C
:105950000B2000F011F8FFF7ADFF80BD10B5044635
:10596000C1B2022000F008F8210A032000F004F878
:10597000FFF7A0FF10BD0000B0B51024E243094BB3
:105980001D8815401D80084D29800F2108401D8865
:105990008D432818188018882043188018881040D4
:1059A0001880B0BD403000508030005010B5044623
:1059B000C1B20020FFF7E0FF210A0120FFF7DCFF62
:1059C000FFF778FF10BD80B5012101400820FFF7E7
:1059D000D3FFFFF76FFF80BDB0B5E24D28780128F7
:1059E0001BD10E4801884907FCD4C1888088002358
:1059F0002B7009040C183520800630212246FCF754
:105A000081FDA864E9640648214658F7D5FA286361
:105A1000A001142158F7D0FAA863B0BD00160050B9
:105A200000D0121370470000F0B58BB01F2109049D
:105A30001B4A13688B4301214C041B191360CB04D0
:105A4000184A14689C431460184C194D194E46614D
:105A5000194E1A4F1A4BC36106624462124B83629D
:105A6000C562184B07604360880411688143116068
:105A70000020282803D001A90854401CF9E79248C7
:105A80000068403001A9282258F710FB00F020F8E8
:105A9000FEF7C6FEED49C882FCF758F90BB0F0BD21
:105AA0007400004000020040CD5AFC07C95AFC07B0
:105AB0006D5BFC077D5BFC07B52BFC07615BFC079E
:105AC000635BFC07255AFC07002070477047000005
:105AD0000B480C4901600C480C4901800C48418876
:105AE00002220A4304218A4342800A4963220A802F
:105AF000D6494A8A094B1A80898A01807047C04674
:105B0000800000404C0554076A280050EBE6000076
:105B100000260050062C0050C84DFD0710280050EC
:105B200080B51F20000401218A07536F8343480476
:105B300018185067106807239843106007480288B8
:105B40000A4302218A430280018808220A43028014
:105B5000FFF7BEFF0F20FCF723F980BD08000050BF
:105B6000704740087038C0B27047000002480168B2
:105B700007220A430260704730000040002070474F
:105B8000F8B501242002009066024B4F38460838D1
:105B90000568002D00D18DE0280605D580203860ED
:105BA00047F7D1F8FDF7FCF8A80709D502203860BF
:105BB00043480068B021405C00F098F943F789F849
:105BC000280719D5082038603E4800686821415AE6
:105BD00052224A433C4909688918DC22895A090A39
:105BE0006830407D081AC0B200F080F9002043F709
:105BF00030F80420F34948720098054204D0009818
:105C00003860204643F725F8354202D03E6047F71A
:105C100003F9680603D54020386043F715F8E80615
:105C200003D51020386041F74AFC68070ED4E80716
:105C300006D03C6056F750FC47F785F8E1484472BF
:105C4000A806A3D52020386000BE9FE70420386056
:105C50001A490888A04308801C480078C00702D170
:105C60003CF76CFD04E000203CF7B8FD3CF77EFDFE
:105C700056F716FC3CF720FDFDF792F80020D149BD
:105C80004872134800888005D1D5CE48807A002814
:105C9000CDD1CC4884720F480088C007C7D12046B8
:105CA000FDF70AF831462C318842C0D90220C54997
:105CB0008872BCE7F8BDC0461800004008330050A9
:105CC0005876FD073879FD074C76FD07F976FD0714
:105CD0002A0000500015005010B5074C207800280D
:105CE00007D1042100200523024600F059F90120C4
:105CF000207000F003F810BD084BFD07BCB5B14D96
:105D0000A97B687B0024009401232246FCF768FEEF
:105D1000297BE87A6A7B904203D1AA7B914200D129
:105D2000BCBD0094032212020223FCF759FEBCBD45
:105D300080B5A448006A573801D8002006E081B237
:105D4000C90B401800B241103D204843C10700D0A4
:105D50001F3080B20449884200D8084656F7CAFB73
:105D600080BDC046C84DFD07E2040000BCB5194C1B
:105D7000A079002800D0BCBD0020E081217901A8D5
:105D8000017061794170E178817044F746F9124DF4
:105D9000A86D002805D101A844F73FF90028F7D0E5
:105DA000FEE70120A071BCBD10B50A4CA079012806
:105DB00005D0A079022802D0A079052807D106488D
:105DC000806D3CF714FD0020014656F774F8002062
:105DD000A07110BD8C68FC076479FD070D490A8924
:105DE00002231343012293430B810B88DB0501D56A
:105DF00000238B801302488008888004FCD5CA8069
:105E00000888184202D08888020400E000224888EE
:105E100010437047001200506A49CA780120904030
:105E20008978032900D104214901014A8852704729
:105E3000023000506349CA780120904089780329D4
:105E400000D104214901024A88527047C84DFD071C
:105E50000430005010B51248026801218A430260E4
:105E6000FF221206436813400E4C1B1943608368DF
:105E70001340836003680224A3430360036804247F
:105E8000A343036003680B4303600368DB03FCD593
:105E900083681340836002688A43026010BDC04675
:105EA00010E000E02F7500000248018801229143B4
:105EB0000180704704110050BCB5424DA97B687B3E
:105EC0000024009422462346FCF78AFD297BE87AC9
:105ED0006A7B904203D1AA7B914200D1BCBD009461
:105EE00022462346FCF77CFDBCBDC046F0B587B01A
:105EF0000446132000012949085806904D208000CF
:105F00000F5C304D286D6E6DA96D0591E96D0491A2
:105F1000294650310191098A039122063CD0294635
:105F2000FAB20A235343069AD3185A88D50611D0D9
:105F30007F231A40761C0D464E65D30703D0049983
