:0200000407FCF7
:100000001871FC072505FC072D05FC074505FC07B5
:1000100000000000000000000000000000000000E0
:100020000000000000000000000000005D05FC076B
:1000300000000000000000005F05FC07ED2BFC073E
:100040008D27FC07E95BFC071D27F007F12BFC0758
:10005000092BFC076305FC074927FC076305FC0720
:100060005527FC076305FC07AD29FC07B729FC07EA
:10007000C129FC07CB29FC07D529FC07B72BFC07B6
:10008000352CFC076305FC076305FC076305FC07CB
:100090006305FC076305FC076305FC076305FC07B4
:0200000407FCF7
:100510000348854601F0E4FF00480047154BFC07FF
:100520001871FC070F4880470F48004704207146A8
:10053000084203D0EFF309800C490847EFF3088025
:100540000A49084704207146084203D0EFF30980A6
:1005500007490847EFF3088005490847FEE7FEE72B
:10056000FEE7FEE79D61FC071105FC07192BFC0760
:10057000AD2AFC073EB50D4D6D1E14D002880A420F
:10058000FAD16D1E0FD002880A42FAD0084A1368C9
:100590000124234313606D1E05D002880A42FAD15C
:1005A000044A10683EBD00203EBD0000C0C62D00BC
:1005B00010E000E018E000E070B50E4604460022AE
:1005C000032151F7C8F9054652F794FB6880284685
:1005D00051F7D2F952F78EFB7188884200D3084652
:1005E0000146204651F7AFFA002070BD0246FF4B8E
:1005F00092009A580120126900290ED0517F5E2383
:100600009B5C002B0BD0052906D1517E090702D532
:10061000917C090700D400207047917DEFE7022903
:10062000F9D00429F7D00529F6D10020EDE70246DC
:1006300030B59300ED4A0120D2581269137DD47E63
:10064000157F2340547D2C40012901D0022909D176
:10065000957C527E15402A0704D41A462243D207BD
:1006600000D10020032901D0042904D1590702D464
:10067000610700D4002030BDF8B514460D46104681
:100680005BF74BFC240A002830D0D949A2008B58D4
:1006900001271E8BBF023E431E83132826D0142839
:1006A00024D0152811D088582D210A5C0123D106A9
:1006B00000290CDA0146A0318E7D002E07D08B7503
:1006C0003D21204645F796FE10E00220F8BD1107B7
:1006D00003D50021A0308175F7E7A030837520464F
:1006E00043F782FB2946204643F7C1FB0020F8BDB3
:1006F000FFB581B01546170A10465BF70EFC0028BF
:1007000038D0132836D0142834D0290A8C00B84E9B
:10071000152815D0FF20294603305BF7E5FC30593A
:100720002D21095CC90603D5A030C07D00280ED05C
:100730003D026D1CA8B25BF7F0FB19280CD00FE04E
:1007400030590121A030C175022005B0F0BD3D2116
:10075000384645F74FFE0DE0A8B201215BF7ABFB31
:1007600030590122018B520291430183384602998C
:1007700043F77DFB0020E8E7F0B59D498700C959A4
:10078000002680314A8C8B8C1B2A00D21B228C8B3A
:10079000944200D222468A849A4200D001260B8CD1
:1007A000CD8C1B2B00D21B23CC8B9C4200D223462A
:1007B000CB84AB4200D001260B8ECD8D9C46FF230F
:1007C00049339D4201D21C4600E02C460D8DA542C6
:1007D00000D325460D86654500D001264C8EA446E3
:1007E0008C8D9C4200D21C464B8DA34200D21C46ED
:1007F0004C86644500D00126EB080B3B9BB29A4225
:1008000000D213468B86522379495843794BCA59F3
:100810001C6880320419D28C8034E285C9591A6868
:1008200080318018498E803001863046F0BD10B589
:1008300004467148008D8007800F012800D00020F9
:100840006071002807D057F7D1FE01460622A01D8F
:100850005DF72CFC10BD06226849A01DF8E770B5B5
:100860000546002442F787F82855641C082CF9DB5C
:1008700070BDF8B5022707700126044646700D4684
:1008800088795F49C96988472A2108552879002154
:100890000007000FA07003005DF75CFC0705070967
:1008A000100D100B1000A1700AE0A67026E00320C6
:1008B00002E0A77004E00420A07001E001281DD030
:1008C000A888000A801FC0B2A0721F2800D9A17298
:1008D000284642F705F9811D2046A27A0B305DF7C4
:1008E000E5FB284642F7FCF801460622201D5DF78D
:1008F000DDFB28794006C00FE070F8BDA172F0E77B
:10090000F7B544688CB0254624350395054607465F
:1009100024354CF7F9F906464420405B5221484300
:10092000344909684018C03040896946088401216B
:10093000384647F728F94CF75CF809900E9800699B
:100940008088000AC1002F480818298940182D49BD
:100950005B315DF731FB01466868039D4718403500
:10096000288906900090A0680099381A4001400933
:100970005DF722FB0A910098C019401A4001400916
:100980006946A060098C4900C919891C49014909B7
:10099000884204D20699401840014009A0600146EF
:1009A0000998081A400118494009884215D90020C1
:1009B0002B89A268401CD21852015209A260EA8910
:1009C000521CEA81A368099A9A1A520152098A4272
:1009D000EED801B20D9847F777F9A1680998081A7F
:1009E0004201607D5209824221D80FE02C7EFD0732
:1009F0001879FD074C76FD074C7EFD07CF79FD0782
:100A0000B47FFD0716020000FFFFFF032A89891843
:100A100049014909A1602A890A99511A814206D9D6
:100A200001210D9847F750F9E889401CE881298990
:100A3000A0685DF7C1FAF1802889B080208A3081F2
:100A4000A88870810020B081C807C00FB073A88843
:100A5000522148438E30308230464CF760F903987B
:100A6000466320460FB0F0BDFFB5002093B00646A8
:100A70000124FE4949680A7821460C2A0CD06A46AE
:100A8000117300221192002E09D015990291169D22
:100A90001F2D54D9402052E000242246119413996E
:100AA0000291149DF4E7029989184978012905D02B
:100AB000172903D0182901D0192912D1631E04E087
:100AC00003AFFF5C8F4204D05B1E5BB2002BF7DAF2
:100AD00003E0002B01DB4A2003E003AB1955641C43
:100AE000E4B20B005DF736FB1D261010101010103D
:100AF00010101026262626262626262626262626D8
:100B00001010101010102600119B03E00BAFFF5CBB
:100B10008F4204D05B1E5BB2002BF7DA03E0002BA0
:100B200001DB4A2006E0119F0BABD9551199491CF6
:100B3000C9B211910299895C521C89188AB2AA42E1
:100B400001D20028AFD0AA4200D04A20761CF6B2CB
:100B5000022E01D2002894D017B0F0BD10B50022AB
:100B6000134607E084186478012C07D0845C521C7B
:100B7000A21892B28A42F5D3184610BD8018837825
:100B8000FAE7F0B50646A9B01546002084006318C0
:100B9000DA789F7812025B783A4352BA1B041A4300
:100BA0000B5D07241B061A43231A9F0020AB401C31
:100BB000DA510828EAD300218A0090190746C37841
:100BC00080781B02034378785BBA00040343B05C6F
:100BD00010AA00060343601A8000135038462230E2
:100BE000437800781B0203433846203047785BBACD
:100BF0003F0400783B43000603430F27781A800028
:100C0000491C13500829D7D35CF7E4F80146304655
:100C10005CF75DFD00282DD05CF7DCF8034620AAC8
:100C200010A968465DF75EF900226846A11A8B009C
:100C30009600C75C7119CF70C75A3F0A8F70C758AA
:100C40003F0C4F70C35820311B0EAB550F239B1A1E
:100C50009B00C65CCE70C65A521C360A8E70C658AF
:100C6000360C4E70C3581B0E0B70082ADED30020C2
:100C700029B0F0BD0120FBE7F7B500251746064671
:100C800041232A4629460A205AF792FF0446002E9D
:100C900010D0012E02D0022E0CD105E02022611CC2
:100CA000002041F781FE04E0621C3946019841F7BB
:100CB0002BFE207020465AF794FF2846FEBDF8B55B
:100CC0006B48009007680C46002F7BD005461C350A
:100CD000287E002876D0012802D0022872D102E0B6
:100CE0002078002819D038896249002688423AD1F4
:100CF00007204BF701FC002835D042233E2200217B
:100D00005D485AF755FF082101702178002913D05A
:100D1000032141702178817043E055480226611C0F
:100D200014302E76202204465DF7C0F9224653493E
:100D3000304641F7F3FD45E0002146701F22531A6B
:100D40001B1947185B78491CBB702029F7DB002171
:100D50003F22531A47181B1920375B78491CBB7078
:100D60002029F6DB1DE043493889491C88421AD105
:100D700008204BF7C1FB002815D022233E2200217A
:100D80003D485AF715FF09210170217800291BD031
:100D9000122141700021FF224318491C9A7020291A
:100DA000FADB4DF7B5FE2E7640205BF784FB00980A
:100DB00041F7B8FE5AF73FFF00980068002801D0BD
:100DC00041F7A7FD0020F8BD002146701F22531AED
:100DD0001B1947185B78491CBB702029F7DBE0E73B
:100DE00070B5087800250C46012809D01D2810D0C0
:100DF0002B2812D04022194655F79AFE284670BD7E
:100E00005BF743FA1948012504601D4857F723FA98
:100E1000F4E71C4841F7E6FCF0E71B4801680029AD
:100E2000ECD101210160194841F7E2FDE6E770B518
:100E3000104D174C223DAB422ED10F4809232A46B4
:100E40000021C01E5AF7B4FE044608221149401C76
:100E50005DF72CF9207908210843207100252570C1
:100E600020464DF755FE284670BD00004C7EFD071C
:100E7000287AFD07252000000408000089E7F10713
:100E8000030C0000C3C3C3C35077FD07CC7DFD072F
:100E90000DC3F0075CE5F107A047E5E7F1B584B0C5
:100EA0000498FF4980000C5804980502A81D029080
:100EB000002C15D06068818804290CD34188861DD8
:100EC0000C38009101903146049857F79AFFF54984
:100ED000884206D160680C385AF7ADFE0020606089
:100EE00033E4F178B2780F02019928431743C880A0
:100EF000384640383F2819D803223946049854F719
:100F000007F80600E6D0B07B0128E3D13420B073A7
:100F100029460A310423E448029A5AF749FEB18966
:100F20004180102101705AF75CFED3E761683420DC
:100F30000870022100985AF72DFD05463146009AA7
:100F40005DF7B4F868782978000208436168C880C2
:100F5000E878A978000208436168062F08810BD061
:100F6000042F09D06068052F10D00C385AF763FEA3
:100F700028465AF78AFDB1E760688188052913D3AE
:100F8000297981726168287988720DE08188052944
:100F90000AD32979817261682879887260688188AA
:100FA000062901D36979C17260685AF71AFEDFE732
:100FB000FFB587B00E4609985AF7AFFF0999090A9D
:100FC0000391002876D08800B54905900D58B7499F
:100FD000B079096B0A225043B478081841F780FDB4
:100FE00001906868002808D0012C2DD00398FFF7E5
:100FF00055FF6868002802D026E0022C5AD1B0883C
:101000000127022805D30198417800780C02044397
:1010100002E051F76FFE044651F76CFEA04201D288
:101020000224002720464C3083B29E49A048099AEA
:101030005AF7BEFD241D68604480002F01D00020B7
:1010400000E034206968087068680028BAD0811D03
:101050000091B2880199841C071D01928088238821
:1010600082189A4209D8009A8018019A5DF71EF8F2
:10107000398801980818388009E01A1A009BC018AE
:101080005DF714F820883880696834200870388843
:1010900004280FD300984178027808021043218871
:1010A000001D884207D280B220803988814207D94A
:1010B000388002E068E0884202D96968342008700C
:1010C0003888218888425FD1686800990C3801907F
:1010D000039857F796FE69680978002951D171493C
:1010E00088424ED003990F0201993843C880208866
:1010F000022101905AF74EFC0490228800995CF777
:10110000D5FF049800283FD06968002088800198A6
:1011100002226B46039907C36868049B821C011D69
:10112000801D41F7B7FB6968087004985AF7ADFC59
:1011300068684188002902D00178002954D00189CB
:1011400040393F2944D8017830291ED00146544AFD
:1011500005980C391058083041F700FD696803986C
:10116000891D41F7A8FB4628686801891FD0032222
:10117000039853F7CDFE00282CD0808A00282CD06D
:1011800028E00398FFF78AFE42E04A49098D0906E4
:10119000C90F07D048490C380968099A898D89B266
:1011A0005AF73CFD68680C385AF745FD12E00322F7
:1011B000039853F7ADFE04000CD039460A310423DE
:1011C0003948099A5AF7F4FCA1894180102101702D
:1011D0005AF707FD002068601AE06868002201895C
:1011E000039841F763FBF5E70189084640383F283B
:1011F0000ED80322039853F78BFE002808D0808A6C
:10120000002805D1686800220189039841F74EFB48
:10121000B07941F758FC00200BB0F0BDFFB58BB0A2
:10122000064616980027022821D00D9801881498A8
:1012300081427DD37188084640383F2802D81598EE
:1012400053F7A7FE0C98361D0088149A80190E9942
:101250005CF72CFF0C980188149808180C990880EA
:101260000D9801881498081A0D99088069E10020EA
:101270000E9D079069782C78090221433180E97826
:10128000AC780902214371808C46403904242D1D1D
:10129000024603468E46402900D3287861460DE079
:1012A000AC7DFD07FFFF0000260E0000E078FD0783
:1012B000010A00004C7EFD075876FD0704291FD067
:1012C000052914D0062918D070463F283ED8159815
:1012D00053F75FFE0006000E04D0FC48008D0006A8
:1012E000C00F31D002230120F94A002712E06978AB
:1012F00000290FD0F74A17230CE0F74A0F2309E023
:10130000522802D0D22802D002E0142000E015209A
:10131000F24A1F23002A7DD098427BD280001058C9
:1013200004900028F7D0002008900590708800E015
:1013300006E14038402803D32878052430716D1C1D
:10134000701D00900498AFE03027EDE03327EBE00C
:10135000522864D00CDC4B283FD004DC41286AD0F2
:1013600042285AD111E04C2820D0502855D140E0D5
:10137000632830D004DC572818D061284DD19BE079
:101380006C2864D0772848D109E00098297801704A
:101390000098641C401CA4B26D1C009081E004986D
:1013A000401C04900178089881427AD10098A41CCE
:1013B000401C41084900881C009068782A78000287
:1013C000104308800599AD1CA4B2002969D008908B
:1013D0000020059065E00120FBE7102229460098D7
:1013E0005CF764FE009810341030A4B21035009001
:1013F00057E0204640301499039088420DD840228F
:10140000294600985CF752FE0098403000900398FF
:1014100084B200E079E0403543E0342741E008221F
:10142000294600985CF742FE009808340830A4B2C0
:101430000835009035E00622294600985CF736FE14
:101440000098A41D801DA4B2AD1D009029E0149841
:10145000001B80B203903088001B001D81B2012068
:1014600007900498401C04900098401C40084000DD
:1014700000900498007857281CD04228CDD10098BD
:101480000170090A417000982946801C0090039A57
:101490005CF70CFE03980399201884B2009840185A
:1014A00000900498401C04900078002820D0002F61
:1014B00019D01DE04908E2E71498001B80B20390A0
:1014C0000098039A401C41084900012000910790B0
:1014D000294600985CF7EAFD03980099201884B229
:1014E00003980818DCE70D990988A14200D32FE77B
:1014F0000D980088A04208D304990978002904D1E6
:101500000799002903D1A04201D034270CE00D999E
:10151000001B08800C9801880098801B001F081889
:101520000C99002F08800CD07088042809D0062858
:1015300007D04038402804D30E984079707100E0FD
:10154000342738460FB0F0BDFFB581B01F461646B0
:101550000C4610465AF7E1FC00253F2802D02189AD
:10156000062908D03B4632462146019854F79DF89B
:1015700005462846B4E4000701D50225F9E720789E
:101580000028F6D1300AA11D41F79FF8F1E7F3B525
:1015900081B00198524C850060590F464068CE8852
:1015A00001462431009146F7C1FE00994D4A403171
:1015B0000091C989701A80B2904214D2B14212D0FF
:1015C00060593146406845F76AFF60590522791C29
:1015D0001F305CF76BFD019805210002401C80B2B2
:1015E0005AF769FCFEBD60590522791C1F305CF773
:1015F0005DFD0098808841F745FFFEBDF8B53A4C87
:10160000064685000F4660594821095C24290ED101
:1016100000691022791D2E305CF748FD61592520A4
:101620004031087200221146304652F717FE6059C9
:101630004821095C0C291FD100691022791D2E3028
:101640005CF734FD60595F210069095C09072DD4FE
:1016500001462E3110221E305CF74CFD00280CD0C4
:101660006059092140300172304653F715FB01469D
:101670000022304652F77DF9F8BD0421684601701A
:101680006A460521304652F71FFB68460178602004
:10169000014368460170304653F7FEFA014668463A
:1016A00002780123304652F779FAF8BD304653F7F5
:1016B000F3FA01281AD06059072140300172002244
:1016C0001146304652F7CAFDF8BD00004C7EFD07BA
:1016D00014F3F1071CF3F10778F3F107B4F3F10702
:1016E0001879FD07FF7F00002C7EFD07615900205F
:1016F0000969C031887160590421026930461E327F
:1017000052F7E2FA605901694031897F002907D018
:101710001A21403001720021304652F729FED3E7EA
:101720001B2140300172304652F777FECCE7F8B506
:10173000FC4C05468600A0594822125C192AC3D1E8
:1017400040224930491D5CF7B1FCA0594022F649BE
:1017500049305CF7CFFC002805D0F34928462039F2
:1017600059F727FFB0E70B21684601706A4605214B
:10177000284652F7A9FA6846017860200143684676
:101780000170284653F788FA01466846027801231B
:10179000284652F703FA97E7FFB581B003980C4645
:1017A000060A00255AF7B9FB002818D0132816D0CE
:1017B000142814D0DD48B700C0592030407BC00643
:1017C00028D503985AF7A9FB15280CD0A07941F722
:1017D0007AF9304645F791FD032806D015E0A07947
:1017E00041F771F91FE002251DE0D048C0592030B3
:1017F000407B400704D53D21304641F79CFD04E085
:101800003D220021304641F7A4FD3D21304644F7FA
:10181000F1FD08E020460C38C5498180C68020468D
:101820004DF776F901252846A4E6F1B58EB00E985D
:1018300041F756F904460E98694600794006C00FF4
:101840000A9006900A208883628BBA49101A88424F
:101850007ED2E08A06287BD31921C901884277D835
:10186000238BFF21F5318B4272D85B1C99005918EC
:101870004143491C0A2349105A43914268DC217FA5
:1018800000290CD1617F002909D1A17F002906D14F
:10189000E17F002903D12021095DC90658D02746E0
:1018A00020377978C906C90E491F0C2950D2A18A60
:1018B00081424DD8E17C00294AD0421E082A01D934
:1018C000082000E0401E814242D805A844F77AFD76
:1018D00000283DD1984D0622E861214608A85CF712
:1018E000E5FBA8782E46803E00287ED060798009EE
:1018F00001280AD020460A994AF7A2FE00285ED0A5
:101900003821095C002954D059E020464AF705FFE8
:10191000E861002804D10BA920464AF714FFE861CA
:10192000F16A887A012801D0042810D1E8690028DA
:101930000ED00622253010315CF7DCFB002807D1E1
:10194000E869F16A2030C07AC97B884200D100E0A2
:10195000A2E0E969002932D0062208A825315CF707
:10196000A5FBE8692B21095C07AA253006914AF7F7
:1019700049FD00280FD0E8692030C07A002811D135
:1019800068466E49808B49F7EFFC07AA01216B4836
:101990004AF738FD06E007AA01210BA84AF732FDF5
:1019A00000280CD0E9696846808B323149F7F2FC97
:1019B00005E04218527D002A08D010296CDBF06A3D
:1019C000407A022806D0032804D00EE0491C1029D2
:1019D000EFDBF4E76846808B0A2806D307AA204687
:1019E0000A994AF70FFD002856D0002205A9204683
:1019F0004AF7B2FD00284FD1F06A407A02280BD096
:101A0000032809D000236846828A08A806994AF765
:101A1000C4FD002802D02EE00123F4E7E18A6846E5
:101A20000180218B4180618B818078780622410979
:101A3000684681737878C106C90E684641732146AD
:101A4000801D5CF733FB0E9800794006C10F684695
:101A50000173838A2146B26D45F761FC0146B0658A
:101A6000684641F707FB0020B065214668461C31F7
:101A7000808A44F7FAFC47F798FC2F4C20342079F1
:101A8000002805D0002109205AF72EFB00202071E4
:101A9000002108465AF70FFA54E570B516460C4671
:101AA000488853F7D0F80546FF2838D0012153F76E
:101AB00040F90C2804D100220121284652F722FFC8
:101AC0000023E0180079002803D15B1CDBB2082B4F
:101AD000F7D31448A9004058006900280AD04030C4
:101AE000C07F000706D4082B04D30121284651F7F4
:101AF000DAFF14E029021E23324611480A315AF750
:101B000057F805460B202870A089688228460822CD
:101B1000211D14305CF7CAFA28465AF762F80020F3
:101B200070BD00002C7EFD07EC7DFD071879FD07D8
:101B300006080000770C0000E479FD0704E5F107D2
:101B4000160E000000207047F7B5784E0D4687004E
:101B5000F15982B00E2D08D10A69002A05D0537EB2
:101B6000DB063DD5927CD2063AD540310402C979D4
:101B700020460A30C907009000290AD00146E32018
:101B800000015AF7B1FAF0594030C17949084900CB
:101B9000C1710520A11D48234002009A5AF708F898
:101BA00004460620A0806249A571A8000A58A01C1E
:101BB0000499904720465AF714F8052D10D00E2DA1
:101BC0000ED05C480099006880304269E320000133
:101BD0005AF740FAF05901224030C1791143C171DE
:101BE000C8E4F8B50C460546504980000858403016
:101BF000C079400717D4204640F762FD6946087057
:101C0000002809D007280ED00121284653F791F863
:101C100060260C2808D00EE02079474980000A5839
:101C20002146284690474FE5684602780121324315
:101C3000284652F767FE6A460521284652F744F8BF
:101C400020790128EFD00B28EDD0284653F724F84F
:101C500001466846027801233243284651F79EFF29
:101C600032E538B50D46044653F716F801280DD174
:101C7000204651F793FD69460870002807D00928CF
:101C800004D10A460521204652F71EF838BD2749DF
:101C9000A000085800690028F8D10121204653F718
:101CA00048F80C2804D100220121204652F72AFED0
:101CB00021020A3108230A46204859F779FF0446D1
:101CC0000A2020700622691D601C5CF7EFF920468F
:101CD00059F787FF38BD70B50C460546012153F70B
:101CE00028F8014670200C2911D0104AA90051583B
:101CF000096900290AD064790443284652F7CCFFC9
:101D0000014600232246284651F748FF08E762793A
:101D100001210243284652F7F5FD01E70948084929
:101D20000160094941607047704770472C7EFD078C
:101D300030F4F1075876FD076CF4F107120E00003D
:101D40008CBFF107C0000840F865FC07F8B53E4CB1
:101D50006088C6076088F60FC005C50F6088400818
:101D6000400060806088FF270137B843608040F7FB
:101D700027FE40F72BFE00220821022040F71AFE22
:101D8000002800D001206188A188618849084900A5
:101D90003143618061882A02B94311436180F8BDF3
:101DA00070B5012529492A020A60BFF34F8FBFF39E
:101DB0006F8F27490A6027490B681C0A24024023B9
:101DC0001C430C60214980390A601F494C88062653
:101DD000B443241D4C804C882C434C804C883825BF
:101DE0002C434C804C889C434C800F280FD1488852
:101DF00033021843488048881043488048882A02A4
:101E0000104348804888012292039043488070BD67
:101E100010B5114CE18A114ACBB21189248BC90447
:101E2000890E6404640E001B093141430120C00285
:101E3000401A80B2584340031189000E090A090272
:101E40000143118110BD00002020005080E100E01E
:101E500080E200E008E400E000230050002C005085
:101E6000F8B5020205464123092134480A3259F7E0
:101E70009FFE27210170044600201F233049AA003D
:101E80008F581E1A4936BE5D2718401C7E702028C8
:101E9000F6DB00203F238E581F1A4937F65D2718BE
:101EA0002037401C7E702028F5DB5AF793FF01464F
:101EB000601C5BF70CFC002812D10A2000906A46D7
:101EC0000521284651F700FF284652F7E5FE009904
:101ED00060221143CAB201460123284651F75EFE33
:101EE000204659F77EFEF8BD70B5054604460089C8
:101EF00014490C3488B088421AD100201F216E4644
:101F00000A1AA25C3254401C2028F9DB20223146F8
:101F100020465CF7CBF800203F210A1AA25C32541D
:101F2000401C2028F9DB20226946A0185CF7BEF887
:101F3000284649F7DAF908B070BD0000270D000007
:101F40002C7EFD072620000010B50F49032059F70D
:101F500080FF0021032059F7AEFF10BD10B50446E5
:101F600001230A4A00210A4859F722FE09498C42F6
:101F700001D1032103E008498C4201D10021017005
:101F80004CF7C6FD10BD0000DC61FC0711FC000031
:101F900001080000A5A5A5A5C3C3C3C300280BD095
:101FA00000BF00BF00BF00BF00BF00BF00BF00BF39
:101FB00000BF00BF401EF1D17047000010B50C46B5
:101FC0000123FE4A0021FE4859F7F2FDFD4A21781F
:101FD0001170002101704CF79BFD002010BD10B561
:101FE000F64A0C460123521E0021F54859F7E0FD40
:101FF000F54A21781170002101704CF789FD00200D
:1020000010BD10B5ED4A0C460123921E0021EC488C
:1020100059F7CEFDED49A288CA8722884A870A4629
:10202000E3884032138062888A87002101704CF770
:102030006FFD002010BD10B51A4682230021E04834
:1020400059F7B6FD112101704CF762FD002010BD5B
:10205000DA4A10B50123413A0021D94859F7A8FDC1
:10206000112101704CF754FD002010BDD34A10B56A
:102070000123403A0021D24859F79AFD11210170FD
:102080004CF746FD002010BD10B51A460223002172
:10209000CB4859F78DFD112101704CF739FD002017
:1020A00010BD10B51A4601230021C54859F780FD1F
:1020B000112101704CF72CFD002010BD10B51A46FF
:1020C00001230021BE4859F773FD112101704CF71F
:1020D0001FFD002010BD10B51A4682230021B8480C
:1020E00059F766FD112101704CF712FD002010BD5B
:1020F00010B51A4682230021B14859F759FD002135
:102100004170112101704CF703FD002010BD10B586
:102110001A4601230021AA4859F74AFD11210170EE
:102120004CF7F6FC002010BDA44A10B50823333A42
:102130000021A34859F73CFD0446031DC21C811C25
:10214000401C59F70DFB0146002000290BD011213E
:1021500021706070A070E070A080E08020464CF795
:10216000D7FC002010BD2070F7E77FB5002508469A
:10217000009501950C38029559F75DFD59F705FD5D
:1021800000246E460390204659F7F9FC6100891936
:10219000641CE4B24880042CF5D3884A1023313AF9
:1021A0000021874859F704FD6E461ECE1EC0103828
:1021B00005704CF7ADFC012004B070BDF8B57F4A46
:1021C0000F4608230A3A00217D4859F7F1FC804D5B
:1021D0000446286B6E12B043304328637D4938882B
:1021E000496A88476060286BB043002128633888BB
:1021F0006080217020464CF78BFC0020F8BDF8B5BC
:102200006E4A0D460423093A00216D4859F7D0FC67
:102210006F4E0446306B7712B843384330636D4AD3
:102220002888926A69689047306BB8430021306310
:1022300028886080217020464CF76AFC0020F8BD99
:1022400070B518460D465D4A01460123323A5C4896
:1022500059F7AEFC04462878002802D0012805D1A1
:1022600001E05D4800E05D4840F7BCFA12202070B4
:1022700020464CF74DFC002070BD10B518460C46AA
:102280004E4A01460823133A4D4859F791FC2188DC
:102290000122920789180968416021884180002144
:1022A00001704CF735FC002010BD10B518460C46E7
:1022B000424A01460423123A414859F779FC2288E0
:1022C00001239B07D2186168116021884180002199
:1022D00001704CF71DFC002010BD10B51C460846CF
:1022E0004AF703F9354A0123113A2146344859F790
:1022F0005FFC002101704CF70BFC002010BD70B595
:102300000C8818461646082C00D30824CA788B7807
:10231000150252225443324A1D431368E318803396
:102320001D830B791168611880314A8B120A1202E1
:102330001A434A83214A014601230E3A204859F79D
:1023400037FC002101704CF7E3FB0021304659F7C0
:10235000B2FD002070BD10B588781C46002801D061
:10236000012200E000220888114644F787F8134A4A
:1023700001230D3A2146124859F71AFC0021017039
:102380004CF7C6FB002010BD70B518460C460B4A32
:10239000014601230C3A0A4859F70AFC22785221D7
:1023A0004A430F4900230D685219C0321382227824
:1023B00052256A430D685219C03213E043FC0000F5
:1023C00001080000B476FD07DD76FD07A479FD075E
:1023D00040000040B47FFD07C3C3C3C3A5A5A5A5A6
:1023E0004C76FD07538222785224096862435118C3
:1023F000C0318B82002101704CF78AFB002070BD38
:1024000070B518460C4601460123314A314859F748
:10241000CFFB227852214A432F4900230D685219DD
:10242000C0325381227852256A430D685219C03256
:10243000938122785224096862435118C031CB81BC
:10244000002101704CF764FB002070BD70B5184688
:1024500016460D461E4A01460123D21C1D4859F757
:10246000A7FB04462888082800D3082045F750FF1A
:10247000002805D000212170A9786430017701E09F
:102480001220207020464CF743FB0021304659F7BC
:1024900012FD002070BDF8B50E4610491C461546C9
:1024A0000020C2008A5AA24209D1C00040184768E1
:1024B000002F07D02A4631461846B84702E0401C94
:1024C0001928EED322463146284602F0EDF9F8BD30
:1024D00038FC0000010800004C76FD07EC61FC07A9
:1024E000064C0125064E05E0E36807CC2B430C3C67
:1024F00098471034B442F7D3FEF70EF8B869FC07DA
:10250000E869FC07F0B51FB40646002082B0054616
:102510004024019100901BE0019922460F4630466D
:1025200000F0BFF8049A059B801A994110D3104619
:10253000194622465BF7FEFD361A8F410197224667
:1025400001200021009F5BF7F5FD38184D410090F8
:102550002046641E0028DFDC019B00982946324695
:1025600007B0F0BD024670B54A40D30FDB0740000C
:102570002DD04A002AD0010E140E000212020919B1
:10258000400A520A8418E50104465443000A120A1C
:102590002E045043A4194219200CC543AA18120C4A
:1025A0000125AD03521C521912047F39240400D0B6
:1025B000521C104301D44000491EC2B20C06C0098F
:1025C0002018401C4008802A02D003E0002070BD83
:1025D00040084000002900DA0020184370BD70B5A3
:1025E00002464A40D50F40004A00ED074008520815
:1025F000002814D0002A12D0C40DD30D41020120AE
:10260000C0055202490A520AE41A091812187D3408
:10261000914201D3641C00E04900002C01DA002043
:1026200070BD0023914201D3891A03434008490039
:102630000028F7D100290AD0914202D10121C9070F
:1026400005E0914201D2012101E00121C943E005E9
:10265000C018401900F036F870BDC217C10F5040C5
:1026600010B54018CA079623002100F033F810BDBA
:10267000C20F410040020123400ADB05D207090EC8
:10268000C0187F2901DA00207047962903DC9623C1
:10269000591AC84001E096398840002AF4D04042D7
:1026A000704710B5202A04DB0846203AD0400021AC
:1026B00010BD0B46D340D0402024A21A91400843BD
:1026C000194610BD002904DA401C490001D1400818
:1026D0004000704770B40024050C05D1102400049C
:1026E00002D1002921D01124050E01D100020834A5
:1026F000050F01D10001241D850F01D18000A41C0C
:10270000002801DB4000641C002908D020252E1B76
:102710000D46F540A14000D00121294308430106A0
:102720001B1B000ADB1D02D5002070BC7047DB05B7
:10273000181880180029F8DA401C4900F5D170BC3F
:1027400040084000704700000148012101807047A7
:10275000081500500C4881880088CA0708D0C207B5
:1027600006D0664A03235372894A93895B1C93817E
:10277000890708D5C00506D5604802214172844802
:102780004189491C4181704722200050F8B5584FBB
:102790000820388005252C0760898007554E22D0F7
:1027A000A08A400701D502F0F1FF218C802001436F
:1027B0002184FF21718004213180218830220A4345
:1027C0002280218803220A4322804B49F288B38861
:1027D0001204D2188A42F9D335804849098B6180A6
:1027E000218C8143218438894007FCD42088302102
:1027F0008843208022880320824322800022009088
:1028000001231A403E4F3A702A064CD06D1E328882
:10281000022717439F43378004227280378817436B
:10282000378022880A43228022880243228032880D
:10283000520701D500BFFAE722888A432280228806
:1028400082432280F288B7881204D2192D481218C8
:10285000042A11D90022294842830779002F02D087
:10286000192217012548026A921CBA4200D33A463F
:1028700002621A460098C3E72048418B491C4183F5
:1028800089B2142900980ED300211C4A5183117A71
:10289000002900D01321126A521E8A4200D80A462B
:1028A0001648026200986189890706D061898143D0
:1028B0006181608C012188436084208980210143EB
:1028C0002181208A042188432082A08A8007FCD5A8
:1028D0003FF755FD0948406A0B4908600B480168FD
:1028E000490700D500BE01684907FCD5F8BDC046C0
:1028F0000033005000160050E9030000C84DFD07EA
:10290000AC6AFC0761F8FFFF0802004010000040BD
:10291000FEB504461E4DA878401CA8700020029009
:10292000272C33D81B4E1C48706000200190B060EB
:1029300030680421014331600A2120465BF73CFBEB
:10294000810016A252580921C94341430819C0B257
:10295000EFF31087012484F3108821468140C9B227
:102960001046FDF707FE02903068A0433060002F4C
:1029700002D084F3108802E0019880F31088029955
:102980000548401A28614A424A416A70FEBDC04665
:10299000F469FC0710E000E0FFFFFF00003000508A
:1029A00020300050403000508030005080B50A2068
:1029B00000F05AF880BD80B50B2000F055F880BDBE
:1029C00080B50C2000F050F880BD80B50D2000F0DF
:1029D0004BF880BD80B50E2000F046F880BD0000A9
:1029E000F8B50124032801D0054600E004258C40F9
:1029F0006D01054E069F002F01D0AC5301E0751903
:102A00006C8000F025F8F8BD02300050012800D19C
:102A10000831CBB29A4001219940064B002802D0E0
:102A20004000C01800E0981C03888B4313430380C8
:102A30007047C0466E300050032800D1042040018A
:102A4000024A825ACA4001201040704700300050AC
:102A50001A43032800D10420400149000818014905
:102A6000425270470630005070B5C0B203460A3B70
:102A700001210A469A4093B20A4C1C195C40660830
:102A8000094B1C880025360402D06D1C760CFAE731
:102A90009443AAB20D46954025431D80814040488D
:102AA000016070BDFFFF01000E14005014490A8838
:102AB000802313430B800368124A136043685360FA
:102AC00083689360C368D36003691361436953618A
:102AD00083699361C369D3611062344803685362A8
:102AE000436893628368D36243691363C368536323
:102AF000006990634888800600D4FEE700BE7047F6
:102B0000120000500000FD070248008824481021F0
:102B1000016070472C13005020490A890423134395
:102B20000B810A89022313430B810A884023134334
:102B30000B801B4A012313601A4A082313804A8919
:102B4000802313434B810368174A13604368536023
:102B500083689360C368D3600369136143695361F9
:102B600083699361C369D36110621048036853623B
:102B7000436893628368D36243691363C368536392
:102B8000006990638889800600D4FEE700BE48890A
:102B9000074A10408018001D488170470800005007
:102BA00080E200E0003300505000FD0728ED00E017
:102BB000FC7F000070477047094A9042014600D3ED
:102BC0001146401EFF2801D2012001020548018064
:102BD0000548002803D000BF00BF401EF9E770473A
:102BE000FF07000002000050E20D000070470000E7
:102BF00010B50F4CA1880F200840022806D00428E9
:102C00000BD00C280CD00128F4D110E02088022130
:102C1000884320802088802106E003F0F7F9E9E767
:102C200003F0F4F92088012188432080E2E710BDF9
:102C300004110050052000070188302291430180D3
:102C400001880322914301800421415E002906D5B9
:102C50000E490A88520702D50A88D2070DD180880A
:102C6000C00609D50A480188090605D501218180D9
:102C70000188802291430180704708880222024324
:102C80000A800888012290430880704700020050A3
:102C900000010050D648018802220A4302800549FB
:102CA000491C02D202889207FAD40021018140898E
:102CB0007047C0465F79FEFFFEB505461448029096
:102CC00002AC204600F028F81420FFF767F907202F
:102CD0008601002D00D08036C54F38880D49084048
:102CE00080193880FFF7D6FF01900220FFF756F9D0
:102CF0000025A570204600F00FF8388805490840E7
:102D000080193880FFF7C6FF3D8001994018FEBD4D
:102D1000010001013FFCFFFF10B5B549164A0A80CA
:102D200000224A80154A40231360BFF34F8FBFF340
:102D30006F8F00281ED00A88114B13400278D202F0
:102D40001A430A800F4A134640330C881C404378CC
:102D50009B0123430B800B881340827892021A4315
:102D60000A8009224A804A8802239A43C078400098
:102D70001043488010BDC0460140000080E100E0E3
:102D8000FFF70000FFFBFFFFB0B50C460025202D2C
:102D900004D03FF7F0FD60556D1CF8E70020B0BD92
:102DA000074814214180018803220A4302800188D8
:102DB00004220A430280DD48012101707047C046A9
:102DC0000016005080B50D480078C00708D10520D6
:102DD00059F7A3F800280FD12A200A49085C04E01B
:102DE0000748417D012907D1007D41424141C21E72
:102DF00050425041084380BD002080BDF976FD0758
:102E0000507DFD07F87CFD0770470000F0B593B0DA
:102E10005821394C605C002866D1019137A003A984
:102E20000A46274678C878C2384608300A46103223
:102E30000346F0CBF0C20A46203278C878C22E4C46
:102E400020680025401C206062686A41626010951D
:102E50000F95119012921834402220465BF726F904
:102E60000A2D33D00295002120292CD02748425C1E
:102E70009300E55847187A789200A658AD19E550A6
:102E8000FE78B600A05968401025E841A051BD78F1
:102E9000AD00675938186051A75847401420C74102
:102EA000A750E058C019E050A35943401820C3412F
:102EB000A3516059C0186051A35843401920C34121
:102EC000A350091DD0E7029D6D1CC9E700200A4CE4
:102ED000402807D003A9095822189369591891610D
:102EE000001DF5E710200199401E6054C0B280001B
:102EF0002018806913B0F0BDB06AFC076578706176
:102F00006E642031362D62797465206B5C63FC073A
:102F10005821044A0023535400BA13605360906050
:102F20007047C046B06AFC07F0B585B01946012766
:102F3000FC02601C2D4A022358F73AFE04902C4DE7
:102F4000288820432880B8032988014329802888BD
:102F5000384328801420FFF721F87802A8800390D6
:102F6000E8803803298801432980BC022888A043CF
:102F70002880FFF78FFE2988029421432980F94396
:102F800041430320400201900E18B0B2870A1A4C48
:102F9000FFF780FE002F00D000BE164F791CAA88D4
:102FA0000A403243AA8044430198201882B2029B0F
:102FB0009A4200D300BEEA880A400243EA80288889
:102FC0003840288028880D49014029800C48008815
:102FD00003990840411E8841FFF76EFE049908805E
:102FE00008464BF795FD002005B0F0BD1AFE000025
:102FF00000150050FFFB0000FEFF0000FFEF000087
:103000002A00005010B51946EB48044A0024234614
:1030100058F7CEFD4BF77CFD204610BD07FE0000A3
:10302000FEB51C460F46E448224A0223214658F7C3
:10303000BFFD0446FE78BD7879783F78032F03D82A
:10304000DF48C05D884201D2002000E00120032D4E
:10305000029109D8DA494A5D0121B2420A4600D3F9
:1030600000224840104300E00120208020464BF71A
:103070004FFD208800281BD10F48FEF78FFF0196D7
:103080002A4E317BF07A0024009422462346FFF733
:10309000A7FCB17B707B009422462346FFF7A0FC7F
:1030A000384602992A46019B03F02EF802F062FE90
:1030B0000020FEBD09FE0000E2040000B0B51D4680
:1030C0000C467F204202BC480423294658F770FD75
:1030D00021785F2903D0332901D103490988016090
:1030E0004BF716FD0020B0BD0200005010B5194688
:1030F000ED480D4A082358F75BFD0446ED488079FA
:1031000002280ED102F08CFE0848016D2180C16DAD
:103110006180816DA1805030008AE08020464BF7AD
:10312000F7FC002010BDC0460DFE0000C84DFD0795
:1031300070B51946DC48134A01252B4658F738FD6F
:103140000446114E70887580308802210143A943DE
:1031500031803088042101433180002530884007C8
:1031600006D5632D04D86420FEF718FF6D1CF5E723
:103170003088400300B2C00B207020464BF7C8FCDB
:10318000002070BD16FE00000016005070B51946F4
:10319000E8480C4A422358F70BFD04460E250570FB
:1031A000801C094E31462A465AF780FF657020463A
:1031B000223031462A465AF779FF20464BF7A8FCC1
:1031C000002070BD08FE00009869FC0770B51C4621
:1031D0000D46FC48114A0123214658F7E9FC0446F4
:1031E0002E78F5B20A2128465AF7E6FE0146FF205E
:1031F000272D0CD80922D2434A439319CAB2AC49AD
:103200008D5CD9B28D4202D31046FFF715FC2070B9
:1032100020464BF77DFC002070BDC04613FE000029
:10322000F0B587B00C46E748644A012519462B469D
:1032300058F7BEFC04902778FEB20A2130465AF7B0
:10324000BBFE0921C9434143C9196279059222791C
:103250000292E2780692A778272E2A4608D8C2B2B0
:10326000934B9A5CCBB29A4201D3002200E0012238
:1032700064780023032C10D8A40002A636591C46FB
:103280000393B746B932FC079532FC07A732FC0717
:10329000B132FC070124240207E00122520203920A
:1032A00000242A4608E0012464020394002403E079
:1032B0000324240203942C460197012F2E4600D8A4
:1032C0001E46069F012F2F4600D81F46059B642BE4
:1032D0002B4601D827403B46002B2B4600D13346D6
:1032E000002B00D11546FF24002D5ED1C6B2CFB20F
:1032F0003046394601F07CFA029800280FD0069833
:10330000012820D0002850D12E4801890122914364
:1033100001810024009452023046394608E00698A4
:10332000401E414241410091002430463946039AF3
:103330002346FFF755FB019A501E8241304639461D
:10334000FFF764FB31E00024009403252A021723D1
:1033500030463946FFF744FB019A501E8241304601
:103360003946FFF753FB5548018808220A4302807B
:10337000018829430180134D28890421884328812D
:103380007D20C100029841430F485AF715FE401EA8
:10339000E880E888411C0598484364215AF70CFEF0
:1033A00028802889012101432981049804704BF762
:1033B000AFFB002007B0F0BD0108000012FE0000C6
:1033C0007C63FC070834005080841E00F0B585B093
:1033D0001C460F46EE48354A01232146039358F711
:1033E000E7FB04903D78ECB20A2120465AF7E4FD51
:1033F00006460920C04370434519272C48D87878E1
:103400000290F4B2EFB22046394601F0F1F92848B3
:10341000005DB84202983FD302283DD2254FFE718D
:103420003D727872039D3D70F879397A00950324D6
:10343000260210233246FFF7D3FAF879397A7A7ADE
:10344000531E9A41FFF7E2FA1B480188A943018005
:103450001A498A8B802313438B830A8808231343DA
:103460000B800A8822430A8000210180FF2109067F
:10347000134A13688B43E90759181160E8364680F0
:1034800086801049C180018829430180049806E0A4
:10349000F0B2E9B201F0ACF9FF21049801704BF7EA
:1034A00037FB002005B0F0BD0108000017FE00004A
:1034B0007C63FC07F469FC070034005004000050F2
:1034C0000CE400E0FFFF0000FEB51C460D46C848B6
:1034D000194AF223214658F76BFBAC781221002CD5
:1034E00022D03C2C20D82A88FF21C90455180190ED
:1034F000471D0094002C14D002AE04222846314609
:1035000002F0EEF8F81E02990170B81E7178017091
:10351000781EB1780170F0783870641E2D1D3F1D43
:10352000E8E700210198009C447001704BF7F0FA25
:103530000020FEBD0108000004FE0000BCB51C46D2
:103540000D46AB48204A0723214658F731FB044675
:103550002878207000210191009103282DD8C046C1
:10356000784400794000874401050C13611C184819
:1035700002220AE06878A978090208180090134826
:1035800018E013489030611C062202F0A9F814E0FC
:103590006879A97909020818019028790006E97864
:1035A00009040818A97809024018697840180090A1
:1035B00006489030694602F0A3F820464BF7A8FA77
:1035C0000020BCBD0108000003FE000018FF000041
:1035D00018FFF807F0B585B01C460D4684481F4A11
:1035E0000223214658F7E4FA0195AE781221002E05
:1035F00027D03C2E2BD80090019807880024254620
:10360000B54220D23819019909198A7912064B79E5
:103610001B049A180B791B02D218CB78D21802928D
:103620008A7A12064B7A1B049A180B7A1B02D2185C
:10363000C9795118039102A902F062F80834AD1C4F
:10364000DEE7002603E001988678002100984670A6
:1036500001704BF75DFA002005B0F0BD05FE0000DB
:1036600010B5194662480A4A0124234658F7A0FAC1
:10367000002101704BF74CFA0648082101800648EA
:1036800044800521018001880906FCD1002010BD7D
:103690001DFE0000023300500031005070B50E4690
:1036A00053483C4A002519462B4658F781FA0446F0
:1036B0003078082866D8C0467844007940008744AE
:1036C0000430292D343853595C00354805800321D6
:1036D0000902C180018141818181C18101824182D0
:1036E000818230480580C180018141818181C18111
:1036F0000182284602F09BF9284602F063F9284629
:1037000002F038F9284602F085F9284602F045F91A
:10371000284635E0B07802F02DF933E0708802F0E9
:1037200079F9708802F04EF92CE0B07802F07FF958
:1037300028E07688284602F015F9012002F012F9F7
:10374000154805607D21C9017143144A914200D397
:10375000114641608560052101600168C903FCD5FF
:10376000002002F0FFF80DE0708802F016F9708872
:10377000002804D002F0E0F804E0B07800E0002077
:1037800002F018F920464BF7C3F9002070BDC0467F
:10379000010800000AFE000010E000E0FFFFFF004B
:1037A0008030005040300050B0B51D460C46D74820
:1037B000104A0823294658F7FBF900214170227866
:1037C0000270032A10D861687A4412795200974433
:1037D00001030609096803E0A2680A6004E0098899
:1037E000416001E0A2680A804BF792F90020B0BD69
:1037F0000108000006FE0000F0B589B01C460D4629
:10380000C248C34A0223214658F7D2F90446287811
:10381000012800D113E1002800D02BE1A87803286B
:1038200000D925E1BB4A135CE9788B4200D21FE145
:103830002B79032B00D91BE1D35C6E79B34200D204
:1038400016E1AB79032B00D912E1D35CEE79B342D8
:1038500000D20DE12B7A032B00D909E1D35C6E7AFB
:10386000B34200D204E16B7B002B08D0AB7B032B6F
:1038700000D9FDE0D25CEB7B9A4200D2F8E0A64E84
:10388000B04769792879B047E979A879B047697A6A
:10389000287AB047687B002803D0E97BA87B00F03A
:1038A000A7FFE87800262528314606D880009B49E6
:1038B00008580028314600D00188069168792528EB
:1038C000314606D88000FB4908580028314600D010
:1038D00001880591E8792528314606D88000F54908
:1038E00008580028314600D001880491697A2529BA
:1038F000324606D88800EF4A10580028324600D0D9
:1039000002880892E87B2528324606D88000E94ADA
:1039100010580028324600D002880392ED48C1704A
:10392000297A817002F0ECFAE978A87800960322EF
:10393000120207920723E84FB84769792879009661
:1039400005233246E44FB847E979A8790096062363
:10395000079F3A46E04EB047697A287A01260096DA
:1039600008233A46DC4FB847687B002806D0E97B3D
:10397000A87B002300937202FFF732F868780128D1
:103980000BD1EE7AAF7A02F08FFA384602F062FA83
:10399000304602F05FFA02F079FA02F00DFBAE7ADF
:1039A00002F082FA8020304302F054FA002002F044
:1039B00051FA064602F06AFAF0B22080687B0028CD
:1039C00008D04B208000FEF7E9FAE97BA87BFFF7DF
:1039D00033F82080E878252806D88000B5490858B3
:1039E000002801D00699018068792528089A06D810
:1039F0008000B0490858002801D005990180E87975
:103A0000252806D88000AB490858002801D0049921
:103A10000180687A252805D88000A6490858002822
:103A200000D00280A87B252806D88000A14908582C
:103A3000002801D00399018002F046FA1AE02879A3
:103A4000032815D89A4A135C69798B4210D3AB7856
:103A5000032B0DD8D35CEE78B34209D36B7B002BDC
:103A600010D0AB7B032B03D8D25CEB7B9A4209D2FC
:103A7000FF20208002F064F920464BF749F800202F
:103A800009B0F0BD00F0B4FEE978A87800F0B0FE0F
:103A9000687B002803D0E97BA87B00F0A9FEE878CA
:103AA000002325281A4606D8800082490858002895
:103AB0001A4600D0028868792528194606D8800061
:103AC0007C4908580028194600D00188A87B252881
:103AD0000292069105D8800076490858002800D047
:103AE0000388297B74480180EFF31081012787F355
:103AF00010887248028820260796324302800029E7
:103B000003930DD087F310880DE0C0460108000034
:103B100011FE00007C63FC07F147FC07C462FC0750
:103B2000002181F31088664E31880897B9433180AF
:103B30003188C907FCD1634F0020049038864821A2
:103B4000B9824F2139830821B983172139843988F3
:103B50000622914339801F21C943BA8F0A40BA8790
:103B60003A8F0A403A875448008805903888089B65
:103B7000184338803888402202433A8038880799B1
:103B8000084338803A88102082433A803F229202CC
:103B9000B9881140059A1143B980318819433180A1
:103BA0003188C907FCD048490A68802313437F2223
:103BB00093430B6045490860A97804200329024615
:103BC00000D00A465101EA785200521840490923B0
:103BD00053522A79032A00D0104640016A795200D4
:103BE00010180A224252687B002807D0E97BA87B84
:103BF000049B0093089A5202FEF7F2FE68780128AF
:103C00000CD1E87AA97AB2885207FCD53982388279
:103C1000B0884007FCD5B0888006FCD402F0CCF90F
:103C2000A87AB1884907FCD53882B0884007FCD50E
:103C3000089800023882B0898006FCD0388AC0B269
:103C40002080687B002808D04B208000FEF7A6F972
:103C5000E97BA87BFEF7F0FE2080E8782528069A0D
:103C600006D8800013490858002801D00299018025
:103C70006879252805D880000E490858002800D00A
:103C80000280A87B252806D880000A490858002809
:103C900001D00399018030880899884330803088AA
:103CA000C007FCD105490888079A90430880E1E6DF
:103CB0007C63FC07C462FC07106BFC070400005027
:103CC0006C1300500013005004E400E000E100E039
:103CD00006300050EC69FC07E129FC07F8B50E46F8
:103CE0000125EF02781C294A19462B4657F760FF39
:103CF000044600202070307800281DD001283ED1D5
:103D00002348C1892943C1812903028BD2000A407B
:103D1000C189624B0B409918C181C18928220A438D
:103D200050218A43C281C18906220A43C281018887
:103D300008220A43028024E01548418AB0220A433F
:103D400040218A434282418A124A0A404282418A81
:103D50000F2291434182A902428A0A434282418A48
:103D6000394341822903428A0A4342820188082258
:103D700091430180FFF714F801F062FE01E0FF209B
:103D8000207020464AF7C4FE0020F8BD18FE00004F
:103D900012000050FFFC0000F8B50E463848394DBF
:103DA000012419462A46234657F702FF00270770C9
:103DB0004AF7AEFE49F724FB3078022808D00128E4
:103DC00040D000285AD13748C7703948077055E0AD
:103DD00002F024F92C48082101802C48077072B6A3
:103DE0002B48028904210A430281028880239A43D6
:103DF00002800288402313430380264A13680B4342
:103E000013604189202291434181018902220A43A2
:103E100002810189204A0A400281FE35418B2940F6
:103E20004183018B1D4A0A4002830189A14301811C
:103E30001B480780F843C149086000BF00BF00BFAE
:103E400030BF1BE002F0EAF810480770B0787178D4
:103E50000A46024303D11348022101710AE0114AC4
:103E60001471114A4A4319218901414388180F49A5
:103E7000096848620B48C4700D4804700020F8BD02
:103E80000208000001FE000000330050084BFD074F
:103E90000800005010ED00E0FFF00000FFEF000010
:103EA000000100505877FD07007701005876FD07A4
:103EB000B477FD07BCB51C460D469A480E4A002350
:103EC000214657F775FE044628789D4D2871A8793C
:103ED00000280BD15C48503012215AF700F929799B
:103EE00001A8017046F713F90220A87120464AF78D
:103EF0000FFE0020BCBDC0460CFE0000B0B5194648
:103F00008848094A0024234657F752FE05468C4844
:103F10008079052806D101F083FF234804602846F4
:103F20004AF7F6FD0020B0BD10FE00007CB51C462F
:103F30000D467C481B4A0023214657F739FE0446AC
:103F400028787F4E30716878F070B079002823D1DE
:103F500001A82521417031790170F178817046F70F
:103F60005CF80120C20310490B6813430B60820305
:103F70000B6893430B6002030B6893430B600A6862
:103F80000A4B13400B600521B171000267490860BC
:103F9000BFF34F8FBFF36F8F20464AF7B9FD002064
:103FA0007CBDC0460FFE0000E000004000FEFFFFA9
:103FB00080B50878624A1071487850718878D0705E
:103FC00008790002C9784018D08101F00BFF002069
:103FD00080BDC046B0B50C461548164A01251946A5
:103FE0002B4657F7E5FD2178052900D800250570F7
:103FF0004AF78EFD49F704FA7D20FDF7CFFF2078C0
:10400000052804D80CA1095C0DA2105C01E00B216D
:1040100008200D4A1174D07303223EF783FB00245D
:1040200020463EF7DBFB3EF7A1FB2046B0BDC04675
:104030000108000015FE00000301060B000100004E
:1040400068341108011A0000C84DFD0770B50C4610
:10405000B748084A642519462B4657F7A9FD064676
:1040600021462A465AF722F830464AF751FD0020E9
:1040700070BDC04614FE0000B0B50C46AC482A4ADC
:10408000002519462B4657F793FD2178542910D067
:10409000522927D04F2942D125490D800D84254929
:1040A00003220A8001210902234A1160234A116078
:1040B00031E001210B021D4A1360BFF34F8FBFF3A4
:1040C0006F8F1B4A15881D4315801388FF25AB434E
:1040D00064781B1913808903164B198004211184FD
:1040E000022116E001210B02104A1360BFF34F8F2B
:1040F000BFF36F8F0E4A15881D4315801388FF2567
:10410000AB4364781B1913808B030A4C2380118402
:104110000821118406250A498D714AF7F9FC00200F
:10412000B0BDC046010800000EFE000080E100E0C6
:1041300000200050042C005000E100E080E200E08C
:10414000F469FC07F0B58FB00D467948794A02272B
:1041500019463B4657F72CFD06462978072937D8DC
:10416000A87802026C78E0B21218C0467944097946
:1041700049008F442F34373F48520303FE280896E6
:10418000059752D1069500226B4811460A920A23E0
:104190004B430B91042703294FD8455CD1B2A94268
:1041A0004FD89C18E6B2252E03D8B600634FBE59EF
:1041B00000E0002636880F273740012F46D0A9425D
:1041C00002D0521C0B99E5E70B99491C0A9ADEE7CD
:1041D00000270FE25A480088308000271CE058482A
:1041E000028017E057480121016003200002564970
:1041F00048810FE05248018893B25B189CB29C4200
:1042000008D1891805E04E48018893B2994201D33C
:10421000891A01800027378018E24A480027076082
:104220000120400248494881F5E70A2159F7C4FEB8
:104230000921C94341430A190AE00A9A09920792DF
:1042400002E0002009900790069DCFE1069D0B98A3
:10425000E3B204270021252B0B9077D89C00374927
:104260000959002975D002930E4609880791C0B2FA
:104270000A92D1B200F0BCFA0127380209960490E4
:104280003080029E252E00D932E101A000598746D8
:104290002943FC075B43FC076343FC076B43FC07B4
:1042A0007343FC077B43FC078343FC078B43FC07FA
:1042B000F144FC07F144FC079343FC07A543FC07CA
:1042C000B743FC07C943FC07DB43FC07ED43FC078E
:1042D000F144FC07F144FC07F144FC07F144FC07FE
:1042E000FF43FC070744FC070F44FC071744FC0787
:1042F0001F44FC072744FC072F44FC073744FC07F6
:104300003F44FC075144FC076344FC077544FC0729
:104310008744FC079944FC07AB44FC07BD44FC07F9
:10432000CF44FC07E144FC070320000206499BE060
:104330000108000002FE00007C63FC07C462FC0769
:1043400002000050F03000500630005009910791F3
:104350004CE100200990079048E103200002F64953
:104360008BE003200002F44990E003200002F249B0
:1043700095E003200002F0499AE003200002FE4984
:104380009FE003200002FC49A4E003200002FA4958
:10439000A9E003200002F8490A8C824304980243F2
:1043A0000A84A5E003200002F3494A8C8243049862
:1043B00002434A849CE003200002EF498A8C824336
:1043C000049802438A8493E003200002EA49CA8CDD
:1043D000824304980243CA848AE003200002E6492B
:1043E0000A8D8243049802430A8581E0032000027B
:1043F000E1494A8D8243049802434A8578E00320CC
:104400000002DC4930E003200002DA4935E00320F5
:104410000002D8493AE003200002D6493FE00320D9
:104420000002D44944E003200002D24949E00320BD
:104430000002D0494EE003200002CE4953E00320A1
:104440000002CC490A8A8243049802430A824FE060
:1044500003200002C7494A8A8243049802434A82E1
:1044600046E003200002C2490A88824304980243BE
:104470000A803DE003200002BD494A888243049837
:1044800002434A8034E003200002B9498A8882430B
:10449000049802438A802BE003200002B449CA88B2
:1044A000824304980243CA8022E003200002B049FC
:1044B0000A898243049802430A8119E0032000021A
:1044C000AB494A898243049802434A8110E00320A1
:1044D0000002A7498A898243049802438A8107E03F
:1044E00003200002A249CA89824304980243CA8178
:1044F0002820A34C542809D0A04909180A46283A74
:10450000002313608B602350001DF3E79D489B4CF4
:10451000A060A068FEF750FB3046FEF7F9F9E063B3
:104520009748407800285CD196490695E06B964DF7
:104530005035A84221DDAF2080000090A06061606E
:10454000A068FEF739FB3046FEF7E2F9A063E06BA6
:1045500021468B4CE062886B2063886BA8423CDD6F
:10456000864A1046383001901546343510460830DA
:1045700001210B020395009920E0A1601920800120
:10458000009060606068FEF717FB3046FEF7C0F9E8
:104590002064206C21467A4CE062C86B2063086C72
:1045A000A8421ADA754A1046403003901546443541
:1045B000101D7D2109012F310195009B93605160F1
:1045C0000068FEF7F9FA3046FEF7A2F92860019874
:1045D0000068E06203980068206360780028069D08
:1045E00059D00020FEF7E8FA059F0A9A089E378006
:1045F0002978079FFE20084006280A9226D102202B
:1046000038431F210140032920D1079708960695BA
:10461000614C26460B98C7B20A98C5B2384629465F
:10462000FEF70AFA002804D0761CF3D301E0641CDC
:1046300005D238462946FEF7FFF90028F7D07D203D
:104640000001FDF7ABFC069D089E079F30464AF728
:104650005FFA2878FE210140062919D1022038434B
:104660001F210140032913D14C4E0B98C4B20A9864
:10467000C5B220462946FEF7DFF9002803D1701E97
:1046800031040646F5D10998002801D00998078021
:1046900000200FB0F0BD1F20C4433B4D3848001927
:1046A0000390066DA81B5030FDF7D7FF0546344830
:1046B000C06A801BFDF7D1FF01462846FDF78FFF3A
:1046C0002E490D19AE6A49680E90881BFDF7C5FF8B
:1046D00001460E98FDF746FF0E900E98FDF7C8FFB5
:1046E00030180499884200DC049828498842029EC8
:1046F00000D32648E862E86AFEF75EFA3046FEF725
:1047000007F903994865486D241D1F4D04D02846BC
:104710004630496D8142C1DB0020194B9870196900
:104720002A46A832914201DCA94207DA0020FEF7AE
:1047300043FA069D59E7C0460630005014490988DF
:10474000596159694A1C069D00D14EE78A1C00D167
:104750004AE72A78072A08D100270D9788B20C90DB
:104760000C480CA900F0CCFF3FE707463DE7C046E8
:104770008630005046300050063000504C6AFC072E
:10478000F469FC077E040000AC117A00FF0700000A
:104790000200005018FF0000E708C9FFB68C0000B7
:1047A00070B511490A8808880124204308800888C8
:1047B0001E2398430880A5020C48458005250580E6
:1047C00005886D07FCD480880D8814262E430A25A1
:1047D000AE430E800D88A5430D801A400C889C4383
:1047E000A2180A8070BDC04622000050001600507A
:1047F00001280BD1FE200140042907D1044841883B
:104800008906FCD401888022914301807047C0460C
:1048100012000050FEB51446002918D005460127A5
:10482000002B17D0CA182388002D18D008782870BC
:104830006E1C0220002B0FD002938B1C93420AD8CF
:104840004B783370029B012B0ED8AE1C04E0002184
:10485000084602E02E463846711B2180FEBD881CAA
:10486000012690423046F7D88E1C48788006000E0C
:10487000029031463018AE1C9042ECD8002D0CD07E
:10488000E81801903046029F3A4659F70FFCF0199C
:104890000199884203D8002002E0002001E00120B5
:1048A000400002997618D7E770B5134602460020FB
:1048B0000E4C102808D0255A9D4201D00830F8E748
:1048C00020184468002C0DD10020094C0546D82D35
:1048D0000AD0665B9E4201D00835F8E76419646827
:1048E000002C01D01846A04770BDC046A869FC073F
:1048F0008063FC07FEB51446002905D0054601205B
:10490000022B04D22E463FE0002088213DE0228881
:10491000AF18002D09D002970E784F786F702E7067
:10492000012A06D8AE1C02202EE0032B05D2022657
:104930002AE0032B03D2AE1C26E08A7805E08A78B1
:10494000AA70EE1C029FBE42EDD80297CB180193CD
:10495000C91C9206120E8B180093EE1C019B009F3F
:104960009F4211D8002D09D03046174659F79EFBBB
:10497000F019029A904204D8002003E00020174664
:1049800001E001204000F619711B2180FEBD0000EE
:1049900070B5264C0020206005210D07698A402251
:1049A00011436982698A9143698260611748A062F4
:1049B00001200004E06228888026304328803F20C0
:1049C000FDF7ECFA20680721884320602888B0436F
:1049D000288070BD10B5154900220A600520000727
:1049E000438A402423434382438AA34343824A6148
:1049F000064A8A6201221204CA62018880220A439E
:104A000002803F20FDF7CAFA10BDC046204F101AA1
:104A1000052000070088000600D400BE0348018876
:104A2000490700D000BE0121016070470000F40773
:104A3000F8B5254FBC68204600F048F8324EF16AC0
:104A40000022F2620D181549284659F7B5FA786127
:104A500013494143491919200001002902D0411A84
:104A6000E13189B23961396808220A433A60B16A92
:104A7000002911D08C420FD90A4A1278002A0BD192
:104A80003279002A00D11046611A326A8918891DCC
:104A9000814200D301463162F8BDC0467102000078
:104AA0008FFDFFFFAC6AFC0780B50648002101605E
:104AB00001F07AF90120C00703490A6882430A60BD
:104AC00080BDC046AC76FD073000004080B5024690
:104AD000C00B09D00C48806B00210B4659F796FAA1
:104AE0008905800A401880BD0748806B4243900AC0
:104AF00080BDC04680B50449096B4143034808188E
:104B0000034959F759FA80BDC84DFD0720A1070098
:104B100040420F0000B5A3B05D4808211C91018000
:104B20005C480088C046C0465B4B188807211A9134
:104B30008843188001220F24200218900520199024
:104B40000607708D80050DD51898FF301988014033
:104B5000199840030818188018884021014338200C
:104B60008143198075881D929002002D16940C9037
:104B700001D105465A351D9C60021090474F3D8378
:104B8000708C204370840D20FDF708FA7089204353
:104B9000022117918843708170894006FCD5758089
:104BA0007D20C0001E90FDF7F9F970890321139153
:104BB0008843708170890006FCD5708C1D9DA843C8
:104BC0007084374900240C60708A40221043708240
:104BD000708A1492904370824C6132488862280433
:104BE0001290C862308880211591084330803F20A0
:104BF0000B90FDF7D3F9FFF70BFF38463C302A49FD
:104C00000988818029480068F86329480188B982A9
:104C100040887882FFF7BCFE2648274959F75FFA9B
:104C200019984102254859F75AFAFDF77EF82448A9
:104C300024492A2259F73AFA4B2082002248234974
:104C400059F734FA1720C0431B9400280CD01E4992
:104C50000A1851239B00D2181DA10B18183392CBB0
:104C600092C21B9C0C30F0E729020F9144311E4A7E
:104C70001B2000283AD01F90134843181446A1CC9B
:104C8000A1C31F981B9C1D9D401E0C310C32F0E7E8
:104C9000003300504200005082000050C84DFD0714
:104CA0000000F407204F101AACFFF807A8FFF80720
:104CB00010FEF807005CFD07781600000076FD077F
:104CC000FC76FD0758ECF1070C4BFD0714EBF107E0
:104CD00000FD07008169FC077D69FC0701FD0700F5
:104CE0008169FC076869FC07B464FC073A20BF4A85
:104CF0005085BF480570BF480A210170BE48322167
:104D00000E910170BD48D062BD48BE490160BE48E9
:104D1000BE490160BE49BF480860BF480470BF4833
:104D200019990160BE480560BE480160BE48062171
:104D30000160BE481A990160BD481C990160BD48D8
:104D4000BD4901600F98801DBC490860BC490860DE
:104D5000308A179988433082B08A0007FCD5708A60
:104D60002021179108437082009513990A021F921F
:104D700002271C970823B34C38461393A0471B9C6B
:104D800000940723384621461F9A0D93AD4FB8472C
:104D90000094092106231C981F9AAA4FB847009433
:104DA00004211C981A912246199BA64FB847A64881
:104DB000219021A801F0A4F801F076F801F066F83E
:104DC000204601F0D9F8AB2001F0EAF8284601F0BE
:104DD000D3F81998000201F0E3F8C00705D10020CC
:104DE00001F0CAF8B92001F0DBF801F06DF8009588
:104DF00003211C9811911F9A2346924FB8470094A3
:104E00001C982146109A234627468E4CA0470097AF
:104E100009211C98109A3B468A4CA04700971C9881
:104E20001A99109A3B46874CA04700F0AFFC308996
:104E30003021884330813089159A10433081308980
:104E400028431C99884330813089139F384330812F
:104E5000308C10433084708AB84370823089149942
:104E600008433081308A1A9988433082B08A80079B
:104E7000FCD5B08CB02101431498C3431940B184D0
:104E8000B08C72490140B184B08C16998843B084CB
:104E9000B08C0C990843B084E902B08C1691084399
:104EA000B0842803B18C0143B184708AB843708206
:104EB000308CA8433084308C9043308430890C93FC
:104EC00018403081708D1099084202D060481999BD
:104ED000418060483730AB07196801401F93196063
:104EE0000B9840025C4B19688143680309181960EC
:104EF0005A494C1C19680B9421431960584C21885D
:104F00000A9189213181188030881043308030889F
:104F100011998843308020881C990843208000F034
:104F20000BFE3DF74DFD3DF751FD64201990FDF757
:104F300035F84C4A10880990508808904A4B988858
:104F40000790D8880690D0880590508B04904748E9
:104F500000880390188802901B9C14805480444859
:104F600098800F990846D130D880D480C32018800B
:104F70004048801E0190078008467C30FDF70EF8FF
:104F80003D4B3E493E4A204601287BD81B90204697
:104F90005980FF229A801D80DA88D207FCD1002434
:104FA000224623469BB21E9D1535AB4216D2CD5CE0
:104FB000CF18BF786F401D9D2F40D5B2AF40E4B2EF
:104FC0003C43521CD5B2082D06D182B22C4DAA18F2
:104FD0001476401C002422461033E3E71B9B5B1C25
:104FE0001D9D274A04461846234BCDE7FC76FD0756
:104FF000F976FD07B476FD07DD76FD070C4BFD075E
:105000005076FD075864FC075476FD07DC67FC0703
:105010005876FD072067FC07B576FD075C76FD072F
:105020006076FD076476FD076876FD076C76FD0700
:105030007076FD074C76FD07005CFD074876FD079E
:105040004476FD07E129FC0700000203FFFC000095
:1050500082000050C8FEFFFF00020040FFFF1F005B
:10506000F03000500024005062280050022600500A
:105070008080000022200050003500501001FC0705
:10508000F469FC07DB480A99018000211B91019813
:105090000180D9480999018008994180D749079B27
:1050A0008B80069BCB80059BC380049B4383D448A5
:1050B000039B0380029808803088159988433080CC
:1050C00010461830CF490A460832B8C8B8C258202E
:1050D0001B9D0D540D604D60CB4800683DF7EAF80C
:1050E000CA4F3D71FD701F9908680F9C20430860EE
:1050F000FDF756FE00F0A4FC2946C54A95711C9D9B
:10510000D5701171252050710E98D081F970C14869
:1051100001709181C04F3846503012210E9158F7DE
:10512000DEFFBE4908680B9A10430860BC4A10882D
:105130001A990843A843108010881D9908431080CD
:10514000108838210143118010880C9D2840108060
:10515000119840021188014311801088204310806B
:105160000D98C0021188014311801088AD4901409B
:105170001180AD480460AD480168FF229143016091
:10518000AB480460FFF790FC1D98387138720446F4
:105190001B98F0824F203862708CA0210143294077
:1051A00071840F20FCF7FCFDE0031E90A148A2498A
:1051B0000818A24940188008401E1190A04DA14C2B
:1051C0003089000675D51F98006B1E99084270D172
:1051D0008E480088C0076CD157F7FFF8787A04280A
:1051E00034D100F02DFC1B98209020A8042147F713
:1051F00001FF00282AD01D98F1490860086800289E
:10520000FCD11F98C069F969884201D21B99F961E4
:105210007A78012A0CD1F8611B987870FFF7C0FAF0
:10522000F882FCF793FD002810D11D9878700DE0EE
:10523000411AEF4A914209D9F861FFF7B1FAFA8AA7
:10524000111A00D2811A89B21829E9D2EA48806D70
:10525000E34A9179012906D1002804D11B98907165
:1052600000F0C0FDDE4A9089D18988420ED3907942
:1052700001280BD11B9991811698401CDB4A0B46E3
:1052800056F796FC49F744FC00F0CAFD57F7A5F81D
:105290001C98C043D4490978C91E814203D8199883
:1052A000D64908608CE7D54A1068411E1160002875
:1052B00086DCFDF787FD002882D072B6C9480079E8
:1052C000022802D02068406A00E00020229028894D
:1052D000C00700D072E156F73AFA002800D16DE11C
:1052E000C048C078002857D0B08AC00700D0FBE083
:1052F000BC48008800284FD1C148806A002802D0ED
:105300002068406A229000F04FFDB648817822A8BC
:1053100056F728FF00283FD01F98006940063BD46D
:10532000B048817822A847F765FE002834D049F7B5
:105330000AFE002800D141E148F766FA002800D1B2
:105340003CE1A848817822A856F70CFF00281F9856
:1053500016D00069400613D4A248817822A847F7E6
:1053600049FE1F9900280BD000BE229A002A1AD0AD
:10537000086A98494018DA2816D8521E229213E07B
:1053800092480078C00702D13DF7D8F904E0002028
:105390003DF724FA3DF7EAF9FDF714FD002800D1A6
:1053A0000CE130BF0AE10022708D1099084201D053
:1053B00000BE229A0C928E489E303D6B6843914904
:1053C0004018914958F7F8FD0D90904845438D4895
:1053D00028188D4958F7F0FD0D99081A1F9AD16BBE
:1053E0008B4B19400143D1637F48007802282BD0B2
:1053F0000E982AE0F030005000240050622800503F
:1054000002260050B06AFC074C76FD075877FD076E
:10541000F469FC07B477FD07C84DFD0700020040A2
:1054200022200050FFBF000000E100E008E400E09F
:1054300080E200E0E06400001005FC07030004F8CF
:10544000003300505876FD0723205E4D0D9940181B
:105450000B908002D16B6F4B19400143D163D06B2D
:105460005E4908400D9949054018D06366480C9A7A
:10547000824200D300BEB86CF96C002358F7C6FD19
:105480000903000D40180B9A911C814200D0421E66
:10549000BA6254480179481E8141104643F77FFDA6
:1054A0005D48C06A80471F991E9A086B1042FCD065
:1054B00015990F9A484B18681042FCD01868884319
:1054C00018606889452803D846216981081AF8625E
:1054D0003CF729FF40498868786208680006FCD5D7
:1054E00030891599884330813F480078318A1A9B6A
:1054F000194331823F4A116819431160718A179A22
:1055000091437182318A1C9A11433182718A012838
:1055100003D110208143718225E010252943718237
:10552000708A184370820020974F3860718A149AED
:1055300011437182718A9143718278612248B86205
:105540001298F8623088159C204330803F20FCF789
:1055500025FD708A28431B4D708211987861308830
:10556000A0431B4C3080308A1899084330821F4872
:10557000F430718C01407184708C1D9F38437084AD
:105580000D20FCF70BFD708938431C99884370810E
:1055900070894006FCD500207080B18A8906AB4F27
:1055A00001D51399298030BF0F4908700D49C87083
:1055B000B08A104A10681A998843106062B6FFE5F5
:1055C000FC00004000330050204F101AF976FD0710
:1055D0005876FD07C8FEFFFF00020040FFFF1F00D6
:1055E000F469FC075877FD07B477FD070BFE000050
:1055F0007F0C000010ED00E06479FD07E869FC070E
:10560000787EFD0720A1070040420F00540B0000E8
:1056100000FCFFFFFF03E0FFB47FFD0701207047A0
:10562000F8B515460C4601464039042913D88800C0
:1056300001A108588746C0467956FC074D56FC071D
:105640008F56FC079956FC07A356FC0720780028C4
:105650002FD0082029E007280ED001282CD17B4F1D
:105660003C371B4906263846324658F743FD00288A
:1056700024D02846394625E02078022819D37D20F9
:1056800080002870000A6870002002261EE0207842
:1056900000280ED0C42008E02078002809D014206B
:1056A00003E02078002804D00A202870002001267A
:1056B0000CE00420002609E00120F8BD0548811C0B
:1056C00006262846324658F7F1FC00202670F8BD21
:1056D00090E1F1073866FC07002070470120704711
:1056E00070B514460D460646FFF774F9FFF790F9BA
:1056F00028463146224658F7D9FCFFF749F970BDD4
:10570000F8B50C46054605200007009001201E4F05
:10571000C00732D0FFF75EF900980088000600D479
:1057200000BE3888400700D000BE280C00D000BE64
:10573000E8084000386101207861396804220A4392
:1057400003218A433A60002102290BD00F22120262
:10575000BB681340C2029342F8D08A00A258BA61D3
:10576000491CF1E7B8684006FCD5BE68FFF710F9A0
:10577000B00702D408350020CAE7009A10888021BB
:1057800088431080F8BDC0460000F40770B50520BE
:105790000507288A022188432882A88A0007FCD5A9
:1057A00001200002698C014369841F481F4990222F
:1057B00058F77CFC1E481F49482258F777FCFCF735
:1057C000ADFA1D481D490160288830218843288092
:1057D00028880324A0432880194808220280A8882A
:1057E00080210843A880688A0843688215480721F9
:1057F0000180154E0020B080308083203081E04B46
:10580000D87B002801D0197C03E00B211974DA73CE
:10581000104622463CF786FF348100F091FA688AF0
:1058200020210143698270BD200008409066FC077A
:10583000C000FC074866FC0700000840FFFF13009B
:10584000003300508810005004100050C84DFD0770
:1058500003480188034A11408918091D01807047D7
:1058600012000050FC7F00004020704770477047D6
:10587000B0B529491431C3B22124FF22641E06D0D9
:105880000D8818319D42F8D11639098800E011467B
:1058900090430843B0BDC046B0B51F491631C3B2EE
:1058A0002124FF22641E06D00D8818319D42F8D1B4
:1058B0001A39098800E0114690430843B0BDC0463C
:1058C000B0B5154C002812D00E342025002D21D063
:1058D00000202080FF212181A11F086021460A3974
:1058E0000860A07956F72CFB6D1E1834EEE71025E2
:1058F000302D0FD0FF20E082A58200202060606064
:10590000A060E0602061E8B2214656F7A2FA6D1C63
:105910001834EDE7B0BDC0460848FD072020C1435C
:105920003A4A13880B40138013880343138010886E
:10593000084010807047C046F8B509240025074E7E
:1059400020462946B047064FB84701212046B047B8
:10595000B84720462946B047B847F8BDE159FC078B
:105960001D59FC0780B501460A2000F039F8FFF701
:10597000D5FF80BD10B50446002803D0601E01216C
:1059800081408CB2E1B2042000F02AF8210A0520FF
:1059900000F026F8FFF7C2FF10BD10B50446C1B2F3
:1059A000062000F01DF8210A072000F019F8FFF783
:1059B000B5FF10BD80B501460B2000F011F8FFF7D0
:1059C000ADFF80BD10B50446C1B2022000F008F85A
:1059D000210A032000F004F8FFF7A0FF10BD00002B
:1059E000B0B51024E243094B1D8815401D80084DB9
:1059F00029800F2108401D888D4328181880188899
:105A000020431880188810401880B0BD40300050E6
:105A10008030005010B50446C1B20020FFF7E0FF0F
:105A2000210A0120FFF7DCFFFFF778FF10BD80B5EA
:105A3000012101400820FFF7D3FFFFF76FFF80BD72
:105A4000B0B5E64D287801281BD10E4801884907DA
:105A5000FCD4C188808800232B7009040C183520E1
:105A6000800630212246FCF74DFDA864E964064813
:105A7000214658F7A1FA2863A001142158F79CFA8F
:105A8000A863B0BD0016005000D01213704700008C
:105A9000F0B58BB01F2109041B4A13688B43012109
:105AA0004C041B191360CB04184A14689C431460FF
:105AB000184C194D194E4661194E1A4F1A4BC361B5
:105AC00006624462124B8362C562184B07604360F2
:105AD00088041168814311600020282803D001A99F
:105AE0000854401CF9E792480068403001A9282278
:105AF00058F7DCFA00F020F8FEF752FEF049C882B1
:105B0000FCF724F90BB0F0BD740000400002004027
:105B1000355BFC07315BFC07D55BFC07E55BFC07ED
:105B2000B52BFC07C95BFC07CB5BFC078D5AFC0758
:105B300000207047704700000B480C4901600C487A
:105B40000C4901800C48418802220A4304218A43FF
:105B500042800A4963220A80D9494A8A094B1A803D
:105B6000898A01807047C046800000404C05540778
:105B70006A280050EBE6000000260050062C00507A
:105B8000C84DFD071028005080B51F2000040121DA
:105B90008A07536F83434804181850671068072317
:105BA00098431060074802880A4302218A43028012
:105BB000018808220A430280FFF7BEFF0F20FCF78E
:105BC000EFF880BD08000050704740087038C0B240
:105BD000704700000248016807220A4302607047CC
:105BE0003000004000207047F8B5012420020090EA
:105BF00066024B4F384608380568002D00D18DE00D
:105C0000280605D58020386047F79DF8FDF7C8F8CD
:105C1000A80709D50220386043480068B021405CDD
:105C200000F018FA43F755F8280719D5082038600E
:105C30003E4800686821415A52224A433C4909685B
:105C40008918DC22895A090A6830407D081AC0B2D6
:105C500000F000FA002042F7FCFF0420C44948721B
:105C60000098054204D000983860204642F7F1FFC2
:105C7000354202D03E6047F7CFF8680603D5402092
:105C8000386042F7E1FFE80603D51020386041F79D
:105C900016FC68070ED4E80706D03C6056F71CFCDB
:105CA00047F751F8EA484472A806A3D52020386087
:105CB00000BE9FE7042038601A490888A043088086
:105CC0001C480078C00702D13CF738FD04E00020F2
:105CD0003CF784FD3CF74AFD56F7E2FB3CF7ECFC51
:105CE000FDF75EF80020DA49487213480088800505
:105CF000D1D5D748807A0028CDD1D54884720F48B5
:105D00000088C007C7D12046FCF7D6FF31462C31AA
:105D10008842C0D90220CE498872BCE7F8BDC0468F
:105D200018000040083300505876FD073879FD0709
:105D30004C76FD07F976FD072A000050001500504B
:105D4000BCB50124009403210A0202200023FCF7C1
:105D500047FE074D2878002806D10421002005239E
:105D6000024600F0D1F92C7000F004F8BCBDC0462A
:105D7000084BFD07BCB5ED4DA97B687B0024009462
:105D800001232246FCF72CFE297BE87A6A7B9042AD
:105D900003D1AA7B914200D1BCBD00940322120220
:105DA0000223FCF71DFEBCBD80B5E048006A5738F1
:105DB00001D8002006E081B2C90B401800B24110A2
:105DC0003D204843C10700D01F3080B204498842BB
:105DD00000D8084656F78EFB80BDC046C84DFD076B
:105DE000E2040000BCB5194CA079002800D0BCBD6D
:105DF0000020A081217901A8017061794170E178CA
:105E0000817044F70AF9124DA86D002805D101A848
:105E100044F703F90028F7D0FEE70120A071BCBDCC
:105E200010B50A4CA079012805D0A079022802D02B
:105E3000A079052807D10648806D3CF7D8FC0020E2
:105E4000014656F738F80020A07110BDF469FC0730
:105E50006479FD0750490A890223134301229343C1
:105E60000B810B88DB0501D500238B801302488052
:105E700008888004FCD5CA800888184202D0888827
:105E8000020400E00022488810437047A749CA78FE
:105E9000012090408978032900D104214901014A59
:105EA0008852704702300050A049CA7801209040C3
:105EB0008978032900D104214901024A8852704798
:105EC000C84DFD0704300050B0B5EFF31085012434
:105ED00084F3108830480188A14301802548018857
:105EE000064A0A400280FFF7D1FF002D02D084F35A
:105EF0001088B0BD002080F31088B0BDFFF700000F
:105F0000B0B50446807889498870E078C870FFF79A
:105F1000BDFFEFF31081012080F31088C202154B02
:105F20001D8815431D80002902D080F3108802E0EF
:105F3000002181F3108821784A08782313400E222B
