:0200000407FCF7
:10000000B84FFC072501FC072D01FC074501FC0743
:1000100000000000000000000000000000000000E0
:100020000000000000000000000000005D01FC076F
:1000300000000000000000005F01FC078D0EFC07BF
:10004000DD0BFC073137FC07A526F007910EFC07F6
:10005000690DFC076301FC078D0BFC076301FC07BE
:10006000990BFC076301FC07A10CFC07AB0CFC0718
:10007000B50CFC07BF0CFC07C90CFC073D0EFC07C8
:10008000D50EFC076301FC076301FC076301FC0755
:100090006301FC076301FC076301FC076301FC07C4
:0800A000000000008E070E00B5
:0200000407FCF7
:100110000348854600F028FD00480047A129FC0758
:10012000B84FFC070F4880470F480047042071462E
:10013000084203D0EFF309800C490847EFF3088029
:100140000A49084704207146084203D0EFF30980AA
:1001500007490847EFF3088005490847FEE7FEE72F
:10016000FEE7FEE7613CFC071101FC07790DFC0787
:10017000E90CFC073EB50D4D6D1E14D002880A42F5
:10018000FAD16D1E0FD002880A42FAD0084A1368CD
:100190000124234313606D1E05D002880A42FAD160
:1001A000044A10683EBD00203EBD0000C0C62D00C0
:1001B00010E000E018E000E0704770477047000072
:1001C00010B50F49032058F7E2FE0021032058F72D
:1001D00010FF10BD10B5044601230A4A00210A4849
:1001E00058F7D6FC09498C4201D1032103E00849A4
:1001F0008C4201D1002101704CF736FD10BD00008A
:10020000703CFC0711FC000001080000A5A5A5A595
:10021000C3C3C3C37FB5E4486B46018842888918CD
:100220006A46118001214C0022181546403DED8F91
:10023000065B5288AD19AA18491CC9B21A5307297E
:10024000F1D38189C089081881B2D981D888002862
:1002500021D01889002820D0988800281FD05889DC
:1002600000281ED0988900281DD0588800281CD04E
:1002700000291CD0188800280BD007200622540023
:100280001C5B8C4201D22146D0B2521E52B2002ACF
:10029000F5DA04B070BD0320FBE70420F9E7022083
:1002A000F7E70520F5E70620F3E70120F1E707204F
:1002B000EFE7F0B595B0EFF310801090012080F3D8
:1002C0001088BA48816B4A07520F69460A800A9221
:1002D000816B0122C908C9008163B5498B886946D1
:1002E0004B800224B24B00219980C16A09078B0F11
:1002F00069468B800F93C16A0C2399430831C16210
:100300000521090709880906CB0F6946CB8005211D
:100310000907099309888023194305231B071980BE
:10032000A449898A4906CB0F69460B81A1490893E4
:10033000898A402319439F4B9982016A09074B0F11
:1003400069464B810C93036A0E218B4303629B4DDC
:1003500099486860FF204030A8602888A043288022
:10036000974841680B071B0F69468B810B934168C7
:100370000909090108314160416849064B0F694686
:10038000CB810D9341687023994360314160874868
:10039000403801688904CB0F69460B8202930368D9
:1003A00041140B4303600168CB07DB0F69464B82A6
:1003B0000E9301681143016041688903CA0D6946C3
:1003C0008A8203924168CA05D20D6946CA820492A4
:1003D00081688903CA0D69460A8301928168CA054A
:1003E000D20D69464A8305924168764A114003223C
:1003F000D203891841604168490A4902FF314131FD
:10040000416081686F4A11400322D20389188160DC
:100410008168490A4902FF3141318160642000F05E
:100420000FF9A88969468007C00F8883A8892043EF
:10043000A8810024604F28880026012108432880D5
:100440000A2000F0FDF8FF205F4941303A680A4277
:1004500000D0761C401E3F1D0004000CF6D1A88A77
:100460008004FCD15149886B671CC208D200780710
:10047000400F02438A630A2000F0E2F860004A4914
:10048000FCB20E52082CD5D348480A99826BD20888
:10049000D2000A4382636946454A498891800F9990
:1004A0008A00C16A0C2399431143C1620999CA01A8
:1004B0000521090709888023994311430522120762
:1004C000118008998A013B49898A40239943114345
:1004D000384A91820C994A00016A0E2399431143CC
:1004E000016237480B994268120912010A434260BF
:1004F0000D994268090170239A430A4342600298A9
:1005000041032A48403800680122520390430843BF
:100510002649403908600E98096849084900014396
:100520002248403801600398420220484038406821
:100530002449084010431D4A403A506004985268CC
:10054000520A520202431948403842600198174A41
:100550004002403A92680A400243144840388260A0
:100560001249059840398968490A490201430F48F0
:10057000403881601098002800D0012080F3108856
:1005800015B0F0BD10B5114C2078002808D0FFF749
:1005900090FEFFF73FFE0E4908700020207010BD4E
:1005A0005EF7E4FF0120F9E73848FC0780100040BF
:1005B00000120040203000503843FC070035005046
:1005C00040200040FF01FCFFC0C0C0C0EE8EFC0711
:1005D000EF8EFC0710B5FF22154901320A60BFF308
:1005E0004F8FBFF36F8F13490A6013490B68402484
:1005F0001B0A1B0223430B601049898A0021C30791
:1006000000D03521830702D57D231B021943430700
:1006100002D575231B041943000702D53D200006AF
:10062000014306482038016301488038026010BD4C
:1006300080E100E080E200E008E400E0A01000407B
:1006400000280CD000BF00BF00BF00BF00BF00BF2C
:1006500000BF00BF00BF00BF00BF401EF0D1704709
:1006600010B50C460123FD4A0021FD4858F790FAC9
:10067000FC4A21781170002101704CF7F5FA002036
:1006800010BD10B5F54A0C460123521E0021F44856
:1006900058F77EFAF449A2884A842288CA83E288FD
:1006A0008A8462880A84002101704CF7DDFA0020F8
:1006B00010BD10B51A4682230021E94858F768FAA0
:1006C000112101704CF7D0FA002010BDE34A10B59B
:1006D0000123403A0021E24858F75AFA11210170EB
:1006E0004CF7C2FA002010BDDC4A10B501233F3A96
:1006F0000021DB4858F74CFA112101704CF7B4FA8D
:10070000002010BD10B51A4602230021D44858F726
:100710003FFA112101704CF7A7FA002010BD10B567
:100720001A4601230021CE4858F732FA11210170F0
:100730004CF79AFA002010BD10B51A46012300218B
:10074000C74858F725FA112101704CF78DFA00209F
:1007500010BD10B51A4682230021C14858F718FA77
:10076000112101704CF780FA002010BD10B51A4617
:1007700082230021BA4858F70BFA00214170112159
:1007800001704CF771FA002010BD10B51A46012314
:100790000021B34858F7FCF9112101704CF764FAB5
:1007A000002010BDAD4A10B50823323A0021AC48F4
:1007B00058F7EEF90446031DC21C811C401C57F774
:1007C000BFFF0146002000290BD01121217060706D
:1007D000A070E070A080E08020464CF745FA002031
:1007E00010BD2070F7E77FB50025084600950195FC
:1007F0001038029558F711FA58F7B7F900246E46E9
:100800000390204658F7ABF961008919641CE4B2E3
:100810004880042CF5D3914A1023303A00219048A7
:1008200058F7B6F96E461ECE1EC0103805704CF74C
:100830001BFA012004B070BDF8B5884A0F460823A2
:10084000093A0021864858F7A3F9884D0446286BD9
:100850006E12B0433043286385493888496A884717
:100860006060286BB0430021286338886080217065
:1008700020464CF7F9F90020F8BDF8B5774A0D4647
:100880000423083A0021764858F782F9774E044647
:10089000306B7712B84338433063754A2888926AC0
:1008A00069689047306BB8430021306328886080C6
:1008B000217020464CF7D8F90020F8BD70B51846D5
:1008C0000D46664A01460123313A654858F760F9FA
:1008D00004462878002802D0012805D101E06548A7
:1008E00000E0654841F742FF1220207020464CF797
:1008F000BBF9002070BD10B518460C46574A01469A
:100900000823123A564858F743F9218801229207E2
:1009100089180968416021884180002101704CF7E5
:10092000A3F9002010BD10B518460C464B4A0146ED
:100930000423113A4A4858F72BF9228801239B07D0
:10094000D2186168116021884180002101704CF744
:100950008BF9002010BD10B51C46084649F726FF4C
:100960003E4A0123103A21463D4858F711F900212B
:1009700001704CF779F9002010BD70B50C8818464D
:100980001646032C00D30324CA788B781502522212
:1009900054433A4A1D431368E318FF3301335D8320
:1009A0000B7911686118FF3101318A8B120A12022A
:1009B0001A438A83294A014601230D3A284858F7E9
:1009C000E7F8002101704CF74FF90021304658F745
:1009D00010FB002070BD10B588781C46002801D09F
:1009E000012200E000220888114645F741FE1B4A1B
:1009F00001230C3A21461A4858F7CAF80021017021
:100A00004CF732F9002010BD70B518460C46134A59
:100A1000014601230B3A124858F7BAF822785221BE
:100A20004A43164900230D685219FF32413253825E
:100A3000227852256A430D685219FF32413293825F
:100A400022785224096862435118FF314131CB8228
:100A5000002101704CF708F9002070BD42FC000035
:100A600001080000AAB9FC07BCBBFC07400000401D
:100A700000BFFC07C3C3C3C3A5A5A5A54CB9FC070C
:100A800070B518460C4601460123334A334858F7DF
:100A90007FF8227852214A43314900230D685219C8
:100AA000FF3241329381227852256A430D685219F0
:100AB000FF324132D38122785224096862435118AF
:100AC000FF3141310B82002101704CF7CDF800203D
:100AD000C3E770B5184616460D461F4A0146012366
:100AE000D21C1E4858F754F804462888032800D31F
:100AF000032047F7BEF8002805D000212170A9780F
:100B00006430C17701E01220207020464CF7ACF829
:100B10000021304658F76DFA00209EE7F8B50E46E2
:100B200010491C4615460020C2008A5AA24209D12B
:100B3000C00040184768002F07D02A4631461846A3
:100B4000B84702E0401C1828EED32246314628461A
:100B500001F046FEF8BD000038FC0000010800006E
:100B60004CB9FC07803CFC07064C0125064E05E00D
:100B7000E36807CC2B430C3C98471034B442F7D3BE
:100B8000FFF7CAFAF842FC071843FC0701480121A5
:100B9000018070470E1500500F48011F09880A0791
:100BA00003D5EF4AD3895B1CD381CA070AD00288D8
:100BB00007239A43A54BDB7B13430380E84A9389C1
:100BC0005B1C9381490706D50188072291439F4A00
:100BD000127C0A4302807047B810004010B590485C
:100BE00008210180994C218CE08B5EF7A3F95CF71A
:100BF000D4FC10484188890703D0418803229143DF
:100C00004180018880220A430280018904229143A5
:100C1000018181898907FCD541F783FB206B064957
:100C2000086006480168490700D500BE0168490709
:100C3000FCD510BD08000050080200401000004024
:100C4000F8B500250095134E13497160B560316801
:100C500004220A433260EFF31084012787F31088DF
:100C60003946814089B20D48FFF784FA0090306818
:100C7000B8433060002C02D087F3108801E085F380
:100C80001088009841424141B54A91700249081AC2
:100C9000F8BDC04610E000E0FFFFFF00003000504C
:100CA00080B50A2000F016F880BD80B50B2000F05A
:100CB00011F880BD80B50C2000F00CF880BD80B527
:100CC0000D2000F007F880BD80B50E2000F002F87E
:100CD00080BD000010B504465CF766FEE0B201215D
:100CE00081404E48016010BDF8B5044601273E0220
:100CF00005200507688DC00506D51B205CF78AFC1A
:100D000048480188394301808036288840013040B6
:100D1000698A454A0A4002436A8221681148016093
:100D200061684160A1688160E168C1602169016119
:100D300061694161A1698161E169C16104623C4904
:100D40000A6842624A6882628A68C2624A690263C9
:100D5000CA68426309698163A88AC00600D4FEE7B5
:100D600000BEF8BD0090FC07024800882B48102107
:100D7000016070472C130050F8B5044605200507A4
:100D8000288A04210143298228894021014329819D
:100D90002248012707602248082101803E02688D11
:100DA000C00506D51B205CF735FC1E480188394379
:100DB00001808036288840013040698A1A4A0A40FA
:100DC00002436A8221681948016061684160A16834
:100DD0008160E168C1602169016161694161A16966
:100DE0008161E169C161046211490A6842624A682D
:100DF00082628A68C2624A690263CA684263096998
:100E00008163A88AC00600D4FEE700BE688A09494B
:100E100008404018001D6882F8BDC04680E200E02E
:100E200000330050800000507FFE00005090FC070F
:100E300028ED00E0FC7F00007047000080B5F2481C
:100E4000C06A002801D002F0EDFD80BDE08EFC07F5
:100E500043490A6B002802D0824200D9086B4A6BD2
:100E6000904200D9486B074A10804878022181409F
:100E700005484843002803D000BF00BF401EF9E7E3
:100E80007047C04602000050F106000070470000A5
:100E900010B50F4CA1880F200840022806D0042866
:100EA0000BD00C280CD00128F4D110E020880221AE
:100EB000884320802088802106E002F0E3FDE9E7F6
:100EC00002F0E0FD2088012188432080E2E710BD88
:100ED0000411005080B55CF760FB194801880905D2
:100EE0000CD518490A8805231340052B06D108881C
:100EF000042202430A80088801221EE00188C906F4
:100F000006D511498A88D20702D00A88120610D461
:100F10000088C0060CD50C488188890708D501884F
:100F2000C90505D5022181800188084A0A4002804E
:100F300080BD01208880088880229043088080BD81
:100F4000040000500002005000010050FFFE0000AD
:100F500080B5CC490A31724A5DF762FE80BDC04659
:100F60004C48FC0710B5016800290CD503680268DD
:100F70000124A40700688000800C00195B0001D4E4
:100F8000028000E00270C80F10BDB0B50C4600250D
:100F9000202D04D041F7ADFC60556D1CF8E7002012
:100FA000B0BD0000B0B5044609480A4D40222946AC
:100FB0005AF754F948350848302229465AF74EF96D
:100FC0000648001B0649088014304880B0BDC04662
:100FD00070A0FC07D017F207B0A0FC07B8A0FFFF75
:100FE00078A0FC07D4481E214180018803220A43CF
:100FF0000280018804220A430280A3480121017073
:101000007047C04680B50D480078C00708D105205C
:1010100058F704F800280FD12A200A49085C04E098
:101020000748417D012907D1007D41424141C21E4F
:1010300050425041084380BD002080BDCDB9FC071F
:1010400034BDFC07DCBCFC0780B5034801688E4852
:10105000401C5BF7B9FF80BD3443FC0707480168BB
:10106000894A927D002A04D0064A1140064A89180E
:1010700001E0034A114001607047C046B8100040CB
:1010800077F7FFD577F7FFC08808002A704780B54B
:101090005CF73EF880BDF8B56946C870020A8A70F0
:1010A000020C4A70000E087008465CF719F88FBDF4
:1010B000BCB51C460D46BF48164A0223214657F7C9
:1010C00067FD04462B781448009005220620002B6B
:1010D000114600D00146002B00D010464B4A128822
:1010E000D20500D50146684641700C490191FFF7D1
:1010F0002FFF2320FFF7A4FA5DF7FCFD08495DF7F9
:1011000075FE05465DF7E6FD258020464BF7ACFDF4
:101110000020BCBD1AFE000001050A000003010109
:10112000C08BFC0710B51946A248044A0024234688
:1011300057F72EFD4BF798FD204610BD07FE000027
:10114000FEB51C460F469B481B4A0223214657F713
:101150001FFD044638780190B8780290FD787F78BA
:1011600038465CF73FFB064628465CF73BFB3040C1
:1011700001214140218020464BF776FD2088002840
:1011800018D10E48FFF75CFA3F4EF07C0024214650
:10119000224623465CF7FCFA707D21462246234610
:1011A0005CF7F6FA01983946029A2B4602F0E6FC03
:1011B00002F018FB0020FEBD09FE0000E204000062
:1011C000B0B51D460C46DD480E4A0123294657F7A7
:1011D000DFFC002101702278511E13468B412A4901
:1011E0008B750A490B88DB0507D4531E9A4192027E
:1011F0004B8D074C1C40A2184A854BF735FD00204B
:10120000B0BDC0461CFE0000E08EFC072A00005066
:10121000FFF90000B0B51D460C467F204202C748CA
:101220000423294657F7B4FC21785F2903D03329DA
:1012300001D10349098801604BF716FD0020B0BDBC
:101240000200005010B51946F0480D4A082357F720
:101250009FFC0446F048807902280ED102F040FB42
:101260000948016D2180C16D6180816DA180503080
:10127000008AE08020464BF7F7FC002010BDC046F6
:101280000DFE00004C48FC07E08EFC07F8B519463F
:10129000DE48264A0124234657F77AFC0546244EA9
:1012A000378827400FD1308820433080308828216C
:1012B0000143502081433180308806210143318031
:1012C0001C48FFF7BDF93088C00701D1FF2021E09D
:1012D0000095194D68886C802888082188432880EB
:1012E000288802210143A143298028880421014341
:1012F000298000262888400706D5632E04D864205C
:10130000FFF79EF9761CF5E72888400300B2C0136A
:10131000009D074E2870002F02D13088A0433080F6
:1013200028464BF7A1FC0020F8BDC04616FE000081
:1013300022000050400D03000016005070B5194601
:10134000F0480C4A422357F723FC04460E2505704B
:10135000801C094E31462A4659F780FF65702046A9
:10136000223031462A4659F779FF20464BF77CFC5C
:10137000002070BD08FE0000D842FC07B0B51C4636
:101380000D46E0480C4A0123214657F701FC04466C
:101390002D7828465CF726FA002803D028465CF70B
:1013A00015FA00E0FF20207020464BF75DFC00207E
:1013B000B0BDC0460108000013FE0000F0B585B0C6
:1013C0000C46F1485E4A01261946334657F7E0FBC2
:1013D0000290A0780490E5782079019060790390DC
:1013E000277838465CF7FEF962780021032A12D884
:1013F0007040920002A39B580A460C469F46C04686
:101400002F14FC071114FC072114FC072914FC07F6
:101410000122140206E0012044020022304606E0C8
:1014200001225402002202E00322140232460094F8
:10143000049B012B334600D80B46012D344600D8BF
:101440000C4603996429314601D8144021460029ED
:10145000314600D11946002900D10646FF24002E4E
:1014600063D1384601F03AF9384601F055F9019E4A
:10147000002E17D0012D25D0002D029D56D13148C8
:10148000418B012291434183510200243846224678
:1014900023465CF77DF90499481E814138465CF784
:1014A00089F943E0681E43424341002438460099CD
:1014B00022465CF76DF90499481E814138465CF775
:1014C00079F932E003252902172200243846234601
:1014D0005CF75EF90499481E814138465CF76AF969
:1014E0004F48018808221143018001882943018067
:1014F000144D688B10436883688B0421884368838C
:101500007D20C1007143104859F72EFE401E2880EF
:1015100028886C80411C03984843642159F724FEB5
:10152000E881688B012101436983029D2C70284664
:101530004BF79AFB002005B0F0BDC0460108000043
:1015400012FE00000834005080841E00FEB50E46D6
:10155000B7482F4A012519462B4657F719FB029029
:101560007478367830465CF73DF90746304601F02E
:10157000B5F8002E02D1274801210180022C00D3AA
:1015800000252F423BD0244F00200190F8713E727D
:101590007C7201253D70F879387A032426021022E6
:1015A00031462B465CF7F4F8F879387A797A4A1E96
:1015B00091415CF7FFF8E943184802880A4002802D
:1015C000174A938B0B409383118808230B43138096
:1015D00011882143118001990180FF210906114AD8
:1015E00013688B43E90759181160E83646808680F6
:1015F0000D49C180018829430180029802E0FF2142
:10160000029801704BF730FB0020FEBD010800007E
:1016100017FE0000000300504C48FC070034005047
:10162000040000500CE400E0FFFF0000FEB51C4683
:101630000D467F48184AF223214657F7A9FAAC789D
:101640001221002C22D03C2C20D82A88FF21C9044A
:1016500055180190471D0094002C14D002AE0422AE
:101660002846314601F0F8FEF81E02990170B81EB6
:1016700071780170781EB1780170F0783870641E4E
:101680002D1D3F1DE8E700210198009C447001706A
:101690004BF7EAFA0020FEBD04FE0000BCB51C4674
:1016A0000D466348184A0723214657F771FA044646
:1016B00000200190009028782070032807D002288D
:1016C0001AD1611C1248062201F0C6FE14E06879A6
:1016D000A97909020818019028790006E978090417
:1016E0000818A9780902401869784018009007483E
:1016F0006946022201F0C1FE20464BF7B5FA0020F0
:10170000BCBDC0460108000003FE0000D47F0000FD
:10171000D47FF807F0B585B01C460E4644481B4AF6
:101720000223214657F734FA04460021039102911F
:10173000B7781220002F1AD03C2F1DD8F51C019627
:101740003688002F15D0E8780006A9780904081813
:1017500069780902401829784018029002A90122EC
:10176000304601F08AFE7F1E2D1D361DE9E70F462B
:1017700002E00198877800206770207020464BF7C0
:1017800073FA002005B0F0BD0108000005FE00005E
:1017900010B5194626480A4A0124234657F7F8F996
:1017A000002101704BF760FA0648082101800648C5
:1017B00044800521018001880906FCD1002010BD6C
:1017C0001DFE0000023300500031005010B51946D4
:1017D0001748044A0024234657F7DAF94BF744FA2E
:1017E000204610BD0AFE0000B0B51D460C46FD485F
:1017F000104A0823294657F7CBF900214170227877
:101800000270032A10D861687A4412795200974412
:1018100001030609096803E0A2680A6004E0098878
:10182000416001E0A2680A804BF71EFA0020B0BDBB
:101830000108000006FE0000F0B589B01C460D4608
:10184000FB48E94A0223214657F7A2F904462878C3
:10185000F94EF77D012800D100E1002800D0B6E163
:10186000E8785BF7BFFF002800D1AEE168795BF74D
:10187000B9FF002800D1A8E1E8795BF7B3FF0028A1
:1018800000D1A2E1687A5BF7ADFF002800D19CE1AE
:10189000687B002805D0E87B5BF7A4FF002800D117
:1018A00093E1E878D54EB0476879B047E879B0471A
:1018B000687AB047687B002802D0E87B00F00EFF12
:1018C000A8780028E84E02D1E87800281AD02879B4
:1018D000002802D16879002814D0A879002802D104
:1018E000E87900280ED0287A002802D1687A0028EA
:1018F00008D0687B002809D0A87B002806D1E87BA7
:10190000002803D10120F07501F02CFFE8780023B6
:10191000B64A0B28194601D84000815A68790B282D
:10192000049302D84000805A04900391E8790B2870
:10193000194601D84000815A0291697A0B2918464C
:1019400001D84800805A0190E87B0B2801D840005C
:10195000835A0593A6488171297A41710178012241
:1019600006921140027992080E23134059183173E0
:101970005CF7D0FBE8780321090208911C220023C0
:1019800007939F4EB04768791A2207990B469C4EE1
:10199000B047E8791B220899079B994EB047687AAF
:1019A0001D220899069B964EB047687B002806D0FA
:1019B000E87B06994902002213465BF7E9FE687846
:1019C00001280CD1E87A0890AE7A01F0A5FF3046E4
:1019D0005CF7E2FB08985CF7DFFB5CF7CFFB01F0FC
:1019E000F7FFAE7A01F098FF802030435CF7D4FB1C
:1019F00000205CF7D1FB06465CF7C0FBF0B220800C
:101A0000687B002807D04B208000FEF719FEE87B9A
:101A10005BF7DCFE2080E8780B28934E734902D8F0
:101A20004000039A425268790B28059A02D8400078
:101A3000049B4352E8790B2802D84000029B435292
:101A4000687A0B2802D84000019B4352A87B0B28E0
:101A500001D8400042525CF72BFBB8E068795BF795
:101A6000C1FE002800D1B0E0E8785BF7BBFE00289B
:101A700000D1AAE0687B002805D0E87B5BF7B2FEC6
:101A8000002800D1A1E0687900F028FEE87800F095
:101A900025FE687B002802D0E87B00F01FFE287935
:101AA000002802D1687900280ED0A878002802D139
:101AB000E878002808D0687B002809D0A87B002897
:101AC00006D1E87B002803D10120F07501F04AFE21
:101AD000E878002245490B28134601D84000435AB4
:101AE00068790B28164601D84000465A0696079397
:101AF000A87B0B2801D84000425A0892297B3C4819
:101B0000818208305CF752FDE878002609223146D0
:101B10005BF71CFE68790A2231465BF717FE01204D
:101B20004602687B002805D0E87B00223146134638
:101B30005BF72EFE334668782F4E01280ED1E87AE7
:101B4000A97A32885207FCD52A4A1180184310809E
:101B500030884007FCD530888006FCD401F038FF7F
:101B6000A87A31884907FCD5224A1080308840077E
:101B7000FCD50320000210801C4930898006FCD06F
:101B80001088C0B22080687B002808D04B208000DD
:101B9000FEF756FDE87B5BF719FE14492080E878D4
:101BA0000B28B54E02D84000079A425268790B289C
:101BB00002D84000069A4252A87B0B2802D8400067
:101BC000089A42525CF758FD01E0FF202080F7752B
:101BD00001F0C8FD01F0F4FD20464BF745F8002068
:101BE00009B0F0BD0108000011FE000006300050F1
:101BF0001843FC071013005070130050DD26FC073B
:101C000091D7F107B0B51D460C46EB48094A0123B0
:101C1000294656F7BDFF05462078ED49C87501F005
:101C2000A1FD00242C7028464BF71EF82046B0BDBD
:101C3000010800001EFE0000E08EFC07B0B51D4646
:101C40000C46EE48074A0123294656F7A1FF002516
:101C500005704BF709F82078DD49487340F7F0FC30
:101C60002846B0BD1BFE0000E08EFC0710B51946EB
:101C7000E248054A012356F78BFF002404704AF717
:101C8000F3FF204610BDC04618FE0000FEB50E460C
:101C90005748584D012419462A46234656F778FFDF
:101CA000002707704AF7E0FF49F718FD307802284F
:101CB00016D0012807D0002800D096E05848C770F9
:101CC0005A48077091E001F0E5FE4C480770B07883
:101CD00071780A46024360D151480221017167E0E0
:101CE00001F0D8FE44490820088044490F7072B6BC
:101CF000434EB28904210A43B281B28880239A43B9
:101D0000B280B288402302931A43B2803D4A1180C8
:101D100032883D4B13403380FA433C4B1A60328A81
:101D2000D206FCD47E35F2892A40F281E243384B58
:101D30009D8815409D80374D2F680F432F60B58AD1
:101D400025430227BD43B582B58A0D4301908543E3
:101D5000B582B58A102028432025A843B082B089D7
:101D60002043B081188810401880988A2A4A02407F
:101D70000720C00210189882A0039A8A02439A8210
:101D8000F08C264A1688C00517D4602006431680BA
:101D9000988A03220243029F17E0214A1471214AC4
:101DA0004A4319218901414388181F49096848623B
:101DB0001B48C4701D48047017E02E433846029F2C
:101DC000BE4316809A8A0243A2439A82988A019A55
:101DD00010439882988A88439882188B3843A84386
:101DE000188300BF00BF00BF30BF0020FEBDC0464B
:101DF0000208000001FE0000003300502C8CFC079C
:101E00000400005000020050FFF7000080E200E0F4
:101E10000C03005010ED00E0FFC300005200005022
:101E200020BAFC070077010058B9FC0780BAFC070C
:101E3000BCB51C460D46B1480E4A0023214656F754
:101E4000A7FE04462878B24D2871A87900280BD146
:101E50005F485030122159F71AFA297901A8017008
:101E600046F7ACFF0220A87120464AF7FDFE00208D
:101E7000BCBDC0460CFE0000E08EFC07B0B51946A4
:101E80009E480A4A0024234656F782FE0546A0488B
:101E90008079052808D101F083FD01F021FD9B48E0
:101EA000046028464AF7E0FE0020B0BD10FE0000A6
:101EB0007CB51C460D4691481D4A0023214656F725
:101EC00067FE04462878924E30716878F070B079D9
:101ED000002828D101AD2520687030792870F0786D
:101EE000A870FFF7BBF8284646F7EEFE0120C203B4
:101EF00086490B6813430B6082030B6893430B60A6
:101F000002030B6893430B600A680A4B13400B6093
:101F10000521B17100027B490860BFF34F8FBFF309
:101F20006F8F01F009FD20464AF79EFE00207CBD20
:101F30000FFE000000FEFFFF80B50878744A1071A4
:101F4000487850718878D07008790002C9784018B4
:101F5000108201F0A7FC002080BDC046B0B50C4641
:101F60001548164A012519462B4656F711FE2178C9
:101F7000052900D8002505704AF776FE49F7AEFB23
:101F80007D20FEF75DFB2078052804D80CA1095CB4
:101F90000DA2105C01E00B2108200D4A517610764D
:101FA000032240F783FB0024204640F7DBFB40F789
:101FB000A1FB2046B0BDC0460108000015FE000090
:101FC0000301060B0001000068341108011A00002B
:101FD000E08EFC0770B50C46F948094A642519469D
:101FE0002B4656F7D5FD064621462A4659F736F9BF
:101FF00030464AF739FE002070BDC0460108000097
:1020000014FE0000F8B50E46ED483D4A002519467D
:102010002B4656F7BDFD0446307854282CD0522864
:1020200012D04F2868D101F0BBFC394EB079062898
:1020300054D0072856D101F053FC0120C007334982
:102040000A6882430A604DE0012000022D490860C1
:10205000BFF34F8FBFF36F8F7578FEF7FFFF6846B2
:10206000057046F7ABFE2848401C28490A68024321
:102070000A60274807212DE001200002214908605D
:10208000BFF34F8FBFF36F8F7678FEF7E7FF214DD9
:102090002846FEF767FF0C20071D342F05D02818AF
:1020A000FEF760FF00283846F6D13820071D582F6C
:1020B00005D02818FEF756FF00283846F6D11648F6
:1020C0000321017015483018154A10601548016049
:1020D0000F480621817101F02FFC0AE011480560CC
:1020E0005DF794FA012000020F4908600F4908606B
:1020F000B57120464AF7B8FD0020F8BD0108000080
:102100000EFE000080E100E0FFFFFF7FE0000040E6
:102110004C48FC0770A0FC07051000400001620954
:1021200004300040AC10004000E100E080E200E03C
:10213000F0B58DB01A460D46A148A24E02231146B5
:102140003246059356F724FD0446297807291BD803
:102150006878AA78120212187944097949008F44E4
:1021600015181B2E394403039749FE2809905DD1A9
:1021700000200E460C2853D00A880F231340012B51
:1021800052D0891C401CF5E70026D1E18F48008819
:1021900030E08E4802802CE08C48018A0122120235
:1021A00080320A40802A06D1418AC906FCD47D3695
:1021B000018A3140018203200002401D17E02646BB
:1021C00090B2FF210C1A81490B8800209C420ADB47
:1021D0009A1807E026467D490B8894B20020A34256
:1021E00001D39A1A0A80344604E00120400276495D
:1021F0004881002020800026FD49C87C0A7D8B7C18
:10220000934205D1497D884202D100200990BAE16C
:10221000032109020222002309935BF7B9FAB2E114
:102220000C200990FF2000E009903146C7B200263B
:102230000C2F01D3304601E0780040180B2F04909A
:102240002ED8029506880998C5B2284600F046FAAD
:10225000284600F061FA002D0DD1F148817C00295B
:1022600009D1C07C002806D101204102002002468D
:1022700003465BF78DFA0394012000900002049955
:1022800008800299897800220C920B9201920A929E
:10229000002907D001293FD1AF229300D64A03E09D
:1022A000042043E1D34AFA23D44D0A242C636B6300
:1022B000EA632C6414226A646E22AA642A6B2A657B
:1022C0006A6B6A656970A96CA9630B2F24D8B90081
:1022D00001A251588F46C0460923FC072123FC0761
:1022E0003123FC074123FC075123FC076123FC0732
:1022F0007123FC078123FC079123FC07A123FC0722
:10230000B123FC07D123FC0703210902B74B1A882C
:102310008A4302431A8062E0029D039C019805E112
:1023200003210902B14B5A888A4302435A8056E07E
:1023300003210902AD4B9A888A4302439A804EE0FA
:1023400003210902A94BDA888A430243DA8046E076
:1023500003210902A54B1A898A4302431A813EE0F0
:1023600003210902A14B5A898A4302435A8136E06C
:10237000032109029D4B9A898A4302439A812EE0E8
:1023800003210902994BDA898A430243DA8126E064
:1023900003210902954B1A8A8A4302431A821EE0DE
:1023A00003210902914B5A8A8A4302435A8216E05A
:1023B000032109028D4B9A8A8A4302439A820EE0D6
:1023C0000108000002FE000006300050020000502C
:1023D00003210902854BDA8A8A430243DA82039C8D
:1023E000A86BFEF735FD3846FEF72AFC0A900A98DE
:1023F000E96B884205D30A98E96B401A296C884238
:1024000019D90A98E96B884205D2E86B0A99401AF3
:10241000296C88420FD90A98E96B884213D9686DF4
:102420000790686DFEF714FD3846FEF709FC0C9026
:102430000020089012E038352868411C74D0801CB8
:10244000029D5FD06AE7286D0890286DFEF700FDB9
:102450003846FEF7F5FB0B90002007900024069607
:102460000A9AEB6BA86B0A999A4202D90B910890D1
:1024700001E00C9107903D466048C06B0B9B0BA997
:102480000CAA0C9EB3420B4600D313461B680B9E4E
:102490000C9FBE4200D811460A68D11A121A089E33
:1024A0000798801B504358F775FE8019534EB06350
:1024B000B06BFEF7CDFC2F4635463846FEF7C0FB25
:1024C0000A900A98F16B8842069E05D30A98E96B38
:1024D000401A296C88420DD9601C0A99EA6B914216
:1024E00005D2E96B0A9A891A2A6C914202D9092C01
:1024F0000446B5D3A878002806D00020FEF7A8FC33
:10250000029D039C059811E00A98E96B2A6C891AD0
:102510008842039C05D30A98E96B2A6C51188842BB
:1025200053D90020FEF794FC029D00982080297862
:10253000FE200840062822D1022030431F210140FE
:1025400003291CD1069603942E462E4C2546099845
:10255000C7B238465BF73AF9002804D06D1CF6D3B1
:1025600001E0641C04D238465BF730F90028F8D04B
:102570007D200001FEF764F83546039C069E09980D
:10258000000600D138E620464AF76EFB2878FE2187
:102590000140062916D1022030431F2101400329A2
:1025A00010D1194D0998C4B220465BF70FF90028E5
:1025B00003D1681E29040546F6D10498002801D0ED
:1025C0000498068000200DB0F0BD0D480088E86436
:1025D000E86C296B884202D8E86C0028A4D1E86C2A
:1025E000696B8842A0D24C3526E7C04606300050C1
:1025F000E08EFC0700127A00007C92004C48FC0739
:1026000002000050E708C9FFB68C000080B557F7FC
:1026100029F848F706FDDF480121417480BDC04616
:10262000E08EFC0700BE704780B50E480068682148
:10263000415A52224A430C4909688918AF22520074
:10264000895A090A6830C07D081AC0B201F03CFA04
:10265000002045F758FECF48042141745CF7D6FFAF
:1026600080BDC04650BBFC074CB9FC0780B50120BB
:1026700045F749FE80BD80B548F7D3FCFEF7B2FCB4
:1026800080BD000080B504480068B021405C01F0C6
:102690001BFA45F784FE80BD58B9FC0780B50D488C
:1026A00001880122914301800B480078C00702D1C4
:1026B00040F708F804E0002040F754F840F71AF813
:1026C00056F7B4FF3FF7BCFFFEF78CFCB148002182
:1026D000417480BD08330050CDB9FC070C490A880D
:1026E00002280DD0D205920F052801D1012A07D06A
:1026F000012801D1022A03D00A2808D1032A06D1D1
:102700004888C006FCD40888024A02400A80704704
:10271000120000507FFE000080B5002814D19D48B3
:10272000C17D022910D0C17C827C13460B4301D1AC
:102730000223C375037D934204D1427D8A4201D1B5
:102740000121C17501F00EF880BDC046FEB51446EA
:10275000002918D005460127002B17D0CA18238856
:10276000002D18D0087828706E1C0220002B0FD086
:1027700002938B1C93420AD84B783370029B012B37
:102780000ED8AE1C04E00021084602E02E46384672
:10279000711B2180FEBD881C012690423046F7D86F
:1027A0008E1C48788006000E029031463018AE1C10
:1027B0009042ECD8002D0CD0E81801903046029FD2
:1027C0003A4658F74BFDF0190199884203D800208A
:1027D00002E0002001E00120400002997618D7E7CE
:1027E00070B51346024600200E4C102808D0255A1A
:1027F0009D4201D00830F8E720184468002C0DD124
:102800000020094C0546F02D0AD0665B9E4201D09F
:102810000835F8E764196468002C01D01846A04711
:1028200070BDC046E842FC07A83DFC07FEB5144653
:10283000002905D005460120022B04D22E463FE098
:10284000002088213DE02288AF18002D09D0029792
:102850000E784F786F702E70012A06D8AE1C0220B9
:102860002EE0032B05D202262AE0032B03D2AE1C56
:1028700026E08A7805E08A78AA70EE1C029FBE42A4
:10288000EDD80297CB180193C91C9206120E8B1833
:102890000093EE1C019B009F9F4211D8002D09D090
:1028A0003046174658F7DAFCF019029A904204D8DD
:1028B000002003E00020174601E001204000F61947
:1028C000711B2180FEBD000080B5324809300649E9
:1028D0005CF79CF880BDC04680B52E48093002499F
:1028E0005BF7E8FF80BDC046B448FC0770B5174EE3
:1028F000B06800F02DF827494A6B00234B63151888
:10290000084C2846214658F72FFC70610649414380
:10291000481901D0201A80B2306130680821014383
:10292000316070BD710200008FFDFFFF80B5064869
:102930000021016000F080FF0120C00703490A6800
:1029400082430A6080BDC046A4B9FC073000004045
:1029500080B50246C00B09D00E48406C00210B46E2
:1029600058F72CFC8905800A401880BD0948406C46
:102970004243900A80BDC04680B5FFF7E9FF80BDA5
:1029800080B50449096C414303480818034958F7C6
:10299000EBFB80BDE08EFC0720A1070040420F004A
:1029A00000B59BB0E14808210D910180E04E3088D0
:1029B00018AC20802088C046C04620880422D1431D
:1029C0000842139202D00020308003E0B089012138
:1029D0008843B081B08BD749014007200A90C002DC
:1029E0000818B083D44F38880D9C20433880F88D68
:1029F00006229043F88501239803B18B0143B183EC
:102A00003888CE4901403980788808921043A04325
:102A1000788005200B900507698DC94AFF32F88D33
:102A200010407D22D2000F24C90512930392159401
:102A30001AD5114618310843F885F88DC14901406F
:102A4000129AD0030818F885B08B0D990843B0830B
:102A5000B08B139CA043B083F88D9043F885B08B66
:102A600040218843B0831BE021030322520210431C
:102A7000F885F88D0843F885B08B0D998843B083AD
:102A8000B08B04218843B0837888AF4901407980B6
:102A9000F88D12990843F885139C688D4007FCD582
:102AA000B08B03210F910843B08339882022114352
:102AB0004020C04301403980318C149211430140C1
:102AC0003184E98A80220C9211430140E982298EE7
:102AD000FF2291432986298F214318229143298778
:102AE000298FA0220A4302402A8798480480A88898
:102AF00097490140A9809749129848700004964967
:102B00000860FFF7E9FE022016905BF79BFE934EEC
:102B10003068C1B20C20AA29014600D021462A887B
:102B2000824388182880C046C0468D48008889495D
:102B300088878C48006888631298C046C0468A48D7
:102B400000908A4A1C328A4F8A498B4B38465AF782
:102B500059FB64200990385A0028039801D109993B
:102B600078526621785A00287A4A06D13068C0B275
:102B7000AA280C9800D06E207852D08314465AF7B9
:102B80003BFA7F20A070B06978498861FFF79CFE0E
:102B90007A4800687A498842129E159F00D0B9E0B1
:102BA000300210907748784958F771FB0A98010273
:102BB000764858F76CFBFDF701FB754875490160D5
:102BC000754876492A2258F749FB75480024C47194
:102BD000847144710471C470847044703F21079102
:102BE0000170704870A14022139258F737FB7E485D
:102BF000C47184714671C02101711499C170302172
:102C0000817011944470077009204201774F784910
:102C1000384658F723FB1720C04300280BD03A183A
:102C20002723DB00D21873A10B18183352CB52C2E2
:102C3000129E0C30F1E7109A3832744C1E210D9B15
:102C400000290DD0BB1815912146C1CCC1C30C463B
:102C50001599664F129E0D9B491E0C320C34EFE7FE
:102C600039204D494885CF626948067069486A49EC
:102C700001606A486A4901606A496B4808606B48AC
:102C800032210E9101706A480B9901606948066013
:102C90006948016069480899016069480A990160BA
:102CA00068480360684F374838601098801D67494E
:102CB00008606749086000F0F7FB5AF7CBF85AF74D
:102CC0000FF95AF729F92D480068624C2C498842BF
:102CD00000D1D8E03868A060244A90699074010E51
:102CE0005175010C1175000AD0741098C0305A4902
:102CF0000A46002800D1B3E0401E435C16783746F0
:102D00000F9C2740194CE719BF7C5F407740177034
:102D1000521CEEE7002051494F4A0B9B5B02984240
:102D200000D93DE743588350001DF6E700330050BB
:102D300004030050FFC3000052000050FFBF00001A
:102D400000F0FFFFFF0F0000FFF90000000200503D
:102D5000FFF70000E08EFC0780E200E0D07FF8077C
:102D6000D87FF807D47FF807000000004C48FC0724
:102D7000C08BFC07A000FC07000000009CB8FC070B
:102D80006587341200A0FC07AC14000000B9FC07F2
:102D90002CBAFC070040FC07D0B9FC0794BCF10733
:102DA000ABB9FC075CBCFC072000800000C0000041
:102DB00000000400000028220000000000000400C1
:102DC00000F7C3F77E00000030F0070800000000A5
:102DD00000040000000000000000000000000000EF
:102DE0000000000000000000B3B9FC07308CFC07B5
:102DF0005CBBF10700FD0700C142FC07BD42FC07B8
:102E000001FD0700C142FC07A842FC07983EFC07F1
:102E1000CDB9FC0750B9FC072A17F20754B9FC07D3
:102E20001441FC0758B9FC071840FC07AAB9FC0775
:102E30005CB9FC0760B9FC0764B9FC0768B9FC071A
:102E40006CB9FC0770B9FC074CB9FC0748B9FC0722
:102E500044B9FC0700020040448FFC0700B0FC07A7
:102E6000DD4F5837DD491C2238465AF709FF002844
:102E7000129E00D000BE38465AF732F9D848D949D8
:102E80000160D94CD94F38683FF7E4F9D848119F11
:102E90000771C770B1070868109A10431591086050
:102EA000FEF7A0F8304600F065FBCB4EB7711698E0
:102EB000F0703771252070710E983082CC48C77041
:102EC000CC480770F781CC485030122158F7DFF911
:102ED000CA48401C216801432160E88A0C990843D4
:102EE00013998843E882FFF721FD0F20FDF772FB5D
:102EF000129948020290079880020190CC03C048C2
:102F0000C0490818C04940188008401E0A900B9418
:102F10002889000600D4BEE01598006B204200D03E
:102F2000B9E0B3480088C00700D0B4E056F717FBFB
:102F30000027384600F01EFBAF48407C04287AD1B9
:102F4000129800F017FB179717A8042148F7C0F94B
:102F50000028A94B6FD01298AC4A106015991068E0
:102F60000028FCD1C869596A884201D25F6239469B
:102F7000411ACA09997B182A01D800295BD0002977
:102F800005D0986A401C986200F07AFB53E05862C2
:102F90009F49088807904888069088880590C888C7
:102FA0000C4604901997F748189018A8FDF7D0FF21
:102FB00003981730234621890140F64A51836189DD
:102FC0000140F44881832089019C204002990843F4
:102FD0001881588920400843588170895BF734FF75
:102FE000EC4A0890538BF048018921401943018134
:102FF000938B418921400B9C1943418191787F2912
:103000000ED00898431A59B2C9114B40591A49B207
:10301000082907DB916A491C916200F031FBDD4A07
:1030200008989070E048069941800599818004993C
:10303000C18007990180DE48C06BB179012904D1B4
:10304000002802D1B77100F02DFCF089318A884246
:103050000DD3B07901280AD1F781D6483946D64A2E
:103060003B4655F795FD49F7FFFD00F039FC56F753
:1030700076FA1698C043CA490978C91E814203D816
:103080000998CE49086043E7CC4A1068411E116098
:10309000002800DD3CE7FDF7B5FF002800D137E749
:1030A00072B617A9119A0A70BC4800790228104616
:1030B00002D0B9480068406A189037462037384631
:1030C000BF4A5BF779FF002831D1BE48806A0028EB
:1030D00003D0B1480068406A189000F0ADFB18A911
:1030E00038465BF79FFF002821D149F7EBFF002806
:1030F0001AD048F7EFFC002816D018A85BF7B4FFE9
:10310000002814D101205AF753FA189A002A00D146
:10311000DBE01598006AAC494018DA28CB4B00D99F
:10312000D5E0521E1892D2E017A8002101709C48E9
:1031300000780128169800D00F9817A9097804295B
:1031400000D00846811E02292DD2298A042739433E
:103150002982022831D00328109971D19349086837
:103160003843086089490889129EB0430881688AFB
:10317000102420436882688A38436882FFF7ACFBDA
:10318000688A204368820A9894490860EFF31080A7
:1031900086F3108829880C9A91432980002839D019
:1031A00086F3108839E0012800D08CE0FDF72AFF73
:1031B000002800D187E030BF85E07C4908683843AB
:1031C000086072490889129A90430881688A102120
:1031D0008843688231E0C0464C48FC07448FFC07B6
:1031E0009CB8FC0765873412000200404CB9FC070C
:1031F00020BAFC0780BAFC07E08EFC07FFFF1F0027
:10320000284200001001FC07030004F8FC00004005
:1032100000150050002080F3108810990B9C688DD9
:1032200008420BD00020DE4948720B205AF7F2F911
:103230005749C88D129A1043C885109900202883D9
:10324000688D084206D152490888139A1043149A8F
:10325000904308804D49088C139A1043149A904368
:103260000884A88C129EB043A8840D20FDF7E8F9CD
:103270006889304302218843688168894006FCD50B
:103280000E986880A88AC006714E02D53E480D99F6
:10329000018030BFA88A3E4A1088149B18431399B6
:1032A000C94308401080394A108C184308401084E4
:1032B00000F0FAF800203949C870394908703B49D4
:1032C0000868B843086062B622E60022EA4B188C10
:1032D000716A0818B062159FF86B3C4B18400843A0
:1032E000F863F86B3A490840F16A89020143F963CF
:1032F00017A804210170F86B2A490840B16A4905F2
:103300000818F8633348824200D300BEDA49886C5B
:10331000C96C002357F752FF0903000D4118F06AEA
:10332000821C8A4200D0481E1C4909794A1E9141DC
:1033300045F736F92848C06A80471599086B20423E
:10334000FCD01099CA4F38680842FCD038680C99F4
:10335000884338600C484089452805D846210A4AE8
:103360005181081AF14948633EF7AFFFB868EF4949
:10337000086338680006FCD528890C9988432881A1
:10338000D5E6C0460104000000330050040300509D
:1033900052000050E08EFC0758B9FC0720BAFC0729
:1033A00080BAFC07FFFF1F000015005010ED00E081
:1033B0007CBBFC07010800000BFE00003043FC074B
:1033C0004910FC071CBEFC07C8FEFFFF00FCFFFF06
:1033D000FF03E0FF40420F0000BFFC072000F4079E
:1033E00080B548F714FC00F03BFB80BD80B549F781
:1033F00094FD00F035FB80BD70B514460D460646C1
:10340000ED480179012906D1007A0321090202223F
:1034100000235AF7BDF930462946224648F775F988
:1034200070BDC04680B5E448437B0948C16909487E
:1034300000225AF769F880BD80B5F648437B0449FD
:103440001C31044800225AF72BF880BDE08EFC079F
:103450004C48FC07C08BFC0770B514460D46064669
:10346000FFF73AFA02205BF7EDF92846314622468B
:1034700057F7F4FEFFF728FA70BDF8B514460D466D
:103480000646002C0FD0FFF727FAB1080122284684
:103490005BF78CFA0746FFF717FA002F03D0641E7C
:1034A0002D1D361DEDE7F8BDF8B5F94E0120009051
:1034B000F07500F057F9727A1B201E495AF702F98D
:1034C0001D4801888024214301801C480027076093
:1034D0005AF763F81A4808220280052000078188FD
:1034E000214381800324E10103885B010B40418A71
:1034F000144D0D40E9184182134807210180134DF6
:10350000AF802F8083202881307E002801D0717EFB
:1035100003E00F4830830B21104622463FF7C6F8E0
:103520002C8100F04DF90B480188009A114301806D
:10353000F8BDC046B448FC07001500500000084024
:10354000003300507FFE000088100050041000502F
:10355000080B00000C03005003480188034A114087
:103560008918091D0180704712000050FC7F00007F
:103570007047000080B50146EE480278012A0ED15E
:10358000084A002903D011884907FCD402E01188B9
:10359000490704D400210170403059F7D7FC80BDA1
:1035A000E08EFC070016005070470000F0B58BB0AD
:1035B0003022002181541F221204244B1D689543A0
:1035C00001246204AA181A60224B234D4561234D41
:1035D000234E244F244AC261066243621C4A82621F
:1035E000C562224A07604260E0045C4A1368834374
:1035F0001360282903D001A84154491CF9E71D484C
:103600000068403001A9282257F728FEDF4D092025
:1036100068735BF7E5FFFFF70FFFFFF703FF00F0AD
:10362000FBF85CF71BF85CF72DF85BF79FFFAC73BA
:1036300012480088072101402974FCF7A3FF304895
:103640005CF75EF85BF7E2FF0BB0F0BD7400004082
:10365000A936FC07A536FC070937FC0741F6F10738
:10366000390EFC070537FC071DF6F107A935FC07E5
:10367000000200404CB9FC07E08EFC07B810004087
:1036800080B55BF7ADFFFFF7CDFE00F0C5F85BF747
:10369000E5FFFCF777FF1A485CF712F85BF7B6FF17
:1036A00080BDC046002070477047000080B51F20D5
:1036B000000401218A07536F834348041818506798
:1036C00010680721884310600C48018808220A43CB
:1036D00002805BF785FFFFF7AFFEFFF7A3FE00F068
:1036E0009BF85BF7BBFF5BF7CDFF05485BF7F8FF87
:1036F0005BF78CFF0F20FCF76DFF80BD08000050CA
:1037000070A0FC0770470000022902D0012900D0F8
:1037100000BE002802D0FF2804D000BE022901D13B
:103720000C207047E748407B7047C046E08EFC079E
:1037300080B50A480168C90703D0016802220A431C
:1037400002600168490204D50121890502680A4323
:10375000026003485BF718FC80BDC04600020040D1
:10376000503DFC0710B5D748C07D012815D0002872
:103770001BD15AF73DF90024204659F7EFFF0028E6
:1037800015D1012041022046224659F7DFFF1420BF
:10379000FCF756FF0948048010BD0848012101804C
:1037A000002006225AF712F910BD5AF721F90348F2
:1037B0000121018010BDC046E08EFC0700030050CF
:1037C00010B5074C2078002807D1002005210246BB
:1037D0000B4600F0D3F90120207000F003F810BD73
:1037E0002C8CFC0710B5E44C607D012200210B46B7
:1037F00059F7CEFFE07C217DA27C8A4203D1617D16
:10380000884200D110BD032109020222002359F78A
:10381000BFFF10BDE08EFC0780B55BF74DFCC120FB
:103820004001F349497B09060818024908605BF723
:10383000BDFC80BD00100040F8B5642013490E5A4D
:10384000EB4F3C6C3046604312494018124957F721
:103850008BFC054638843C3666430E4830180E49CA
:1038600057F782FC001D7A4948622818C01DC862BB
:103870000A4A1278022A01D11130C862FFF768F8AB
:103880000749401880B255F7FBFEF8BDC08BFC0716
:10389000E08EFC0720A1070040420F0080BAFC0721
:1038A000E2040000BCB56A4CA079002800D0BCBD81
:1038B0000020E081217901A8017061794170E178EF
:1038C000817045F701FA134DE86B002805D101A876
:1038D00045F7FAF90028F7D0FEE70120A071BCBD3A
:1038E00010B55B4CA079012808D0A079022805D03A
:1038F000A079052802D0A079072807D10548C06B18
:103900003EF739FF0020014655F773FB0020A071F8
:1039100010BDC0467CBBFC070548018820229143AE
:103920000180B349097B0907490F81847047C0466C
:1039300000120050E08EFC07B0B5AD48817D002933
:1039400000D0B0BD21490A88082313430B800A88A0
:10395000032313430B801C4906220A80FF22120610
:103960000B4B1C6894430122D50764191C60094B5A
:103970004B8000238B80084CC462CB80D003074B64
:103980001860088810430880B0BDC046E08EFC0770
:103990000CE400E0204E0000253AFC0700E100E0C6
:1039A0000120C103074A1160BFF34F8FBFF36F8F30
:1039B00005490A8882430A80044801880822914305
:1039C0000180704780E100E00034005004000050A6
:1039D00010B51248026801218A430260FF221206D4
:1039E000436813400E4C1B19436083681340836087
:1039F00003680224A343036003680424A343036011
:103A000003680B4303600368DB03FCD58368134042
:103A1000836002688A43026010BDC04610E000E087
:103A20002F75000010B5094C052020601920FCF707
:103A300007FE5BF7D5FD06488079401FC0B202281B
:103A400003D8800003A10858206010BDAC100040CE
:103A50004C48FC07000000000300000000000000CC
:103A600010B5634C2079012808D105485AF705FDA7
:103A7000207A012200210B4659F78AFE10BDC0466C
:103A800000100050024801880122914301807047D4
:103A90000411005010B5564C607D00210A460B46BB
:103AA00059F776FEE07C217DA27C8A4203D1617DBC
:103AB000884200D110BD00210A460B4659F768FE26
:103AC00010BDC046E08EFC07F0B587B004469020DC
:103AD00028490858069094200F5C454D286D6E6D5E
:103AE000A96D0591E96D0491294650310191098A2A
:103AF000039122063CD02946FAB20A235343069A80
:103B0000D3185A88D50611D07F231A40761C0D464B
:103B10004E65D30703D00499491C0491E965120747
:103B200021D50599491C0591A9651CE0DA88002872
:103B300012D0451C02960E460D6503994143D0B242
:103B40000818294657F710FB0199088280B20390A4
:103B500028463546029E06E001200D460865D2B291
:103B6000019903920A82641E7A1C07271740C0E756
:103B700007B0F0BDACBAFC07E08EFC07F8B51D46F7
:103B800016460C4607460846FEF7A8FD2846FEF7EF
:103B9000A5FD174B5D751E75DC749F74D87D0228DA
:103BA00011D028466040314679400143484248419F
:103BB0002146394301D0002805D0002801D1022038
:103BC00000E00020D875FFF7CDFDB7420BD1AC4225
:103BD00009D10748047201220271002120460B46D8
:103BE00059F7D6FDF8BD002001490871F8BDC0465F
:103BF000E08EFC0710B51946FD2002020E48022394
:103C000054F7C6FF902141700024047049F72CF846
:103C1000204610BD10B519460748084A032354F73B
:103C2000B7FFFF218170912141700024047049F792
:103C30001BF8204610BDC0460108000001FD000031
:103C400002E008C8121F08C1002AFAD17047704765
:103C5000002001E001C1121F002AFBD170470000C3
:103C600080B5024858F714FE80BDC046A000FC078E
:103C700000000000483DFC074848FC070100010027
:103C800001FC0000B306FC0702FC0000CD06FC07A7
:103C900003FC0000E906FC0705FC00000507FC0723
:103CA00006FC00001F07FC0707FC00003907FC07A3
:103CB00008FC00005307FC0709FC00006D07FC0727
:103CC0000AFC00008B07FC0710FC0000A507FC079E
:103CD00039FC00003908FC073AFC00007B08FC07AF
:103CE00011FC0000BD08FC0730FC0000F708FC07D1
:103CF00031FC00002709FC0732FC00005709FC07D3
:103D000035FC00007B09FC0736FC0000D709FC07E6
:103D100037FC0000090AFC0738FC0000810AFC0798
:103D20003BFC0000D30AFC0712FC0000E707FC077D
:103D300041FC00008306FC0742FC00006106FC0712
:103D4000050800001D0BFC07403DFC0701000000BA
:103D5000800000007726FC07020000008526FC0793
:103D6000080000002926FC07000100006D26FC0762
:103D700000020000F5B0F00740000000FD82F007EF
:103D8000100000007F6FF007040000009D26FC0774
:103D9000010000000D26FC07200000002526FC077E
:103DA000000000000000000000FE00001512FC07EB
:103DB00001FE00008D1CFC0702FE00003121FC0703
:103DC00003FE00009D16FC0704FE00002D16FC07F4
:103DD00005FE00001517FC0706FE0000E917FC07AA
:103DE00007FE00002511FC0708FE00003D13FC073C
:103DF00009FE00004111FC070AFE0000CD17FC0778
:103E00000BFE0000391FFC070CFE0000311EFC07F2
:103E10000DFE00004512FC070EFE00000520FC0709
:103E20000FFE0000B11EFC0710FE00007D1EFC0707
:103E300011FE00003918FC0712FE0000BD13FC073C
:103E400013FE00007D13FC0714FE0000D51FFC07C5
:103E500015FE00005D1FFC0716FE00008D12FC071A
:103E600017FE00004D15FC0718FE00006D1CFC0736
:103E70001AFE0000B110FC071BFE00003D1CFC07F1
:103E80001CFE0000C111FC071EFE0000051CFC0703
:103E90001DFE00009117FC0700FE0700C142FC0751
:103EA000D642FC0701FE0700BC42FC0700000000F0
:103EB00002FE0700A842FC07C942FC0703FE0700F8
:103EC000B242FC07B242FC0704FE0701C042FC07F5
:103ED0004D27FC0705FE07022D28FC07BD42FC0705
:103EE00006FE0700CF42FC07CB42FC0707FE070097
:103EF000000000000000000008FE070000000000B5
:103F0000AE42FC0709FE0700AB42FC07C942FC07B2
:103F10000AFE0700C342FC07000000000BFE07007A
:103F2000BA42FC07000000000CFE0700C142FC077B
:103F3000000000000DFE070000000000C642FC0764
:103F40000EFE0700BD42FC07000000000FFE070048
:103F5000BD42FC070000000010FE0700000000004A
:103F60000000000011FE0700B642FC07C942FC0732
:103F700012FE0700B342FC07C142FC0713FE070014
:103F8000C142FC07C142FC0714FE0700A042FC0727
:103F9000A042FC0715FE0700C142FC07C142FC0716
:103FA00016FE070000000000C142FC0717FE0700D4
:103FB000A542FC07C142FC0718FE0700C142FC07EE
:103FC000C142FC071AFE0700C142FC07C942FC07B8
:103FD0001BFE0700C142FC07C142FC071CFE070094
:103FE000C142FC07C142FC071EFE0700C142FC079C
:103FF000C142FC071DFE0700D342FC07C142FC077B
:104000000000000000000000F4011600F435234811
:10401000F40108C4140A000005000000B84FFC07B2
:10402000000400005093FC0764020000448FFC076A
:1040300000040000C095FC0770050000200300008C
:1040400000A60E0005000000D200000032000000B3
:104050003C00000001000000010000000200000020
:104060000200000004000000030000000600000041
:10407000000000000200000002000000000000003C
:104080000000000003000000030000000500000025
:1040900005000000060000000A0000000A00000001
:1040A000C8000000B80B000002000000B80B0000C0
:1040B000B80B000010000000D4010000CC0100008B
:1040C000700200006A00000004000000010000000F
:1040D000200000000A00000001000000E2040000CF
:1040E0008A020000DC050000AF0000008C42FC07E3
:1040F0000441FC07000000009442FC07000000009F
:1041000000000000A8B8FC07A0B8FC07B8B8FC077E
:10411000F8B8FC07AD35FC07AD36FC0727B6F0074D
:1041200085B6F0078DB6F007DDB6F007F5B6F007F7
:10413000F933FC072DB7F007ADBAF00751BDF00712
:1041400091BBF007B1BBF007D1BBF007E133FC072F
:104150001FBCF00779D0F00735CEF00753CEF0073B
:104160006FCEF00789CEF0079DCEF007ED33FC0748
:1041700033CFF0077B8FF1070392F107F797F00732
:104180006DCDF10751CEF1074DCEF10749CEF107C4
:104190008D21F0075935FC07ED28FC072D29FC0778
:1041A0008129FC077929FC07BB70F007896FF007AC
:1041B0002970F007F965F1070122F10769F9F107A4
:1041C000E9F9F1077135FC07C9FAF10759FBF10765
:1041D00091FBF10700000000C101FC07D501FC07BD
:1041E0009BA1F007595AF107C760F107FD64F10779
:1041F000FD63F107D736F1076545F1075DF9F00773
:104200000DDBF0078D10FC0785AAF007599AF0071F
:10421000D19AF0078D9BF007CF2DF007892EF0077C
:104220001D73F007E771F0078536F0070000000006
:104230008F10FC079710FC078B0FFC07A785F10771
:104240001B86F1079F86F107A50FFC070000000001
:10425000000000000000000000000000000000005E
:10426000000000000000000000000000000000004E
:10427000000000000000000000000000000000003E
:104280000000000000000000000000000840FC07E3
:10429000188FFC0700000000000000000000000074
:1042A0003130304200324200334200344200363670
:1042B000420042364200313742004242424242000E
:1042C000484200424800484848480042424C0042A8
:1042D0004C4C004E554C4C00765F362E302E323210
:1042E0002E3134303100000000FD0000F53BFC07AA
:1042F00001FD0000153CFC073843FC073843FC0770
:10430000800C0000503CFC07C08BFC07C08BFC07F6
:1043100084030000503CFC070000D00708000100A7
:1043200048004F00080017000100010000000101D3
:0843300064000000E001000040
:0400000507FC0111E2
:00000001FF
