:0200000407FCF7
:1000000000C0FC07B500FC07BD00FC07D500FC07DD
:1000100000000000000000000000000000000000E0
:10002000000000000000000000000000ED00FC07E0
:100030000000000000000000EF00FC073997FC07FB
:10004000F300FC07F300FC075D97FC074D97FC07E6
:10005000F300FC07F300FC07F300FC07F300FC07C8
:10006000F300FC07F300FC07F300FC07F300FC07B8
:10007000F300FC07F300FC07F300FC07F300FC07A8
:10008000F300FC07F300FC07F300FC078595FC0771
:10009000F300FC07F300FC07F300FC07F300FC0788
:1000A0000348854600F02EF8004800471199FC07E8
:1000B00000C0FC070F4880470F48004704207146E6
:1000C000084203D0EFF309800C490847EFF308809A
:1000D0000A49084704207146084203D0EFF309801B
:1000E00007490847EFF3088005490847FEE7FEE7A0
:1000F000FEE7FEE74901FC07A100FC07BD96FC07EF
:10010000B996FC07064C0125064E05E0E36807CCCE
:100110002B430C3C98471034B442F7D3FFF7C4FF8D
:10012000D001FC071002FC0702E008C8121F08C13A
:10013000002AFAD170477047002001E001C1121F68
:10014000002AFBD1704700001C4988880722904391
:100150008880052000078A89D20710D009880029E5
:100160000DD117494A8802858A888284CA88028408
:10017000428A144B13400988C9011943418212492C
:1001800006220A800121CA03104B1A60BFF34F8F69
:10019000BFF36F8F02221A60BFF34F8FBFF36F8FD1
:1001A0001960BFF34F8FBFF36F8F418904229143D2
:1001B00041810021018062B67047C04604030050AF
:1001C000140BFC077FFE00000034005080E100E0CB
:1001D0001002FC070095FC07F41500002801FC073D
:1001E0000418FC070003FC07140800002801FC07A2
:1001F0001820FC07140BFC07080000002801FC076E
:100200000418FC07F4AAFC07080100003801FC07E9
:1002100000280CD000BF00BF00BF00BF00BF00BF60
:1002200000BF00BF00BF00BF00BF401EF0D170473D
:1002300003460B439B0703D009E008C9121F08C0FF
:10024000042AFAD203E00B780370401C491C521EAA
:10025000F9D2704770B50446002903D0002020224F
:10026000012310E0002801D00020C043C046C04652
:100270000DE02546D5408D4205D30D469540641BC3
:100280001D46954040191546521E002DF1DC2146B1
:1002900070BD0000FEB5C64C1C3420480688012005
:1002A0000190C004029000271D4D002E34D0042F71
:1002B00032D2F0072BD0A889000605D42889698995
:1002C000401A4142414100E000210198B840134AE0
:1002D00050802889029A134B1A60BFF34F8FBFF3E7
:1002E0006F8F002907D0A989019A9143A981A98913
:1002F00008229143A9812268002A05D0411C606828
:1003000089B200949047009C0298AB490860103570
:10031000083476087F1CC8E7FEBDC0468236005010
:100320000036005080E100E0F8B515460E46044660
:1003300000F0C0FC002800D0F8BD00951E4DA88834
:100340007C210143A9801D48876800F07FFC0320C1
:100350000006304300F04AFCA8881C2101436020BD
:100360008143A98000988119B94200D9B81B144E65
:1003700000903146FFF76EFF05460746002F08D074
:100380002046314600F0B2FDA41900F073FE7F1E36
:10039000F4E70C4868430099401805D081B2204624
:1003A00000F0A4FD00F066FE0020034A908410884F
:1003B000202101431180F8BD00120050E8ABFC077A
:1003C000FFFF00000100FFFFFEE700000948018970
:1003D00004220A430281018840220A43028006491E
:1003E00001220A604189054A11408918091D41818D
:1003F0007047C0460800005080E200E0FC7F00002B
:10040000B8B50122D0030E4909684901C90D0D494B
:100410000CD00B886C462380238802251D4395430E
:100420002580009A02432280009A0A800A886B463F
:100430001A80009A02431A8000980880B8BDC0460E
:100440000000FC071200005059488069002802D0C3
:100450000148012141707047F4AAFC0780B50248A9
:1004600000F03AFE80BDC0460011005080B5024841
:1004700000F032FE80BDC04600100050F0B50A7991
:10048000530140241C40130180251D4016093602EB
:1004900075192C19D20020251540621910241C4012
:1004A00012190B785B0008241C40121906241C400A
:1004B0001219CB79DB079B0C4C796508ED07ED0C25
:1004C000EB18E407240D1B19134383818A790F2A43
:1004D00043D0354A82180423DA41931E022B1BD3E2
:1004E000012A3AD8EFF31083012282F310888D7924
:1004F0002E4C2688F6B23609B54203D12688F0275D
:100500003743278026880F27BE432E432680002BA3
:100510001CD082F3108820E0EFF31083012282F3D5
:100520001088224C27880F2637408D79AF4202D1A0
:100530002788374327802688F027BE432D0135437F
:100540002580002B06D082F3108806E0002282F37B
:10055000108802E0002282F310888A680280120C60
:100560004280CA688280120CC2800A8A521E42816E
:100570004A88002A00D10A8A521E02814008382285
:1005800002400B4880184A69C26189690162FF20F4
:10059000000608490A6882430120C307D2180A608E
:1005A000C00405490860F0BD00CAFFAF80360050A6
:1005B00068ABFC0710E400E000E100E008480078C8
:1005C00000280BD00320C001052109070A88520129
:1005D0000240488A034B0340981848827047C0463F
:1005E000E4ABFC077FFE000010B506480024048041
:1005F00001204002044908801420FFF709FE034847
:10060000048010BD40000050063000500003005030
:1006100080B50346402208461946FFF785FE80BD97
:10062000B6B0F7494888012420434880FF2006904F
:100630000880F448082108910180F7F747F816A8C8
:1006400020300B900EA80830029003200490000286
:100650000590EF20C54309950D94EFF3108084F3C6
:100660001088E94A1188802739431180002802D078
:1006700084F3108802E0002080F3108858200226BE
:10068000E24B1E52E24A1088E24988893843888149
:100690000B20E14D28800898088000258D808889EE
:1006A0000C97B8438881049888819483088A20270E
:1006B000B8430882088AB04308821584D748D864B2
:1006C0001D65D748586503959584D64D2F80D6482B
:1006D000A8810A96304600F01BFE00F011FE079735
:1006E0002F80AC8126A800F075FD00282BD026A80D
:1006F000007801280C9F099D29D126A800F06AFDE9
:100700002C46ED35002823D026A8067800F062FD9F
:10071000EC34002800D1A3E126A800780002861955
:1007200000D19FE1C148864200D2B8E1BD49079897
:100730000880BD488881152000F0EAFD00F0E0FD4A
:10074000099DEB3504E0099DEF350C9F00E0EE3587
:100750000D9CFC488481EFF3108084F31088F84AE4
:100760001188B9431180002802D084F3108802E078
:10077000002080F31088012D1ADBF0480599002D28
:1007800005D00A7802706D1E401C491CF7E7C8208E
:10079000E7490880E74808990180EB4907980880F5
:1007A00000208881FFF720FFFFF708FFFFF728FEF2
:1007B000C821DF4803910180E34A901E0A99018015
:1007C000DD4908461B3090801020108008461A3002
:1007D00050811480084619305080089911800EAE5F
:1007E0000698B075B471B1807D20800170800021C1
:1007F000317002980160416081600C9181811A2002
:100800001081304600F0CAFA00F06EFAA004CF4D15
:10081000A860304600F0C2FA00F066FA2878002896
:10082000099D04D100F046FA002800D1ADE0E004B3
:10083000C9490860BFF34F8FBFF36F8F0720C10313
:1008400016AE0C223046FFF76FFD3078702800D0CE
:10085000FFE07078522800D0FBE017981490189DA4
:10086000159526AE3146FFF7D3FEF47870780790E1
:10087000B0780190377828463146FFF7C9FE7020DE
:100880007840AA21019A514001435120079A5040D3
:10089000084347424741B078AA281BD130787028D6
:1008A00018D17078512815D126A8BF1C032F12D15A
:1008B000C078FF2C02D10028049F0CD0002C04D15A
:1008C000FF28049F0D990A9105D0844200D224E1AB
:1008D000012023E10A970A98461EF0B2800014A96D
:1008E0000D5816A92846FFF793FE29464031179A5E
:1008F0009248FFF719FD0B980078002817D1099846
:10090000EF30179A18990A918C4B002A0AD01C785C
:100910004440E4B2A40091490C59000A60405B1CB9
:10092000521EF2E7C0430A99814200D180E000F0F4
:10093000C1F9002822D100F0BDF900281ED1E94AF2
:1009400010881C210143602081431180062000F0A3
:100950007FFB00F0DDF9002810D100F0B5F9800729
:100960000CD5A91CDF4B18887C2202431A800D98F5
:100970004007084300F06CFB00F0CAF90D984640B0
:10098000F8B203280C9FA8D063E0D64F38881C210A
:10099000014360208143398000F058F99F206C4F5B
:1009A000B84700263046B84701903046B847009017
:1009B0003046B847F4490E84091F0A88079B1A433A
:1009C0000A8001990906090A009A1206120C5118A8
:1009D000C0B2081800D12AE72A4629460C3100D1B6
:1009E00025E75C4B9A18F423D25890420A46F5D179
:1009F00058484018E43055492CC82CC117E7C04668
:100A000000310050023300500400005068ABFC0776
:100A10007C10005000100050C0100050C5A3FC070F
:100A200095A5FC070430005002030000019200006D
:100A30003F48039901803F480899018000F012F96E
:100A4000012000F0BBF8FFF7CFFDFFF7B7FDFFF780
:100A5000D7FC0D9C00F006F9002000F0AFF8FCE593
:100A6000254675E626A800F0B5FB002800D16FE604
:100A700026A8067800F0AEFB0028254600D167E6E0
:100A800026A8057800F0A6FB00284DD02802801982
:100A900026A909780904461800D043E646E6524CD8
:100AA000079D25802448A081062000F031FC00F03D
:100AB00027FC25800D98A081039C2546A6420DD0D9
:100AC0001B480699018026A800F084FB002821D04D
:100AD0002698059908554540641CEFE70396424C5B
:100AE000079E26801448A081E8B200F011FC00F0B7
:100AF00007FC26800D98A08126A800F06BFB00283B
:100B00000FD026A800780628039D00D120E6099D75
:100B1000E8351DE6099DEA351AE602200A90049F91
:100B2000D9E6099DE93513E6099DE73510E6C0468B
:100B30000031005002330050020300000000FC07A7
:100B4000040000507C10005004300050E8ABFC075B
:100B5000DD9EFC0710A6FC0780E100E0F4A6FC0780
:100B600070B5124C01252580114E3088C00518D56E
:100B7000F6F74EFA002803D000F084FA1B2810D8AC
:100B8000308DC00400D4208C0A494D701B200870A1
:100B900000F082FA08480188294301803088400724
:100BA000FCD5A0892843A08170BDC0460003005039
:100BB0002A000050F4ABFC07800000500A490028CE
:100BC00003D0881E0222028001E00220088001205A
:100BD00042028A8010230B804A8108804A800820C4
:100BE00008800A817047C0460430005010B50446A2
:100BF00000F0A2F8BB490A881F239A430A800A889A
:100C0000022313430B800A88042313430B800A88B2
:100C1000012313430B80022801D3220C0A850C8484
:100C20000A8BD204FCD4022802D3088D020402E00D
:100C3000002803D00022888B104301E0888BC0B2CB
:100C400018228A5E002AFBD410BDC046F2480188F3
:100C5000202291430180EF4909780907490F8184D7
:100C60007047C04610B5EFF31081012080F3108863
:100C70009B4A1388054C1C401480002902D080F345
:100C8000108810BD002080F3108810BDFFFB00000D
:100C900080B5FB480278D20704D1054A0023D35E11
:100CA000002BFBD48268002A01D00846904780BD03
:100CB0001812005080B500F007F8012101404842A9
:100CC0000D21884380BD000080B5E04801883C22AA
:100CD0000A4340218A4302800520000200F0B8F94F
:100CE00080B280BD0412005080B5FFF7AFFFE0482E
:100CF00000218184018820220A43028081881C22ED
:100D00000A4360218A438280AB2000F0A1F980BDB4
:100D1000B0B50025074C611CA94205D06D1CFFF73A
:100D2000D3FFC007F7D1691E0020A14200D9C043FC
:100D3000B0BDC0467F841E00C44800884006C00E77
:100D40001CD0410801438A080A4300091043010AE4
:100D50000143080C0843C04341080C4A0A40801A6A
:100D60000B49820808400A408018010940180949C7
:100D7000014009484843000E1D3800E00320C11718
:100D80004840401AC0B2704704120050555555559E
:100D9000333333330F0F0F0F01010101F0B589B069
:100DA0000646EFF31080012585F31088A9024C4A0E
:100DB00013880B431380002802D085F3108802E0CB
:100DC000002080F31088AA4C2020019020803179E7
:100DD0000720084000F024F93078A18803229143CD
:100DE0000007400F0843A0803178A288802082430A
:100DF000C907090E5118A18031782940F44D2A788D
:100E0000FE23134059182B4629700027A7812189FA
:100E1000014321813078C00724D11878F1210140A5
:100E2000307980080E2202408818187071887D2061
:100E30000002814202D121897F2009E049001D463C
:100E4000FFF708FA2B4621897F229143401EC0B24A
:100E500008432081B07D218840229143C007400E85
:100E600008182080B0685860F06898603069D860D1
:100E70001D4D3246307DC007284601D0284620301F
:100E8000186102AE7780042131703782F780777164
:100E90000092517D0C01611D3171089707970597EC
:100EA00073491C3104913146FFF7E8FAE01C3071B8
:100EB0000098007DC00701D0303500E01035F348C0
:100EC00045616B4C20462030059028463146FFF79F
:100ED000D5FA208801998843208009B0F0BDC0462A
:100EE000040000500012005000360050F0B587B0EA
:100EF0000546E64F3878C00700D089E00C46FFF77A
:100F00001BFF5B4E31881F229143318031880222C2
:100F10000A433280318804220A43328002281CD1DD
:100F20003088012101433180002081B2A1420FD2DB
:100F3000318B8904FCD4002131853184318BC90483
:100F4000FCD4B18B328D1204511802C5401CECE761
:100F50001820305E0028FBD45AE0FFF7EDFE3B6915
:100F60005A08382104910A4039461C3105912B4F0B
:100F70008F50471EB84140000627F94303919F89CF
:100F80000F40381898819D80280CD880601E0190F1
:100F9000188158819889082102910843988198897D
:100FA0000121009108439881308810230343338046
:100FB0000598801800274760D0484569A8894022D5
:100FC0009043A8816C0804980440FFF7B5FE059A89
:100FD0001751411E88414000A989039B19400818F8
:100FE000A88106A82880000C688001982881688163
:100FF000A889029B9843A881A88900990843A881E1
:10100000308818433080101947603088084330809A
:1010100007B0F0BD68ABFC0700120050819FFC07D1
:101020000A49022807D0012809D000280A881C2074
:101030001043602207E00A887C20104304E00A88FD
:101040003C20104340229043088070470412005017
:1010500010B50446FFF7FAFD2046FFF7C7FD044927
:1010600000228A840A88202313430B8010BDC046C7
:1010700000120050A14800698189C907FCD170475E
:1010800068ABFC070E480188890918220A400088CD
:101090008004400F8018704710B51F21490282015B
:1010A0000A4007490B88074C1C4014430C800A88EF
:1010B000054B13404007800C1818088010BDC0462F
:1010C00054000050FFF90000FFC7000077480121DD
:1010D0004170704770470000F0B585B004468F48F6
:1010E000201A411E884140018449081801464A31AE
:1010F000019101465431039101465031009101465E
:10110000403102910546423506463C364C3004904B
:1011100027467C3720890F210140481E0B28F9D82B
:1011200078440079400087445006052005242C05AA
:1011300005050534EEE7029800882988814236D2F9
:101140008842E7D02289C0231340C02B03D13A88BC
:10115000920703D4DEE7A28A9206DBD54A1C2A80D6
:101160003368595C21801146EAE7204600F0A0F878
:10117000D0E704980268002ACCD0A08A9E210140C2
:1011800004E004980268002AC4D001212046904758
:10119000C0E7204600F08CF8A08801218843A08099
:1011A000039801680029B5D0019800880BE0A18858
:1011B00002229143A180A18880229143A1800099BD
:1011C00009680029A6D08847A4E705B0F0BDC0464D
:1011D00068ABFC07FEB50090344A00201070029006
:1011E0005070284C2168012399432160FF26300666
:1011F00065680540244FED196560A56801900540BC
:10120000A560256802272F43276025680427BD4372
:10121000256025681D432560384D1D49A96100984A
:101220006864AB641B490F60BFF34F8FBFF36F8FD0
:101230001949088818430880088838430880300412
:1012400016490E6886435820285C8007000A30182B
:101250000860134807601078002802D150780028F1
:10126000F9D0A06801990840A060206898432060E8
:1012700050780028029802D01178002900D0184632
:10128000FEBDC04610E000E05FEA000068ABFC076E
:10129000BDA3FC0780E100E00410005000E400E082
:1012A00000E100E00148012101707047F4AAFC0749
:1012B000F8B51A49411A4A1E914149010F4A54187A
:1012C0002346443300943C34A589E2890E34AA4273
:1012D00009D2868AF60710D00688571C278019681D
:1012E0008E543A46F3E78188012399438180009820
:1012F000416D002901D090B28847F8BD68ABFC076A
:10130000024801884906FCD57047C04614100050B9
:1013100002498A8A9206FCD5088070470010005066
:10132000010000001130EF00000002000200000088
:101330001230EF00000004000300000000421F0014
:1013400000000200040000001120C20000000200A2
:10135000050000001128C200000002000600000085
:101360001228C200000004000F0000001160850078
:101370000000020010000000114085000000020083
:10138000130000001264C8000000040014000000F4
:1013900001431F00000004001500000001111F00A0
:1013A000000004001600000002441F0000000800B6
:1013B0001700000008441F0000000800180000008B
:1013C00001841F0000000800190000000C441F00E9
:1013D000000008001B0000000C451F00000010006A
:1013E0001C00000001651F00000001001D0000003E
:1013F00001101F00000002001E00000008451F0031
:101400000000100000000000963007772C610EEEFF
:10141000BA51099919C46D078FF46A7035A563E94B
:10142000A395649E3288DB0EA4B8DC791EE9D5E072
:1014300088D9D2972B4CB609BD7CB17E072DB8E771
:10144000911DBF906410B71DF220B06A4871B9F3C6
:10145000DE41BE847DD4DA1AEBE4DD6D51B5D4F4FF
:10146000C785D38356986C13C0A86B647AF962FD64
:10147000ECC9658A4F5C0114D96C0663633D0FFAB1
:10148000F50D088DC8206E3B5E10694CE44160D5B7
:10149000727167A2D1E4033C47D4044BFD850DD2A1
:1014A0006BB50AA5FAA8B5356C98B242D6C9BBDBB4
:1014B00040F9BCACE36CD832755CDF45CF0DD6DCAF
:1014C000593DD1ABAC30D9263A00DE518051D7C856
:1014D0001661D0BFB5F4B42123C4B3569995BACFE1
:1014E0000FA5BDB89EB802280888055FB2D90CC602
:1014F00024E90BB1877C6F2F114C6858AB1D61C17B
:101500003D2D66B69041DC760671DB01BC20D29899
:101510002A10D5EF8985B1711FB5B606A5E4BF9F26
:1015200033D4B8E8A2C9077834F9000F8EA8099619
:1015300018980EE1BB0D6A7F2D3D6D08976C649184
:10154000015C63E6F4516B6B62616C1CD83065859D
:101550004E0062F2ED95066C7BA5011BC1F408827A
:1015600057C40FF5C6D9B06550E9B712EAB8BE8BBB
:101570007C88B9FCDF1DDD62492DDA15F37CD38C44
:10158000654CD4FB5861B24DCE51B53A7400BCA342
:10159000E230BBD441A5DF4AD795D83D6DC4D1A474
:1015A000FBF4D6D36AE96943FCD96E34468867AD4B
:1015B000D0B860DA732D0444E51D03335F4C0AAAEA
:1015C000C97C0DDD3C710550AA41022710100BBEED
:1015D00086200CC925B56857B3856F2009D466B934
:1015E0009FE461CE0EF9DE5E98C9D9292298D0B069
:1015F000B4A8D7C7173DB359810DB42E3B5CBDB716
:10160000AD6CBAC02083B8EDB6B3BF9A0CE2B60396
:101610009AD2B1743947D5EAAF77D29D1526DB044B
:101620008316DC73120B63E3843B64943E6A6D0D96
:10163000A85A6A7A0BCF0EE49DFF099327AE000AE1
:10164000B19E077D44930FF0D2A3088768F2011E74
:10165000FEC206695D5762F7CB67658071366C190B
:10166000E7066B6E761BD4FEE02BD3895A7ADA102C
:10167000CC4ADD676FDFB9F9F9EFBE8E43BEB7170D
:10168000D58EB060E8A3D6D67E93D1A1C4C2D83897
:1016900052F2DF4FF167BBD16757BCA6DD06B53FFD
:1016A0004B36B248DA2B0DD84C1B0AAFF64A03363C
:1016B000607A0441C3EF60DF55DF67A8EF8E6E31BB
:1016C00079BE69468CB361CB1A8366BCA0D26F2504
:1016D00036E2685295770CCC03470BBBB916022251
:1016E0002F260555BE3BBAC5280BBDB2925AB42B66
:1016F000046AB35CA7FFD7C231CFD0B58B9ED92C7B
:101700001DAEDE5BB0C2649B26F263EC9CA36A75DF
:101710000A936D02A906099C3F360EEB8567077296
:1017200013570005824ABF95147AB8E2AE2BB17BFD
:10173000381BB60C9B8ED2920DBED5E5B7EFDC7C84
:1017400021DFDB0BD4D2D38642E2D4F1F8B3DD68DB
:101750006E83DA1FCD16BE815B26B9F6E177B06FD6
:101760007747B718E65A0888706A0FFFCA3B0666C3
:101770005C0B0111FF9E658F69AE62F8D3FF6B6150
:1017800045CF6C1678E20AA0EED20DD75483044EF2
:10179000C2B30339612667A7F71660D04D47694980
:1017A000DB776E3E4A6AD1AEDC5AD6D9660BDF4093
:1017B000F03BD83753AEBCA9C59EBBDE7FCFB24746
:1017C000E9FFB5301CF2BDBD8AC2BACA3093B3532B
:1017D000A6A3B4240536D0BA9306D7CD2957DE5434
:1017E000BF67D9232E7A66B3B84A61C4021B685D0D
:1017F000942B6F2A37BE0BB4A18E0CC31BDF055A86
:101800008DEF022D014800787047C046F6AAFC070C
:101810000148002101707047F6AAFC0770B5EFF38C
:101820001085012484F3108805200607708DC005FB
:1018300009D5114804700AF01FF8104908701048C3
:1018400000882040487030888021014331800D4855
:10185000016807229143016041684907FCD50A49A4
:1018600001610A494161002D02D084F3108870BDE6
:10187000002080F3108870BDF6AAFC07F4ABFC07CB
:10188000800000500000F4070F009909090404A427
:10189000800003A108580649086006484860704760
:1018A0000100990903009909070099090F00990996
:1018B0001000F407090404A47CB504460E4D286802
:1018C0000726304001A908700878A04213D00B48C1
:1018D0000088C00508D5A01EC1B2042904D840B2B2
:1018E00007A1085C00F010F82868B0432043286086
:1018F00068684007FCD57CBD0000F4072A00005052
:101900000B130B0B0B00000010B5044609F0B4FFDD
:10191000A04202D2204609F0B9FF06480188C90753
:1019200007D1018801220A43028003480188490740
:10193000FCD510BD800000502A00005070B50D4647
:1019400004460320FFF7B8FF0C4884604560016837
:10195000C907FCD00420FFF7AFFFFF20C604AD008D
:10196000A859A04207D10520FFF7A6FFA859011BDF
:101970004842484170BD002070BDC0460400F407D5
:1019800010B504460220FFF797FFFF20C004A10016
:10199000085810BD70B514460D4606460320FFF7E3
:1019A0008BFF00210848A14209D03268826045605F
:1019B00002689207FCD5491C6D1C361DF3E70168CF
:1019C000C907FCD070BDC0460400F407F8B5144642
:1019D0000D460746FFF7DEFF042338462946224618
:1019E00000F011F8002600280BD0052338462946C0
:1019F000224600F008F8002803D00320FFF75CFF20
:101A000001263046F8BD70B514460E460546184608
:101A1000FFF752FFFF20C004B100091800208442E4
:101A200007D00A682B68934203D1091D401C2D1D65
:101A3000F5E7A04201D2002070BD012070BD70B555
:101A400014460E4605460220FFF736FFFF20C0046D
:101A5000B1000818002C03D002C802C5641EF9E7C3
:101A600070BDC04670B5EFF31085012484F3108873
:101A700005200007028880210A430280144A136867
:101A80000726B343136053685B07FCD5114B136102
:101A9000114B536102888A430280408DC0050DD5E9
:101AA0000E48002101700E4E307809F0EFFE70787C
:101AB000002803D10B480188A1430180002D02D0EA
:101AC00084F3108870BD002080F3108870BDC0467C
:101AD0000000F4070F009909090404A4F6AAFC0702
:101AE000F4ABFC0780000050F0B589B06825904841
:101AF0000024445301263046C046C0468D4A101F7C
:101B000000688D49884200D0D7E002A870C00F203D
:101B1000060704201446059607462118081F22468A
:101B2000EC32904200D3CAE000680890089B334032
:101B300009200507089AAB421FD1089B1E0AF5B27F
:101B4000D2B2921F112A00D99AE0C0467A44127983
:101B500052009744084A9595959595959595955970
:101B60006C7F8A958D91724C0398205CC000201880
:101B7000AA0008F057FF039942E0900F0FD0089891
:101B8000704988420BD8384608306D4B19462631CB
:101B9000089A8A4221D139596C4A5180BCE7089889
:101BA000304007210907884203D10020C046C046C3
:101BB00011E0089830400499C90788420BD0089872
:101BC000304005214907884205D00898304003215C
:101BD0004907884262D1381D9EE70899994254D13D
:101BE00039596622524B995296E7514C692001901F
:101BF000205CC00020181030AA0008F013FF0199E3
:101C0000605C801960542EE0395948433A59120CEF
:101C1000801A00B2C008464B4033D88288B2101AEE
:101C20008108464A11400818401C988228E039591A
:101C300048433A59120C801A00B2C0083C4B40335A
:101C4000588388B2101A81083C4A11400818401C79
:101C5000188315E0029CA00006AA1018AA0008F03C
:101C6000E1FE2C190294334C0AE03859622105E058
:101C700038592F49086503E0385964212C4A5052DD
:101C8000A8003818001D059E46E719462231089A1B
:101C90008A4208D139592D4A91803DE70898401C65
:101CA00038460CD038E719461E31089A8A4200D0CF
:101CB00032E73959254AD1802EE7FF2034E00399D5
:101CC0001B4A505C400850546920115C490811546B
:101CD00010464030069981830921079A5143130C1D
:101CE000C91A09B2C908018491B2591A8A08134B5A
:101CF0001A405118491CC183808C002804D17D20D2
:101D0000C00064210A4A505266210948425A002004
:101D1000002A09D10C4A1268D2B2AA2A01D06E2236
:101D200000E08022024B5A5240B209B0F0BDC046DA
:101D3000F8AAFC07D47EF807A5A5A5A5FF3F0000DB
:101D4000020000504C420050D07FF807140BFC07F3
:101D5000F8B56824144D295D0026144F8E4222D216
:101D60002868B8421AD16868C001400C384615D0BE
:101D7000C046C0460C49095D09280ED9032000025F
:101D80000CCD18401B049B0E18181060083DE88805
:101D9000074A1040074A106002E028686A6802603B
:101DA0000835761CDAE7F8BDF8AAFC074C100040AD
:101DB000FF010000F8ABFC07F8B56920954E0090D4
:101DC000315C143600270F4C8F4219D2351F28681A
:101DD000A04210D1C046C0468E49009A895C0928AD
:101DE00008D93068084A1040084A12685204024371
:101DF000286801E028683268026008367F1CE3E743
:101E0000F8BDC04638300040FFFF01FCF8ABFC07CE
:101E10007047C04670B5044610480480104D688B6A
:101E20000126B04368830D2008F0ECFD288830437C
:101E300002218843288028884006FCD52846083897
:101E400004807D20C00008F0DDFD28880321884340
:101E5000288028880006FCD570BDC04664ABFC070E
:101E60000A0000500B48018880220A434021C943E0
:101E70000A400280428BFF239A434283428C042310
:101E80001343182293434384428CA02313430B40F3
:101E9000438470471600005006480188064A0A40ED
:101EA0000721C902511801800448018808220A4309
:101EB0000280704720030050FFC300005200005012
:101EC000FEB54C4808270780C046C0464A4D2888C2
:101ED00002AC20802088C046C046208804210191A1
:101EE000C943084202D00020288003E0A8890121CC
:101EF0008843A881FFF7D0FF4048C18D0622914357
:101F0000C18501218B03AE8B1E43AE8303883C4EFB
:101F10001E40068043881343BB43438005221607B7
:101F2000738D384CFF34C28D2240DB051AD40F2349
:101F30001B03032464022243C285C28D1A43C28557
:101F4000AA8BBA43AA83AA8B04239A43AA83428802
:101F50002E4B13404380C28D0A43C285718D4907C1
:101F6000FCD516E08B021A43C285C28D264B134066
:101F7000CA039A18C285AA8B3A43AA83AA8B019BEB
:101F80009A43AA83C28D8A43C285A98B402291437A
:101F9000A983A98B03220A43AA8301882022114323
:101FA0004023DB4319400180288C104318402884CB
:101FB000FFF758FFFFF732FC0220FFF77DFC1448C3
:101FC0000068C1B20C20AA29014600D001993288CC
:101FD000824388183080C046C046FFF785FD6620E2
:101FE0000C49085AFFF716FFFFF73CFD09F0B2F95C
:101FF000FEBDC046003300500403005052000050A4
:10200000FFBF000000F0FFFFFF0F0000FFF900001E
:10201000D07FF807F8AAFC07000000008E070E002A
:0400000507FC00A153
:00000001FF
