:0200000407FCF7
:1000000000C0FC07B500FC07BD00FC07D500FC07DD
:1000100000000000000000000000000000000000E0
:10002000000000000000000000000000ED00FC07E0
:100030000000000000000000EF00FC07F100FC07DA
:10004000F300FC07F300FC07F300FC07F300FC07D8
:10005000F300FC07F300FC07F300FC07F300FC07C8
:10006000F300FC07F300FC07F300FC07F300FC07B8
:10007000F300FC07F300FC07F300FC07F300FC07A8
:10008000F300FC07F300FC07F300FC078595FC0771
:10009000F300FC07F300FC07F300FC07F300FC0788
:1000A0000348854600F02EF8004800474198FC07B9
:1000B00000C0FC070F4880470F48004704207146E6
:1000C000084203D0EFF309800C490847EFF308809A
:1000D0000A49084704207146084203D0EFF309801B
:1000E00007490847EFF3088005490847FEE7FEE7A0
:1000F000FEE7FEE74901FC07A100FC07BD96FC07EF
:10010000B996FC07064C0125064E05E0E36807CCCE
:100110002B430C3C98471034B442F7D3FFF7C4FF8D
:10012000D001FC071002FC0702E008C8121F08C13A
:10013000002AFAD170477047002001E001C1121F68
:10014000002AFBD1704700001C4988880722904391
:100150008880052000078A89D20710D009880029E5
:100160000DD117494A8802858A888284CA88028408
:10017000428A144B13400988C9011943418212492C
:1001800006220A800121CA03104B1A60BFF34F8F69
:10019000BFF36F8F02221A60BFF34F8FBFF36F8FD1
:1001A0001960BFF34F8FBFF36F8F418904229143D2
:1001B00041810021018062B67047C04604030050AF
:1001C000640AFC077FFE00000034005080E100E07C
:1001D0001002FC070095FC07C01500002801FC0771
:1001E000D017FC070003FC07640700002801FC0788
:1001F000341FFC07640AFC07080000002801FC0704
:10020000D017FC07C0AAFC07B40200003801FC07A5
:1002100000280CD000BF00BF00BF00BF00BF00BF60
:1002200000BF00BF00BF00BF00BF401EF0D170473D
:1002300003460B439B0703D009E008C9121F08C0FF
:10024000042AFAD203E00B780370401C491C521EAA
:10025000F9D2704770B50446002903D0002020224F
:10026000012310E0002801D00020C043C046C04652
:100270000DE02546D5408D4205D30D469540641BC3
:100280001D46954040191546521E002DF1DC2146B1
:1002900070BD0000FEB5A74C183420480688012028
:1002A0000190C004029000271D4D002E34D0042F71
:1002B00032D2F0072BD0A889000605D42889698995
:1002C000401A4142414100E000210198B840134AE0
:1002D00050802889029A134B1A60BFF34F8FBFF3E7
:1002E0006F8F002907D0A989019A9143A981A98913
:1002F00008229143A9812268002A05D0411C606828
:1003000089B200949047009C02988C49086010358F
:10031000083476087F1CC8E7FEBDC0468236005010
:100320000036005080E100E0F8B515460E46044660
:1003300000F0F6FC002800D0F8BD00951E4DA888FE
:100340007C210143A9801D48C76800F0B5FC03204B
:100350000006304300F080FCA8881C210143602087
:100360008143A98000988119B94200D9B81B144E65
:1003700000903146FFF76EFF05460746002F08D074
:100380002046314600F0E6FDA41900F0A7FE7F1ECE
:10039000F4E70C4868430099401805D081B2204624
:1003A00000F0D8FD00F09AFE0020034A90841088E7
:1003B000202101431180F8BD00120050C0AAFC07A3
:1003C000FFFF00000100FFFFFEE700000948018970
:1003D00004220A430281018840220A43028006491E
:1003E00001220A604189054A11408918091D41818D
:1003F0007047C0460800005080E200E0FC7F00002B
:10040000F0B50A79530140241C40130180251D409A
:100410001609360275192C19D200202515406219CB
:1004200010241C4012190B785B0008241C40121980
:1004300006241C401219CB79DB079B0C4C7965080C
:10044000ED07ED0CEB18E407240D1B191343838112
:100450008A790F2A43D0354A82180423DA41931E41
:10046000022B1BD3012A3AD8EFF31083012282F327
:1004700010888D792E4C2688F6B23609B54203D104
:100480002688F0273743278026880F27BE432E4330
:100490002680002B1CD082F3108820E0EFF310831D
:1004A000012282F31088224C27880F2637408D794D
:1004B000AF4202D12788374327802688F027BE43E2
:1004C0002D0135432580002B06D082F3108806E0ED
:1004D000002282F3108802E0002282F310888A68EA
:1004E0000280120C4280CA688280120CC2800A8A82
:1004F000521E42814A88002A00D10A8A521E028175
:100500004008382202400B4880184A698261896994
:10051000C161FF20000608490A6882430120C30721
:10052000D2180A60C00405490860F0BD00CAFFAFD8
:100530008036005038ADFC0710E400E000E100E038
:1005400080B50346402208461946FFF7EDFE80BD00
:10055000E0B0E0494888012420434880FF2005900E
:100560000880DD48082111910180F7F757F83CA871
:100570000C30159024A80830049003200190C0018D
:1005800003900B94E0030290EF20C0430890C82131
:10059000D04806910180D14A901E02210791018026
:1005A000CF49881C9080102010901080481C5081EA
:1005B0000B9C148051801199118024AE0598B07560
:1005C000B471B1807D208001708000213170049869
:1005D0000160416081600A9181811A20108130465A
:1005E00000F010FC00F0B4FBA004BE4CE06030460C
:1005F00000F008FC00F0ACFB2079002804D100F0EA
:100600008FFB002800D1B1E20B98C004B649086006
:10061000BFF34F8FBFF36F8F0720C1032CAE0C22A7
:1006200030460F92FFF780FE3078702800D097E2B6
:100630007078522800D093E22D982A902E9F2B9705
:100640003CAE3146FFF77CFFF07822907078239023
:10065000B478357838463146FFF772FF702068402D
:10066000AA21614001435120239A5040084342424D
:100670004241B078AA281FD1307870281CD17078F8
:10068000512819D13CA9921C032A079815D1C97881
:100690002298FF2803D10029019A07980DD02298AB
:1006A000002803D1FF29019A0B9806D0229888428E
:1006B00000D294E2012093E21046411E0D920C916B
:1006C000C8B280002AA90C582CA92046FFF738FF91
:1006D000099440342D9A85482146FFF725FE844829
:1006E0008449016084494160844981608449C160D2
:1006F00084490161143084A104222D9B12938A4EF7
:100700002C2A1ED0031F1B68940713D1DCB2345D62
:1007100024021D0AEDB2755D2D042C191D0CEDB2DD
:10072000755D2D0664191B0EF35CE4180B781B062F
:100730006340491C0446103C24685C4010C0521CB5
:10074000DEE7792080006A49091878A00E913CC83C
:100750003CC128201421052836D3239064484258F0
:100760001346229175490B40DC091C1B7448044058
:1007700055002B46734E334063405C0026460E40C6
:10078000F709F61B06400D402299EF09ED1B0540C5
:100790006C4804406C406500054075406A40164650
:1007A000119FFE41174667401098C7412398774034
:1007B0005A401826F2417A405A4062406A404C4BF7
:1007C0005A50091D401EC6E750A80E993CC93CC0AE
:1007D0000A98102806D050A9095809BA58AA1150E9
:1007E000001DF6E7414C12980F2800DC22E110387A
:1007F00013904CA81022149421461692FFF718FD6E
:100800000020102808D04CA9095809BA5CAA115038
:1008100054AA1150001DF4E7F94908881790000107
:1008200008180F990A1D07D054AA53584418646831
:100830005C405450091FF5E7431808331798401ED1
:100840001C9000261798864200D1DAE018930427FE
:1008500015981D96002F00D1C0E02390B807000F17
:1008600054A9085CEA4C235C781C8007000F081828
:100870004078255CB81C8007000F08188078205C41
:100880007F1EBA07120F8918C978625C1C998E42C4
:100890001CDA2195054655406E001B21802D2291C2
:1008A00000D34E40219C604041008028209201D31B
:1008B000229A5140F2B2C9B21F914A405100802A97
:1008C00042D30A4622994A401E923EE00004120694
:1008D000194679E0003100500233005004300050D6
:1008E0001B030000C0AAFC0780E100E00000FC0739
:1008F000D0AAFC070A0004004021A9065BA1B83673
:10090000D5032E5106001234010204081020408045
:100910001B366CD8AB4D9A2F5EBC63C697356AD434
:10092000B37DFAEFC5910000C0A5FC073DAFBA4208
:100930009D9EB430B422DA802C9FAC4180808080B0
:100940001B1B1B1BFEFEFEFE1E911A466240510041
:10095000802A01D3229A5140CCB222461F994A40A4
:100960005100802A1B961A9401D3229A51401E9A54
:10097000D6B2CCB22246199672405100802A01D3D9
:10098000229A5140CAB21E4620994E407100802ED4
:1009900001D3229E7140219E7140C9B261405140F5
:1009A000694053405D401A9A5540199A5540584045
:1009B0001B9A50401E9A50400006209A53407340A4
:1009C0001F9A534063401A0402432802104308430D
:1009D000239908600846081F1D9E3BE71698189B40
:1009E00000280AD0011F3CAA8A5818181438006839
:1009F000504054AA88500846F2E71B18103B761C5A
:100A000020E7002010280CD058A90A585CAB1B58CE
:100A10000B5054A90958514009BA3CAA1150001D65
:100A2000F0E73CA91022149C2046FFF701FC10348B
:100A30001398D9E60020102806D058A9095809BAF9
:100A400050AA1150001DF6E750A80E9D1EC81EC5E5
:100A50000898EF3000222E996A4C129B934209D0DD
:100A6000624B9B5C4340DBB29B00E358000A58405A
:100A7000521CF2E7C043814230D000F051F9002807
:100A800023D100F04DF900281FD1D94A10881C212C
:100A90000143602081431180062000F00DFB00F02F
:100AA0006BF9002811D100F045F980070DD50998A0
:100AB000811CCF4B18887C2202431A800B98400778
:100AC000084300F0F9FA00F057F90B980C994140EF
:100AD0000D98C0B20022032842D1EFE541480699A3
:100AE000018041481199018000F0F2F8012630465A
:100AF00000F09AF8002444480480039D2846803082
:100B0000544948801420FFF783FB46480480394845
:100B100000780028364B09D018461238008840016A
:100B200028401988394A1140014319802F49086823
:100B30000842029A0CD018883CA908800888079CB3
:100B40002043B04308803C98104308803C981880AC
:100B500018883CA908803C98104308803C9818806D
:100B600000F0B6F8002000F05FF810E5A04C2088F7
:100B70001C21014360208143218000F09DF89F20CB
:100B80001D4DA84700263046A84723903046A84769
:100B900007463046A8472684211F0A88202313438E
:100BA0000B8023990906090A3A06120C5118C0B2A3
:100BB000081800D128E5089A11460C3100D123E528
:100BC0000E4B9A18F423D25890420A46F5D10B489E
:100BD0004018E4300749091D1CC81CC114E5022057
:100BE000019A6AE500310050023300500000FC0712
:100BF00012000050C0AAFC07499FFC07DCA3FC07B9
:100C0000D0AAFC07C0A6FC07400000507FFE0000F1
:100C1000C0A4FC0703480121018082890A43828124
:100C20007047C046000300500A49002803D0881EC0
:100C30000222028001E002200880012042028A8014
:100C400010230B804A8108804A80082008800A818E
:100C50007047C0460430005010B5044600F0A0F8BC
:100C6000BA490A881F239A430A800A880223134339
:100C70000B800A88042313430B800A880123134343
:100C80000B80022801D3220C0A850C840A8BD20423
:100C9000FCD4022802D3088D020402E0002803D00D
:100CA0000022888B104301E0888BC0B218228A5E34
:100CB000002AFBD410BDC046F14801882022914390
:100CC0000180EE4909780907490F81847047C046C1
:100CD00010B5EFF31081012080F310889A4A138831
:100CE000054C1C401480002902D080F3108810BDF0
:100CF000002080F3108810BDFFFB000080B5FA488B
:100D00000278D20704D1054A0023D35E002BFBD41E
:100D10008268002A01D00846904780BD1812005012
:100D200080B500F007F80121014048420D218843B9
:100D300080BD000080B5DF4801883C220A43402185
:100D40008A4302800520000200F0B6F980B280BD1F
:100D500080B5FFF7B1FFE04800218184018820229F
:100D60000A43028081881C220A4360218A438280D0
:100D7000AB2000F0A1F980BDB0B50025074C611C87
:100D8000A94205D06D1CFFF7D5FFC007F7D1691E3A
:100D90000020A14200D9C043B0BDC0467F841E00E0
:100DA000C44800884006C00E1CD0410801438A0890
:100DB0000A4300091043010A0143080C0843C043D9
:100DC00041080C4A0A40801A0B49820808400A4030
:100DD0008018010940180949014009484843000E9C
:100DE0001D3800E00320C1174840401AC0B27047C8
:100DF0000412005055555555333333330F0F0F0F31
:100E000001010101F0B589B00646EFF3108001251C
:100E100085F31088A9024C4A13880B4313800028DD
:100E200002D085F3108802E0002080F31088AA4CDD
:100E300020200190208031790720084000F024F91B
:100E40003078A188032291430007400F0843A08017
:100E50003178A28880208243C907090E5118A180E9
:100E600031782940A04D2A78FE23134059182B468B
:100E700029700027A7812189014321813078C0078B
:100E800024D11878F1210140307980080E220240E7
:100E90008818187071887D200002814202D1218952
:100EA0007F2009E049001D46FFF7D4F92B46218930
:100EB0007F229143401EC0B208432081B07D21882B
:100EC00040229143C007400E08182080B068586047
:100ED000F06898603069D8601D4D3246307DC0079B
:100EE000284601D028462030186102AE77800421C0
:100EF00031703782F78077710092517D0C01611D4E
:100F0000317108970797059773491C310491314651
:100F1000FFF776FAE01C30710098007DC00701D021
:100F2000303500E01035704845616B4C204620306C
:100F3000059028463146FFF763FA208801998843D7
:100F4000208009B0F0BDC0460400005000120050DF
:100F500000360050F0B587B00546634F3878C007BB
:100F600000D089E00C46FFF71BFF5B4E31881F2243
:100F700091433180318802220A4332803188042231
:100F80000A43328002281CD130880121014331807C
:100F9000002081B2A1420FD2318B8904FCD4002100
:100FA00031853184318BC904FCD4B18B328D12046C
:100FB000511802C5401CECE71820305E0028FBD415
:100FC0005AE0FFF7EDFE3B695A08382104910A40C8
:100FD0003946183105912B4F8F50471EB8414000BC
:100FE0000627F94303919F890F40381898819D8007
:100FF000280CD880601E019018815881988908219A
:1010000002910843988198890121009108439881B1
:1010100030881023034333800598801800274760E9
:1010200031484569A88940229043A8816C080498FA
:101030000440FFF7B5FE059A1751411E8841400054
:10104000A989039B19400818A88106A82880000CCC
:101050006880019828816881A889029B9843A881AB
:10106000A88900990843A881308818433080101956
:10107000476030880843308007B0F0BD38ADFC07CA
:1010800000120050ED9FFC070A49022807D00128F2
:1010900009D000280A881C201043602207E00A8833
:1010A0007C20104304E00A883C20104340229043F7
:1010B000088070470412005010B50446FFF7FCFD8D
:1010C0002046FFF7C9FD044900228A840A882023AC
:1010D00013430B8010BDC046001200500248006947
:1010E0008189C907FCD1704738ADFC0701000000B9
:1010F0001130EF0000000200020000001230EF008B
:10110000000004000300000000421F000000020075
:10111000040000001120C2000000020005000000D1
:101120001128C20000000200060000001228C200C0
:10113000000004000F0000001160850000000200A4
:1011400010000000114085000000020013000000A4
:101150001264C800000004001400000001431F00D6
:10116000000004001500000001111F000000040031
:101170001600000002441F000000080017000000D5
:1011800008441F00000008001800000001841F0030
:1011900000000800190000000C441F0000000800B7
:1011A0001B0000000C451F00000010001C00000088
:1011B00001651F00000001001D00000001101F005C
:1011C000000002001E00000008451F000000100083
:1011D00052096AD53036A538BF40A39E81F3D7FBAC
:1011E0007CE339829B2FFF87348E4344C4DEE9CBF6
:1011F000547B9432A6C2233DEE4C950B42FAC34E6B
:10120000082EA16628D924B2765BA2496D8BD12520
:1012100072F8F66486689816D4A45CCC5D65B692C4
:101220006C704850FDEDB9DA5E154657A78D9D8468
:1012300090D8AB008CBCD30AF7E45805B8B3450688
:10124000D02C1E8FCA3F0F02C1AFBD0301138A6BA2
:101250003A9111414F67DCEA97F2CFCEF0B4E673D2
:1012600096AC7422E7AD3585E2F937E81C75DF6E80
:1012700047F11A711D29C5896FB7620EAA18BE1BE6
:10128000FC563E4BC6D279209ADBC0FE78CD5AF48C
:101290001FDDA8338807C731B11210592780EC5FD2
:1012A00060517FA919B54A0D2DE57A9F93C99CEF2E
:1012B000A0E03B4DAE2AF5B0C8EBBB3C835399612F
:1012C000172B047EBA77D626E169146355210C7D6D
:1012D000637C777BF26B6FC53001672BFED7AB76F3
:1012E000CA82C97DFA5947F0ADD4A2AF9CA472C09E
:1012F000B7FD9326363FF7CC34A5E5F171D831150B
:1013000004C723C31896059A071280E2EB27B2752B
:1013100009832C1A1B6E5AA0523BD6B329E32F84A3
:1013200053D100ED20FCB15B6ACBBE394A4C58CF9B
:10133000D0EFAAFB434D338545F9027F503C9FA86F
:1013400051A3408F929D38F5BCB6DA2110FFF3D23D
:10135000CD0C13EC5F974417C4A77E3D645D1973F1
:1013600060814FDC222A908846EEB814DE5E0BDBEB
:10137000E0323A0A4906245CC2D3AC629195E47922
:10138000E7C8376D8DD54EA96C56F4EA657AAE087C
:10139000BA78252E1CA6B4C6E8DD741F4BBD8B8A17
:1013A000703EB5664803F60E613557B986C11D9E7D
:1013B000E1F8981169D98E949B1E87E9CE5528DFF4
:1013C0008CA1890DBFE6426841992D0FB054BB1620
:1013D00000000000963007772C610EEEBA51099993
:1013E00019C46D078FF46A7035A563E9A395649EEF
:1013F0003288DB0EA4B8DC791EE9D5E088D9D29713
:101400002B4CB609BD7CB17E072DB8E7911DBF906E
:101410006410B71DF220B06A4871B9F3DE41BE8492
:101420007DD4DA1AEBE4DD6D51B5D4F4C785D383EE
:1014300056986C13C0A86B647AF962FDECC9658A92
:101440004F5C0114D96C0663633D0FFAF50D088DEE
:10145000C8206E3B5E10694CE44160D5727167A292
:10146000D1E4033C47D4044BFD850DD26BB50AA5EE
:10147000FAA8B5356C98B242D6C9BBDB40F9BCAC12
:10148000E36CD832755CDF45CF0DD6DC593DD1AB6E
:10149000AC30D9263A00DE518051D7C81661D0BF92
:1014A000B5F4B42123C4B3569995BACF0FA5BDB8EE
:1014B0009EB802280888055FB2D90CC624E90BB192
:1014C000877C6F2F114C6858AB1D61C13D2D66B6EE
:1014D0009041DC760671DB01BC20D2982A10D5EF52
:1014E0008985B1711FB5B606A5E4BF9F33D4B8E8AE
:1014F000A2C9077834F9000F8EA8099618980EE152
:10150000BB0D6A7F2D3D6D08976C6491015C63E6AD
:10151000F4516B6B62616C1CD83065854E0062F2D1
:10152000ED95066C7BA5011BC1F4088257C40FF52D
:10153000C6D9B06550E9B712EAB8BE8B7C88B9FC51
:10154000DF1DDD62492DDA15F37CD38C654CD4FBAD
:101550005861B24DCE51B53A7400BCA3E230BBD451
:1015600041A5DF4AD795D83D6DC4D1A4FBF4D6D3AD
:101570006AE96943FCD96E34468867ADD0B860DA51
:10158000732D0444E51D03335F4C0AAAC97C0DDDAD
:101590003C710550AA41022710100BBE86200CC9D1
:1015A00025B56857B3856F2009D466B99FE461CE2D
:1015B0000EF9DE5E98C9D9292298D0B0B4A8D7C751
:1015C000173DB359810DB42E3B5CBDB7AD6CBAC0AD
:1015D0002083B8EDB6B3BF9A0CE2B6039AD2B174C9
:1015E0003947D5EAAF77D29D1526DB048316DC7325
:1015F000120B63E3843B64943E6A6D0DA85A6A7AC9
:101600000BCF0EE49DFF099327AE000AB19E077D24
:1016100044930FF0D2A3088768F2011EFEC2066948
:101620005D5762F7CB67658071366C19E7066B6EA4
:10163000761BD4FEE02BD3895A7ADA10CC4ADD67C8
:101640006FDFB9F9F9EFBE8E43BEB717D58EB06024
:10165000E8A3D6D67E93D1A1C4C2D83852F2DF4FC8
:10166000F167BBD16757BCA6DD06B53F4B36B24824
:10167000DA2B0DD84C1B0AAFF64A0336607A0441C8
:10168000C3EF60DF55DF67A8EF8E6E3179BE694624
:101690008CB361CB1A8366BCA0D26F2536E2685248
:1016A00095770CCC03470BBBB91602222F260555A4
:1016B000BE3BBAC5280BBDB2925AB42B046AB35CC8
:1016C000A7FFD7C231CFD0B58B9ED92C1DAEDE5B24
:1016D000B0C2649B26F263EC9CA36A750A936D0208
:1016E000A906099C3F360EEB856707721357000564
:1016F000824ABF95147AB8E2AE2BB17B381BB60C88
:101700009B8ED2920DBED5E5B7EFDC7C21DFDB0BE3
:10171000D4D2D38642E2D4F1F8B3DD686E83DA1F07
:10172000CD16BE815B26B9F6E177B06F7747B71863
:10173000E65A0888706A0FFFCA3B06665C0B011107
:10174000FF9E658F69AE62F8D3FF6B6145CF6C1663
:1017500078E20AA0EED20DD75483044EC2B3033907
:10176000612667A7F71660D04D476949DB776E3E63
:101770004A6AD1AEDC5AD6D9660BDF40F03BD83787
:1017800053AEBCA9C59EBBDE7FCFB247E9FFB530E3
:101790001CF2BDBD8AC2BACA3093B353A6A3B42407
:1017A0000536D0BA9306D7CD2957DE54BF67D92363
:1017B0002E7A66B3B84A61C4021B685D942B6F2A07
:1017C00037BE0BB4A18E0CC31BDF055A8DEF022D63
:1017D000014800787047C046C4ACFC0701480021AE
:1017E00001707047C4ACFC0710B5EFF31081012005
:1017F00080F3108805221207138880241C4314806C
:101800000A4A13680724A343136053685B07FCD597
:10181000074B1361074B5361002902D080F31088F6
:1018200010BD002080F3108810BDC0460000F407F2
:101830000F009909090404A4800003A1085806496F
:10184000086006484860704701009909030099093B
:10185000070099090F0099091000F407090404A46E
:1018600018B508490B68072213406C46237023788B
:10187000834206D00B68934303430B6048684007DC
:10188000FCD518BD0000F40770B50D4604460320D2
:10189000FFF7E6FF0C48846045600168C907FCD08B
:1018A0000420FFF7DDFFFF20C604AD00A859A042C9
:1018B00007D10520FFF7D4FFA859011B4842484132
:1018C00070BD002070BDC0460400F40710B504468A
:1018D0000220FFF7C5FFFF20C004A100085810BD7B
:1018E00070B514460D4606460320FFF7B9FF0021E8
:1018F0000848A14209D032688260456002689207B8
:10190000FCD5491C6D1C361DF3E70168C907FCD0E6
:1019100070BDC0460400F407F8B514460D460746EE
:10192000FFF7DEFF042338462946224600F011F86F
:10193000002600280BD0052338462946224600F011
:1019400008F8002803D00320FFF78AFF012630465D
:10195000F8BD70B514460E4605461846FFF780FFE1
:10196000FF20C004B10009180020844207D00A6893
:101970002B68934203D1091D401C2D1DF5E7A042A1
:1019800001D2002070BD012070BD70B514460E4616
:1019900005460220FFF764FFFF20C004B1000818CD
:1019A000002C03D002C802C5641EF9E770BDC04612
:1019B00070B5EFF31081012080F310880522120723
:1019C000148880231C4314800B4C25680726B543DC
:1019D000256065686D07FCD5084D2561084D65617A
:1019E00014889C431480002902D080F3108870BDB5
:1019F000002080F3108870BD0000F4070F009909E3
:101A0000090404A4F0B589B0682590480024445323
:101A100001263046C046C0468D4A101F00688D49D9
:101A2000884200D0D7E002A870C00F20060704202B
:101A30001446059607462118081F2246EC329042AC
:101A400000D3CAE000680890089B334009200507CE
:101A5000089AAB421FD1089B1E0AF5B2D2B2921F60
:101A6000112A00D99AE0C0467A441279520097446C
:101A7000084A959595959595959595596C7F8A9574
:101A80008D91724C0398205CC0002018AA0008F0C9
:101A9000AFFF039942E0900F0FD008987049884239
:101AA0000BD8384608306D4B19462631089A8A42C1
:101AB00021D139596C4A5180BCE708983040072140
:101AC0000907884203D10020C046C04611E00898AB
:101AD00030400499C90788420BD00898304005214E
:101AE0004907884205D008983040032149078842B9
:101AF00062D1381D9EE70899994254D1395966221E
:101B0000524B995296E7514C69200190205CC000DD
:101B100020181030AA0008F06BFF0199605C801952
:101B200060542EE0395948433A59120C801A00B2D9
:101B3000C008464B4033D88288B2101A8108464A02
:101B400011400818401C988228E0395948433A59F6
:101B5000120C801A00B2C0083C4B4033588388B244
:101B6000101A81083C4A11400818401C188315E0DF
:101B7000029CA00006AA1018AA0008F039FF2C1930
:101B80000294334C0AE03859622105E038592F4954
:101B9000086503E0385964212C4A5052A8003818CF
:101BA000001D059E46E719462231089A8A4208D14F
:101BB00039592D4A91803DE70898401C38460CD091
:101BC00038E719461E31089A8A4200D032E739595F
:101BD000254AD1802EE7FF2034E003991B4A505C50
:101BE000400850546920115C490811541046403097
:101BF000069981830921079A5143130CC91A09B226
:101C0000C908018491B2591A8A08134B1A40511815
:101C1000491CC183808C002804D17D20C000642130
:101C20000A4A505266210948425A0020002A09D126
:101C30000C4A1268D2B2AA2A01D06E2200E0802299
:101C4000024B5A5240B209B0F0BDC046C8ACFC07C6
:101C5000D47EF807A5A5A5A5FF3F0000020000500F
:101C60004C420050D07FF807640AFC07F8B568249E
:101C7000144D295D0026144F8E4222D22868B842A6
:101C80001AD16868C001400C384615D0C046C0461D
:101C90000C49095D09280ED9032000020CCD18401B
:101CA0001B049B0E18181060083DE888074A104076
:101CB000074A106002E028686A6802600835761CEE
:101CC000DAE7F8BDC8ACFC074C100040FF0100008B
:101CD00070ADFC07F8B56920954E0090315C143664
:101CE00000270F4C8F4219D2351F2868A04210D10F
:101CF000C046C0468E49009A895C092808D93068D8
:101D0000084A1040084A126852040243286801E059
:101D100028683268026008367F1CE3E7F8BDC046D9
:101D200038300040FFFF01FC70ADFC077047C04633
:101D300070B5044610480480104D688B0126B043EE
:101D400068830D2008F044FE288830430221884330
:101D5000288028884006FCD52846083804807D2045
:101D6000C00008F035FE2888032188432880288891
:101D70000006FCD570BDC04634ADFC070A0000501B
:101D80000B48018880220A434021C9430A4002804F
:101D9000428BFF239A434283428C0423134318222D
:101DA00093434384428CA02313430B4043847047E6
:101DB0001600005006480188064A0A400721C90259
:101DC000511801800448018808220A4302807047A4
:101DD00020030050FFC3000052000050FEB54C48E5
:101DE00008270780C046C0464A4D288802AC20809C
:101DF0002088C046C046208804210191C94308427A
:101E000002D00020288003E0A88901218843A8810E
:101E1000FFF7D0FF4048C18D06229143C1850121C3
:101E20008B03AE8B1E43AE8303883C4E1E40068060
:101E300043881343BB43438005221607738D384CF8
:101E4000FF34C28D2240DB051AD40F231B03032469
:101E500064022243C285C28D1A43C285AA8BBA434B
:101E6000AA83AA8B04239A43AA8342882E4B134049
:101E70004380C28D0A43C285718D4907FCD516E0A7
:101E80008B021A43C285C28D264B1340CA039A188F
:101E9000C285AA8B3A43AA83AA8B019B9A43AA8341
:101EA000C28D8A43C285A98B40229143A983A98B05
:101EB00003220A43AA830188202211434023DB43E3
:101EC00019400180288C104318402884FFF758FFE0
:101ED000FFF78AFC0220FFF7C3FC14480068C1B278
:101EE0000C20AA29014600D0019932888243881823
:101EF0003080C046C046FFF785FD66200C49085A71
:101F0000FFF716FFFFF754FD09F064FAFEBDC04667
:101F1000003300500403005052000050FFBF000087
:101F200000F0FFFFFF0F0000FFF90000D07FF8076F
:0C1F3000C8ACFC07000000008E070E008B
:0400000507FC00A153
:00000001FF
