:0200000407FCF7
:1000000000C0FC07B500FC07BD00FC07D500FC07DD
:1000100000000000000000000000000000000000E0
:10002000000000000000000000000000ED00FC07E0
:100030000000000000000000EF00FC071597FC071F
:10004000F300FC07F300FC073997FC072997FC072E
:10005000F300FC07F300FC07F300FC07F300FC07C8
:10006000F300FC07F300FC07F300FC07F300FC07B8
:10007000F300FC07F300FC07F300FC07F300FC07A8
:10008000F300FC07F300FC07F300FC076195FC0795
:10009000F300FC07F300FC07F300FC07F300FC0788
:1000A0000348854600F02EF800480047E998FC0711
:1000B00000C0FC070F4880470F48004704207146E6
:1000C000084203D0EFF309800C490847EFF308809A
:1000D0000A49084704207146084203D0EFF309801B
:1000E00007490847EFF3088005490847FEE7FEE7A0
:1000F000FEE7FEE74901FC07A100FC079996FC0713
:100100009596FC07064C0125064E05E0E36807CCF2
:100110002B430C3C98471034B442F7D3FFF7C4FF8D
:100120005401FC079401FC0702E008C8121F08C133
:10013000002AFAD170477047002001E001C1121F68
:10014000002AFBD17047000080B590485CF7A0FB07
:1001500080BDC0469401FC070095FC071415000003
:100160002801FC07A816FC070003FC07600200003A
:100170002801FC070819FC076005FC0708000000BF
:100180002801FC07A816FC0714AAFC0708010000B8
:100190003801FC0700280CD000BF00BF00BF00BF23
:1001A00000BF00BF00BF00BF00BF00BF00BF401EB8
:1001B000F0D1704770B50446002903D000202022FA
:1001C000012310E0002801D00020C043C046C046F3
:1001D0000DE02546D5408D4205D30D469540641B64
:1001E0001D46954040191546521E002DF1DC214652
:1001F00070BD0000FEB5C64C1C34204806880120A6
:100200000190C004029000271D4D002E34D0042F11
:1002100032D2F0072BD0A889000605D42889698935
:10022000401A4142414100E000210198B840134A80
:1002300050802889029A134B1A60BFF34F8FBFF387
:100240006F8F002907D0A989019A9143A981A989B3
:1002500008229143A9812268002A05D0411C6068C8
:1002600089B200949047009C0298AB490860103511
:10027000083476087F1CC8E7FEBDC04682360050B1
:100280000036005080E100E0F8B515460E46044601
:1002900000F096FC002800D0F8BD00951E4DA888FF
:1002A0007C210143A9801D48876800F055FC03208C
:1002B0000006304300F020FCA8881C210143602088
:1002C0008143A98000988119B94200D9B81B144E06
:1002D00000903146FFF76EFF05460746002F08D015
:1002E0002046314600F086FDA41900F047FE7F1E2F
:1002F000F4E70C4868430099401805D081B22046C5
:1003000000F078FD00F03AFE0020034A9084108847
:10031000202101431180F8BD0012005008ABFC07FA
:10032000FFFF00000100FFFFFEE700000948018910
:1003300004220A430281018840220A4302800649BE
:1003400001220A604189054A11408918091D41812D
:100350007047C0460800005080E200E0FC7F0000CB
:10036000B8B50122D0030E4909684901C90D0D49EC
:100370000CD00B886C462380238802251D439543AF
:100380002580009A02432280009A0A800A886B46E0
:100390001A80009A02431A8000980880B8BDC046AF
:1003A0000000FC071200005059488069002802D064
:1003B000014801214170704714AAFC0780B502482A
:1003C00000F0EAFD80BDC0460011005080B5024833
:1003D00000F0E2FD80BDC04600100050F0B50A7983
:1003E000530140241C40130180251D40160936028C
:1003F00075192C19D20020251540621910241C40B3
:1004000012190B785B0008241C40121906241C40AA
:100410001219CB79DB079B0C4C796508ED07ED0CC5
:10042000EB18E407240D1B19134383818A790F2AE3
:1004300043D0354A82180423DA41931E022B1BD382
:10044000012A3AD8EFF31083012282F310888D79C4
:100450002E4C2688F6B23609B54203D12688F027FD
:100460003743278026880F27BE432E432680002B44
:100470001CD082F3108820E0EFF31083012282F376
:100480001088224C27880F2637408D79AF4202D141
:100490002788374327802688F027BE432D01354320
:1004A0002580002B06D082F3108806E0002282F31C
:1004B000108802E0002282F310888A680280120C01
:1004C0004280CA688280120CC2800A8A521E42810F
:1004D0004A88002A00D10A8A521E02814008382226
:1004E00002400B4880184A69C26189690162FF2095
:1004F000000608490A6882430120C307D2180A602F
:10050000C00405490860F0BD00CAFFAF8036005046
:1005100088AAFC0710E400E000E100E00848007849
:1005200000280BD00320C001052109070A885201C9
:100530000240488A034B0340981848827047C046DF
:1005400004ABFC077FFE000010B554F79BF80120B8
:10055000410200242046224653F742FF1420FFF7B1
:1005600019FE0148048010BD0003005080B5034609
:10057000402208461946FFF787FE80BDB8B0F4490F
:10058000488801220E9210434880FF20079008807F
:10059000F048082108910180F6F780FD18A8203066
:1005A0000C9010A8083003900320029000020A90DB
:1005B000EF20C4430B94E84F384654F743FD5820CE
:1005C0000226E64B1E52E64A1088B889802108436D
:1005D000B8810B20E34C2080089838800025BD802E
:1005E000B8898843B8810298B8810E989083388A78
:1005F0002021059188433882388AB0433882158497
:10060000D948D8641D65D948586595840524204685
:100610000A9932462B4653F705FF3846069631466F
:1006200054F75FFD384654F772FD204629460E9A6E
:100630002B4653F7F7FE28A800F02CFD00282DD0FC
:1006400028A8007801280B9F2BD128A800F022FDB4
:100650003E46ED36002800D18DE028A8047800F051
:1006600019FDEC37002800D184E028A800780002AA
:10067000011919D0BE48814231D30520022200233E
:100680000A9953F7CFFE1521FD4C204654F729FD5A
:10069000204654F73CFD0B9EEB366CE00B9EEF368C
:1006A00069E03E46EE3666E028A800F0F3FC00283C
:1006B00061D028A8047800F0EDFC00283E465AD00E
:1006C00028A8067800F0E6FC002800D1CFE130022F
:1006D000001928A9097809044118CBD1CDE70526CE
:1006E000022230460F460A992B4653F79BFE0621FD
:1006F000E34C204654F7F5FC204654F708FD012250
:10070000304629462B4653F78DFE2E460B9CAF42B2
:100710000ED0D8480799018028A800F0BBFC00281B
:1007200000D19CE128980A99485546406D1CEEE797
:1007300005240222002520460A992B4653F772FE13
:10074000F1B2CF4E304654F7CCFC304654F7DFFCC4
:100750000122204629462B4653F764FE28A800F0C4
:1007600099FC002800D17FE128A80078062801D054
:100770000B9FE8373E46C24854F77EFC012E1BDB38
:10078000BE480A99002E05D00A780270761E401CD9
:10079000491CF7E7C820B7490880B7480899018085
:1007A000052000210A460B4653F73CFEFFF7CCFE1E
:1007B000FFF7B4FEFFF7D4FDC821AE4804910180D5
:1007C0001D220E9C20460A9D29462346C94EB0474D
:1007D00004201C220027294609923B46B0471B22D1
:1007E000384629463B46B04703201A220F90394627
:1007F0003B46B04710AE0798B075B4710898B0800A
:100800007D208001708037700398076047608760A3
:100810000D978781304600F045FA00F0E9F9A00411
:10082000984CA060304600F03DFA00F0E1F92078E5
:1008300000280B9C03D100F0C3F9002850D00E987B
:10084000C00493490860BFF34F8FBFF36F8F072039
:10085000C10318AE0C223046FFF716FD3078702821
:1008600000D0F2E07078522800D0EEE0199816908F
:100870001A9C179428AE3146FFF778FEF078019065
:100880007578B0780590377820463146FFF76EFED0
:1008900070207840AA21059A5140014351226A40B4
:1008A0000A4350425041B178AA2917D131787029B2
:1008B00014D17178512911D128A9801C032859D14C
:1008C000C8780199FF2901D1002854D0002900D00F
:1008D000C1E0FF2800D0BEE00E984DE00F904BE045
:1008E000EB4D28880999084360218843288000F04F
:1008F00033F99F20644FB84700263046B84701902F
:100900003046B84700903046B8472E84291F0A88E1
:10091000059B1A430A8001990906090A009A1206E2
:10092000120C5118C0B2081889D0224621460C3149
:1009300085D0564B9A18F423D25890420A46F6D1E5
:1009400052484018E4304F494CC84CC177E7C04684
:1009500000310050023300500010005088AAFC07FC
:100960007C100050C010005001A3FC07D1A4FC076C
:10097000019200000F900698471EF8B2800016A959
:100980000E5818A93046FFF7F1FD31464031199A4B
:100990003A48FFF779FC0C980078002814D10B989E
:1009A000EF30199A1A99354B002A0AD01C78444026
:1009B000E4B2A400374D2C59000A60405B1C521E63
:1009C000F2E7C04381422FD000F0FAF8002822D18C
:1009D00000F0F6F800281ED1AD4A108809990843A6
:1009E000602188431080062000F0B6FA00F014F968
:1009F000002810D100F0EEF880070CD5B11CA44BF4
:100A000018887C2202431A800E984007084300F0A1
:100A1000A3FA00F001F90E9847400F98C0B20328DE
:100A20000D980F90A9D010E0124804990180124847
:100A30000899018000F09CF80E9800F041F8FFF74B
:100A400083FDFFF76BFDFFF78BFC00F091F80020B2
:100A500000F036F8AFE5814204D301208CE726464A
:100A6000EA3688E6022087E70B9EE93683E60B9E8E
:100A7000E73680E600310050023300500000FC07EA
:100A80000010005008ABFC07659EFC0730A5FC0772
:100A900080E100E014A6FC07B0B5064C01252580D6
:100AA000054802781B20054953F756FCA0892843C6
:100AB000A081B0BD0003005016AAFC0714ABFC07D0
:100AC00070B503460120450200240A4E29462246FD
:100AD000B0470420294622462346B04720462946EF
:100AE00022462346B0470320294622462346B047E4
:100AF00070BDC04691D7F10710B5044600F0A0F8CC
:100B0000BA490A881F239A430A800A88022313439A
:100B10000B800A88042313430B800A8801231343A4
:100B20000B80022801D3220C0A850C840A8BD20484
:100B3000FCD4022802D3088D020402E0002803D06E
:100B40000022888B104301E0888BC0B218228A5E95
:100B5000002AFBD410BDC046F148018820229143F1
:100B60000180EE4909780907490F81847047C04622
:100B700010B5EFF31081012080F310889A4A138892
:100B8000054C1C401480002902D080F3108810BD51
:100B9000002080F3108810BDFFFB000080B5FA48EC
:100BA0000278D20704D1054A0023D35E002BFBD480
:100BB0008268002A01D00846904780BD1812005074
:100BC00080B500F007F80121014048420D2188431B
:100BD00080BD000080B5DF4801883C220A434021E7
:100BE0008A4302800520000200F0B6F980B280BD81
:100BF00080B5FFF7B1FFE048002181840188202201
:100C00000A43028081881C220A4360218A43828031
:100C1000AB2000F0A1F980BDB0B50025074C611CE8
:100C2000A94205D06D1CFFF7D5FFC007F7D1691E9B
:100C30000020A14200D9C043B0BDC0467F841E0041
:100C4000C44800884006C00E1CD0410801438A08F1
:100C50000A4300091043010A0143080C0843C0433A
:100C600041080C4A0A40801A0B49820808400A4091
:100C70008018010940180949014009484843000EFD
:100C80001D3800E00320C1174840401AC0B2704729
:100C90000412005055555555333333330F0F0F0F92
:100CA00001010101F0B589B00646EFF3108001257E
:100CB00085F31088A9024C4A13880B43138000283F
:100CC00002D085F3108802E0002080F31088AA4C3F
:100CD00020200190208031790720084000F024F97D
:100CE0003078A188032291430007400F0843A08079
:100CF0003178A28880208243C907090E5118A1804B
:100D000031782940E24D2A78FE23134059182B46AA
:100D100029700027A7812189014321813078C007EC
:100D200024D11878F1210140307980080E22024048
:100D30008818187071887D200002814202D12189B3
:100D40007F2009E049001D46FFF734FA2B46218930
:100D50007F229143401EC0B208432081B07D21888C
:100D600040229143C007400E08182080B0685860A8
:100D7000F06898603069D8601D4D3246307DC007FC
:100D8000284601D028462030186102AE7780042121
:100D900031703782F78077710092517D0C01611DAF
:100DA000317108970797059773491C3104913146B3
:100DB000FFF714FBE01C30710098007DC00701D0E4
:100DC000303500E01035E14845616B4C204620305D
:100DD000059028463146FFF701FB2088019988439A
:100DE000208009B0F0BDC046040000500012005041
:100DF00000360050F0B587B00546F14F3878C0078F
:100E000000D089E00C46FFF71BFF5B4E31881F22A4
:100E100091433180318802220A4332803188042292
:100E20000A43328002281CD13088012101433180DD
:100E3000002081B2A1420FD2318B8904FCD4002161
:100E400031853184318BC904FCD4B18B328D1204CD
:100E5000511802C5401CECE71820305E0028FBD476
:100E60005AE0FFF7EDFE3B695A08382104910A4029
:100E700039461C3105912B4F8F50471EB841400019
:100E80000627F94303919F890F40381898819D8068
:100E9000280CD880601E01901881588198890821FB
:100EA0000291084398819889012100910843988113
:100EB000308810230343338005988018002747604B
:100EC000BF484569A88940229043A8816C080498CE
:100ED0000440FFF7B5FE059A1751411E88414000B6
:100EE000A989039B19400818A88106A82880000C2E
:100EF0006880019828816881A889029B9843A8810D
:100F0000A88900990843A8813088184330801019B7
:100F1000476030880843308007B0F0BD88AAFC07DE
:100F200000120050099FFC070A49022807D0012837
:100F300009D000280A881C201043602207E00A8894
:100F40007C20104304E00A883C2010434022904358
:100F5000088070470412005010B50446FFF7FCFDEE
:100F60002046FFF7C9FD044900228A840A8820230D
:100F700013430B8010BDC04600120050904800691A
:100F80008189C907FCD1704788AAFC0777480121ED
:100F90004170704770470000F0B585B0044687483F
:100FA000201A411E884140018549081801464A31EE
:100FB000019101465431039101465031009101469F
:100FC000403102910546423506463C364C3004908D
:100FD00027467C3720890F210140481E0B28F9D86D
:100FE00078440079400087445006052005242C05EC
:100FF00005050534EEE7029800882988814236D23B
:101000008842E7D02289C0231340C02B03D13A88FD
:10101000920703D4DEE7A28A9206DBD54A1C2A8017
:101020003368595C21801146EAE7204600F0A0F8B9
:10103000D0E704980268002ACCD0A08A9E21014003
:1010400004E004980268002AC4D001212046904799
:10105000C0E7204600F08CF8A08801218843A080DA
:10106000039801680029B5D0019800880BE0A18899
:1010700002229143A180A18880229143A1800099FE
:1010800009680029A6D08847A4E705B0F0BDC0468E
:1010900088AAFC07FEB50090344A00201070029028
:1010A0005070284C2168012399432160FF263006A7
:1010B00065680540244FED196560A56801900540FD
:1010C000A560256802272F43276025680427BD43B4
:1010D000256025681D432560394D1D49A96100988B
:1010E0006864AB641B490F60BFF34F8FBFF36F8F12
:1010F0001949088818430880088838430880300454
:1011000016490E6886435820285C8007000A30186C
:101110000860134807601078002802D15078002832
:10112000F9D0A06801990840A06020689843206029
:1011300050780028029802D01178002900D0184673
:10114000FEBDC04610E000E05FEA000088AAFC0790
:10115000F9A2FC0780E100E00410005000E400E088
:1011600000E100E0014801210170704714AAFC076A
:10117000F8B51249411A4A1E91414901104A5418C2
:101180002346443300943C34A589E2890E34AA42B4
:1011900009D2868AF60710D00688571C278019685E
:1011A0008E543A46F3E78188012399438180009861
:1011B000416D002901D090B28847F8BD0010005061
:1011C00088AAFC07010000001130EF0000000200B7
:1011D000020000001230EF000000040003000000D5
:1011E00000421F0000000200040000001120C200A5
:1011F00000000200050000001128C20000000200EB
:10120000060000001228C200000004000F000000C9
:1012100011608500000002001000000011408500F0
:1012200000000200130000001264C8000000040067
:101230001400000001431F0000000400150000001E
:1012400001111F00000004001600000002441F00EE
:10125000000008001700000008441F0000000800FC
:101260001800000001841F000000080019000000A1
:101270000C441F00000008001B0000000C451F006C
:10128000000010001C00000001651F0000000100AC
:101290001D00000001101F00000002001E000000E1
:1012A00008451F000000100000000000963007777E
:1012B0002C610EEEBA51099919C46D078FF46A704A
:1012C00035A563E9A395649E3288DB0EA4B8DC796A
:1012D0001EE9D5E088D9D2972B4CB609BD7CB17EEA
:1012E000072DB8E7911DBF906410B71DF220B06ABA
:1012F0004871B9F3DE41BE847DD4DA1AEBE4DD6DCA
:1013000051B5D4F4C785D38356986C13C0A86B64C9
:101310007AF962FDECC9658A4F5C0114D96C0663E9
:10132000633D0FFAF50D088DC8206E3B5E10694CC9
:10133000E44160D5727167A2D1E4033C47D4044B09
:10134000FD850DD26BB50AA5FAA8B5356C98B242E9
:10135000D6C9BBDB40F9BCACE36CD832755CDF4569
:10136000CF0DD6DC593DD1ABAC30D9263A00DE5199
:101370008051D7C81661D0BFB5F4B42123C4B35689
:101380009995BACF0FA5BDB89EB802280888055F09
:10139000B2D90CC624E90BB1877C6F2F114C685869
:1013A000AB1D61C13D2D66B69041DC760671DB0157
:1013B000BC20D2982A10D5EF8985B1711FB5B60629
:1013C000A5E4BF9F33D4B8E8A2C9077834F9000F69
:1013D0008EA8099618980EE1BB0D6A7F2D3D6D0809
:1013E000976C6491015C63E6F4516B6B62616C1CF9
:1013F000D83065854E0062F2ED95066C7BA5011B29
:10140000C1F4088257C40FF5C6D9B06550E9B712C8
:10141000EAB8BE8B7C88B9FCDF1DDD62492DDA1588
:10142000F37CD38C654CD4FB5861B24DCE51B53AA8
:101430007400BCA3E230BBD441A5DF4AD795D83DA8
:101440006DC4D1A4FBF4D6D36AE96943FCD96E34E8
:10145000468867ADD0B860DA732D0444E51D0333C8
:101460005F4C0AAAC97C0DDD3C710550AA410227D8
:1014700010100BBE86200CC925B56857B3856F20A8
:1014800009D466B99FE461CE0EF9DE5E98C9D92908
:101490002298D0B0B4A8D7C7173DB359810DB42E48
:1014A0003B5CBDB7AD6CBAC02083B8EDB6B3BF9A94
:1014B0000CE2B6039AD2B1743947D5EAAF77D29D20
:1014C0001526DB048316DC73120B63E3843B649400
:1014D0003E6A6D0DA85A6A7A0BCF0EE49DFF099300
:1014E00027AE000AB19E077D44930FF0D2A3088770
:1014F00068F2011EFEC206695D5762F7CB67658020
:1015000071366C19E7066B6E761BD4FEE02BD3891F
:101510005A7ADA10CC4ADD676FDFB9F9F9EFBE8E7F
:1015200043BEB717D58EB060E8A3D6D67E93D1A1BF
:10153000C4C2D83852F2DF4FF167BBD16757BCA69F
:10154000DD06B53F4B36B248DA2B0DD84C1B0AAF3F
:10155000F64A0336607A0441C3EF60DF55DF67A8BF
:10156000EF8E6E3179BE69468CB361CB1A8366BC4F
:10157000A0D26F2536E2685295770CCC03470BBB9F
:10158000B91602222F260555BE3BBAC5280BBDB29F
:10159000925AB42B046AB35CA7FFD7C231CFD0B53F
:1015A0008B9ED92C1DAEDE5BB0C2649B26F263EC31
:1015B0009CA36A750A936D02A906099C3F360EEB3F
:1015C0008567077213570005824ABF95147AB8E2FF
:1015D000AE2BB17B381BB60C9B8ED2920DBED5E5DF
:1015E000B7EFDC7C21DFDB0BD4D2D38642E2D4F12F
:1015F000F8B3DD686E83DA1FCD16BE815B26B9F6BF
:10160000E177B06F7747B718E65A0888706A0FFF1E
:10161000CA3B06665C0B0111FF9E658F69AE62F8DE
:10162000D3FF6B6145CF6C1678E20AA0EED20DD7DE
:101630005483044EC2B30339612667A7F71660D0FE
:101640004D476949DB776E3E4A6AD1AEDC5AD6D93E
:10165000660BDF40F03BD83753AEBCA9C59EBBDE5E
:101660007FCFB247E9FFB5301CF2BDBD8AC2BACA0E
:101670003093B353A6A3B4240536D0BA9306D7CD7E
:101680002957DE54BF67D9232E7A66B3B84A61C49E
:10169000021B685D942B6F2A37BE0BB4A18E0CC35E
:1016A0001BDF055A8DEF022D014800787047C046B8
:1016B00016AAFC07014800210170704716AAFC0712
:1016C00080B5024802495EF7C9FA80BD16AAFC0738
:1016D00014ABFC0780B5024802495EF76BFB80BD86
:1016E00016AAFC0714ABFC071CB50120C046C04677
:1016F0000F480090834C0F490F4A104B20465CF76F
:1017000055FF6421625A002A02D17D22D200625222
:101710006621625A002A00D01CBD794A1268D2B2F2
:10172000AA2A01D06E2200E0802262521CBDC0466F
:10173000000000006005FC0718ABFC07000000007B
:101740007047C04680B5024908805CF729FE80BD1D
:1017500084AAFC070B48018880220A434021C94320
:101760000A400280428BFF239A434283428C042327
:101770001343182293434384428CA02313430B400A
:10178000438470471600005006480188064A0A4004
:101790000721C902511801800448018808220A4320
:1017A0000280704720030050FFC300005200005029
:1017B000FEB54C4808270780C046C0464A4D2888D9
:1017C00002AC20802088C046C046208804210191B8
:1017D000C943084202D00020288003E0A8890121E3
:1017E0008843A881FFF7D0FF4048C18D062291436E
:1017F000C18501218B03AE8B1E43AE8303883C4E13
:101800001E40068043881343BB43438005221607CE
:10181000738D384CFF34C28D2240DB051AD40F2360
:101820001B03032464022243C285C28D1A43C2856E
:10183000AA8BBA43AA83AA8B04239A43AA83428819
:101840002E4B13404380C28D0A43C285718D4907D8
:10185000FCD516E08B021A43C285C28D264B13407D
:10186000CA039A18C285AA8B3A43AA83AA8B019B02
:101870009A43AA83C28D8A43C285A98B4022914391
:10188000A983A98B03220A43AA830188202211433A
:101890004023DB4319400180288C104318402884E2
:1018A000FFF758FFFFF70CFF02205EF79FF914487F
:1018B0000068C1B20C20AA29014600D001993288E3
:1018C000824388183080C046C046FFF70DFF66206F
:1018D0000C49085AFFF736FFFFF7FCFE09F066FCDB
:1018E000FEBDC046003300500403005052000050BB
:1018F000FFBF000000F0FFFFFF0F0000FFF9000036
:10190000D07FF80718AAFC07000000008E070E0021
:0400000507FC00A153
:00000001FF
