:0200000407FCF7
:100000000000FD07B500FC07BD00FC07D500FC079C
:1000100000000000000000000000000000000000E0
:10002000000000000000000000000000ED00FC07E0
:100030000000000000000000EF00FC07F100FC07DA
:10004000F300FC07F300FC07F300FC07F300FC07D8
:10005000F300FC07F300FC07F300FC07F300FC07C8
:10006000F300FC07F300FC07F300FC07F300FC07B8
:10007000F300FC07F300FC07F300FC07F300FC07A8
:10008000F300FC07F300FC07F300FC0765D5FC0751
:10009000F300FC07F300FC07F300FC07F300FC0788
:1000A0000348854600F02EF80048004721D8FC0799
:1000B0000000FD070F4880470F48004704207146A5
:1000C000084203D0EFF309800C490847EFF308809A
:1000D0000A49084704207146084203D0EFF309801B
:1000E00007490847EFF3088005490847FEE7FEE7A0
:1000F000FEE7FEE74901FC07A100FC079DD6FC07CF
:1001000099D6FC07064C0125064E05E0E36807CCAE
:100110002B430C3C98471034B442F7D3FFF7C4FF8D
:100120005401FC079401FC0702E008C8121F08C133
:10013000002AFAD170477047002001E001C1121F68
:10014000002AFBD17047000080B5A6485EF7C4FCCA
:1001500080BDC0469401FC0700D5FC07BC1500001B
:100160002801FC075017FC070003FC07540300009C
:100170002801FC07A41AFC075406FC07080000002D
:100180002801FC075017FC07BCEAFC07D40200005A
:100190003801FC0703460B439B0703D009E008C95D
:1001A000121F08C0042AFAD203E00B780370401C27
:1001B000491C521EF9D2704770B50446002903D07D
:1001C00000202022012310E0002801D00020C0439D
:1001D000C046C0460DE02546D5408D4205D30D46AC
:1001E0009540641B1D46954040191546521E002D32
:1001F000F1DC214670BD0000FEB5A74C1834204844
:10020000068801200190C004029000271D4D002E99
:1002100034D0042F32D2F0072BD0A889000605D4A1
:1002200028896989401A4142414100E00021019832
:10023000B840134A50802889029A134B1A60BFF3C2
:100240004F8FBFF36F8F002907D0A989019A91437F
:10025000A981A98908229143A9812268002A05D091
:10026000411C606889B200949047009C02988C49B8
:1002700008601035083476087F1CC8E7FEBDC0460C
:10028000823600500036005080E100E0F8B5154697
:100290000E46044600F004FD002800D0F8BD00958D
:1002A0001E4DA8887C210143A9801D48C76800F025
:1002B000C3FC03200006304300F08EFCA8881C21FC
:1002C000014360208143A98000988119B94200D977
:1002D000B81B144E00903146FFF76EFF05460746E7
:1002E000002F08D02046314600F0F4FDA41900F09C
:1002F000B5FE7F1EF4E70C4868430099401805D00E
:1003000081B2204600F0E6FD00F0A8FE0020034A7E
:1003100090841088202101431180F8BD0012005004
:10032000BCEAFC07FFFF00000100FFFFFEE7000042
:100330000948018904220A430281018840220A43B4
:100340000280064901220A604189054A1140891844
:10035000091D41817047C0460800005080E200E05E
:10036000FC7F0000F0B50A79530140241C401301C2
:1003700080251D401609360275192C19D20020253A
:100380001540621910241C4012190B785B000824D8
:100390001C40121906241C401219CB79DB079B0C58
:1003A0004C796508ED07ED0CEB18E407240D1B19DB
:1003B000134383818A790F2A43D0354A8218042354
:1003C000DA41931E022B1BD3012A3AD8EFF3108394
:1003D000012282F310888D792E4C2688F6B23609D8
:1003E000B54203D12688F0273743278026880F2778
:1003F000BE432E432680002B1CD082F3108820E0C1
:10040000EFF31083012282F31088224C27880F26F5
:1004100037408D79AF4202D127883743278026881D
:10042000F027BE432D0135432580002B06D082F3F3
:10043000108806E0002282F3108802E0002282F396
:1004400010888A680280120C4280CA688280120C6E
:10045000C2800A8A521E42814A88002A00D10A8A32
:10046000521E02814008382202400B4880184A6917
:1004700082618969C161FF20000608490A688243D8
:100480000120C307D2180A60C00405490860F0BD06
:1004900000CAFFAF8036005054EDFC0710E400E0C6
:1004A00000E100E080B50346402208461946FFF708
:1004B000EDFE80BDE0B0D649488801242043488045
:1004C000FF2004900880D348082110910180F2F7A2
:1004D0004FFE3CA80C30149024A808300390032051
:1004E000C1010191000202900B94E0030090EF2003
:1004F000C0430790C821C648059101801D220B9D6D
:100500002846029C21462B46C34EB04704201C229D
:1005100000270A90214606923B46B0471B223846E8
:10052000214618923B46B04703201A220D903946C7
:100530003B46B04724AC0498A075A5711098A080E4
:100540007D20800160802770039807604760876086
:1005500009978781204600F015FC00F0B9FBA8043C
:10056000AE4DE860204600F00DFC00F0B1FB2879AC
:10057000002803D100F094FB002852D00B98C0044F
:10058000A7490860BFF34F8FBFF36F8F0720C103E8
:100590002CAC0C2220460F92FFF778FE20787028B2
:1005A00000D0CBE26078522800D0C7E22D982A9084
:1005B0002E9E2B963CAC2146FFF774FFE0782290EC
:1005C00060782390A778257830462146FFF76AFFA8
:1005D00070206840AA21794001435122239842406B
:1005E0000A4350425041A178AA2918D12178702994
:1005F00015D16178512912D13CA9821C0220032A0D
:1006000046D1C978229AFF2A01D1002941D0002A77
:1006100000D099E2FF2900D096E20B9839E00D90C6
:1006200037E0804D28880699084360218843288058
:1006300000F002FB9F207C4EB04700242046B047CC
:1006400007462046B04723902046B0472C84291FF8
:100650000A88202313430B803906090A239A1206BD
:10066000120C5118C0B2081888D0079A11460C31E4
:1006700084D06E4B9A18F423D25890420A46F6D191
:100680006A484018E4306549091D1CC81CC175E75B
:100690000D92421E0C92D0B280002AA90C582CA9AF
:1006A0002046FFF7FFFE089440342D9A604821460B
:1006B000FFF7ECFD5F4860490160604941606049B7
:1006C00081606049C1606049016114305FA12D9A69
:1006D00011920A9A2C2A1FD0031F1B68940714D169
:1006E000DCB2624E345D24021D0AEDB2755D2D044C
:1006F0002C191D0CEDB2755D2D0664191B0EF35CF3
:10070000E4180B781B066340491C0446103C24681F
:100710005C4010C0521CDDE7792080004549091873
:1007200053A00E913CC83CC128201421052836D383
:100730002390404842581346229151490B40DC090E
:100740001C1B5048044055002B464F4E334063401D
:100750005C0026460E40F709F61B06400D40229924
:10076000EF09ED1B0540484804406C40650005401A
:1007700075406A4016461098C641174667401020DB
:10078000C74177405A401820C24123987A405A40C6
:1007900062406A40F44B5A50091D401EC6E750A8FB
:1007A0000E993CC93CC00998102806D050A9095898
:1007B00009BA58AA1150001DF6E7E84C11980F2805
:1007C00000DC21E1103812904CA81022139421462D
:1007D0001592FFF7DFFC0020102808D04CA909581B
:1007E00009BA5CAA115054AA1150001DF4E7DE4961
:1007F00008881690000108180F990A1D46D054AABF
:100800005358441864685C405450091FF5E7C046CB
:10081000003100500233005099F9F107BCEAFC079F
:1008200080E100E00412005045DFFC07D8E3FC073C
:100830000000FC07CCEAFC070A0004004021A906DE
:100840005BA1B836D5032E5106001234010204080C
:10085000102040801B366CD8AB4D9A2F5EBC63C60F
:1008600097356AD4B37DFAEFC5910000BCE5FC076B
:100870003DAFBA429D9EB430B422DA802C9FAC4189
:10088000808080801B1B1B1BFEFEFEFE431808336E
:100890001698401E1B9000261698864200D19AE0BA
:1008A0001793042514981C96002D00D180E0239006
:1008B000A807010F54A8415CAE4B5C5C6A1C920710
:1008C000120F82185278995CAA1C9207120F821894
:1008D00092789F5C6D1EAA07120F8018C0781A5C70
:1008E0001B98864257DA22913E4656407000802E71
:1008F000189900D348402090229B5F407800802FB9
:10090000219200D34840209AD2B2C0B21F904240F8
:100910005000802A00D348401E9022465A40500082
:10092000802A00D34840C3B21A461F984240500064
:10093000802A1A9300D348401E9AD3B2C2B21D92A5
:100940005A405000802A00D34840C2B22146219824
:10095000414048008029199301D3189948402299B1
:100960004840C0B21D9B58405040704054406640C3
:100970001A9A5640199A56406740209A57401E9A34
:1009800057403B06219A54404C401F994C401D99BA
:100990004C40220403E03B0412060E4620461A4354
:1009A00031021143014323980160001F1C9E7BE725
:1009B0001598179B00280AD0011F3CAA8A581818BE
:1009C00014380068504054AA88500846F2E71B18B3
:1009D000103B761C60E7002010280CD058A90A585C
:1009E0005CAB1B580B5054A90958514009BA3CAA9A
:1009F0001150001DF0E73CA91022139C2046FFF780
:100A0000C9FB10341298DAE60020102806D058A945
:100A1000095809BA50AA1150001DF6E750A80E9DBA
:100A20001EC81EC50798EF3000222E994F4C119B0F
:100A3000934209D0494B9B5C4340DBB29B00E35897
:100A4000000A5840521CF2E7C043814231D000F006
:100A500027F9002823D100F023F900281FD1C44A28
:100A6000108806990843602188431080062000F012
:100A7000E3FA00F041F9002811D100F01BF98007DA
:100A80000DD50898811CBA4B18887C2202431A8025
:100A90000B984007084300F0CFFA00F02DF90B98AF
:100AA0000C9A42400D98C0B200210D91032845D107
:100AB000F0E528480599018027481099018000F049
:100AC000C7F80B9800F06CF851F7E0FE019D29463D
:100AD000803100242046224651F786FD142051F72C
:100AE0008FFC2C4804801F48007800281C4A09D03D
:100AF0001046123800884001284011881C4B1940CC
:100B000001431180154908680842009B0ED01088E7
:100B10003CA908800888022202430B9882430A807D
:100B20000F4A3C98184308803C98108010883CA9D4
:100B300008803C98184308803C98108000F088F8A2
:100B4000002000F02DF8D5E48A4201D30120A0E571
:100B500002209EE500310050023300500000FC07E7
:100B600012000050BCEAFC07CCEAFC07BCE6FC071C
:100B70007FFE0000BCE4FC07B0B5064C01252580D3
:100B8000054802781B20054951F7EAFCA089284353
:100B9000A081B0BD00030050C0ECFC078CEDFC0749
:100BA00070B503460120450200240A4E294622461C
:100BB000B0470420294622462346B047204629460E
:100BC00022462346B0470320294622462346B04703
:100BD00070BDC04699F9F10710B5044600F0A0F8C1
:100BE000BA490A881F239A430A800A8802231343BA
:100BF0000B800A88042313430B800A8801231343C4
:100C00000B80022801D3220C0A850C840A8BD204A3
:100C1000FCD4022802D3088D020402E0002803D08D
:100C20000022888B104301E0888BC0B218228A5EB4
:100C3000002AFBD410BDC046F14801882022914310
:100C40000180EE4909780907490F81847047C04641
:100C500010B5EFF31081012080F310889A4A1388B1
:100C6000054C1C401480002902D080F3108810BD70
:100C7000002080F3108810BDFFFB000080B5FA480B
:100C80000278D20704D1054A0023D35E002BFBD49F
:100C90008268002A01D00846904780BD1812005093
:100CA00080B500F007F80121014048420D2188433A
:100CB00080BD000080B5DF4801883C220A43402106
:100CC0008A4302800520000200F0B6F980B280BDA0
:100CD00080B5FFF7B1FFE048002181840188202220
:100CE0000A43028081881C220A4360218A43828051
:100CF000AB2000F0A1F980BDB0B50025074C611C08
:100D0000A94205D06D1CFFF7D5FFC007F7D1691EBA
:100D10000020A14200D9C043B0BDC0467F841E0060
:100D2000C44800884006C00E1CD0410801438A0810
:100D30000A4300091043010A0143080C0843C04359
:100D400041080C4A0A40801A0B49820808400A40B0
:100D50008018010940180949014009484843000E1C
:100D60001D3800E00320C1174840401AC0B2704748
:100D70000412005055555555333333330F0F0F0FB1
:100D800001010101F0B589B00646EFF3108001259D
:100D900085F31088A9024C4A13880B43138000285E
:100DA00002D085F3108802E0002080F31088AA4C5E
:100DB00020200190208031790720084000F024F99C
:100DC0003078A188032291430007400F0843A08098
:100DD0003178A28880208243C907090E5118A1806A
:100DE00031782940A04D2A78FE23134059182B460C
:100DF00029700027A7812189014321813078C0070C
:100E000024D11878F1210140307980080E22024067
:100E10008818187071887D200002814202D12189D2
:100E20007F2009E049001D46FFF7C6F92B462189BE
:100E30007F229143401EC0B208432081B07D2188AB
:100E400040229143C007400E08182080B0685860C7
:100E5000F06898603069D8601D4D3246307DC0071B
:100E6000284601D028462030186102AE7780042140
:100E700031703782F78077710092517D0C01611DCE
:100E8000317108970797059773491C3104913146D2
:100E9000FFF768FAE01C30710098007DC00701D0B0
:100EA000303500E01035704845616B4C20462030ED
:100EB000059028463146FFF755FA20880199884366
:100EC000208009B0F0BDC046040000500012005060
:100ED00000360050F0B587B00546634F3878C0073C
:100EE00000D089E00C46FFF71BFF5B4E31881F22C4
:100EF00091433180318802220A43328031880422B2
:100F00000A43328002281CD13088012101433180FC
:100F1000002081B2A1420FD2318B8904FCD4002180
:100F200031853184318BC904FCD4B18B328D1204EC
:100F3000511802C5401CECE71820305E0028FBD495
:100F40005AE0FFF7EDFE3B695A08382104910A4048
:100F50003946183105912B4F8F50471EB84140003C
:100F60000627F94303919F890F40381898819D8087
:100F7000280CD880601E019018815881988908211A
:100F80000291084398819889012100910843988132
:100F9000308810230343338005988018002747606A
:100FA00031484569A88940229043A8816C0804987B
:100FB0000440FFF7B5FE059A1751411E88414000D5
:100FC000A989039B19400818A88106A82880000C4D
:100FD0006880019828816881A889029B9843A8812C
:100FE000A88900990843A8813088184330801019D7
:100FF000476030880843308007B0F0BD54EDFC07EF
:1010000000120050E9DFFC070A49022807D0012836
:1010100009D000280A881C201043602207E00A88B3
:101020007C20104304E00A883C2010434022904377
:10103000088070470412005010B50446FFF7FCFD0D
:101040002046FFF7C9FD044900228A840A8820232C
:1010500013430B8010BDC0460012005002480069C7
:101060008189C907FCD1704754EDFC0701000000DD
:101070001130EF0000000200020000001230EF000B
:10108000000004000300000000421F0000000200F6
:10109000040000001120C200000002000500000052
:1010A0001128C20000000200060000001228C20041
:1010B000000004000F000000116085000000020025
:1010C0001000000011408500000002001300000025
:1010D0001264C800000004001400000001431F0057
:1010E000000004001500000001111F0000000400B2
:1010F0001600000002441F00000008001700000056
:1011000008441F00000008001800000001841F00B0
:1011100000000800190000000C441F000000080037
:101120001B0000000C451F00000010001C00000008
:1011300001651F00000001001D00000001101F00DC
:10114000000002001E00000008451F000000100003
:1011500052096AD53036A538BF40A39E81F3D7FB2C
:101160007CE339829B2FFF87348E4344C4DEE9CB76
:10117000547B9432A6C2233DEE4C950B42FAC34EEB
:10118000082EA16628D924B2765BA2496D8BD125A1
:1011900072F8F66486689816D4A45CCC5D65B69245
:1011A0006C704850FDEDB9DA5E154657A78D9D84E9
:1011B00090D8AB008CBCD30AF7E45805B8B3450609
:1011C000D02C1E8FCA3F0F02C1AFBD0301138A6B23
:1011D0003A9111414F67DCEA97F2CFCEF0B4E67353
:1011E00096AC7422E7AD3585E2F937E81C75DF6E01
:1011F00047F11A711D29C5896FB7620EAA18BE1B67
:10120000FC563E4BC6D279209ADBC0FE78CD5AF40C
:101210001FDDA8338807C731B11210592780EC5F52
:1012200060517FA919B54A0D2DE57A9F93C99CEFAE
:10123000A0E03B4DAE2AF5B0C8EBBB3C83539961AF
:10124000172B047EBA77D626E169146355210C7DED
:10125000637C777BF26B6FC53001672BFED7AB7673
:10126000CA82C97DFA5947F0ADD4A2AF9CA472C01E
:10127000B7FD9326363FF7CC34A5E5F171D831158B
:1012800004C723C31896059A071280E2EB27B275AC
:1012900009832C1A1B6E5AA0523BD6B329E32F8424
:1012A00053D100ED20FCB15B6ACBBE394A4C58CF1C
:1012B000D0EFAAFB434D338545F9027F503C9FA8F0
:1012C00051A3408F929D38F5BCB6DA2110FFF3D2BE
:1012D000CD0C13EC5F974417C4A77E3D645D197372
:1012E00060814FDC222A908846EEB814DE5E0BDB6C
:1012F000E0323A0A4906245CC2D3AC629195E479A3
:10130000E7C8376D8DD54EA96C56F4EA657AAE08FC
:10131000BA78252E1CA6B4C6E8DD741F4BBD8B8A97
:10132000703EB5664803F60E613557B986C11D9EFD
:10133000E1F8981169D98E949B1E87E9CE5528DF74
:101340008CA1890DBFE6426841992D0FB054BB16A0
:1013500000000000963007772C610EEEBA51099913
:1013600019C46D078FF46A7035A563E9A395649E6F
:101370003288DB0EA4B8DC791EE9D5E088D9D29793
:101380002B4CB609BD7CB17E072DB8E7911DBF90EF
:101390006410B71DF220B06A4871B9F3DE41BE8413
:1013A0007DD4DA1AEBE4DD6D51B5D4F4C785D3836F
:1013B00056986C13C0A86B647AF962FDECC9658A13
:1013C0004F5C0114D96C0663633D0FFAF50D088D6F
:1013D000C8206E3B5E10694CE44160D5727167A213
:1013E000D1E4033C47D4044BFD850DD26BB50AA56F
:1013F000FAA8B5356C98B242D6C9BBDB40F9BCAC93
:10140000E36CD832755CDF45CF0DD6DC593DD1ABEE
:10141000AC30D9263A00DE518051D7C81661D0BF12
:10142000B5F4B42123C4B3569995BACF0FA5BDB86E
:101430009EB802280888055FB2D90CC624E90BB112
:10144000877C6F2F114C6858AB1D61C13D2D66B66E
:101450009041DC760671DB01BC20D2982A10D5EFD2
:101460008985B1711FB5B606A5E4BF9F33D4B8E82E
:10147000A2C9077834F9000F8EA8099618980EE1D2
:10148000BB0D6A7F2D3D6D08976C6491015C63E62E
:10149000F4516B6B62616C1CD83065854E0062F252
:1014A000ED95066C7BA5011BC1F4088257C40FF5AE
:1014B000C6D9B06550E9B712EAB8BE8B7C88B9FCD2
:1014C000DF1DDD62492DDA15F37CD38C654CD4FB2E
:1014D0005861B24DCE51B53A7400BCA3E230BBD4D2
:1014E00041A5DF4AD795D83D6DC4D1A4FBF4D6D32E
:1014F0006AE96943FCD96E34468867ADD0B860DAD2
:10150000732D0444E51D03335F4C0AAAC97C0DDD2D
:101510003C710550AA41022710100BBE86200CC951
:1015200025B56857B3856F2009D466B99FE461CEAD
:101530000EF9DE5E98C9D9292298D0B0B4A8D7C7D1
:10154000173DB359810DB42E3B5CBDB7AD6CBAC02D
:101550002083B8EDB6B3BF9A0CE2B6039AD2B17449
:101560003947D5EAAF77D29D1526DB048316DC73A5
:10157000120B63E3843B64943E6A6D0DA85A6A7A49
:101580000BCF0EE49DFF099327AE000AB19E077DA5
:1015900044930FF0D2A3088768F2011EFEC20669C9
:1015A0005D5762F7CB67658071366C19E7066B6E25
:1015B000761BD4FEE02BD3895A7ADA10CC4ADD6749
:1015C0006FDFB9F9F9EFBE8E43BEB717D58EB060A5
:1015D000E8A3D6D67E93D1A1C4C2D83852F2DF4F49
:1015E000F167BBD16757BCA6DD06B53F4B36B248A5
:1015F000DA2B0DD84C1B0AAFF64A0336607A044149
:10160000C3EF60DF55DF67A8EF8E6E3179BE6946A4
:101610008CB361CB1A8366BCA0D26F2536E26852C8
:1016200095770CCC03470BBBB91602222F26055524
:10163000BE3BBAC5280BBDB2925AB42B046AB35C48
:10164000A7FFD7C231CFD0B58B9ED92C1DAEDE5BA4
:10165000B0C2649B26F263EC9CA36A750A936D0288
:10166000A906099C3F360EEB8567077213570005E4
:10167000824ABF95147AB8E2AE2BB17B381BB60C08
:101680009B8ED2920DBED5E5B7EFDC7C21DFDB0B64
:10169000D4D2D38642E2D4F1F8B3DD686E83DA1F88
:1016A000CD16BE815B26B9F6E177B06F7747B718E4
:1016B000E65A0888706A0FFFCA3B06665C0B011188
:1016C000FF9E658F69AE62F8D3FF6B6145CF6C16E4
:1016D00078E20AA0EED20DD75483044EC2B3033988
:1016E000612667A7F71660D04D476949DB776E3EE4
:1016F0004A6AD1AEDC5AD6D9660BDF40F03BD83708
:1017000053AEBCA9C59EBBDE7FCFB247E9FFB53063
:101710001CF2BDBD8AC2BACA3093B353A6A3B42487
:101720000536D0BA9306D7CD2957DE54BF67D923E3
:101730002E7A66B3B84A61C4021B685D942B6F2A87
:1017400037BE0BB4A18E0CC31BDF055A8DEF022DE3
:10175000014800787047C046C0ECFC0701480021F2
:1017600001707047C0ECFC0780B50248024960F781
:1017700005FC80BDC0ECFC078CEDFC0780B5024881
:10178000024960F7A7FC80BDC0ECFC078CEDFC07AC
:10179000F0B589B00120C046C04688271B4C002503
:1017A000E5536E461AA1242230460DF0D1F82149A6
:1017B00020462A4633465FF781F8E15D4908E15546
:1017C0008921625C520862548421625A002A02D143
:1017D0007D22D20062528621625A002A14D1FF2251
:1017E0001302154A12681A4035231B029A4209D087
:1017F0000D239B029A4203D033231B029A4203D14A
:10180000942200E09022625209B0F0BDC4ECFC07C3
:10181000ED03FC070504FC072D04FC070000000095
:101820005904FC070000000000000000D02EF8075B
:10183000C02FF8075406FC07D02FF80788001018AF
:10184000024940587C21024A50527047D02EF80776
:10185000C4ECFC0770B50C46064811188825064EE6
:10186000705DC0003018A2000DF072F8705D0019B4
:10187000705570BDD42EF807C4ECFC0770B50C464B
:10188000074811188925074E705DC00030183030A8
:10189000A2000DF05DF8705D0019705570BDC04676
:1018A000D42EF807C4ECFC070948115809234B4310
:1018B0001058000C1A1A1204D214784B60331A8490
:1018C00089B2401A0104890C0818401CD88370475B
:1018D000D42EF8077047C04680B5024908805EF7ED
:1018E000D7FE80BD50EDFC070248018802220A4362
:1018F000028070473800005010B50A4C208808213B
:10190000014321804B2080005FF758F960888021D7
:10191000014361800F20800203490A8802430A8044
:1019200010BDC0465200005020030050FEB5524882
:1019300008270780C046C046504C208802AD28804A
:101940002888C046C046288804210191C94308421E
:1019500002D00020208003E0A08901218843A081DB
:10196000FFF7CAFF4648C18D06229143C185012178
:101970008B03A68B1E43A6830388424E1E4006801F
:1019800043881343BB43438005221607728D3E4DA7
:10199000FF35C38D2B40D20522D40F2215030097AB
:1019A00003277A021343C385C28D2A43C285A28BC3
:1019B000009B9A43A283A28B04239A43A28342886A
:1019C000334B134043804288324B1340FA029A183B
:1019D0004280C28D0A43C285718D4907FCD516E04D
:1019E0008A021343C385C28D284B1340CA039A1839
:1019F000C285A28B3A43A283A28B019B9A43A28306
:101A0000C28D8A43C285A18B40220A43A283A18B47
:101A100003220A43A283018820220A4340218A43E9
:101A20000280308F022420433087FFF79DFE20463E
:101A300060F76CFA18480068C1B20C20AA29014668
:101A400000D001993288824388183080C046C04651
:101A5000FFF79EFE86201149085AFFF73DFFFFF76A
:101A60008DFE0F48018850220A43AF218A4302802D
:101A70000DF060FCFEBDC046003300500403005072
:101A800052000050FFBF000000F0FFFFFF0F0000FA
:101A9000FFF90000FFC70000D02FF807C4ECFC07D7
:0C1AA000041500500000000090070E002C
:0400000507FC00A153
:00000001FF
