:0200000407FCF7
:100000000080FD07B500FC07BD00FC07D500FC071C
:1000100000000000000000000000000000000000E0
:10002000000000000000000000000000ED00FC07E0
:100030000000000000000000EF00FC072157FD0752
:10004000F300FC07F300FC074557FD073557FD0794
:10005000F300FC07F300FC07F300FC07F300FC07C8
:10006000F300FC07F300FC07F300FC07F300FC07B8
:10007000F300FC07F300FC07F300FC07F300FC07A8
:10008000F300FC07F300FC07F300FC07F300FC0798
:100090008155FD07F300FC07F300FC07F300FC07A4
:1000A0000348854600F02EF800480047AD58FD078C
:1000B0000080FD070F4880470F4800470420714625
:1000C000084203D0EFF309800C490847EFF308809A
:1000D0000A49084704207146084203D0EFF309801B
:1000E00007490847EFF3088005490847FEE7FEE7A0
:1000F000FEE7FEE74901FC07A100FC079D56FD074E
:100100009956FD07064C0125064E05E0E36807CC2D
:100110002B430C3C98471034B442F7D3FFF7C4FF8D
:100120008801FC07A801FC0702E008C8121F08C1EB
:10013000002AFAD170477047002001E001C1121F68
:10014000002AFBD1704700000D48062101800120E4
:10015000C1030C4A1160BFF34F8FBFF36F8F0221B1
:100160001160BFF34F8FBFF36F8F1060BFF34F8FDE
:10017000BFF36F8F052000070021018062B6704732
:100180000034005080E100E0A801FC070055FD07A5
:100190002C1500002801FC07D416FC072C6AFD076B
:1001A000900000003801FC0700280BD000BF00BF02
:1001B00000BF00BF00BF00BF00BF00BF00BF00BF47
:1001C000401EF1D1704703460B439B0703D009E063
:1001D00008C9121F08C0042AFAD203E00B78037082
:1001E000401C491C521EF9D2704770B504460029C4
:1001F00003D000202022012310E0002801D000209D
:10020000C043C046C0460DE02546D5408D4205D3CB
:100210000D469540641B1D46954040191546521EDB
:10022000002DF1DC214670BDFEB5C34C20342048C2
:100230000688012001900005029000271D4D002E28
:1002400034D0042F32D2F0072BD0A889000605D471
:1002500028896989401A4142414100E00021019802
:10026000B840134A50802889029A134B1A60BFF392
:100270004F8FBFF36F8F002907D0A989019A91434F
:10028000A981A98908229143A9812268002A05D061
:10029000411C606889B200949047009C0298A8496C
:1002A00008601035083476087F1CC8E7FEBDC046DC
:1002B000823600500036005080E100E0F8B5154667
:1002C0000E46044600F00CFD002800D0F8BD194889
:1002D0008768022000F046FE00F0CAFC03200006FA
:1002E000304300F09BFC002000F03CFEA819B8420F
:1002F00000D9BD1B104E28463146FFF776FF074652
:100300000090002F08D02046314600F091FDA4193E
:1003100000F048FE7F1EF4E7084800994843401962
:1003200005D081B2204600F083FD00F03BFE00F0D6
:1003300091FCF8BDB06AFD07FFFF00000100FFFF60
:10034000FEE700000B48018904220A43028101896B
:1003500002220A430281018840220A4302800649A0
:1003600001220A604189054A11408918091D41810D
:100370007047C0460800005080E200E0FC7F0000AB
:10038000B8B50122D0030E4909684901C90D0D49CC
:100390000CD00B886C462380238802251D4395438F
:1003A0002580009A02432280009A0A800A886B46C0
:1003B0001A80009A02431A8000980880B8BDC0468F
:1003C0000000FC07120000505B48C069002802D002
:1003D00001480121417070472C6AFD0780B5024831
:1003E00000F0EEFD80BDC0460011005080B502480F
:1003F00000F0E6FD80BDC04600100050F8B50B7956
:100400005A01402414401D0180222E4616401F0927
:100410003F02BE193419DB0020261E40A319102408
:100420002C401B190C786400082525405B19062513
:1004300025405B19CC79E407A40C4D796E08F607CA
:10044000F60C3419ED072D0D64191C4384818B794A
:100450000F2B47D0364BC3180424E3419C1E022CBB
:100460001DD3012B3ED8EFF310830093012383F3B8
:1004700010888E792F4D2F88FFB23F09BE4203D1DD
:100480002C88F02727432F802F880F24A74337433A
:100490002F80009C002C1ED083F3108822E0EFF305
:1004A00010830093012383F31088224D2C880F279B
:1004B0003C408E79B44202D12C883C432C802C885D
:1004C000F027BC43360126432E80009C002C06D02A
:1004D00083F3108806E0002383F3108802E00023F2
:1004E00083F310888B6803801B0C4380CB68838068
:1004F0001B0CC3800B8A5B1E43814B88002B00D1F1
:100500000B8A5B1E03814008382303400A48C01849
:100510004B690362896941620848016811437F227F
:10052000914301600120000505490860F8BDC046FF
:1005300000CAFFAF80360050706AFD0714E400E087
:1005400000E100E080B50346402208461946FFF767
:10055000B5FE80BDC0B0C849488801252843488001
:10056000FF2000900880C54808260680801E06806F
:10057000C3480088C046C046C248018807220C9282
:100580009143018005231F07798D89050BD50188CB
:10059000BD4A0A40590351180180018840220A438C
:1005A00038218A4302800B93680211907C88788CF2
:1005B000284378840D20FFF7F7FD7889284302212E
:1005C00005918843788178894006FCD50F967C8018
:1005D000032420020490E830FFF7E6FD78890294B6
:1005E000A043788178890006FCD5788CA84378846C
:1005F000A64A00241460788A402630437882F1436A
:100600001691788A084078825461A1489062280443
:100610001590D062388880211091084338800D975A
:100620003F273846FFF7C0FD1895984A15601460BB
:100630000D98408A179630430D9948820D98408A4C
:10064000169908400D99488201945461904890622F
:100650001598D06214460D980088109E30430D996D
:10066000088038460D9DFFF79FFD20680C99884350
:10067000206028883146B0432880288A059988431D
:100680002882A88A0007FCD5688A202103910843A4
:100690006882804CA01E13900F990180049908462F
:1006A00008300A9020812E46189F2780C81D099087
:1006B000608011982080881D0890A08210201290E0
:1006C00020800B98608130AD73A114222846FFF77B
:1006D0007AFD284600F038FB00F015FB00F000FB27
:1006E000002805D1002000F03DFCB92000F04EFCB0
:1006F00000F0CCFA139A0F9810800498208127807C
:10070000119860802080A082129921806081308AB7
:10071000059988433082B08A0007FCD5708A039916
:1007200008437082A220F082708CA02101431798A8
:100730008143718420A82030169019A8001D0790CD
:10074000EF20C0431490119D524E5848001F00885E
:10075000800600D4C9E0EFF3108087F310880D9A6B
:100760009188109B19439180002802D087F310884C
:1007700002E0002080F31088049C4D4D28884D4EE7
:10078000B08910990843B08106204B4A108011208F
:100790003080019AB280B0898843B0810298B081DC
:1007A000AF83308A039B98433082318A0598814316
:1007B00031822A84AA843D4D12992980A11C698125
:1007C0002B803E4988833E4B0B614A613D4A8A61DA
:1007D000AF8100F005FD30A800F06CFC002823D0AC
:1007E00030A800780128149F21D130A800F062FCC5
:1007F0003C46ED3400281CD030A8067800F05AFCA6
:10080000EC37002800D18DE130A80078000286196D
:1008100000D189E1EF48864200D2A2E1152000F024
:10082000DFFC149CEB3404E0149CEF3401E03C4604
:10083000EE34189FE6488781EFF3108087F3108825
:100840000D9A9188109B99439180002802D087F3DC
:10085000108802E0002080F31088119DEE4E139A5C
:10086000012C42DBD9480499002C2DD00A78027063
:10087000641E401C491CF7E7003100500233005051
:100880004200005082000050FF0F00000000F407FB
:10089000204F101A443000500000020300000000F6
:1008A00000000000000000000000000004300050C4
:1008B0007C10005000100050C0100050306AFD073E
:1008C0001563FD07DD64FD07C820BE490880BE48EA
:1008D0000F9901801298EC4A1080002050810399F2
:1008E00011809081FFF74CFD139AC821B5480E91F5
:1008F00001800F9810800A983081378009987080A5
:1009000035800898B08212983080002107980160E5
:1009100041608160179181810B987081AE48199078
:1009200019AE304600F010FA00F0EDF9B804AB4C07
:10093000A060304600F008FA00F0E5F920780028C1
:1009400004D100F0CDF9002800D1A6E03805A64971
:100950000860BFF34F8FBFF36F8F0C98C10320AEB9
:100960000C223046FFF7AAFC3078702800D0CFE088
:100970007078522800D0CBE021981E90229F1F97BC
:1009800030AE3146FFF7DEFDF57870781590B0781F
:100990000690347838463146FFF7D4FD7020604029
:1009A000AA21069A514001435120159A504008430C
:1009B00047424741B078AA281CD13078702819D115
:1009C0007078512816D130A9BF1C032F059812D179
:1009D000C978FF2D03D10029029F05980BD0002D67
:1009E00003D1FF29029F189805D08D4200D2CDE097
:1009F0000120CCE03846441EE0B280001EA90E580B
:100A000020A93046FFF79EFD31464031219A6F48BC
:100A1000FFF754FC16980078002816D11498EF3090
:100A2000219A22991591694B002A0AD01D784540D8
:100A3000EDB2AD006D494D59000A68405B1C521E75
:100A4000F2E7C0431599814255D000F049F90028DA
:100A50001CD100F045F9002818D1002000F082FADE
:100A6000062000F093FA00F05BF900280ED100F0A8
:100A700040F980070AD5B51C022000F073FA1898D7
:100A80004007284300F082FA00F04AF918984440E1
:100A9000F8B20328179FAFD03AE00026304600F0A6
:100AA00061FA00F0E5F89F204D4DA8473046A84771
:100AB0000006040A3046A847000280B204193046F6
:100AC000A847C0B2241800F0C5F8002C00D13DE7BB
:100AD000149908460C3000D138E7424A5118F422E4
:100AE00089588C420146F5D13E490818E4303B490B
:100AF0001CC81CC12AE733480E99018032480F995F
:100B0000018000F0C3F8012000F072F8FFF738FC14
:100B100000F0BCF8002000F06BF8189F119D3E4ECD
:100B2000139A12E63C4684E630A800F0C3FA002887
:100B300000D17EE630A8067800F0BCFA00283C46DA
:100B400000D176E630A8047800F0B4FA002836D058
:100B50002002801930A909780904461800D059E606
:100B60005CE6062000F03CFB019C2746049DBE424B
:100B70000FD014480099018030A800F09BFA00289B
:100B800017D03098E85544407F1CF0E70220029FC0
:100B900031E7E0B200F024FB30A800F08BFA002827
:100BA0000AD030A80078062801D0149EE8363446D2
:100BB0003FE6149CEA343CE6149CE93439E6149C84
:100BC000E73436E600310050023300500000FC07E5
:100BD0007C1000500192000020000203B06AFD0763
:100BE000755FFD074865FD0780E100E02C66FD07A5
:100BF0000949002803D0881E0822028001E008204D
:100C00000880012042020A8108804A800A808A8284
:100C1000102008804A81704744300050D9490A8921
:100C200002231343012293430B810B88DB0501D57B
:100C3000030C8B801302488008888004FCD5CA808E
:100C40000888184202D08888020400E00022488800
:100C500010437047D6490A7901209040097803294A
:100C600000D104214901014A8852704702300050E6
:100C7000CF490A79012090400978032900D1042145
:100C80004901014A8852704704300050B0B5EFF373
:100C90001085012484F31088BA480188A14301809B
:100CA00061480188064A0A400280FFF7D3FF002D01
:100CB00002D084F31088B0BD002080F31088B0BD4E
:100CC000FFF7000080B5054802881207FCD4B84839
:100CD000C268002A01D00846904780BD0812005023
:100CE00080B500F006F80121014048420D218843FB
:100CF00080BD80B5012000F035F90520000200F02C
:100D000045F980B280BD80B5FFF7B2FFFFF7A2FFC3
:100D1000002000F027F9AB2000F038F980BD00007A
:100D2000B0B50025074C611CA94205D06D1CFFF72A
:100D3000E0FFC007F7D1691E0020A14200D9C043DF
:100D4000B0BDC0467F841E00F0B589B004468078EF
:100D5000974E3070E0783071FFF77CFFEFF3108032
:100D6000012585F31088E9022F4A13880B4313806D
:100D7000002802D085F3108802E0002080F310885C
:100D80002078410878220A400E210140C007400E19
:100D90004018104361784A07920D10188909C90755
:100DA000490C4018774B1880188903218843188113
:100DB000E06830610195DD806068B060A068F06037
:100DC0001A4D207CC007284601D02846203070618B
:100DD00002AE00217180042232703182F180717183
:100DE000627C17017A1D3271089107910591991C57
:100DF000009104913146FFF701FBF81C3071207C13
:100E0000C00701D0303500E01035019CD74800996B
:100E10008561059128463146FFF7F0FA594908885F
:100E20002043088009B0F0BD040000500036005097
:100E3000F0B587B00191534B1C8819890325A9434C
:100E400019811988490600D588E00122E10504903E
:100E50004BD411020091C54D6C69AE696008382110
:100E60000840039020353E4F2F50700808400590F1
:100E70000021029129500098803019880140481EB5
:100E800081414F0000970620C343A1891940C91929
:100E9000A1810498A080010CE1800198411E21816C
:100EA0006181B0894027B843B081B0891840009B68
:100EB000C018B08106A83080000C7080318171812B
:100EC000B08908218843B081B0891043B08103986C
:100ED0002818029B4360A0890843A0810598281820
:100EE0004360A0891043A08138E0E10905915403D3
:100EF0000027039002900199BEB28E4225D20026AF
:100F00005E801E882642FCD0059E2E40012E07D012
:100F1000002E0FD15E8802980670401C029011E0EE
:100F20005E8828461546049A1680921C04922A462A
:100F3000054607E05E88998809048919039802C06C
:100F400003900199DA807F1CD6E718890007FCD44A
:100F500001E05888DA8018882042FAD107B0F0BD45
:100F60001D60FD0710B507490A8801239A430A80CE
:100F70000A88054C1440C0012043088008881843A3
:100F8000088010BD001200507FFE000010B504461E
:100F9000FFF76EFE2046FFF741FE0446FFF75AFEBC
:100FA000204610BD714840698189C907FCD170474E
:100FB000706AFD0775480121417070477047000055
:100FC000F0B585B004468948201A411E8841400189
:100FD00082490D1828460E3001902846183003909B
:100FE000284614300090281D0290AE1D284610306F
:100FF000049027467C3720890F210140481E0B288A
:10100000F9D8C0467844007940008744500605204E
:1010100005242C0505050534EDE702980088318884
:10102000814236D28842E6D02289C0231340C02BA9
:1010300003D13A88920703D4DDE7A28A9206DAD573
:101040004A1C32802B68595C21801146EAE7204611
:1010500000F09EF8CFE704980268002ACBD0A08A5F
:101060009E21014004E004980268002AC3D00121B7
:1010700020469047BFE7204600F08AF8A08801216B
:101080008843A080039801680029B4D001980088A3
:101090000BE0A18802229143A180A1888022914384
:1010A000A180009909680029A5D08847A3E705B069
:1010B000F0BDC046FEB50090344A0020107002908A
:1010C0005070284C2168012399432160FF26300687
:1010D00065680540244FED196560A56801900540DD
:1010E000A560256802272F43276025680427BD4394
:1010F000256025681D4325601C481D4DC561374D81
:101100000098A860EB601B490F60BFF34F8FBFF3DF
:101110006F8F194908881843088008883843088069
:10112000300416490E688643287F8007000A30186D
:101130000860134807601078002802D15078002812
:10114000F9D0A06801990840A06020689843206009
:1011500050780028029802D01178002900D0184653
:10116000FEBDC04610E000E05FEA0000706AFD07C7
:101170000D63FD0780E100E00410005000E400E092
:1011800000E100E001480121017070472C6AFD0771
:10119000F8B51649411A4A1E914149010F4A55189E
:1011A000AB89E9892C46083400950E35994209D25D
:1011B000868AF60710D006884F1C2F802268565466
:1011C0003946F3E7828801239A4382800098826936
:1011D000002A01D088B29047F8BDC046306AFD07AA
:1011E00002498A8A9206FCD5088070470010005098
:1011F000010000001130EF000000020002000000BA
:101200001230EF00000004000300000000421F0045
:1012100000000200040000001120C20000000200D3
:10122000050000001128C2000000020006000000B6
:101230001228C200000004000F00000011608500A9
:1012400000000200100000001140850000000200B4
:10125000130000001264C800000004001400000025
:1012600001431F00000004001500000001111F00D1
:10127000000004001600000002441F0000000800E7
:101280001700000008441F000000080018000000BC
:1012900001841F0000000800190000000C441F001A
:1012A000000008001B0000000C451F00000010009B
:1012B0001C00000001651F00000001001D0000006F
:1012C00001101F00000002001E00000008451F0062
:1012D0000000100000000000963007772C610EEE31
:1012E000BA51099919C46D078FF46A7035A563E97D
:1012F000A395649E3288DB0EA4B8DC791EE9D5E0A4
:1013000088D9D2972B4CB609BD7CB17E072DB8E7A2
:10131000911DBF906410B71DF220B06A4871B9F3F7
:10132000DE41BE847DD4DA1AEBE4DD6D51B5D4F430
:10133000C785D38356986C13C0A86B647AF962FD95
:10134000ECC9658A4F5C0114D96C0663633D0FFAE2
:10135000F50D088DC8206E3B5E10694CE44160D5E8
:10136000727167A2D1E4033C47D4044BFD850DD2D2
:101370006BB50AA5FAA8B5356C98B242D6C9BBDBE5
:1013800040F9BCACE36CD832755CDF45CF0DD6DCE0
:10139000593DD1ABAC30D9263A00DE518051D7C887
:1013A0001661D0BFB5F4B42123C4B3569995BACF12
:1013B0000FA5BDB89EB802280888055FB2D90CC633
:1013C00024E90BB1877C6F2F114C6858AB1D61C1AC
:1013D0003D2D66B69041DC760671DB01BC20D298CB
:1013E0002A10D5EF8985B1711FB5B606A5E4BF9F58
:1013F00033D4B8E8A2C9077834F9000F8EA809964B
:1014000018980EE1BB0D6A7F2D3D6D08976C6491B5
:10141000015C63E6F4516B6B62616C1CD8306585CE
:101420004E0062F2ED95066C7BA5011BC1F40882AB
:1014300057C40FF5C6D9B06550E9B712EAB8BE8BEC
:101440007C88B9FCDF1DDD62492DDA15F37CD38C75
:10145000654CD4FB5861B24DCE51B53A7400BCA373
:10146000E230BBD441A5DF4AD795D83D6DC4D1A4A5
:10147000FBF4D6D36AE96943FCD96E34468867AD7C
:10148000D0B860DA732D0444E51D03335F4C0AAA1B
:10149000C97C0DDD3C710550AA41022710100BBE1E
:1014A00086200CC925B56857B3856F2009D466B965
:1014B0009FE461CE0EF9DE5E98C9D9292298D0B09A
:1014C000B4A8D7C7173DB359810DB42E3B5CBDB747
:1014D000AD6CBAC02083B8EDB6B3BF9A0CE2B603C8
:1014E0009AD2B1743947D5EAAF77D29D1526DB047D
:1014F0008316DC73120B63E3843B64943E6A6D0DC8
:10150000A85A6A7A0BCF0EE49DFF099327AE000A12
:10151000B19E077D44930FF0D2A3088768F2011EA5
:10152000FEC206695D5762F7CB67658071366C193C
:10153000E7066B6E761BD4FEE02BD3895A7ADA105D
:10154000CC4ADD676FDFB9F9F9EFBE8E43BEB7173E
:10155000D58EB060E8A3D6D67E93D1A1C4C2D838C8
:1015600052F2DF4FF167BBD16757BCA6DD06B53F2E
:101570004B36B248DA2B0DD84C1B0AAFF64A03366D
:10158000607A0441C3EF60DF55DF67A8EF8E6E31EC
:1015900079BE69468CB361CB1A8366BCA0D26F2535
:1015A00036E2685295770CCC03470BBBB916022282
:1015B0002F260555BE3BBAC5280BBDB2925AB42B97
:1015C000046AB35CA7FFD7C231CFD0B58B9ED92CAC
:1015D0001DAEDE5BB0C2649B26F263EC9CA36A7511
:1015E0000A936D02A906099C3F360EEB85670772C8
:1015F00013570005824ABF95147AB8E2AE2BB17B2F
:10160000381BB60C9B8ED2920DBED5E5B7EFDC7CB5
:1016100021DFDB0BD4D2D38642E2D4F1F8B3DD680C
:101620006E83DA1FCD16BE815B26B9F6E177B06F07
:101630007747B718E65A0888706A0FFFCA3B0666F4
:101640005C0B0111FF9E658F69AE62F8D3FF6B6181
:1016500045CF6C1678E20AA0EED20DD75483044E23
:10166000C2B30339612667A7F71660D04D476949B1
:10167000DB776E3E4A6AD1AEDC5AD6D9660BDF40C4
:10168000F03BD83753AEBCA9C59EBBDE7FCFB24777
:10169000E9FFB5301CF2BDBD8AC2BACA3093B3535C
:1016A000A6A3B4240536D0BA9306D7CD2957DE5465
:1016B000BF67D9232E7A66B3B84A61C4021B685D3E
:1016C000942B6F2A37BE0BB4A18E0CC31BDF055AB7
:0416D0008DEF022D6B
:0400000507FC00A153
:00000001FF
