:0200000407FCF7
:100000000080FD07B500FC07BD00FC07D500FC071C
:1000100000000000000000000000000000000000E0
:10002000000000000000000000000000ED00FC07E0
:100030000000000000000000EF00FC07FD56FD0777
:10004000F300FC07F300FC072157FD071157FD07DC
:10005000F300FC07F300FC07F300FC07F300FC07C8
:10006000F300FC07F300FC07F300FC07F300FC07B8
:10007000F300FC07F300FC07F300FC07F300FC07A8
:10008000F300FC07F300FC07F300FC07F300FC0798
:100090005D55FD07F300FC07F300FC07F300FC07C8
:1000A0000348854600F02EF8004800478958FD07B0
:1000B0000080FD070F4880470F4800470420714625
:1000C000084203D0EFF309800C490847EFF308809A
:1000D0000A49084704207146084203D0EFF309801B
:1000E00007490847EFF3088005490847FEE7FEE7A0
:1000F000FEE7FEE74901FC07A100FC077956FD0772
:100100007556FD07064C0125064E05E0E36807CC51
:100110002B430C3C98471034B442F7D3FFF7C4FF8D
:100120008801FC07A801FC0702E008C8121F08C1EB
:10013000002AFAD170477047002001E001C1121F68
:10014000002AFBD1704700000D48062101800120E4
:10015000C1030C4A1160BFF34F8FBFF36F8F0221B1
:100160001160BFF34F8FBFF36F8F1060BFF34F8FDE
:10017000BFF36F8F052000070021018062B6704732
:100180000034005080E100E0A801FC070055FD07A5
:10019000501400002801FC07F815FC075069FD0702
:1001A000900000003801FC0700280BD000BF00BF02
:1001B00000BF00BF00BF00BF00BF00BF00BF00BF47
:1001C000401EF1D1704770B50446002903D00020CD
:1001D0002022012310E0002801D00020C043C046A7
:1001E000C0460DE02546D5408D4205D30D469540CD
:1001F000641B1D46954040191546521E002DF1DC2A
:10020000214670BDFEB5C34C20342048068801202D
:1002100001900005029000271D4D002E34D0042FC0
:1002200032D2F0072BD0A889000605D42889698925
:10023000401A4142414100E000210198B840134A70
:1002400050802889029A134B1A60BFF34F8FBFF377
:100250006F8F002907D0A989019A9143A981A989A3
:1002600008229143A9812268002A05D0411C6068B8
:1002700089B200949047009C0298A8490860103504
:10028000083476087F1CC8E7FEBDC04682360050A1
:100290000036005080E100E0F8B515460E460446F1
:1002A00000F0B0FC002800D0F8BD19488768022093
:1002B00000F0EAFD00F06EFC03200006304300F081
:1002C0003FFC002000F0E0FDA819B84200D9BD1B9A
:1002D000104E28463146FFF776FF07460090002F64
:1002E00008D02046314600F035FDA41900F0ECFDA1
:1002F0007F1EF4E7084800994843401905D081B2B1
:10030000204600F027FD00F0DFFD00F035FCF8BDD1
:10031000D469FD07FFFF00000100FFFFFEE70000BA
:100320000B48018904220A430281018902220A43FF
:100330000281018840220A430280064901220A60A4
:100340004189054A11408918091D41817047C046FD
:100350000800005080E200E0FC7F0000B8B50122F8
:10036000D0030E4909684901C90D0D490CD00B880D
:100370006C462380238802251D4395432580009ADF
:1003800002432280009A0A800A886B461A80009AEB
:1003900002431A8000980880B8BDC0460000FC07E0
:1003A000120000505B48C069002802D001480121BA
:1003B000417070475069FD0780B5024800F092FD1A
:1003C00080BDC0460011005080B5024800F08AFD93
:1003D00080BDC04600100050F8B50B795A0140248A
:1003E00014401D0180222E4616401F093F02BE19EF
:1003F0003419DB0020261E40A31910242C401B19A1
:100400000C786400082525405B19062525405B19FA
:10041000CC79E407A40C4D796E08F607F60C341974
:10042000ED072D0D64191C4384818B790F2B47D068
:10043000364BC3180424E3419C1E022C1DD3012B10
:100440003ED8EFF310830093012383F310888E7955
:100450002F4D2F88FFB23F09BE4203D12C88F027D1
:1004600027432F802F880F24A74337432F80009CDA
:10047000002C1ED083F3108822E0EFF3108300934A
:10048000012383F31088224D2C880F273C408E795E
:10049000B44202D12C883C432C802C88F027BC43EA
:1004A000360126432E80009C002C06D083F3108852
:1004B00006E0002383F3108802E0002383F3108812
:1004C0008B6803801B0C4380CB6883801B0CC3802C
:1004D0000B8A5B1E43814B88002B00D10B8A5B1E6D
:1004E00003814008382303400A48C0184B6903625F
:1004F000896941620848016811437F229143016084
:100500000120000505490860F8BDC04600CAFFAFDC
:10051000803600509469FD0714E400E000E100E03B
:1005200080B50346402208461946FFF7B5FE80BD58
:10053000BCB0E9494888012528434880FF20019044
:100540000880FA4808210180801E0D910180F8483A
:100550000088C046C046F748018807220B929143A5
:1005600001800521089109070A91498D89050CD55B
:100570000188F14A0A40089949035118018001880D
:1005800040220A4338218A4302800A9F7C88788C63
:10059000284378840D20FFF707FE7889284302213D
:1005A00005918843788178894006FCD57C800324B6
:1005B00020020390E830FFF7F7FD78890494A04308
:1005C000788178890006FCD5788CA8437884DB4A4A
:1005D00000261660788A402420437882E1431391F4
:1005E000788A084078825661D54890622804129033
:1005F000D062388880210E91084338803F201190C6
:10060000FFF7D2FD1495CD490D600E60788A0994EC
:1006100020437882788A139A1040788202964E613D
:10062000C74888621298C8620C4638880E9D2843D5
:1006300038801198FFF7B8FD20680B998843206037
:1006400038882946A8433880388A059988433882F3
:10065000B88A0007FCD5788A20210F910843788258
:10066000A220F882788CA0210143099881437984E3
:100670001CA82030129015A8001D0790EF20C4433D
:10068000149D1094AF480088800600D49CE0EFF3DE
:10069000108085F310880A9A91880E9B19439180E7
:1006A000002802D085F3108802E0002080F3108833
:1006B000A54F3888A54EB0890E990843B081062011
:1006C000A34A108011203080029AB280B0898843FA
:1006D000B0810498B081BD83308A0F9B98433082EB
:1006E000318A0598814331823A84BA841027954E25
:1006F0001397B780FB49F181B38097498883954B65
:100700000B614A61FB4A8A61358200F0FBFC2CA830
:1007100000F062FC002822D02CA80078012821D10A
:100720002CA800F059FC2646ED3600281CD02CA839
:10073000077800F051FCEC34002800D17DE12CA8B2
:1007400000780002C71900D179E1EB48874200D256
:1007500092E1152000F0D6FC109EEB3604E0264610
:10076000EF3601E02646EE36149DE0488581EFF332
:10077000108085F310880A9A91880E9B9943918086
:10078000002802D085F3108802E0002080F3108852
:10079000012E19DBD4480399002E05D00A78027087
:1007A000761E401C491CF7E7C820CC490880CC487D
:1007B0000D990180CE4A139890800020D0810F9926
:1007C00091801082FFF7CAFDC821C4480C910180B6
:1007D0000D98C74A5080C349881D90819580481D57
:1007E000D08009989080081D50820F989080002139
:1007F000079801604160816013918181089810829F
:10080000BE48159015AE304600F030FA00F00DFAF3
:10081000A804BB4CA060304600F028FA00F005FAAE
:100820002078002804D100F0EDF9002800D1C1E0C3
:100830002805B6490860BFF34F8FBFF36F8F0B9841
:10084000C1031CAE0C223046FFF726FD307870281D
:1008500000D0EAE07078522800D0E6E01D981A90A7
:100860001E9F1B972CAE3146FFF75AFEF578707825
:100870001190B0780690347838463146FFF750FE34
:1008800070206040AA21069A514001435120119ADC
:100890005040084347424741B078AA281ED13078DB
:1008A00070281BD17078512818D12CA9BF1C032F98
:1008B000059814D1C978FF2D03D10029049F05980C
:1008C0000DD0002D03D1FF29049F149807D08D422D
:1008D00000D2E6E00120E5E0003100503846441E39
:1008E000E0B280001AA90E581CA93046FFF718FE86
:1008F000314640311D9A7C48FFF7CEFC12980078B3
:1009000000282FD11098EF301D9A1E991191764B27
:10091000002A23D01D784540EDB2AD007C494D59E9
:10092000000A68405B1C521EF2E7C04602330050CA
:100930004200005082000050FF0F00000000F4074A
:10094000204F101A003000507C1000500010005052
:10095000C01000503962FD075469FD07C04311996A
:10096000814255D000F04EF900281CD100F04AF920
:10097000002818D1002000F087FA062000F098FA2D
:1009800000F060F900280ED100F045F980070AD583
:10099000B51C022000F078FA14984007284300F0B4
:1009A00087FA00F04FF914984440F8B20328139FD7
:1009B00096D03AE00026304600F066FA00F0EAF8F9
:1009C0009F20504FB8473046B8470006040A3046CB
:1009D000B847000280B204193046B847C0B22418A4
:1009E00000F0CAF8002C00D122E7109908460C301C
:1009F00000D11DE7444A5118F42289588C4201461F
:100A0000F5D141490818E4303D491CC81CC10FE725
:100A100032480C99018032480D99018000F0C8F8E5
:100A2000012000F077F8FFF799FC149D109C00F06E
:100A3000BFF8002000F06EF824E6264694E62CA8C5
:100A400000F0CAFA002800D18EE62CA8077800F042
:100A5000C3FA0028264600D186E62CA8047800F0C8
:100A6000BBFA002836D02002C0192CA90978090445
:100A7000471800D069E66CE6062000F043FB029CB4
:100A80002646019DB7420FD0144805802CA800F0DF
:100A9000A3FA002818D02C98039988554440761C56
:100AA000F0E70220049F1AE7E0B200F02BFB2CA82D
:100AB00000F092FA00280AD02CA80078062801D06D
:100AC000109FE8373E464FE6109EEA364CE6109EF1
:100AD000E93649E6109EE73646E6C046003100504A
:100AE00002330050020300000000FC077C1000509D
:100AF000003000500164FD07019200002000000357
:100B0000D469FD07995EFD076C64FD0780E100E094
:100B10005065FD072549002803D0881E0822028061
:100B200001E008200880012042020A8108804A80F2
:100B300040200880CA81202008808A817047C046F2
:100B4000D9490A8902231343012293430B810B885D
:100B5000DB0501D5030C8B801302488008888004D4
:100B6000FCD5CA800888184202D08888020400E0B8
:100B70000022488810437047D6490A7901209040E6
:100B80000978032900D104214901014A885270479C
:100B900002300050CF490A7901209040097803299A
:100BA00000D104214901014A8852704704300050A5
:100BB000B0B5EFF31085012484F31088BA4801889A
:100BC000A143018061480188064A0A400280FFF77C
:100BD000D3FF002D02D084F31088B0BD002080F335
:100BE0001088B0BDFFF7000080B5054802881207E5
:100BF000FCD4B848C268002A01D00846904780BD9E
:100C00000812005080B500F006F80121014048426A
:100C10000D21884380BD80B5012000F035F9052005
:100C2000000200F045F980B280BD80B5FFF7B2FF49
:100C3000FFF7A2FF002000F027F9AB2000F038F901
:100C400080BD0000B0B50025074C611CA94205D04D
:100C50006D1CFFF7E0FFC007F7D1691E0020A1421D
:100C600000D9C043B0BDC0467F841E00F0B589B036
:100C700004468078974E3070E0783071FFF77CFF43
:100C8000EFF31080012585F31088E9022F4A1388BD
:100C90000B431380002802D085F3108802E0002067
:100CA00080F310882078410878220A400E21014004
:100CB000C007400E4018104361784A07920D101883
:100CC0008909C907490C4018774B188018890321F6
:100CD00088431881E06830610195DD806068B0600C
:100CE000A068F0601A4D207CC007284601D0284635
:100CF0002030706102AE0021718004223270318296
:100D0000F1807171627C17017A1D3271089107912F
:100D10000591991C009104913146FFF75DFBF81C89
:100D20003071207CC00701D0303500E01035019CC7
:100D3000D74800998561059128463146FFF74CFB5D
:100D4000594908882043088009B0F0BD04000050CC
:100D500000360050F0B587B00191534B1C881989BB
:100D60000325A94319811988490600D588E0012285
:100D7000E10504904BD411020091C54D6C69AE6938
:100D8000600838210840039020353E4F2F507008EE
:100D90000840059000210291295000988030198860
:100DA0000140481E81414F0000970620C343A1899E
:100DB0001940C919A1810498A080010CE180019813
:100DC000411E21816181B0894027B843B081B0893B
:100DD0001840009BC018B08106A83080000C7080BD
:100DE00031817181B08908218843B081B089104375
:100DF000B08103982818029B4360A0890843A08112
:100E0000059828184360A0891043A08138E0E109C3
:100E1000059154030027039002900199BEB28E42BF
:100E200025D200265E801E882642FCD0059E2E40DC
:100E3000012E07D0002E0FD15E8802980670401C4C
:100E4000029011E05E8828461546049A1680921C8E
:100E500004922A46054607E05E88998809048919A4
:100E6000039802C003900199DA807F1CD6E71889A5
:100E70000007FCD401E05888DA8018882042FAD1B3
:100E800007B0F0BD415FFD0710B507490A8801238F
:100E90009A430A800A88054C1440C0012043088008
:100EA00008881843088010BD001200507FFE000023
:100EB00010B50446FFF76EFE2046FFF741FE0446DC
:100EC000FFF75AFE204610BD714840698189C90765
:100ED000FCD170479469FD07754801214170704746
:100EE00070470000F0B585B004468948201A411EBD
:100EF0008841400182490D1828460E30019028464D
:100F000018300390284614300090281D0290AE1D22
:100F100028461030049027467C3720890F21014055
:100F2000481E0B28F9D8C046784400794000874411
:100F30005006052005242C0505050534EDE702982B
:100F400000883188814236D28842E6D02289C02387
:100F50001340C02B03D13A88920703D4DDE7A28A5D
:100F60009206DAD54A1C32802B68595C21801146E2
:100F7000EAE7204600F09EF8CFE704980268002ACE
:100F8000CBD0A08A9E21014004E004980268002A88
:100F9000C3D0012120469047BFE7204600F08AF8E1
:100FA000A08801218843A080039801680029B4D05B
:100FB000019800880BE0A18802229143A180A188BA
:100FC00080229143A180009909680029A5D0884713
:100FD000A3E705B0F0BDC046FEB50090344A00203E
:100FE000107002905070284C2168012399432160B1
:100FF000FF26300665680540244FED196560A56839
:1010000001900540A560256802272F4327602568C9
:101010000427BD43256025681D4325601C481D4DE0
:10102000C561374D0098A860EB601B490F60BFF3A6
:101030004F8FBFF36F8F19490888184308800888BD
:1010400038430880300416490E688643287F80079D
:10105000000A30180860134807601078002802D191
:1010600050780028F9D0A06801990840A060206855
:101070009843206050780028029802D01178002907
:1010800000D01846FEBDC04610E000E05FEA000058
:101090009469FD073162FD0780E100E00410005013
:1010A00000E400E000E100E0014801210170704728
:1010B0005069FD07F8B51649411A4A1E9141490188
:1010C0000F4A5518AB89E9892C46083400950E352E
:1010D000994209D2868AF60710D006884F1C2F80C5
:1010E000226856543946F3E7828801239A43828066
:1010F00000988269002A01D088B29047F8BDC046A6
:101100005469FD0702498A8A9206FCD50880704717
:1011100000100050010000001130EF00000002003C
:10112000020000001230EF00000004000300000085
:1011300000421F0000000200040000001120C20055
:1011400000000200050000001128C200000002009B
:10115000060000001228C200000004000F0000007A
:1011600011608500000002001000000011408500A1
:1011700000000200130000001264C8000000040018
:101180001400000001431F000000040015000000CF
:1011900001111F00000004001600000002441F009F
:1011A000000008001700000008441F0000000800AD
:1011B0001800000001841F00000008001900000052
:1011C0000C441F00000008001B0000000C451F001D
:1011D000000010001C00000001651F00000001005D
:1011E0001D00000001101F00000002001E00000092
:1011F00008451F000000100000000000963007772F
:101200002C610EEEBA51099919C46D078FF46A70FA
:1012100035A563E9A395649E3288DB0EA4B8DC791A
:101220001EE9D5E088D9D2972B4CB609BD7CB17E9A
:10123000072DB8E7911DBF906410B71DF220B06A6A
:101240004871B9F3DE41BE847DD4DA1AEBE4DD6D7A
:1012500051B5D4F4C785D38356986C13C0A86B647A
:101260007AF962FDECC9658A4F5C0114D96C06639A
:10127000633D0FFAF50D088DC8206E3B5E10694C7A
:10128000E44160D5727167A2D1E4033C47D4044BBA
:10129000FD850DD26BB50AA5FAA8B5356C98B2429A
:1012A000D6C9BBDB40F9BCACE36CD832755CDF451A
:1012B000CF0DD6DC593DD1ABAC30D9263A00DE514A
:1012C0008051D7C81661D0BFB5F4B42123C4B3563A
:1012D0009995BACF0FA5BDB89EB802280888055FBA
:1012E000B2D90CC624E90BB1877C6F2F114C68581A
:1012F000AB1D61C13D2D66B69041DC760671DB0108
:10130000BC20D2982A10D5EF8985B1711FB5B606D9
:10131000A5E4BF9F33D4B8E8A2C9077834F9000F19
:101320008EA8099618980EE1BB0D6A7F2D3D6D08B9
:10133000976C6491015C63E6F4516B6B62616C1CA9
:10134000D83065854E0062F2ED95066C7BA5011BD9
:10135000C1F4088257C40FF5C6D9B06550E9B71279
:10136000EAB8BE8B7C88B9FCDF1DDD62492DDA1539
:10137000F37CD38C654CD4FB5861B24DCE51B53A59
:101380007400BCA3E230BBD441A5DF4AD795D83D59
:101390006DC4D1A4FBF4D6D36AE96943FCD96E3499
:1013A000468867ADD0B860DA732D0444E51D033379
:1013B0005F4C0AAAC97C0DDD3C710550AA41022789
:1013C00010100BBE86200CC925B56857B3856F2059
:1013D00009D466B99FE461CE0EF9DE5E98C9D929B9
:1013E0002298D0B0B4A8D7C7173DB359810DB42EF9
:1013F0003B5CBDB7AD6CBAC02083B8EDB6B3BF9A45
:101400000CE2B6039AD2B1743947D5EAAF77D29DD0
:101410001526DB048316DC73120B63E3843B6494B0
:101420003E6A6D0DA85A6A7A0BCF0EE49DFF0993B0
:1014300027AE000AB19E077D44930FF0D2A3088720
:1014400068F2011EFEC206695D5762F7CB676580D0
:1014500071366C19E7066B6E761BD4FEE02BD389D0
:101460005A7ADA10CC4ADD676FDFB9F9F9EFBE8E30
:1014700043BEB717D58EB060E8A3D6D67E93D1A170
:10148000C4C2D83852F2DF4FF167BBD16757BCA650
:10149000DD06B53F4B36B248DA2B0DD84C1B0AAFF0
:1014A000F64A0336607A0441C3EF60DF55DF67A870
:1014B000EF8E6E3179BE69468CB361CB1A8366BC00
:1014C000A0D26F2536E2685295770CCC03470BBB50
:1014D000B91602222F260555BE3BBAC5280BBDB250
:1014E000925AB42B046AB35CA7FFD7C231CFD0B5F0
:1014F0008B9ED92C1DAEDE5BB0C2649B26F263ECE2
:101500009CA36A750A936D02A906099C3F360EEBEF
:101510008567077213570005824ABF95147AB8E2AF
:10152000AE2BB17B381BB60C9B8ED2920DBED5E58F
:10153000B7EFDC7C21DFDB0BD4D2D38642E2D4F1DF
:10154000F8B3DD686E83DA1FCD16BE815B26B9F66F
:10155000E177B06F7747B718E65A0888706A0FFFCF
:10156000CA3B06665C0B0111FF9E658F69AE62F88F
:10157000D3FF6B6145CF6C1678E20AA0EED20DD78F
:101580005483044EC2B30339612667A7F71660D0AF
:101590004D476949DB776E3E4A6AD1AEDC5AD6D9EF
:1015A000660BDF40F03BD83753AEBCA9C59EBBDE0F
:1015B0007FCFB247E9FFB5301CF2BDBD8AC2BACABF
:1015C0003093B353A6A3B4240536D0BA9306D7CD2F
:1015D0002957DE54BF67D9232E7A66B3B84A61C44F
:1015E000021B685D942B6F2A37BE0BB4A18E0CC30F
:0815F0001BDF055A8DEF022DEF
:0400000507FC00A153
:00000001FF
