:0200000407FCF7
:10000000B06CFC072501FC072D01FC074501FC072E
:1000100000000000000000000000000000000000E0
:100020000000000000000000000000005D01FC076F
:1000300000000000000000005F01FC079119FC07B0
:100040002916FC07414FFC07A526F0079519FC0768
:100050006918FC076301FC07D915FC076301FC075D
:10006000E515FC076301FC073117FC073B17FC078C
:100070004517FC074F17FC075917FC073D19FC07EC
:10008000D919FC076301FC076301FC076301FC0746
:100090006301FC076301FC076301FC076301FC07C4
:0800A00000008E070E000000B5
:0200000407FCF7
:100110000348854601F04EFA004800479139FC0734
:10012000B06CFC070F4880470F4800470420714619
:10013000084203D0EFF309800C490847EFF3088029
:100140000A49084704207146084203D0EFF30980AA
:1001500007490847EFF3088005490847FEE7FEE72F
:10016000FEE7FEE7A558FC071101FC077918FC071C
:10017000E917FC073EB50D4D6D1E14D002880A42EA
:10018000FAD16D1E0FD002880A42FAD0084A1368CD
:100190000124234313606D1E05D002880A42FAD160
:1001A000044A10683EBD00203EBD0000C0C62D00C0
:1001B00010E000E018E000E0F8B507460120002359
:1001C000024600901946032049F71CF90446022113
:1001D00080300170FF4DFE482A6843881146FF3188
:1001E000F7310B8680884886FB48066A0123DB06C8
:1001F0009E431E430662FF320020FF323832508297
:100200009082D0821D200882F4484884F448C88235
:10021000F448088300204882384649F733FC0146F9
:100220002868FF30F730C28B920992010A43C283DB
:10023000ED48416800208847002C02D0204648F74E
:10024000CAFC2046F8BDFFB58BB0064616980027BD
:10025000022821D00D9801881498814278D37188A2
:10026000084640383F2802D8159855F7C7FC0C9827
:10027000361D0088149A80190E995EF73DFF0C9880
:100280000188149808180C9908800D980188149812
:10029000081A0D9908805CE100200E9D079069788E
:1002A0002C78090221433180E978AC780902214396
:1002B00071808C46403904242D1D024603468E462B
:1002C000402900D32878614604291FD0052914D07D
:1002D000062918D070463F283DD8159855F78EFC52
:1002E0000006000E04D0C148008D0006C00F30D0BB
:1002F00002230120BE4A002712E0697800290FD0AE
:10030000BC4A17230CE0BC4A0F2309E0522802D054
:10031000D22802D002E0142000E01520B74A1F23A3
:10032000002A1AD0984218D2800010580490002851
:1003300013D000200890059070884038402803D3DF
:100340002878052430716D1C701D00900498B5E06C
:10035000FEE03027F0E03327EEE07088042872D109
:100360000627E9E0522862D00CDC4B283FD004DCA1
:1003700041286AD0422858D111E04C2820D050287A
:1003800053D140E0632830D004DC572818D06128CE
:100390004BD19BE06C2864D0772846D109E00098C7
:1003A000297801700098641C401CA4B26D1C009058
:1003B00081E00498401C04900178089881427AD129
:1003C0000098A41C401C41084900881C00906878D3
:1003D0002A780002104308800599AD1CA4B20029B8
:1003E00069D008900020059065E00120FBE710220D
:1003F000294600985EF780FE009810341030A4B2B1
:100400001035009057E02046403014990390884200
:100410000BD84022294600985EF76EFE00984030C7
:1004200000900398403584B245E0342743E0082229
:10043000294600985EF760FE009808340830A4B2A0
:100440000835009037E068E0FFE70622294600986B
:100450005EF752FE0098A41D801DA4B2AD1D009051
:1004600029E01498001B80B203903088001B001D07
:1004700081B2012007900498401C04900098401C11
:100480004008400000900498007857281CD042286B
:10049000CBD100980170090A417000982946801C50
:1004A0000090039A5EF728FE03980399201884B2FF
:1004B0000098401800900498401C04900078002890
:1004C0001ED0002F17D01BE04908E2E71498001B4C
:1004D00081B200980391401C400840000090012028
:1004E0000A460790294600985EF706FE03996018B1
:1004F00084B20098DDE70D990988A14200D331E765
:100500000D980088A04208D304990978002904D1E5
:100510000799002903D1A04201D034270CE00D999E
:10052000001B08800C9801880098801B001F081889
:100530000C99002F08800CD07088042809D0062858
:1005400007D04038402804D30E984079707100E0FD
:10055000342738460FB0F0BDFFB581B01F461646B0
:100560000C4610465CF78CFC00257F2802D02189C0
:10057000062909D03B4632462146019855F7D1FE5F
:100580000546284605B0F0BDC00601D50225F8E7AE
:1005900020780028F5D1300AA11D42F75AF8F0E77B
:1005A000F1B598B0189842F752FA04461898052108
:1005B0000079134A4006C00F099068460184618B98
:1005C00008460A38904276D2E08A062873D319E0AA
:1005D00030BCFC074CB9FC07C00000401080000094
:1005E000294100007671000058BFFC0748BEFC0797
:1005F0003803F2074003F2079C03F207D803F2071F
:10060000770C00001922D201904254D8228BFF238C
:10061000F5339A424FD8521C9300D2184243521CD1
:100620000A23521059438A4245DC217F00290CD10C
:10063000617F002909D1A17F002906D1E17F00292E
:1006400003D12021095DC90635D0274620377978A6
:10065000C906C90E491F0C292DD2A18A81422AD868
:10066000E17C002927D0421E082A01D9082000E099
:10067000401E81421FD8684646F7AAFA00281AD1C0
:10068000FE4D0622286221460AA85EF735FDA879AC
:100690002E46803E00287DD06079800901280BD04D
:1006A0000AA809994CF763FD010003D03820405C8B
:1006B000002870D09BE008E1F06A807A012808D019
:1006C000042806D00AA84CF7BFFD286200284ED0A7
:1006D00054E0686A06220AA932305EF731FD00282C
:1006E00006D00AA84CF7B0FD2862002802D012E01C
:1006F000686AF9E700210AA84CF7BCFD2862F16A94
:10070000897A012905D18B071A6849068A430A4369
:100710001A60002811D0F16A286A062225301031AB
:100720005EF70EFD002808D1286AF16A2030C07AF1
:10073000C97B884201D1286A1EE0D148D14900888E
:10074000C96880B206225043081842F785F901466D
:1007500014A8062202305EF7CFFC13AA00213C2029
:1007600042F747FC0121B06D47F76EFEA9E011A9E1
:100770000AA84CF77FFD2862002838D001462531B1
:1007800006220FA85EF7B8FC286A08AA2030C17AB2
:100790000FA801E041E024E04CF7CCFB002812D088
:1007A000286A2030C07A002809D16846B649008CF2
:1007B0004BF733FB08AA0121B3484CF7BBFB684653
:1007C0000AA9008C0AE008AA012111A84CF7B2FB83
:1007D00000280CD0296A6846008C32314BF733FB75
:1007E00005E00A18527D002A08D010286DDBF06A57
:1007F000407A022806D0032804D00EE0401C1028BE
:10080000EFDBF4E76846008C052806D308AA0AA89F
:1008100009994CF78FFB002857D0002269462046E3
:100820004CF731FC002850D1F06A407A02280BD0F6
:10083000032809D00023684602880AA809994CF7C2
:1008400043FC002802D02FE00123F4E7E18A684648
:100850000181218B4181618B818178780622410958
:10086000684681757878C106C90E6846417521468B
:100870000E305EF741FC189800794006C10F6846BB
:1008800001750388214602A8B26D47F783F9014636
:10089000B06502A842F7FBFB0020B0652146684620
:1008A0001C31008846F7E7F949F766FA734C2034A3
:1008B000207A002805D0002109205CF724FC0020C4
:1008C0002072002108465CF7C6FA19B0F0BDF8B5F1
:1008D0006E4C064685000F4660594C21095C242960
:1008E0000ED140691022791D2E305EF705FC61594A
:1008F00025204031087300221146304654F7D1FAC2
:1009000060594C21095C0C291FD140691022791DC6
:100910002E305EF7F1FB60595F214069095C0907E1
:100920002DD401462E3110221E305EF709FC00281E
:100930000CD06059092140300173304654F7CEFF86
:1009400001460022304653F72BFEF8BD04216846CD
:1009500001706A460521304653F7CCFF684601789E
:100960006020014368460170304654F7B7FF0146E6
:10097000684602780123304653F727FFF8BD30461A
:1009800054F7ACFF012809D06059072140300173AA
:1009900000221146304654F784FAF8BD6159002010
:1009A0004969C031887160590421426930461E325C
:1009B00053F7A0FF605941694031897F002907D072
:1009C0001A21403001730021304654F7F4FAF8BD83
:1009D0001B2140300173304654F742FBF8BDF8B597
:1009E0002A4C05468600A0594C22125C192A11D1C6
:1009F00040224D30491D5EF77FFBA059402224491B
:100A00004D305EF79DFB002805D02149284620394E
:100A10005BF701FDF8BD0B21684601706A460521B0
:100A2000284653F767FF684601786020014368460F
:100A30000170284654F752FF0146684602780123A8
:100A4000284653F7C2FEF8BDFFB581B003980C46A7
:100A5000060A00255CF714FA002827D0132825D0B1
:100A6000142823D00B48B700C0592030407BC00663
:100A700037D503985CF704FA15280DE030BCFC0765
:100A800068B9FC0760BBFC0750F5F1073CBEFC07EA
:100A9000FCBDFC0778BBFC070CD0A07941F7CAFF6E
:100AA000304647F765F8032806D015E0A07941F7EE
:100AB000C1FF1FE002251DE03248C0592030407BB5
:100AC000400704D53D21304642F7B2FC04E03D2208
:100AD0000021304642F7BBFC3D21304646F790F8F6
:100AE00008E02046103828490181468120464EF70B
:100AF00079FD0125284645E52448522200686430E6
:100B00008188C37E5143224A12688918FF225F32CE
:100B1000525AFF31120AD21A01310B8CD2B2DB0BBE
:100B200009D00B8C5B045B0C0B84002A03D18088FA
:100B3000184A012111547047FFB51746140A81B0B5
:100B4000104A0298A100515840780026114D002902
:100B500007D0295D002905D0002803D1204643F79E
:100B6000CBFE2E553A46049B0299019844F755FE58
:100B700008E50A4808490160094941607047704723
:100B80007047000078BBFC070608000084BBFC0728
:100B90004CB9FC07C08BFC070459F007C0000840A3
:100BA000490C00BF10B50F4903205CF722F9002162
:100BB00003205CF750F910BD10B5044601230A4A22
:100BC00000210A485BF716FF09498C4201D1032135
:100BD00003E008498C4201D1002101704EF702FD6B
:100BE00010BD00002459FC0711FC000001080000A2
:100BF000A5A5A5A5C3C3C3C37FB5E4486B460188BB
:100C0000428889186A46118001214C002218154635
:100C1000403DED8F065B5288AD19AA18491CC9B238
:100C20001A530729F1D38189C089081881B2D98163
:100C3000D888002821D01889002820D0988800283A
:100C40001FD0588900281ED0988900281DD05888A8
:100C500000281CD000291CD0188800280BD00720A1
:100C6000062254001C5B8C4201D22146D0B2521E97
:100C700052B2002AF5DA04B070BD0320FBE704206D
:100C8000F9E70220F7E70520F5E70620F3E7012062
:100C9000F1E70720EFE7F0B595B0EFF31080109083
:100CA000012080F31088BA48816B4A07520F6946C9
:100CB0000A800A92816B0122C908C9008163B54983
:100CC0008B8869464B800224B24B00219980C16A0F
:100CD00009078B0F69468B800F93C16A0C239943D8
:100CE0000831C1620521090709880906CB0F694649
:100CF000CB8005210907099309888023194305231F
:100D00001B071980A449898A4906CB0F69460B81C4
:100D1000A1490893898A402319439F4B9982016A0C
:100D200009074B0F69464B810C93036A0E218B43D5
:100D300003629B4D99486860FF204030A860288876
:100D4000A0432880974841680B071B0F69468B8199
:100D50000B9341680909090108314160416849065E
:100D60004B0F6946CB810D934168702399436031E5
:100D700041608748403801688904CB0F69460B827F
:100D80000293036841140B4303600168CB07DB0F38
:100D900069464B820E9301681143016041688903E3
:100DA000CA0D69468A8203924168CA05D20D694616
:100DB000CA82049281688903CA0D69460A83019236
:100DC0008168CA05D20D69464A8305924168764A10
:100DD00011400322D203891841604168490A49023F
:100DE000FF314131416081686F4A11400322D203D3
:100DF000891881608168490A4902FF314131816067
:100E0000642000F02DF9A88969468007C00F888307
:100E1000A8892043A8810024604F2888002601214A
:100E2000084328800A2000F01BF9FF205F49413069
:100E30003A680A4200D0761C401E3F1D0004000C98
:100E4000F6D1A88A8004FCD15149886B671CC2087E
:100E5000D2007807400F02438A630A2000F000F9AD
:100E600060004A49FCB20E52082CD5D348480A9972
:100E7000826BD208D2000A4382636946454A498898
:100E800091800F998A00C16A0C2399431143C16272
:100E90000999CA010521090709888023994311434B
:100EA00005221207118008998A013B49898A40234B
:100EB00099431143384A91820C994A00016A0E23E2
:100EC00099431143016237480B9942681209120194
:100ED0000A4342600D994268090170239A430A430C
:100EE0004260029841032A484038006801225203B8
:100EF000904308432649403908600E98096849081C
:100F000049000143224840380160039842022048CA
:100F1000403840682449084010431D4A403A506018
:100F200004985268520A52020243194840384260FB
:100F30000198174A4002403A92680A400243144816
:100F4000403882601249059840398968490A490247
:100F500001430F48403881601098002800D00120DC
:100F600080F3108815B0F0BD10B5114C2078002822
:100F700008D0FFF790FEFFF73FFE0E4908700020F3
:100F8000207010BD03F0C6FD0120F9E70865FC07DD
:100F90008010004000120040203000500860FC0724
:100FA0000035005040200040FF01FCFFC0C0C0C021
:100FB000FE8EFC07FF8EFC0710B5FF22154901329B
:100FC0000A60BFF34F8FBFF36F8F13490A60134955
:100FD0000B6840241B0A1B0223430B601049898ABB
:100FE0000021C30700D03521830702D57D231B02D2
:100FF0001943430702D575231B041943000702D583
:101000003D2000060143064820380163014880382E
:10101000026010BD80E100E080E200E008E400E052
:10102000A010004010B5062000F01AF810BD10B551
:10103000092000F015F810BD10B5812000F010F85F
:1010400010BD10B5044800F00BF810BD10B50348F2
:1010500000F006F810BD00000102000001080000C9
:1010600000280CD000BF00BF00BF00BF00BF00BF02
:1010700000BF00BF00BF00BF00BF401EF0D17047DF
:1010800010B50C460123FE4A0021FE485BF7B2FC76
:10109000FD4A21781170002101704EF7A3FA00205B
:1010A00010BD10B5F64A0C460123521E0021F5482A
:1010B0005BF7A0FCF54A21781170002101704EF712
:1010C00091FA002010BD10B5ED4A0C460123921E86
:1010D0000021EC485BF78EFCED49A2884A800A4665
:1010E0002388403AD387E2888A8062880A80002178
:1010F00001704EF777FA002010BD10B51A46822312
:101100000021E0485BF776FC112101704EF76AFA86
:10111000002010BDDA4A10B50123413A0021D94818
:101120005BF768FC112101704EF75CFA002010BDDE
:10113000D34A10B50123403A0021D2485BF75AFC4C
:10114000112101704EF74EFA002010BD10B51A465D
:1011500002230021CB485BF74DFC112101704EF7B3
:1011600041FA002010BD10B51A4601230021C548E0
:101170005BF740FC112101704EF734FA002010BDDE
:1011800010B51A4601230021BE485BF733FC11213C
:1011900001704EF727FA002010BD10B51A468223C1
:1011A0000021B8485BF726FC112101704EF71AFAAE
:1011B000002010BD10B51A4682230021B1485BF70C
:1011C00019FC00214170112101704EF70BFA00202B
:1011D00010BD10B51A4601230021AA485BF70AFC8E
:1011E000112101704EF7FEF9002010BDA44A10B580
:1011F0000823333A0021A3485BF7FCFB0446031D98
:10120000C21C811C401C5BF7CDF90146002000295F
:101210000BD0112121706070A070E070A080E08080
:1012200020464EF7DFF9002010BD2070F7E77FB5AC
:101230000025084600950195103802955BF71FFCC4
:101240005BF7C5FB00246E46039020465BF7B9FBB5
:1012500061008919641CE4B24880042CF5D3884AE3
:101260001023313A002187485BF7C4FB6E461ECE3F
:101270001EC0103805704EF7B5F9012004B070BDDE
:10128000F8B57F4A0F4608230A3A00217D485BF7EC
:10129000B1FB804D0446286B6E12B0433043286387
:1012A0007D493888496A88476060286BB0430021CF
:1012B000286338886080217020464EF793F900201B
:1012C000F8BDF8B56E4A0D460423093A00216D4871
:1012D0005BF790FB6F4E0446306B7712B843384390
:1012E00030636D4A2888926A69689047306BB843CA
:1012F0000021306328886080217020464EF772F903
:101300000020F8BD70B518460D465D4A0146012320
:10131000323A5C485BF76EFB04462878002802D01E
:10132000012805D101E05D4800E05D4841F71EFA63
:101330001220207020464EF755F9002070BD10B5E0
:1013400018460C464E4A01460823133A4D485BF7AF
:1013500051FB218801229207891809684160218880
:101360004180002101704EF73DF9002010BD10B5FD
:1013700018460C46424A01460423123A41485BF79C
:1013800039FB228801239B07D218616811602188EC
:101390004180002101704EF725F9002010BD10B5E5
:1013A0001C4608464BF738FE354A0123113A2146C0
:1013B00034485BF71FFB002101704EF713F9002042
:1013C00010BD70B50C8818461646032C00D30324B4
:1013D000CA788B78150252225443324A1D4313684F
:1013E000E318FF3301335D830B7911686118FF3116
:1013F00001318A8B120A12021A438A83204A01465B
:1014000001230E3A1F485BF7F5FA002101704EF7F1
:10141000E9F8002130465BF71EFD002070BD10B5D5
:1014200088781C46002801D0012200E000220888AC
:10143000114645F729FC124A01230D3A214611486D
:101440005BF7D8FA002101704EF7CCF8002010BDF0
:1014500070B518460C460A4A014601230C3A094861
:101460005BF7C8FA227852214A430E4900230D68DF
:101470005219FF3241325382227852256A4313E0D7
:1014800043FC000001080000B0B9FC07D9B9FC0713
:1014900030BCFC074000004058BFFC07C3C3C3C3B7
:1014A000A5A5A5A54CB9FC070D685219FF3241321C
:1014B000938222785224096862435118FF314131E6
:1014C000CB82002101704EF78DF8002070BD70B501
:1014D00018460C4601460123324A33485BF78AFA24
:1014E000227852214A43314900230D685219FF32B4
:1014F00041329381227852256A430D685219FF3296
:101500004132D38122785224096862435118FF3155
:1015100041310B82002101704EF764F8002070BD4C
:1015200070B5184616460D461E4A01460123D21CC8
:101530001D485BF75FFA04462888032800D3032080
:1015400047F75EFB002805D000212170A9786430A0
:10155000C17701E01220207020464EF743F80021A9
:1015600030465BF778FC002070BDF8B50E46104998
:101570001C4615460020C2008A5AA24209D1C0006A
:1015800040184768002F07D02A4631461846B8470A
:1015900002E0401C1928EED322463146284602F0CC
:1015A00067F8F8BD38FC0000010800004CB9FC07E2
:1015B0003459FC07064C0125064E05E0E36807CCCC
:1015C0002B430C3C98471034B442F7D3FEF7A4FDEC
:1015D000E05FFC070060FC070148012101807047C3
:1015E0000E1500500F48011F09880A0703D5E54A68
:1015F000138A5B1C1382CA070AD0028807239A4306
:10160000D24BDB7B13430380DE4AD3895B1CD3813F
:10161000490706D5018807229143CC4A127C0A4328
:1016200002807047B8100040B0B5BD4B082018804C
:10163000052000070188302211430180048803211E
:101640000C4304801C896407FCD403889343038003
:1016500003888B430380BD4CE38B4380238C9D1E0A
:10166000184B5D8007251D8005881543058005887A
:101670000D4305801D886D07FCD4038893430380C8
:1016800002888A4302804289920702D042898A43B3
:101690004281018980220A430281018A0422914306
:1016A0000182818A8907FCD540F73BFE206B064901
:1016B000086006480168490700D500BE016849076F
:1016C000FCD5B0BD001600500802004010000040DC
:1016D000F8B500250095134E13497160B560316867
:1016E00004220A433260EFF31084012787F3108845
:1016F0003946814089B20D48FEF73CFD00903068C4
:10170000B8433060002C02D087F3108801E085F3E5
:1017100010880098414241419A4A11710249081AC1
:10172000F8BDC04610E000E0FFFFFF0000300050B1
:1017300080B50A2000F036F880BD80B50B2000F09F
:1017400031F880BD80B50C2000F02CF880BD80B54C
:101750000D2000F027F880BD80B50E2000F022F8A3
:1017600080BD000070B501258D404001064C049EEF
:10177000002E01D0055301E0261875801343201870
:1017800049004018838070BD023000508140012222
:1017900082400348038893430B4303807047C0464D
:1017A0001E30005070B5C0B203460A3B01210A4604
:1017B0009A4093B20A4C1C195C406608094B1C887D
:1017C0000025360402D06D1C760CFAE79443AAB2C9
:1017D0000D46954025431D8081405048016070BDF5
:1017E000FFFF01000E140050F8B5044601273E0229
:1017F00005200507688DC00506D51B2003F0D4FE23
:1018000048480188394301808036288840013040AB
:10181000698A454A0A4002436A8221681148016088
:1018200061684160A1688160E168C160216901610E
:1018300061694161A1698161E169C16104623C49F9
:101840000A6842624A6882628A68C2624A690263BE
:10185000CA68426309698163A88AC00600D4FEE7AA
:1018600000BEF8BD0090FC07024800882B481021FC
:10187000016070472C130050F8B504460520050799
:10188000288A042101432982288940210143298192
:101890002248012707602248082101803E02688D06
:1018A000C00506D51B2003F07FFE1E480188394382
:1018B00001808036288840013040698A1A4A0A40EF
:1018C00002436A8221681948016061684160A16829
:1018D0008160E168C1602169016161694161A1695B
:1018E0008161E169C161046211490A6842624A6822
:1018F00082628A68C2624A690263CA68426309698D
:101900008163A88AC00600D4FEE700BE688A094940
:1019100008404018001D6882F8BDC04680E200E023
:1019200000330050800000507FFE00005090FC0704
:1019300028ED00E0FC7F00007047000080B5F6480D
:10194000C06A002801D003F073FE80BDF08EFC0752
:101950009949CA6A002802D0824200D9C86A0A6B33
:10196000904200D9086B084A1080C8780221814053
:1019700006484843002803D000BF00BF401EF9E7D7
:101980007047C0461C65FC0702000050F1060000CD
:101990007047000010B50F4CA1880F2008400228A6
:1019A00006D004280BD00C280CD00128F4D110E06C
:1019B00020880221884320802088802106E003F0CF
:1019C00069FEE9E703F066FE208801218843208054
:1019D000E2E710BD041100500521080702883023FA
:1019E0009A430280028803239A4302808288120568
:1019F0000DD5184A13880B40052B08D110880421F7
:101A0000014311801088012188431080704781882C
:101A1000C90606D510498A88D20702D00A8812065C
:101A200010D48088C0060CD50B488188890708D55A
:101A30000188C90505D5022181800188074A0A402D
:101A400002807047012088800888802290430880A7
:101A50007047C0460002005000010050FFFE000029
:101A6000FEB5F74C002121800327FD012946903166
:101A700061804026A6805C22F2498A5AA281A2890E
:101A8000324330239A43A281464A1660BFF34F8FF8
:101A9000BFF36F8F002800D17FE001970295228865
:101AA000B2430578AB0113432380E7887022974344
:101AB000437819013943E180002D05D1E1880725DC
:101AC000A9431B090B43E38021880425A943C3785C
:101AD0009B000B43238001790902A388DBB25918CC
:101AE000A180E1881140304F40292DD16220D54995
:101AF000085A002800D12F482F498881012000036F
:101B00002188014321801920FFF7AAFA029A104682
:101B100080302188014321802088304320806088E4
:101B20002843608060882549014061800F20400281
:101B3000618801436180403760883840104360808D
:101B400060880199884327E02188184A0A4022804A
:101B50008178102900D300BE6288154B13404902DA
:101B6000194361806188019A914342790A436280F6
:101B700081790029029A01D10A4600E08032218849
:101B8000394011432180C079082800D300BE403776
:101B90006188394080010843608020880121014329
:101BA0002180FEBD80E100E0FFFD0000FFEF0000AE
:101BB000FFE10000407600001C65FC07FF1F0000ED
:101BC00010B5016800290CD5036802680124A40738
:101BD00000688000800C00195B0001D4028000E0E6
:101BE0000270C80F10BDB0B50C460025202D04D0E2
:101BF00040F785FE60556D1CF8E70020B0BD000081
:101C000010B504460548064970225DF775FA054887
:101C1000001B054908801430488010BD70A0FC07E7
:101C20000C5AFC07B8A0FFFF78A0FC0710B50748C6
:101C30000188074A1368114C2340591811604088E5
:101C4000516821400818506010BDC046183000404F
:101C50008CA0FC0710B507480188074A1368074C99
:101C6000234059181160408851682140081850607D
:101C700010BDC0463830004098A0FC070000FFFFB0
:101C800007481E214180018803220A4302800188FF
:101C900004220A430280CA48012101707047C046ED
:101CA0000016005080B50D480078C00708D1052007
:101CB0005BF7E6F800280FD12A200A49085C04E007
:101CC0000748417D012907D1007D41424141C21EA3
:101CD00050425041084380BD002080BDFDB9FC0743
:101CE00088BDFC0730BDFC0707480168B44A927DF7
:101CF000002A04D0064A1140064A891801E0034A26
:101D0000114001607047C046B810004077F7FFD51A
:101D100077F7FFC08808002AF08EFC07704780B56F
:101D20005FF72AF980BDF8B56946C870020A8A7063
:101D3000020C4A70000E087008465FF705F98FBD67
:101D4000F0B585B00E46E7483A4A022519462B46BB
:101D50005AF750FE0746337837480290052206208E
:101D6000002B114600D00146002B00D01046764AC9
:101D70001288D20500D5014602A841702F4903916F
:101D8000FFF76EFE2320FFF76BF92D4908882843E3
:101D900008800122130208888007FCD4CA81088ABF
:101DA000284D4C882407009706D40E8840243440E0
:101DB00006D02E46563605E02E4660365E3506E0E5
:101DC0002E465A36002C01D0543500E058350024F8
:101DD0002F5F0194355FC0334C881C409C4205D076
:101DE0004B88DB055B0F0624E31A01930B889343B2
:101DF0000B80154C60433E1931465DF703F90746E9
:101E00006543284631465DF713F9391AA1420B465E
:101E100000D323460D4A002591422946009800D858
:101E20001946019AD14001804DF7DCFB284605B0E8
:101E3000F0BDC0461AFE000001050A0000030101C2
:101E400000150050C48BFC07FFFF0000FEFF0100DF
:101E500010B51946A348044A002423465AF7CAFD80
:101E60004DF7C0FB204610BD07FE0000FEB51C4626
:101E70000F469C48204A022321465AF7BBFD0446E0
:101E800079780120002202910C29034600D31346E1
:101E90003D78694269411940FE780C2E034600D313
:101EA0001346BF787A427A411A400A404240228063
:101EB00020464DF797FB208800281BD10F48FFF7DD
:101EC000CFF83F48C17C807C002400942246234602
:101ED000FFF748FC3A48417D007D009422462346A6
:101EE000FFF740FC284602993A46334603F066FC69
:101EF00003F01CF90020FEBD09FE0000E204000012
:101F0000B0B51D460C46DD480E4A012329465AF756
:101F100071FD002101702278511E13468B41284922
:101F20008B7509490B88DB0507D4531E9A41920231
:101F30004B8D064C1C40A2184A854DF753FB0020E0
:101F4000B0BDC0461CFE00002A000050FFF9000092
:101F5000B0B51D460C467F204202C84804232946DE
:101F60005AF748FD21785F2903D0332901D103496D
:101F7000098801604DF736FB0020B0BD020000501B
:101F800010B51946EF480D4A08235AF733FD0446A9
:101F9000EF48007A02280ED103F02CFA0848816D30
:101FA0002180416E6180016EA1805830008AE080FE
:101FB00020464DF717FB002010BDC0460DFE000067
:101FC000F08EFC07F8B51946DE48264A0124234660
:101FD0005AF710FD0546244E378827400FD1308828
:101FE00020433080308828210143502081433180B4
:101FF00030880621014331801C48FFF731F83088D2
:10200000C00701D1FF2021E00095194D68886C8040
:102010002888082188432880288802210143A14379
:102020002980288804210143298000262888400728
:1020300006D5632E04D86420FFF712F8761CF5E766
:102040002888400300B2C013009D074E2870002F5F
:1020500002D13088A043308028464DF7C3FA0020D3
:10206000F8BDC04616FE000022000050400D0300DF
:102070000016005070B51946EE480C4A42235AF734
:10208000B9FC04460E250570801C094E31462A46CF
:102090005DF732F865702046223031462A465DF7FA
:1020A0002BF820464DF79EFA002070BD08FE000078
:1020B000C05FFC07B0B50D46DE480B4A0124194647
:1020C00023465AF797FC2A780B2A04D8074909882F
:1020D000D140214000E0FF2101704DF783FA00203C
:1020E000B0BDC0460108000013FE000000300050E3
:1020F000F0B587B00E46F048614A012419462346E0
:102100005AF778FC0490357800210B2D204600D832
:1021100008467279059232790392F778B27806927E
:102120007278032A11D8920002A39B580A460E46E1
:102130009F46C0466321FC074521FC075521FC074B
:102140005D21FC070122160206E001204602002262
:10215000204606E001225602002202E00322160277
:1021600022460296069B012B234600D80B46012FE0
:10217000264600D80E4605996429214601D8164006
:1021800031460029214600D11946002900D10446D4
:10219000FF26002C6AD1284601F0E8F9284601F014
:1021A00003FA0398002818D0012F28D0002F049C90
:1021B0005DD13548418B0122914341835002AA40B1
:1021C00030490A806A00511848800699481E8141AA
:1021D0002846FFF7DBFA002649E0781E41424141DC
:1021E0000091002630462946029A3346FFF7BAFA94
:1021F0000699481E81412846FFF7C8FA36E00124B7
:102200002046A8401F490880680040180326310274
:10221000173141800699481E81412846FFF7B6FADA
:102220004D48018808221143018001883143018013
:10223000154D688B10436883688B0421884368833D
:102240007D20C1000398414310485CF7DBFE401E2F
:102250002880288800266E80411C05984843642108
:102260005CF7D0FEE881688B20436883049C26706D
:1022700020464DF7B7F9002007B0F0BD0108000077
:1022800012FE0000043000500834005080841E000C
:10229000FEB50E46B2482C4A012519462B465AF780
:1022A000A9FB044677783678304601F05FF9002EB6
:1022B00001D1264805800B2E3DD8022F3BD2029437
:1022C000234C002001906072A672E772A570607ABC
:1022D000A17A009503273E0210233246FFF742FA07
:1022E000607AA07AE17A4A1E9141FFF74FFAE943FA
:1022F000184802880A400280174A938B0B40938348
:10230000118808230B4313801188394311800199E8
:102310000180FF210906114A13688B43E907591808
:102320001160E836468086800D49C18001882943C6
:102330000180029802E0FF20207020464DF752F9FC
:102340000020FEBD0108000017FE00000003005041
:102350001C65FC0700340050040000500CE400E051
:10236000FFFF0000FEB51C460D467D48184AF223CB
:1023700021465AF73FFBAC781221002C22D03C2C8E
:1023800020D82A88FF21C90455180190471D0094C0
:10239000002C14D002AE04222846314602F070FA16
:1023A000F81E02990170B81E71780170781EB1781C
:1023B0000170F0783870641E2D1D3F1DE8E7002184
:1023C0000198009C447001704DF70CF90020FEBD8F
:1023D00004FE0000BCB51C460D466148164A0723A2
:1023E00021465AF707FB044628782070032807D0B7
:1023F00002281AD1611C1248062202F041FA14E0A8
:102400006879A97909020818019028790006E97805
:1024100009040818A9780902401869784018009042
:1024200006486946022202F03DFA20464DF7DAF8E6
:102430000020BCBD0108000003FE0000D47F0000A6
:10244000D47FF807F0B585B01C460E4644481B4AB9
:10245000022321465AF7CEFA044600210391029145
:10246000B7781220002F1AD03C2F1DD8F51C0196EA
:102470003688002F15D0E8780006A97809040818D6
:1024800069780902401829784018029002A90122AF
:10249000304602F007FA7F1E2D1D361DE9E70F4674
:1024A00002E00198877800206770207020464DF781
:1024B00099F8002005B0F0BD0108000005FE0000FD
:1024C00010B5194626480A4A012423465AF792FABB
:1024D000002101704DF786F8064808210180064862
:1024E00044800521018001880906FCD1002010BD2F
:1024F0001DFE0000023300500031005010B5194697
:102500001748044A002423465AF774FA4DF76AF82C
:10251000204610BD0AFE0000B0B51D460C46FF481F
:10252000104A082329465AF765FA0021417022789B
:102530000270032A10D861687A44127952009744D5
:1025400001030609096803E0A2680A6004E009883B
:10255000416001E0A2680A804DF744F80020B0BD58
:102560000108000006FE0000F0B58FB01C460D46C5
:10257000EA48EB4A022321465AF73CFA04462878F7
:10258000E84FFE7D012800D198E0002800D0FAE055
:10259000A878002800D0F4E0E8780B2800D9F0E013
:1025A0002979002900D0ECE069790B2900D9E8E00D
:1025B000A979002900D0E4E0E9790B2900D9E0E00D
:1025C000297A002900D0DCE0697A0B2900D9D8E00B
:1025D000697B002907D0A97B002900D0D1E0E97BE5
:1025E0000C2900D3CDE00C96CF4EB0476879B047A8
:1025F000E879B047687AB047687B002802D0E87B6A
:1026000000F0B4FFA878002802D1E87800281AD09A
:102610002879002802D16879002814D0A8790028E8
:1026200002D1E87900280ED0287A002802D1687AF1
:10263000002808D0687B002809D0A87B002806D194
:10264000E87B002803D10120F87502F02FFDE8781F
:102650000022B6490B28134601D84000435A687936
:102660000B28164601D84000465AE8790B280A92F2
:1026700002D84000405A0A90687A0B28099202D882
:102680004000405A099002960393E87B0B2801D83A
:102690004000425AEFF31080012181F310880E911F
:1026A0008E02A34B198808963143198000280492A2
:1026B00000D13FE10E9880F310883EE12879002890
:1026C0005FD168790B285CD8A978002959D1E978BD
:1026D0000B2956D8697B002905D0A97B002950D148
:1026E000E97B0C294DD200F041FFE87800F03EFF75
:1026F000687B002802D0E87B00F038FF28790028AA
:1027000002D1687900280ED0A878002802D1E87894
:10271000002808D0687B002809D0A87B002806D1B3
:10272000E87B002803D10120F87502F0BFFCE878AF
:102730000023E8490B281A4601D84000425A68791C
:102740000B280B9302D84000405A0B9007920A9432
:10275000A87B0B2801D84000435A297BDE48018022
:10276000EFF31081012484F31088DC4802882027CD
:102770000D973A43028000290C960FD084F31088FD
:102780000FE0FF202080FE7502F090FC02F0BCFC00
:1027900020464CF727FF00200FB0F0BD002181F349
:1027A00010880893CE4E31880E94A1433180318831
:1027B000C907FCD1CB4F0020099038864821B98247
:1027C0004F2139830821B98317213984398806229A
:1027D000914339801F21C943BA8F0A40BA873A8F83
:1027E0000A403A87BC48048838880E9B18433880D2
:1027F0003888402202433A8038880D99084338804F
:102800003A88102082433A80B74A521CB988114056
:102810002143B9803188194331803188C907FCD000
:10282000B2490A68802313437F2293430B60B04967
:102830000860A8784001A74BC018E9784900092230
:10284000425228794001C018697949000A2242524F
:102850000E984402687B002806D0E97BA87B099B80
:1028600000932246FEF77EFF687801280DD1E87AB2
:10287000A97AB2885207FCD5398220433882B088C1
:102880004007FCD5B0888006FCD402F0A7FEA87AE9
:10289000B1884907FCD538820A9CB0884007FCD52E
:1028A000032000023882B0898006FCD0388AC0B28A
:1028B0002080687B00280ED04B208000FEF7D0FBE4
:1028C000A87B400183490818801F0088E97BC84025
:1028D0000E9908402080E8780B289F4F7D4902D848
:1028E0004000079A425268790B2802D840000B9AA0
:1028F0004252A87B0B2802D84000089A42523088E6
:102900000E99884330803088C007FCD1F849088888
:102910000D9A904308800C9E35E7C04601080000E0
:1029200011FE0000F08EFC076D35FC0706300050EC
:1029300004000050002080F310886E4A20200D9083
:10294000108090881C210691084360218843908064
:102950009088032105918843908090888023984334
:102960009080387BFE2101403973002696810B96BA
:102970001089079318431081387BF1210140881C8E
:102980003873108907210143782081431181108811
:1029900040218843108010880D9988431080E97881
:1029A000A8780096059A12020592534F069BB847E5
:1029B0006979287900961A2332464F4FB847E9794A
:1029C000A87900961B23059F3A464B4EB047697A7B
:1029D000287A0E9E00961D233A46474FB8470B9F14
:1029E000687B002806D0E97BA87B009772023B46F3
:1029F000FEF7B8FE6878012810D1E87A0690AE7A22
:102A000002F06EFD304602F011FD069802F00EFD58
:102A100038498F8408880D9A1043088002F0DEFD43
:102A2000AE7A02F05DFD07980643304602F0FEFCE8
:102A3000384602F0FBFC2F4A978411880D9B1943FE
:102A40001180C0B22080687B0028C74F0ED04B2079
:102A50008000FEF705FBA87B40011E490818801F77
:102A60000088E97BC8400E9908402080E8780B2850
:102A70000C9E18490E9B02D84000039A4252687976
:102A80000B2802D84000029A4252E8790B2802D85B
:102A900040000A9A4252687A0B2802D84000099AEC
:102AA0004252A87B0B2802D84000049A4252EFF30E
:102AB000108083F310888E4A1188089DA9431180E5
:102AC000002802D083F310885DE60B9880F310880D
:102AD00059E6C04606300050AA65FC0704000050C5
:102AE0006C13005000130050FFFBFFFF04E400E0F4
:102AF00000E100E0001200506517FC07B0B51D466C
:102B00000C46E948084A0123294659F773FF054650
:102B10002078EB49C87502F0C9FA00242C702846C9
:102B20004CF760FD2046B0BD1EFE0000B0B51D464E
:102B30000C46EE48074A0123294659F75BFF00255A
:102B400005704CF74FFD2078DD4948733FF778FD5D
:102B50002846B0BD1BFE0000F08EFC0710B51946DC
:102B6000E248054A012359F745FF002404704CF759
:102B700039FD204610BDC04618FE0000FEB50E46C9
:102B80005748584D012419462A46234659F732FF23
:102B9000002707704CF726FD4BF7D6F9307802284E
:102BA00016D0012807D0002800D096E05848C770FA
:102BB0005A48077091E002F075FD4C480770B078F4
:102BC00071780A46024360D151480221017167E0E1
:102BD00002F068FD44490820088044490F7072B62D
:102BE000434EB28904210A43B281B28880239A43BA
:102BF000B280B288402302931A43B2803D4A1180CA
:102C000032883D4B13403380FA433C4B1A60328A82
:102C1000D206FCD47E35F2892A40F281E243384B59
:102C20009D8815409D80374D2F680F432F60B58AD2
:102C300025430227BD43B582B58A0D4301908543E4
:102C4000B582B58A102028432025A843B082B089D8
:102C50002043B081188810401880988A2A4A024080
:102C60000720C00210189882A0039A8A02439A8211
:102C7000F08C264A1688C00517D4602006431680BB
:102C8000988A03220243029F17E0214A1471214AC5
:102C90004A4319218901414388181F49096848623C
:102CA0001B48C4701D48047017E02E433846029F2D
:102CB000BE4316809A8A0243A2439A82988A019A56
:102CC00010439882988A88439882188B3843A84387
:102CD000188300BF00BF00BF30BF0020FEBDC0464C
:102CE0000208000001FE000000330050308CFC0799
:102CF0000400005000020050FFF7000080E200E0F6
:102D00000C03005010ED00E0FFC300005200005023
:102D100054BAFC070077010058B9FC07B4BAFC07A5
:102D2000BCB51C460D46B2480E4A0023214659F751
:102D300061FE04462878B34DA871287A00280BD18B
:102D40005F48583012215CF7F0F9A97901A80170A9
:102D500047F71CFF0220287220464CF743FC002056
:102D6000BCBDC0460CFE0000F08EFC07B0B5194695
:102D70009F480A4A0024234659F73CFE0546A148CD
:102D8000007A052808D102F0EFFB02F033FB9C48E3
:102D9000046028464CF726FC0020B0BD10FE000061
:102DA0007CB51C460D4692481D4A0023214659F722
:102DB00021FE04462878934EB07168787071307A9D
:102DC000002828D101AD25206870B079287070796D
:102DD000A870FEF789FF284647F74BFE0120C20383
:102DE00087490B6813430B6082030B6893430B60A6
:102DF00002030B6893430B600A680A4B13400B6095
:102E00000521317200027C490860BFF34F8FBFF388
:102E10006F8F02F075FB20464CF7E4FB00207CBD71
:102E20000FFE000000FEFFFF80B50878754A907124
:102E30004878D07188785071C878097909020818E3
:102E4000508202F0B9FA002080BDC046B0B50C46F1
:102E50001548164A012519462B4659F7CBFD21780E
:102E6000052900D8002505704CF7BCFB4BF76CF822
:102E70007D20FEF7F5F82078052804D80CA1095C20
:102E80000DA2105C01E00B2108200D4A517610764E
:102E900003223FF70BFC002420463FF763FC3FF77B
:102EA00029FC2046B0BDC0460108000015FE000008
:102EB0000301060B0001000068341108011A00002C
:102EC000F08EFC0770B50C46D048094A64251946B7
:102ED0002B4659F78FFD064621462A465CF70CF92A
:102EE00030464CF77FFB002070BDC0460108000053
:102EF00014FE0000F8B50E46C4483E4A00251946A7
:102F00002B4659F777FD0446307854282CD05228A8
:102F100012D04F286AD102F027FB3A4E307A0628A9
:102F200054D0072858D102F065FA0120C00734496F
:102F30000A6882430A604FE0012000022E490860BF
:102F4000BFF34F8FBFF36F8F7578FEF7CDFE6846E6
:102F5000057047F71BFE2948401C29490A680243AF
:102F60000A60284807212DE001200002224908605C
:102F7000BFF34F8FBFF36F8F7678FEF7B5FE224D0C
:102F80002846FEF71DFE0C20071D342F05D02818FB
:102F9000FEF716FE00283846F6D13820071D582FB8
:102FA00005D02818FEF70CFE00283846F6D1174841
:102FB0000321417016483018164A10601648016007
:102FC00010480621017202F09BFA0CE012480560DD
:102FD0000E48022181700580012000020F4908601F
:102FE0000F490860357220464CF7FCFA0020F8BD06
:102FF000010800000EFE000080E100E0FFFFFF7FFF
:10300000E00000401C65FC0770A0FC0704100040B5
:103010000001620904300040AC10004000E100E013
:1030200080E200E0F0B58FB00D467848784F02247A
:1030300019463A46234659F7DDFC06462978072902
:103040001DD86878AA7812021218C0467944097906
:1030500049008F4416191C2F394203036D49FE287D
:1030600002465AD10F46891D00200C2850D00A88EC
:103070000F231340012B4ED0891C401CF5E7002480
:10308000D1E1654800882DE06348028029E062486C
:10309000018A0122120280320A40802A06D1418A26
:1030A000C906FCD47D37018A394001820320000221
:1030B000401D14E090B2FF210C1A57490B880020E4
:1030C0009C420FDB9A1806E053490B8894B200200B
:1030D000A34207D39A1A0A8004E001204002FE4965
:1030E0000882002030800024FC4AD17C907C137D33
:1030F000984204D1527D914201D10027B9E10022CA
:1031000017460092032212020223FEF72BFBB0E1C6
:103110000C22FF2000E0024639460594C7B2002485
:103120000C2F01D3204602E078000818801D0B2FD9
:1031300009902DD80496079504880392D6B230469C
:1031400000F014FA304600F02FFA002E0BD1E348BD
:10315000817C002907D1C07C002804D10120DE49F0
:1031600088804002C88001200190000209990880EF
:103170000799897800220E920D9202920C920029F2
:1031800008D001294AD12546AF229300D54A04E050
:10319000042046E12546D24AFA23D34E0A24F4629B
:1031A0003363B263F463142232646E227264F26A8F
:1031B000F264326B3265F170716C71630B2F2C46C7
:1031C0002CD8B90001A251588F46C046FD31FC07EA
:1031D0002732FC073732FC074732FC075732FC071F
:1031E0006732FC077732FC078732FC079732FC070F
:1031F000A732FC07B732FC07C732FC0703210902DC
:10320000B54BDA888A430243DA8063E001080000A4
:1032100002FE00000030005002000050079D049E96
:10322000039A0298FDE003210902AB4B1A898A43F5
:1032300002431A814EE003210902A74B5A898A43AF
:1032400002435A8146E003210902A34B9A898A432B
:1032500002439A813EE0032109029F4BDA898A43A7
:103260000243DA8136E0032109029B4B1A8A8A4322
:1032700002431A822EE003210902974B5A8A8A439D
:1032800002435A8226E003210902934B9A8A8A4319
:1032900002439A821EE0032109028F4BDA8A8A4395
:1032A0000243DA8216E0032109028B4B1A8B8A4310
:1032B00002431A830EE003210902874B5A8B8A438B
:1032C00002435A8306E003210902834B9A8B8A4307
:1032D00002439A83706BFEF73BFB3846FEF7F8F922
:1032E0000C900C98B16B884205D30C98B16B401AC6
:1032F000F16B88421AD90C98B16B884205D2B06B39
:103300000C99401AF16B884210D90C98B16B884225
:10331000069415D9306D0A90306DFEF719FB3846CA
:10332000FEF7D6F90E9000200B9014E03436039A85
:103330003068411C72D0801C079D049E5BD070E7F2
:10334000F06C0B90F06CFEF703FB3846FEF7C0F90B
:103350000D9000200A90002408970C9AB36B706BB4
:103360000C999A4202D90D910B9001E00E910A90AE
:10337000B06B0D9B0DA90EAA0E9FBB420B4600D34E
:1033800013461B680D9F0E9DAF4200D811460A6878
:10339000D11A121A0B9D0A98401B50435BF748FE46
:1033A00040197063706BFEF7D3FA0898FEF790F936
:1033B0000C900C98B16B884205D30C98B16B401AF5
:1033C000F16B88420DD9601C0C99B26B914205D209
:1033D000B16B0C9A891AF26B914202D9092C0446FE
:1033E000BBD33079002808D00020FEF7B1FA079D42
:1033F000049E069C039A059813E00C98B16BF26B3F
:10340000891A8842069C05D30C98B16BF26B51184F
:10341000884250D90020FEF79BFA039A079D049E2C
:10342000019830802978FE200840062817461DD1D3
:10343000022020431F210140032917D10694D1B255
:103440000120884024492A4A13460C88204204D08F
:103450005B1CFAD301E0521C02D20B881842FAD04E
:103460007D200001FDF7FCFD069C3A46100600D1C8
:103470003AE630464CF7B6F82878FE210140062996
:1034800016D1022020431F210140032910D1F9B297
:1034900001208840174A10490B88184203D1531E57
:1034A00012041A46F8D10998002801D0099804801E
:1034B00000200FB0F0BD0D480088B064B06CF16A18
:1034C0008842039A02D8B06C0028A7D1B06C316B47
:1034D0008842A3D248362BE700300050F08EFC071C
:1034E00000127A00007C92001C65FC07020000506C
:1034F000E708C9FFB68C000080B51B4800210160B9
:10350000FDF79AFD164800781F214901134A1368F8
:103510008B43C006800DC018106080BD80B5114877
:1035200002210170FDF77EFD80BDC04680B50B48CD
:1035300001688905C90E0A4A11701F2149010268F4
:103540008A4302600748012101700748016803228D
:103550000A430260FDF770FD80BDC0464C1200407A
:103560000460FC0706100040AC1000400C490A88BB
:1035700002280DD0D205920F052801D1012A07D0CB
:10358000012801D1022A03D00A2808D1032A06D132
:103590004888C006FCD40888024A02400A80704766
:1035A000120000507FFE000080B5002814D1ED48C5
:1035B000C17D022910D0C17C827C13460B4301D10E
:1035C0000223C375037D934204D1427D8A4201D117
:1035D0000121C17501F06AFD80BDC046FEB51446EB
:1035E000002918D005460127002B17D0CA182388B8
:1035F000002D18D0087828706E1C0220002B0FD0E8
:1036000002938B1C93420AD84B783370029B012B98
:103610000ED8AE1C04E00021084602E02E463846D3
:10362000711B2180FEBD881C012690423046F7D8D0
:103630008E1C48788006000E029031463018AE1C71
:103640009042ECD8002D0CD0E81801903046029F33
:103650003A465BF751FDF0190199884203D80020E2
:1036600002E0002001E00120400002997618D7E72F
:1036700070B51346024600200E4C102808D0255A7B
:103680009D4201D00830F8E720184468002C0DD185
:103690000020094C0546F02D0AD0665B9E4201D001
:1036A0000835F8E764196468002C01D01846A04773
:1036B00070BDC046D05FFC077C5AFC07FEB51446BF
:1036C000002905D005460120022B04D22E463FE0FA
:1036D000002088213DE02288AF18002D09D00297F4
:1036E0000E784F786F702E70012A06D8AE1C02201B
:1036F0002EE0032B05D202262AE0032B03D2AE1CB8
:1037000026E08A7805E08A78AA70EE1C029FBE4205
:10371000EDD80297CB180193C91C9206120E8B1894
:103720000093EE1C019B009F9F4211D8002D09D0F1
:10373000304617465BF7E0FCF019029A904204D835
:10374000002003E00020174601E001204000F619A8
:10375000711B2180FEBD000070B5EFF310850124C0
:1037600084F3108805200007028880210A43028024
:103770004B4A13680726B343136053685B07FCD5B5
:10378000484B1361484B536102888A430280408D45
:10379000C0050DD57B48002141723F4E307801F0C5
:1037A00003FF7078002803D13C480188A1430180C1
:1037B000002D02D084F3108870BD002080F31088A3
:1037C00070BDC046FEB50446164E30680727384027
:1037D00002A908700878A04222D0134D2888C0059D
:1037E00017D5A01EC0B211A1085C019001F0D2FE55
:1037F0000199884202D2084601F0D6FE2748018886
:10380000C90706D1018801220A430280288840079F
:10381000FCD53068B8432043306070684007FCD561
:10382000FEBDC0460000F4072A0000500B130B0B2E
:103830000B00000070B5EFF31085012484F31088AD
:1038400005200607708DC00509D54E48447201F069
:10385000A1FE114908701148008820404870308846
:103860008021014331800E480168072291430160A5
:1038700041684907FCD53188090600D400BE0949D2
:10388000016109494161002D02D084F3108870BDA7
:10389000002080F3108870BD1C65FC07800000507C
:1038A0000000F4070F009909090404A4B0B50D46FF
:1038B0000446052000070088000600D400BE10461C
:1038C000FFF780FFFF20C004A90008582168091AEB
:1038D00048424841B0BD000070B5174EB06800F0D6
:1038E0002DF828494A6B00234B631518084C2846CD
:1038F00021465BF787FB706106494143481901D0B7
:10390000201A80B23061306808210143316070BDF7
:10391000710200008FFDFFFF80B5064800210160A5
:1039200001F014FD0120C00703490A6882430A60C0
:1039300080BDC046A8B9FC073000004080B50246F3
:10394000C00B09D00F48006C00210B465BF784FBCD
:103950008905800A401880BD0A48006C4243900ADD
:1039600080BDC046F08EFC0780B5FFF7E7FF80BD45
:1039700080B50449896B41430348081803495BF744
:1039800041FB80BDF08EFC0720A1070040420F00E4
:1039900000B59BB0894808250580894E308816AC53
:1039A00020802088C046C04620880422D143084297
:1039B000159202D00020308003E0B08901218843B5
:1039C000B0813346B08B7F49014007200B90C00285
:1039D0000818B0837C4F388828433880F88D062239
:1039E0009043F8850124A003B18B0143B18338884B
:1039F000764901403980788805921043A843788041
:103A0000052010900607718D714AFF32F88D104025
:103A10007D22D2000A950F2514952D03C905139414
:103A2000079206951BD4032149020843F885F88DB7
:103A30002843F885988B0A9988439883988B0421AA
:103A4000884398837888634901407980F88D139979
:103A50000843F885159D708D4007FCD519E0114687
:103A600018310843F885F88D5B490140139CE00349
:103A70000818F885988B0A9908439883988B159DA8
:103A8000A8439883F88DA043F885988B40218843FC
:103A90009883988B03210E910843988339882022BC
:103AA00011434020C04301403980198C0C921143CE
:103AB00001401984F18A8022099211430140F18268
:103AC000318EFF2291433186318F2943182204928F
:103AD00091433187318FA0220A43024032873F4809
:103AE0000580B0883E490140B180139F38043D49AC
:103AF0000860FFF79FFE02201290FFF763FE3A482E
:103B00000068C1B20C20AA29014600D0294632889B
:103B1000824388183080C046C04634480068344923
:103B200009886824334A00251553334B1A4644321A
:103B3000918058643846C046C046304F381F0068F0
:103B40002F49884200D02DE1119414980007159058
:103B5000042000210F9104463918081F3A46EC3220
:103B6000904200D323E100681790179B15980340FB
:103B700009200707179ABB4258D1179B1F0AFBB2AF
:103B80001493D2B2921F112A00D9ECE05200C04621
:103B90007A4492885200974435008700E600E60098
:103BA000E600E600E600E600E600E600E6009C002F
:103BB000B000C400D300E600D900DE00003300509E
:103BC00004030050FFC3000052000050FFBF00007C
:103BD00000F0FFFFFFF90000FF0F0000000200509F
:103BE000FFF7000080E200E0D07FF807D47FF807FD
:103BF000D87FF807C48BFC07F08EFC07D47EF8074B
:103C0000A5A5A5A5C54A1198105CC0001018149A66
:103C100092005BF771FA1199C04A505CC019505478
:103C2000C0B2052800D29EE000BE9CE0900F0FD0ED
:103C30001798BB4988420BD82046083031462831B6
:103C4000179A8A4226D1B74FE159B74A118082E7C5
:103C50001798159A10400B990907884205D1002042
:103C6000C046C046201DAF4F75E717981040139906
:103C7000C9078842AB4F0BD01798104010994907DD
:103C8000884205D0179810400E994907884279D18B
:103C9000201D60E7B11C179A8A42A24F69D1E159F1
:103CA00066229E4B995256E769220D929B4B985C77
:103CB000C00018181030149A92005BF71DFA0D9985
:103CC000964A505CC0195054C0B20D284BD300BE68
:103CD00049E0944AA1584843A258120C801A00B2F5
:103CE000C0088E4B4033D88288B2101A81088F4AA0
:103CF00011400818401C988235E08A4AA158484370
:103D0000A258120C801A00B2C008844B403358836A
:103D100088B2101A8108854A11400818401C18837F
:103D200021E00F9FB80018AA1018149A92005BF7B0
:103D3000E3F91498C7190F97032F14D300BE12E0AC
:103D4000784820586221754A50520CE07548205836
:103D50007249086507E07348205864216F4A505241
:103D6000000400D100BE149880002018001D6D4F83
:103D7000F1E631462431179A8A4209D1E1596A4A5B
:103D80005180E8E61798401C11D000BE2046E2E6BC
:103D900031462031179A8A4200D0DCE6E159624A66
:103DA0009180D8E666205D490C5A614A38E05B4C48
:103DB00020464030189981830921199A5143130CE8
:103DC000C91A09B2C908018491B2591A8A08574B15
:103DD0001A405118491CC183119AA05CC10701D037
:103DE00000BEA05C4008A0546920215CCA07504A6C
:103DF00001D000BE215C490821546420215A0029C9
:103E000001D1079921526620245A002C08D1494932
:103E10000968C9B2AA29099C00D06E243F490C52F6
:103E2000139F38020F90D483B08CB843B0840D2018
:103E3000FDF716F9708938431299884370817089AB
:103E40004006FCD574800798FDF70AF970890E9931
:103E50008843708170890006FCD57F203449487002
:103E60003448806934498861FFF776FC334800683C
:103E7000334988420F9C00D055E1324832495BF704
:103E800054F90B98010231485BF74FF9FCF778FEC3
:103E90002F4830490160304830492A225BF72CF91D
:103EA0002F480021C171817141710171C170817010
:103EB000149141703F21089101702A482AA14022A3
:103EC00011925BF719F94B208200374837495BF7AD
:103ED00013F91720C043364D00280CD032490A1878
:103EE00051239B00D21833A10B18183392CB92C2E6
:103EF0000F9C0C30F0E721464431344A1E20002844
:103F000066D01590284843181446A1CCA1C3159833
:103F10000F9C274D401E0C310C32F0E7C48BFC0780
:103F20004C420050D47EF807A000FC07FF3F000081
:103F3000F08EFC07D07FF8071C65FC079CB8FC07D7
:103F40006587341200A0FC07AC14000000B9FC0720
:103F500060BAFC07D45CFC0700BAFC077CFCF107E4
:103F6000DAB9FC07B0BCFC072000800000C00000EC
:103F7000000084000000282200000000000004006F
:103F800000F7FFFF7F00000030F0FF0F000000008F
:103F9000000400000000000000000000000000001D
:103FA0000000000000000000348CFC0738FBF10723
:103FB0000033005000FD0700A95FFC07A55FFC0768
:103FC00001FD0700A95FFC07905FFC076C5BFC0725
:103FD0003A20F2494885F248C862F2482246139FC7
:103FE0000770F148F1490160F148F2490160F24976
:103FF000F2480860F2480A210170F24814990170F1
:10400000F14832210D910170F04810990160F0489B
:104010000760F0480160F04805990160EF480B998E
:104020000160EF480A9C0460EE48EF490160901D72
:10403000EE490860EE49086000F086FC30893021C6
:104040008843308130890999084330813089204381
:104050003081308CB84330847089049988437081F2
:104060003089119A10433081308A0421884330828C
:10407000B08A8007FCD510910699FF31F08C08407A
:104080000B2109020143F184F08C139B1843F08447
:1040900070890A99084310210B9188437081708CB4
:1040A00098437084308990433081D24837309C07E0
:1040B00021680140216008984002CF4F3968814350
:1040C000580308183860CD48411C386806910843E9
:1040D0003860CB480068CB4988420F9F15943FD089
:1040E000C0480068C4498860C74A90691075010ECD
:1040F000D175010C9175000A50753846C030C34A1D
:1041000000281BD0401EC149435C1478254639461F
:104110000E9F3D40BC4F7D190F462D7D5D40654093
:104120001570521CECE7BA48B849109A52029542F1
:1041300000D9A2E62A586A502D1DF6E7B24D543533
:10414000B2491C2228465CF76BFF002800D000BE55
:1041500028465CF7F9FEAA48AA490160AD4D159CB6
:10416000A04800683EF776F8AB483946149F0771BF
:10417000C770206808432060FDF782FD139C20462D
:1041800000F090FCA0490F72129848718F712520A1
:10419000C8710D984882A048C770A04807700F8268
:1041A0009F48583012215AF7C0FF93490868069A71
:1041B0001043129F0860F08A0999084311998843B7
:1041C000F082FFF7A9FB0F20FCF7F6FE60020190DA
:1041D000089880020690E40392489349081893498E
:1041E00040188008401E08900E943089000600D4C4
:1041F00034E11598006B204200D02FE186480088FA
:10420000C00700D02AE159F7F8F80025284600F049
:1042100049FC8348407C042800D094E0139800F0C7
:1042200041FC179517A8042149F788FC00287C4B0E
:1042300000D188E013987E49086008680028FCD106
:104240001598C069596A884201D25D622946411AAF
:10425000CA09997B182A01D8002974D0002905D0F1
:10426000986A401C986200F0CFFD6CE05862714C77
:104270002088059060880490A0880390E0880290D0
:1042800019956D48189018A8FDF7EAFB644B07983C
:104290001730218901405983618901409983208920
:1042A000069A104001990843208160891040084314
:1042B000608120883843208020888007FCD41398B0
:1042C000E081208A504989895A8B2389069C2340A2
:1042D0001343584A1381524A928B564B5B892340B1
:1042E0001343544A5381401A07994143002804DC80
:1042F000524A8918C017084001E0514808180E9C1E
:1043000050495AF795FE83091933454A50787F285A
:104310000FD0181A41B2C9114840401A40B20828BB
:1043200008DB906A401C9062009300F06DFD009BDA
:104330003B4A53703F480499418003998180029918
:10434000C180059901804048806D2F4A117A01296A
:1043500005D1002803D1157201F02EF82A4A108ADF
:10436000518A88420DD3107A01280AD11582F24869
:104370002946F24A2B4658F73DFB4BF733F901F03B
:1043800039F859F73AF8F843F6490978C91E8142D5
:104390005CD86420F5490860E94D26E700BAFC07BF
:1043A000348CFC07FDB9FC0750B9FC07603FF207ED
:1043B00054B9FC07F85DFC0758B9FC07FC5CFC0726
:1043C000B0B9FC07B1B9FC07D9B9FC075CB9FC0767
:1043D00060B9FC0764B9FC0768B9FC076CB9FC0755
:1043E00070B9FC074CB9FC0700A0FC0748B9FC07F2
:1043F00044B9FC07C8FEFFFF00020040FFFF1F009A
:104400009CB8FC07658734121C65FC075C8FFC07B1
:1044100000B0FC070033005054BAFC07B4BAFC07E4
:10442000F08EFC07F85E00001001FC07030004F8A2
:10443000FC00004000150050010400002BFDFFFFB0
:10444000D5020000AA050000B0BBFC07C74A1068EF
:10445000411E11600028BA4D00DDC6E6FDF722FCC2
:10446000002800D1C1E672B6BD4800790228149830
:1044700002D0B7480068406A18902889C00700D069
:1044800058E158F786F8002800D153E1B448C078C5
:10449000002861D0B08AC00700D0C1E0B0480088D1
:1044A000002859D1B248806A002803D0A848006883
:1044B000406A189000F04AFFA948817818A858F778
:1044C00060FE002848D015980069400644D4A448EE
:1044D000817818A849F732FB00283DD04BF7B0FA95
:1044E000002800D126E149F72BFF002800D121E167
:1044F0009B48817818A858F744FE002815981FD0CB
:10450000006940061CD49648817818A849F716FB24
:10451000159B002814D00698FF30964A1188014058
:104520000F9F39431180189A002A1CD0186A8949B4
:104530004018DA28CE4B1AD8521E0592189217E06E
:1045400082480078C00702D13EF7BCF804E00020A2
:104550003EF708F93EF7CEF8FDF7A4FB002800D19E
:10456000E8E030BFE6E000200590C14B00E0059296
:10457000188C75490A6A10184862159BD86B7E49D9
:1045800008401043D863D86B7C4908406E4A916A52
:1045900089020143D963D86B70490840516A4905C3
:1045A0000818D8637648059A824200D300BEB04905
:1045B000086D496D00235AF74FFD0903000D41189E
:1045C0006148806A821C8A4200D0481E6449097989
:1045D0004A1E914145F7C8F96A48C06A8047159953
:1045E000086B2042FCD05C4A10683842FCD010684E
:1045F00009998843106068894528174604D84621E0
:104600006981081A9A4948633DF75FFEB86898497E
:10461000086338680006FCD53089099988433081E1
:1046200050480178308A109B184330824E4A1068F7
:1046300018431060434A1089139DA8431081708A63
:10464000012905D10B99884370820F9F0C9C2EE0A5
:104650000B9F38437082708A18437082FFF7EAF824
:10466000708A38437082089847490860EFF31080D9
:1046700085F310883188099A91433180002802D04F
:1046800085F3108802E0002080F310880F9F0C9CB7
:10469000708D38422B4A0AD00020E44948720B2022
:1046A00000F082FF274AE349C88D2843C8850025CA
:1046B0003583708D3842119B04D1DE490888184338
:1046C000A0430880108C18432746A0431084B08C68
:1046D000139CA043B0840D20FCF7C2FC70892043DA
:1046E00012998843708170894006FCD50D987080BE
:1046F000B08AC006CF4A0E9C02D511480A990180A3
:1047000030BFB08A108838431199C94308401080DF
:104710000C4A108C38430840108400F015F91048FA
:10472000C57010480570104A1068109988431060D1
:10473000034D129F62B658E5010800000BFE000011
:1047400000330050040300501C65FC07FDB9FC0752
:1047500058B9FC07C8FEFFFF00020040FFFF1F0022
:1047600054BAFC07B4BAFC0710ED00E00060FC0787
:1047700074BEFC073830005000FCFFFFFF03E0FF71
:1047800040420F0058BFFC072000F40780B549F7EE
:1047900074FE00F06BFF80BD80B54BF77CF800F035
:1047A00065FF80BD7CB514460D460646D14881782C
:1047B000012908D1017A0079002200920322120215
:1047C0000223FCF7CFFF30462946224649F7D3FBA8
:1047D0007CBDC046F0B569212448415C1030C54A13
:1047E000527B00230C4E8B4212D247680A2A3C4669
:1047F00006D33D46074C2540204C246864042C43D6
:104800000568B54200D127462F6008305B1CEAE7F7
:10481000F0BDC046FFFF01FC38300040F0B5682114
:104820001248415CB34A527B0023124D134E8B4217
:104830001AD290C80838AC4212D1FC01640C2C4644
:104840000ED00A2A2C460BD3032424023C403F04FA
:10485000BF0E3C192C60C488074F3C40346000E018
:10486000276008305B1CE2E7F0BDC046C48BFC0744
:10487000F08EFC074C100040FF010000AC65FC0707
:1048800070B514460D460646FEF7D4FF0220FEF72B
:1048900099FF2846314622465AF72EFCFEF75CFF68
:1048A00070BD0000F0B585B0039202910546052069
:1048B00007070024234E01970398844240D0FEF757
:1048C000B9FF3888000600D400BE3888000600D43E
:1048D00000BEA000E90B00D000BE02990F1804959D
:1048E000AD080320FEF76EFF002228463946D207A6
:1048F00009D10A68B260706032689207FCD5401C2A
:10490000091D0122F3E73068C007FCD004223846B5
:104910002946FEF7CBFF002810D00522384629464D
:10492000FEF7C4FF002809D00320FEF74BFFFEF777
:1049300013FF641C049D2D1D019FBDE7FEF70CFFB6
:1049400005B0F0BD0400F407F8B538480125C57579
:1049500000F0ACFB2F0205200607708DC0051AD5AC
:104960003248407A012803D100F014FE1B2812D8E7
:10497000304C2088C00401D42D48808AFF201C3090
:104980002D4908801B2000F00FFEE08D2843E085B4
:10499000708D4007FCD50095284801888025294363
:1049A0000180274827A118225AF7A6FB2BA02E49E1
:1049B0001CC81CC1FCF7DDF82C482D49016030886B
:1049C00030218843308030880324A0433080294838
:1049D00008220280B0882843B080803730884001A8
:1049E0003840718A244B0B400343738223480721CC
:1049F0000180234D0020A8802880832028810B4936
:104A0000087E002801D0497E03E01E4808830B2160
:104A1000104622463DF74AFE2C8100F075FB044A01
:104A20001088009908431080F8BDC046F08EFC073E
:104A30000C030050520000501C65FC07001500508C
:104A400020000840F99DF00700000000E3A1F107F5
:104A5000000000004FA4F10700000000A105FC07C2
:104A6000CF08FC07DF09FC07C000FC070000084076
:104A700007001000003300507FFE00008810005037
:104A800004100050080B000003480188034A11403D
:104A90008918091D0180704712000050FC7F00003A
:104AA00070477047B0B5D24D2978012921D11249FC
:104AB000002803D008884007FCD402E0088840079B
:104AC00017D400232B70C8888988000444181F203D
:104AD0004006492122465EF7C3FC286569656421CA
:104AE0004143080CA86305486043800B401C400804
:104AF0002864B0BDF08EFC070016005011110100B3
:104B000010B5F44C082020701120FCF7A9FA0320FE
:104B1000607010BDFEB5634803260670624C2046E7
:104B20001438016814220A436B218A430260A06A88
:104B30005E49C8610020C043A06220683F218843CD
:104B4000206020685A490840206060685949084040
:104B50000121019189020291401860606068402142
:104B60000143302081436160A069534908400B2113
:104B700049064018A061A0695049084071024018D8
:104B8000A061A0691821014327208143A16143202E
:104B900020714B4880474B4880474B4880474148ED
:104BA000067000964948056849488047494880474B
:104BB000206849490840E905401820603C4D4035CF
:104BC00020682840490C4018206041272771606800
:104BD0003849084002994018606039488047394890
:104BE0008047394880472F4806703848066838485B
:104BF000804738488047206837490840F105401809
:104C0000206020682840490C4018206027716068A7
:104C1000284908400299401860602948804729487F
:104C20008047294880471F4800990170274800683D
:104C30002168294A1140C20589182160216829404C
:104C4000264D0540A8010818206060680199884336
:104C500060601648C069A06220681C2101432320BF
:104C6000814321602068124908402060A0691249F0
:104C70000840072189064018A061A0690F49084033
:104C80000F21C9014018A061A0691E210143212004
:104C90008143A1610E4880470E48804710484581F6
:104CA000FEBDC04605100040183000401C65FC07E2
:104CB000FF7FFFFFFFF9FFFFFFFFFFC03FF0FFFF98
:104CC0001D35FC072D35FC074310FC0788300040DC
:104CD000F934FC072F10FC07FFFF7F00FF010000E5
:104CE0008065FC0770470000F0B58BB030220021D2
:104CF00081541F221204354B1D6895430124620420
:104D0000AA181A60334B344D4561344D344E354F3B
:104D1000354AC261066243622D4A8262C562334AE5
:104D200007604260E004D94A13688343136028296E
:104D300003D001A84154491CF9E7DA480068403023
:104D400001A928225AF7D8F9EB4D09206873FFF71B
:104D5000D7FEFFF763FDFFF73DFD00F001FA00F01D
:104D600015FD00F069F8FFF7D5FEAC732148008807
:104D7000072101402974FCF7F7F8FCF757FFFCF70F
:104D800069FF1D490B881D4804681D4A1440E3183B
:104D900003601C4B1C88856915402C1984615B8855
:104DA000C4691440E318C3614B8A046A1440E318D1
:104DB0000362898A436A134059184162B548022147
:104DC0008170002101800BB0F0BDC046740000402E
:104DD000354EFC07314EFC071D4FFC07014FFC0709
:104DE0003919FC07D94EFC07DB4EFC07E54CFC07E4
:104DF000F08EFC07B81000401030004088A0FC077F
:104E00000000FFFF6430004080B5FFF779FEFFF738
:104E1000E1FC00F0A5F900F0B9FCFCF7A5F8FCF7FF
:104E200005FF9C48022181700021018080BDC046A1
:104E300000207047704700000E4908880E4A024063
:104E400001204302D2180A804105904A13688B431F
:104E50001360810700224A671F2212044B6F93439D
:104E60004004181848670868E02202431020824373
:104E70000A60704738300050FFFC000080B51F20EA
:104E8000000401218A07536F8343480418185067B0
:104E900010680721884310600D48018808220A43E2
:104EA0000280FFF72DFEFFF7B9FCFFF793FC00F03F
:104EB00057F900F06BFCFFF7BFFFFCF7CBFE75481E
:104EC00002218170002101800F20FCF775F880BD60
:104ED0000800005004100040704780B5E62800D359
:104EE000E620282800D82820F9214A0042437D20C6
:104EF000C10010465AF786F87F38C0B280BD000066
:104F00000548016807220A430260012080045F49C6
:104F10000A6882430A60704730000040022902D0CC
:104F2000012900D000BE002802D0FF2804D000BE16
:104F3000022901D10C207047F648407B7047C046DB
:104F4000F8B552480168C90703D0016802220A4334
:104F5000026001240168490203D5A10502680A43E1
:104F60000260260265024A4900950846083807682B
:104F7000002F00D189E0380606D58020086048F768
:104F800086FCFCF77DFE4249B8070AD5022008607E
:104F900042480068B021405C00F0A0FB44F775FB7C
:104FA0003B49380727D5082008603D48006868213C
:104FB000415A52224A433B490968711889185E22B6
:104FC000895A090A6830C07D081AC0B200F086FB11
:104FD000FBF792FD354626460024204644F70EFB9B
:104FE0002B490420EF4A507402202A4A9070148002
:104FF00034462E46009D374204D00E60012044F70F
:10500000FDFA23492F4203D00D6048F7A9FC20493F
:10501000780604D54020086044F7EBFA1C49F806EE
:1050200004D51020086042F7A7FE194978071BD560
:105030000420086018490888A04308801A480078AE
:10504000C00702D13DF73EFB04E000203DF78AFB9C
:105050003DF750FB58F738FA3DF7F2FAFCF710FE2F
:105060000020D04948740A49F80707D00C6058F767
:1050700047FA48F70CFC0649CA484474B80600D4FD
:1050800073E72020086000BE6FE7F8BD0002004013
:1050900018000040041000400833005058B9FC07C5
:1050A00084BBFC074CB9FC07FDB9FC0710B5BD4833
:1050B000C07D012811D0002817D111480024048098
:1050C00010480188C90613D101214902018014202A
:1050D000FBF7C6FF0948048010BD08480121018084
:1050E000074806214180812104E005480021018014
:1050F00002480121018010BDF08EFC070003005022
:10510000400000500630005010B5074C20780028B1
:1051100007D10020052102460B4600F04FFB01207D
:10512000207000F003F810BD308CFC07BCB5F34DC7
:10513000697D287D0024009401232246FCF712FBA0
:10514000E97CA87C2A7D904203D16A7D914200D1FE
:10515000BCBD0094032212020223FCF703FBBCBD7A
:10516000FCB57F200002594A516981430B2000029F
:1051700008185061106880B2554940181060906955
:10518000544C0440012358030090201890610320E0
:1051900001900002146B04431463908F10240443A5
:1051A00094879088184390804B484C4A02604C4A40
:1051B000104610384B4DAC8B044015204301E018CD
:1051C0005030A8836869484C0440484820186861FA
:1051D000A869474C0440092040022018A8612868AB
:1051E000444C04404448201828606868434C0440FC
:1051F000434820186860A868424C04404248201880
:10520000A860E868414C044041482018E860C1208B
:105210004001D04C647B240620183F4C20600520C0
:1052200080023E4F3880401DB880388C552606439A
:10523000AA2086433E84FF266C363046C930388526
:10524000374908460E30B88536483886B986C01DBD
:10525000388735482885A86B3449014034480818F8
:10526000A863344D2E80288F10401F462037C01968
:1052700028873148018811408919D53101808188FA
:105280001140C918818001891140C9190181213655
:10529000AE802A4801881140C91860310180818A96
:1052A00019220A4306218A438282A08F24490140A1
:1052B00000980818A08723480168019A1143042226
:1052C0009143016020486066FCBDC046203000402C
:1052D00000008888FF00FEFF8000004059055C0741
:1052E0001FFCFFFF042000400000E0FF09581A00E7
:1052F000FEE1FFFFE0E00000080929490000030388
:10530000696A686C031FFFFF70600000E0E0E0E086
:105310000B0A0A08F08EFC0700100040281300401A
:10532000260A000051080000070F00002F64E0FE6D
:10533000101A06010012004044120040881200407A
:10534000FF9F00008010004050015001F8B564201C
:1053500013490E5AE04FBC6B304660431249401867
:10536000124959F74FFE054638843C3666430E48CD
:1053700030180E4959F746FE001DB8490862281832
:10538000C01D88620A4A1278022A01D1113088624F
:10539000FEF7D4FA0749401880B258F7BFF8F8BDB5
:1053A000C48BFC07F08EFC0720A1070040420F00D1
:1053B000B4BAFC07E2040000BCB5A84C207A00286F
:1053C00000D0BCBD00202082A17901A80170E17944
:1053D00041706179817045F74CFB134DA86D002831
:1053E00005D101A845F745FB0028F7D0FEE70120CD
:1053F0002072BCBD10B5994C207A012808D0207AC3
:10540000022805D0207A052802D0207A072807D163
:105410000548806D3DF7AFF90020014657F71BFDA9
:105420000020207210BDC046B0BBFC0710B5324949
:105430008A885206D20E1CD0530813439C081C4382
:1054400012092243130A13431A0C1A43D243530876
:105450001F4C1C40121B1F4B94081A401C40121971
:105460001309D2181C4B13401C4A5A43120E1D3A02
:1054700000E003220B881F24A3430B800B88022427
:105480001C430C800B8804241C430C800B880124D3
:105490001C430C80D3175A40D21AD2B2022A01D32D
:1054A00000230B850884088BC004FCD4022A02D395
:1054B000088D020402E0002A03D00022888B1043EA
:1054C00001E0888BC0B218228A5E002AFBD410BD8E
:1054D00055555555333333330F0F0F0F010101016C
:1054E00005480188202291430180D249097B0907A0
:1054F000490F81847047C04600120050F08EFC07AF
:10550000B0B5CC48817D002900D0B0BD20490A88C3
:10551000082313430B800A88032313430B801B4982
:1055200006220A80FF2212060B4B1C6894430122BC
:10553000D50764191C60094B4B8000238B80084CF5
:10554000C462CB80D003074B1860088810430880E2
:10555000B0BDC046F08EFC070CE400E0204E000019
:105560003156FC0700E100E00120C103EC4A116064
:10557000BFF34F8FBFF36F8FE8490A8882430A80D9
:10558000034801880822914301807047003400508D
:10559000040000500E480188890918220A4000883A
:1055A0008004400F8018704710B51F214902820106
:1055B0000A4007490B88074C1C4014430C800A889A
:1055C000054B13404007800C1818088010BDC046DA
:1055D00054000050FFF90000FFC7000010B512484A
:1055E000026801218A430260FF22120643681340C9
:1055F0000E4C1B19436083681340836003680224C8
:10560000A343036003680424A343036003680B43BC
:1056100003600368DB03FCD5836813408360026882
:105620008A43026010BDC04610E000E02F75000004
:1056300010B5094C052020601920FBF711FDFFF77C
:105640005FFA0648007A401FC0B2022803D88000E3
:1056500003A10858206010BDAC1000401C65FC0779
:10566000000000000300000000000000E0B57148E9
:10567000817801290AD106490A885206FCD5017AA7
:105680000079002200920123FCF76CF88CBDC04623
:105690001410005002480188012291430180704794
:1056A00004110050BCB5634D697D287D0024009431
:1056B00022462346FCF756F8E97CA87C2A7D9042D6
:1056C00003D16A7D914200D1BCBD0094224623469D
:1056D000FCF748F8BCBDC046F08EFC07F0B587B0BB
:1056E0000446902028490858069094200F5C514D9C
:1056F000A86DEE6D296E0591696E049129465831A9
:105700000191098A039122063CD02946FAB20A2364
:105710005343069AD3185A88D50611D07F231A40CE
:10572000761C0D46CE65D30703D00499491C04911D
:105730006966120721D50599491C059129661CE067
:10574000DA88002812D0451C02960E468D65039912
:105750004143D0B20818294659F754FC01990882F0
:1057600080B2039028463546029E06E001200D4691
:105770008865D2B2019903920A82641E7A1C0727B7
:105780001740C0E707B0F0BDE0BAFC0718B50848FD
:10579000016800910099074A009B1A40FF242404E5
:1057A0000C40D9B20919044BC9181143016018BD46
:1057B0008000004000FF00FF0A000A00F8B51E4606
:1057C00017460C4605460846FDF7D0FE3046FDF765
:1057D000CDFE184B5E751F75DC749D74D87D022854
:1057E00011D0304660403946694001434842484143
:1057F0002146294301D0002805D0002801D10220EC
:1058000000E00020D875FFF751FCBD420DD1B44235
:105810000BD10848047205710123837000220092A5
:1058200028462146FBF79EFFF8BD002001498870FD
:10583000F8BDC046F08EFC0710B51946FD200202E7
:105840000E48022357F7D6F89021417000240470C7
:1058500049F7C8FE204610BD10B519460748084A4A
:10586000032357F7C7F8FF2181709121417000246D
:10587000047049F7B7FE204610BDC046010800007D
:1058800001FD000002E008C8121F08C1002AFAD179
:1058900070477047002001E001C1121F002AFBD1B0
:1058A000704700001A4988880722904388800520A5
:1058B00000078A89D2070DD0098800290AD1154925
:1058C0000A8802854A88828489880184418A124A2A
:1058D0000A404282114906220A800121CA03104B64
:1058E0001A60BFF34F8FBFF36F8F02221A60BFF3AE
:1058F0004F8FBFF36F8F1960BFF34F8FBFF36F8F61
:1059000041890422914341810021018062B67047A0
:1059100004030050A000FC077FFE0000003400508C
:1059200080E100E000000000045AFC071865FC0755
:105930000100010001FC0000FB10FC0702FC00005C
:105940001511FC0703FC00003111FC0705FC0000E9
:105950004D11FC0706FC00006711FC0707FC000066
:105960008111FC0708FC00009B11FC0709FC0000EA
:10597000B511FC070AFC0000D311FC0710FC000065
:10598000ED11FC0739FC00008112FC073AFC000015
:10599000C312FC0711FC00000513FC0730FC0000DB
:1059A0003F13FC0731FC00006F13FC0732FC0000C2
:1059B0009F13FC0735FC0000C313FC0736FC0000F6
:1059C0001F14FC0737FC00005114FC0738FC0000D2
:1059D000CF14FC073BFC00002115FC0712FC000063
:1059E0002F12FC0741FC0000C710FC0742FC00001E
:1059F000A310FC0743FC00008110FC070508000011
:105A00006B15FC07FC59FC0701000000080004901E
:105A10000000000000000000030005D08B0035F0FE
:105A200010005CF0000010B0000018B000001AB0C8
:105A3000030051F0000038B000003AB0000064B03C
:105A4000000066B0000022B0000024B0010005D0C4
:105A5000000000000A00008008030490000004F029
:105A6000030006D0000000000A0000800803049034
:105A7000000004F0030006D00000000000FE00005B
:105A8000511FFC0701FE00007D2BFC0702FE0000F9
:105A90002530FC0703FE0000D523FC0704FE0000B0
:105AA0006523FC0705FE00004524FC0706FE0000F8
:105AB0001925FC0707FE0000511EFC0708FE000028
:105AC0007520FC0709FE00006D1EFC070AFE0000A1
:105AD000FD24FC070BFE0000292EFC070CFE000035
:105AE000212DFC070DFE0000811FFC070EFE0000AB
:105AF000F52EFC070FFE0000A12DFC0710FE000094
:105B00006D2DFC0711FE00006925FC0712FE000048
:105B1000F120FC0713FE0000B520FC0714FE000076
:105B2000C52EFC0715FE00004D2EFC0716FE0000DA
:105B3000C51FFC0717FE00009122FC0718FE00009D
