:0200000407FCF7
:10000000484AFC072501FC072D01FC074501FC07B8
:1000100000000000000000000000000000000000E0
:100020000000000000000000000000005D01FC076F
:1000300000000000000000005F01FC07BD0BFC0792
:100040002109FC078935FC07A526F007C10BFC0731
:10005000B10AFC076301FC07F108FC076301FC0718
:10006000FD08FC076301FC07E909FC07F309FC072D
:10007000FD09FC07070AFC07110AFC07830BFC07B4
:10008000050CFC076301FC076301FC076301FC0727
:100090006301FC076301FC076301FC076301FC07C4
:0800A0000000000090070E00B3
:0200000407FCF7
:100110000348854600F0DAFB00480047B526FC0797
:10012000484AFC070F4880470F48004704207146A3
:10013000084203D0EFF309800C490847EFF3088029
:100140000A49084704207146084203D0EFF30980AA
:1001500007490847EFF3088005490847FEE7FEE72F
:10016000FEE7FEE7ED3BFC071101FC07C10AFC07B7
:10017000310AFC073EB50D4D6D1E14D002880A42AF
:10018000FAD16D1E0FD002880A42FAD0084A1368CD
:100190000124234313606D1E05D002880A42FAD160
:1001A000044A10683EBD00203EBD0000C0C62D00C0
:1001B00010E000E018E000E0F0B50546007985B0F9
:1001C00007073F0F284642F748FC0290287940066F
:1001D000C00F0390284642F740FC4448806A80796B
:1001E000012825D00126414840300079800775D587
:1001F000002E73D000222B2311463D485AF77CFD78
:100200000227077001263B4946700446C969A87950
:1002100088472A210855287900210007000FA0707F
:1002200003005DF719F90737393B423F423D420071
:10023000029801902D4814300090002604680BE0CD
:10024000611D019842F71FFD002804D02079B842B3
:1002500001D101261BE02468002CF1D1009842F75F
:1002600008FD25490978884202D1244806780EE025
:1002700000210C205AF732FC04460622401D019949
:100280005DF796F827712146009842F723FC01207C
:100290004640A8E7A1700AE0A67021E0032002E032
:1002A000A77004E00420A07001E0012818D0A888FD
:1002B000000A801FA072284642F7CFFB811D20460E
:1002C000A27A0B305DF774F80622201D02995DF7C3
:1002D0006FF80398E07020464DF790FD05B0F0BD33
:1002E000A172F1E7704770477047000074FBFC078C
:1002F00004080000E4FEFC07A1F9FC07A2F9FC07D2
:1003000010B50F4903205AF7F6FE002103205AF7D3
:1003100024FF10BD10B5044601230A4A00210A48F3
:100320005AF7EAFC09498C4201D1032103E008494C
:100330008C4201D1002101704DF760FD10BD00001D
:10034000FC3BFC0711FC000001080000A5A5A5A5C9
:10035000C3C3C3C310B5FF22154901320A60BFF3FE
:100360004F8FBFF36F8F13490A6013490B68402406
:100370001B0A1B0223430B601049898A0021C30713
:1003800000D03521830702D57D231B021943430783
:1003900002D575231B041943000702D53D20000632
:1003A000014306482038016301488038026010BDCF
:1003B00080E100E080E200E008E400E0A0100040FE
:1003C00010B50C460123FE4A0021FE485AF794FC62
:1003D000FD4A21781170002101704DF70FFD0020BA
:1003E00010BD10B5F64A0C460123921E0021F548B7
:1003F0005AF782FCF549A2884A800A462388403A87
:10040000D387E2888A8062880A80002101704DF7D4
:10041000F5FC002010BD10B51A4682230021E948E2
:100420005AF76AFC112101704DF7E8FC002010BD5D
:10043000E34A10B50123413A0021E2485AF75CFC37
:10044000112101704DF7DAFC002010BDDC4A10B517
:100450000123403A0021DB485AF74EFC112101707C
:100460004DF7CCFC002010BD10B51A460223002128
:10047000D4485AF741FC112101704DF7BFFC002010
:1004800010BD10B51A4601230021CE485AF734FC9E
:10049000112101704DF7B2FC002010BD10B51A46B5
:1004A00001230021C7485AF727FC112101704DF79D
:1004B000A5FC002010BD10B51A4682230021C148BA
:1004C0005AF71AFC112101704DF798FC002010BD5D
:1004D00010B51A4682230021BA485AF70DFC0021B4
:1004E0004170112101704DF789FC002010BD10B53D
:1004F0001A4601230021B3485AF7FEFB112101706F
:100500004DF77CFC002010BDAD4A10B50823333AEE
:100510000021AC485AF7F0FB0446031DC21C811CA5
:10052000401C5AF7C1F90146002000290BD01121C7
:1005300021706070A070E070A080E08020464DF7D0
:100540005DFC002010BD2070F7E77FB50025084650
:1005500000950195103802955AF713FC5AF7B9FB2C
:1005600000246E46039020465AF7ADFB61008919BE
:10057000641CE4B24880042CF5D3914A1023313A2C
:10058000002190485AF7B8FB6E461ECE1EC01038A8
:1005900005704DF733FC012004B070BDF8B5884AF2
:1005A0000F4608230A3A002186485AF7A5FB884DD2
:1005B0000446286B6E12B04330432863854938885F
:1005C000496A88476060286BB043002128633888F7
:1005D0006080217020464DF711FC0020F8BDF8B571
:1005E000774A0D460423093A002176485AF784FBDE
:1005F000774E0446306B7712B84338433063754A00
:100600002888926A69689047306BB843002130634C
:1006100028886080217020464DF7F0FB0020F8BD4F
:1006200070B518460D46664A01460123323A6548C0
:100630005AF762FB04462878002802D0012805D129
:1006400001E0654800E0654842F790F8122020700C
:1006500020464DF7D3FB002070BD10B518460C4660
:10066000574A01460823133A56485AF745FB218852
:100670000122920789180968416021884180002180
:1006800001704DF7BBFB002010BD10B518460C469D
:100690004B4A01460423123A4A485AF72DFB228856
:1006A00001239B07D21861681160218841800021D5
:1006B00001704DF7A3FB002010BD10B51C46084685
:1006C0004BF761F93E4A0123113A21463D485AF75A
:1006D00013FB002101704DF791FB002010BD70B598
:1006E0000C8818461646032C00D30324CA788B784E
:1006F0001502522254433A4A1D431368E318FF334C
:1007000001335D830B7911686118FF3101318A8BE8
:10071000120A12021A438A83294A014601230E3A19
:1007200028485AF7E9FA002101704DF767FB0021CC
:1007300030465AF712FD002070BD10B588781C466F
:10074000002801D0012200E000220888114646F767
:10075000D7F91B4A01230D3A21461A485AF7CCFA19
:10076000002101704DF74AFB002010BD70B51846FE
:100770000C46134A014601230C3A12485AF7BCFAB8
:10078000227852214A43164900230D685219FF323C
:1007900041325382227852256A430D685219FF3242
:1007A0004132938222785224096862435118FF3102
:1007B0004131CB82002101704DF720FB002070BD3C
:1007C00043FC000001080000A1F9FC07F4FBFC0752
:1007D00040000040E4FEFC07C3C3C3C3A5A5A5A514
:1007E0004CF9FC0770B518460C4601460123334A04
:1007F00033485AF781FA227852214A43314900237B
:100800000D685219FF3241329381227852256A4392
:100810000D685219FF324132D3812278522409687F
:1008200062435118FF3141310B82002101704DF7B5
:10083000E5FA0020C3E770B5184616460D461F4A74
:1008400001460123D21C1E485AF756FA044628884E
:10085000032800D3032048F7F5F8002805D000212D
:100860002170A9786430C17701E012202070204601
:100870004DF7C4FA002130465AF76FFC00209EE77E
:10088000F8B50E4610491C4615460020C2008A5A8B
:10089000A24209D1C00040184768002F07D02A465D
:1008A00031461846B84702E0401C1828EED32246CD
:1008B0003146284601F01EFEF8BD000038FC00005D
:1008C000010800004CF9FC070C3CFC07064C012514
:1008D000064E05E0E36807CC2B430C3C98471034E8
:1008E000B442F7D3FFF718FC9842FC07B842FC0764
:1008F00001480121018070470E150050074800880B
:10090000010703D5E949CA89521CCA81C00703D02F
:10091000E6488189491C81817047C046B410004077
:1009200010B5914808210180134CA18B608B60F7B2
:10093000F5FB5EF736FF11484188890703D04188EF
:10094000032291434180018880220A430280018969
:1009500004229143018181898907FCD541F7E1FC9B
:10096000A06A0749086007480168490700D500BE2A
:1009700001684907FCD510BD00CFFC0708000050F6
:100980000802004010000040F8B500250095134E05
:1009900013497160B560316804220A433260EFF395
:1009A0001084012787F310883946814089B20D48A9
:1009B000FFF7E0FB00903068B8433060002C02D0B5
:1009C00087F3108801E085F3108800984142414187
:1009D000B64A91700249081AF8BDC04610E000E01E
:1009E000FFFFFF000030005080B50A2000F016F82D
:1009F00080BD80B50B2000F011F880BD80B50C20C3
:100A000000F00CF880BD80B50D2000F007F880BD27
:100A100080B50E2000F002F880BD000010B504463D
:100A20005FF7C6F8E0B2012181404E48016010BD79
:100A3000F8B5044601273E0205200507688DC0056C
:100A400006D51B205EF7EAFE48480188394301803D
:100A50008036288840013040698A454A0A4002436E
:100A60006A8221681148016061684160A168816003
:100A7000E168C1602169016161694161A1698161C8
:100A8000E169C16104623C490A6842624A68826263
:100A90008A68C2624A690263CA68426309698163FB
:100AA000A88AC00600D4FEE700BEF8BD00F8FC0727
:100AB000024800882B481021016070472C13005019
:100AC000F8B5044605200507288A04210143298238
:100AD00028894021014329812248012707602248B3
:100AE000082101803E02688DC00506D51B205EF7F7
:100AF00095FE1E48018839430180803628884001D0
:100B00003040698A1A4A0A4002436A8221681948B9
:100B1000016061684160A1688160E168C16021692C
:100B2000016161694161A1698161E169C161046239
:100B300011490A6842624A6882628A68C2624A69E6
:100B40000263CA68426309698163A88AC00600D447
:100B5000FEE700BE688A094908404018001D688207
:100B6000F8BDC04680E200E0003300508000005035
:100B70007FFE000050F8FC0728ED00E0FC7F00003D
:100B8000704770474949CA6A002802D0824200D99A
:100B9000C86A0A6B904200D9086BF24A1080487804
:100BA0000221814004484843002803D000BF00BF11
:100BB000401EF9E77047C046F1060000704700008C
:100BC00010B50F4CA1880F200840022806D0042839
:100BD0000BD00C280CD00128F4D110E02088022181
:100BE000884320802088802106E002F015FFE9E795
:100BF00002F012FF2088012188432080E2E710BD27
:100C00000411005080B55EF7CCFD19480188090534
:100C10000CD518490A8805231340052B06D10888EE
:100C2000042202430A80088801221EE00188C906C6
:100C300006D511498A88D20702D00A88120610D434
:100C40000088C0060CD50C488188890708D5018822
:100C5000C90505D5022181800188084A0A40028021
:100C600080BD01208880088880229043088080BD54
:100C7000040000500002005000010050FFFE000080
:100C80007FB507A101AB1A4670C970C27C217A4AB0
:100C9000515A09091971C4490A3160F7F5F87FBD45
:100CA0005BB005020000000032000000DC42FC07DF
:100CB00010B5016800290CD5036802680124A40757
:100CC00000688000800C00195B0001D4028000E005
:100CD0000270C80F10BDB0B50C460025202D04D001
:100CE00041F70DFE60556D1CF8E70020B0BD000017
:100CF000B0B5044609480A4D402229465CF758FB26
:100D000048350848302229465CF752FB0648001B4C
:100D10000649088014304880B0BDC04670E0FC072A
:100D20007C37F207B0E0FC07B8E0FFFF78E0FC0793
:100D3000CA481E214180018803220A43028001889B
:100D400004220A4302809948012101707047C0467D
:100D500080B50D480078C00708D105205AF712FA6F
:100D600000280FD12A200A49085C04E00748417D89
:100D7000012907D1007D41424141C21E50425041EC
:100D8000084380BD002080BDC5F9FC0714FDFC07A9
:100D9000BCFCFC0780B5034801688448401C5EF732
:100DA00037FA80BDD442FC07074801680A4A127826
:100DB000002A02D1054A114003E0054A1140054AC4
:100DC000891801607047C046B810004077F7FFD51A
:100DD00077F7FFC08808002A4DCCFC07704780B524
:100DE0005EF7BAFA80BDF8B56946C870020A8A7023
:100DF000020C4A70000E087008465EF795FA8FBD27
:100E0000BCB51C460D46B448174A0223214659F783
:100E100073FF04462A781548009005200625002A0D
:100E2000014600D02946002A2A4600D00246104832
:100E30000088C00500D51146684641700D490191F2
:100E4000FFF71EFF23205EF791FC60F769F80A495F
:100E50002A4660F7E1F8054660F752F825802046FB
:100E60004CF7CCFF0020BCBD1AFE000001050A00B3
:100E70002A00005000030101C0CBFC0710B5194641
:100E80009548044A0024234659F736FF4CF7B6FF2D
:100E9000204610BD07FE0000FEB51C460F46F04878
:100EA0001B4A0223214659F727FF04463878019050
:100EB000B8780290FD787F7838465EF797FD064651
:100EC00028465EF793FD30400121414021802046B5
:100ED0004CF794FF2088002818D10E485EF746FC96
:100EE000324EF07B00242146224623465EF754FD15
:100EF000707C2146224623465EF74EFD0198394616
:100F0000029A2B4602F000FE02F096FB0020FEBD86
:100F100009FE0000E204000010B51946D048054A59
:100F2000012359F7E9FE002404704CF767FF2046BF
:100F300010BDC0461CFE0000B0B51D460C467F200B
:100F40004202C7480423294659F7D6FE21785F2973
:100F500003D0332901D10349098801604CF74EFFC2
:100F60000020B0BD0200005010B51946F0480D4AEF
:100F7000082359F7C1FE0446F048807902280ED1B3
:100F800002F0C6FC0948816C2180416D6180016DD1
:100F9000A1804830008AE08020464CF72FFF0020D7
:100FA00010BDC0460DFE0000DC42FC0700CFFC0770
:100FB000F8B51946DE48264A0124234659F79CFE17
:100FC0000546244E378827400FD130882043308093
:100FD0003088282101435020814331803088062108
:100FE000014331801C485EF7C1FB3088C00701D146
:100FF000FF2021E00095194D68886C802888082121
:1010000088432880288802210143A1432980288819
:1010100004210143298000262888400706D5632E35
:1010200004D864205EF7A2FB761CF5E7288840030D
:1010300000B2C013009D074E2870002F02D13088E7
:10104000A043308028464CF7D9FE0020F8BDC046AA
:1010500016FE000022000050400D03000016005054
:1010600070B51946F0480C4A422359F745FE04462C
:101070000E250570801C094E31462A465CF798F90A
:1010800065702046223031462A465CF791F92046A9
:101090004CF7B4FE002070BD08FE00007842FC074B
:1010A000B0B51C460D46E0480C4A0123214659F7CD
:1010B00023FE04462D7828465EF798FC002803D0CE
:1010C00028465EF787FC00E0FF20207020464CF7A2
:1010D00095FE0020B0BDC0460108000013FE0000D0
:1010E000F0B585B00C46F1485E4A012619463346F4
:1010F00059F702FE0290A0780490E57820790190DB
:1011000060790390277838465EF770FC627800219A
:10111000032A12D87040920002A39B580A460C463C
:101120009F46C0465311FC073511FC074511FC07CB
:101130004D11FC070122140206E0012044020022A6
:10114000304606E001225402002202E0032214028B
:1011500032460094049B012B334600D80B46012DE8
:10116000344600D80C4603996429314601D814400E
:1011700021460029314600D11946002900D10646F2
:10118000FF24002E63D1384601F032F9384601F0D1
:101190004DF9019E002E17D0012D25D0002D029D66
:1011A00056D13148418B01229143418351020024A1
:1011B0003846224623465EF7EFFB0499481E8141DC
:1011C00038465EF7FBFB43E0681E43424341002480
:1011D0003846009922465EF7DFFB0499481E81419C
:1011E00038465EF7EBFB32E0032529021722002484
:1011F000384623465EF7D0FB0499481E81413846A5
:101200005EF7DCFB4F48018808221143018001880A
:1012100029430180144D688B10436883688B042137
:10122000884368837D20C100714310485CF746F80D
:10123000401E288028886C80411C03984843642104
:101240005CF73CF8E881688B012101436983029DCA
:101250002C7028464CF7D2FD002005B0F0BDC046EA
:101260000108000012FE00000834005080841E00B7
:10127000FEB50E46B7482F4A012519462B4659F7A9
:101280003BFD02907478367830465EF7AFFB074638
:10129000304601F0ADF8002E02D12748012101802F
:1012A000022C00D300252F423BD0244F0020019078
:1012B000F8713E727C7201253D70F879387A03240A
:1012C0002602102231462B465EF766FBF879387A03
:1012D000797A4A1E91415EF771FBE943184802880A
:1012E0000A400280174A938B0B409383118808238E
:1012F0000B43138011882143118001990180FF2144
:101300000906114A13688B43E90759181160E8363A
:10131000468086800D49C18001882943018002985A
:1013200002E0FF21029801704CF768FD0020FEBD2D
:101330000108000017FE000000030050DC42FC071B
:1013400000340050040000500CE400E0FFFF0000F7
:10135000FEB51C460D467F48184AF223214659F730
:10136000CBFCAC781221002C22D03C2C20D82A882F
:10137000FF21C90455180190471D0094002C14D07A
:1013800002AE04222846314601F054FFF81E0299AD
:101390000170B81E71780170781EB1780170F07814
:1013A0003870641E2D1D3F1DE8E700210198009C48
:1013B000447001704CF722FD0020FEBD04FE0000C9
:1013C000BCB51C460D466348184A0723214659F709
:1013D00093FC044600200190009028782070032898
:1013E00007D002281AD1611C1248062201F022FF00
:1013F00014E06879A9790902081801902879000693
:10140000E97809040818A978090240186978401891
:10141000009007486946022201F01DFF20464CF764
:10142000EDFC0020BCBDC0460108000003FE00002A
:10143000D42F0000D42FF807F0B585B01C460E4617
:1014400044481B4A0223214659F756FC0446002112
:1014500003910291B7781220002F1AD03C2F1DD88B
:10146000F51C01963688002F15D0E8780006A9787B
:101470000904081869780902401829784018029070
:1014800002A90122304601F0E6FE7F1E2D1D361D09
:10149000E9E70F4602E00198877800206770207026
:1014A00020464CF7ABFC002005B0F0BD0108000061
:1014B00005FE000010B5194626480A4A01242346B5
:1014C00059F71AFC002101704CF798FC06480821D6
:1014D0000180064844800521018001880906FCD16D
:1014E000002010BD1DFE00000233005000310050EE
:1014F00010B519461748044A0024234659F7FCFB47
:101500004CF77CFC204610BD0AFE0000B0B51D461D
:101510000C46FD48104A0823294659F7EDFB0021E7
:10152000417022780270032A10D861687A441279D7
:101530005200974401030609096803E0A2680A60A3
:1015400004E00988416001E0A2680A804CF756FC7B
:101550000020B0BD0108000006FE0000F0B589B013
:101560001C460D46FB48E94A0223214659F7C4FBB5
:1015700004462878F94EB77C012800D100E1002804
:1015800000D0B6E1E8785EF731FA002800D1AEE18C
:1015900068795EF72BFA002800D1A8E1E8795EF7B8
:1015A00025FA002800D1A2E1687A5EF71FFA002828
:1015B00000D19CE1687B002805D0E87B5EF716FA35
:1015C000002800D193E1E878D54EB0476879B0475C
:1015D000E879B047687AB047687B002802D0E87B9A
:1015E00000F006FFA8780028DC4E02D1E878002839
:1015F0001AD02879002802D16879002814D0A87957
:10160000002802D1E87900280ED0287A002802D1DB
:10161000687A002808D0687B002809D0A87B0028B9
:1016200006D1E87B002803D10120B07401F0C6FF89
:10163000E8780023B64A0B28194601D84000815AA1
:1016400068790B28049302D84000805A04900391D3
:10165000E8790B28194601D84000815A0291697A2D
:101660000B29184601D84800805A0190E87B0B28C6
:1016700001D84000835A0593A6488171297A4171A7
:101680000178012206921140027992080E2313403C
:10169000591831735EF77AFEE87803210902089140
:1016A0001C22002307939F4EB04768791A2207999E
:1016B0000B469C4EB047E8791B220899079B994E30
:1016C000B047687A1D220899069B964EB047687B02
:1016D000002806D0E87B06994902002213465EF7EF
:1016E0005BF9687801280CD1E87A0890AE7A02F0AC
:1016F0002DF930465EF78CFE08985EF789FE5EF79E
:1017000079FE02F04BF9AE7A02F020F980203043E6
:101710005EF77EFE00205EF77BFE06465EF76AFE01
:10172000F0B22080687B002807D04B2080005EF755
:101730001DF8E87B5EF74EF92080E8780B28874E8D
:10174000734902D84000039A425268790B28059ADF
:1017500002D84000049B4352E8790B2802D840008D
:10176000029B4352687A0B2802D84000019B4352E7
:10177000A87B0B2801D8400042525EF7D5FDB8E0A7
:1017800068795EF733F9002800D1B0E0E8785EF7B9
:101790002DF9002800D1AAE0687B002805D0E87B5D
:1017A0005EF724F9002800D1A1E0687900F020FE5E
:1017B000E87800F01DFE687B002802D0E87B00F08E
:1017C00017FE2879002802D1687900280ED0A87861
:1017D000002802D1E878002808D0687B002809D0CA
:1017E000A87B002806D1E87B002803D10120B07433
:1017F00001F0E4FEE878002245490B28134601D8A1
:101800004000435A68790B28164601D84000465AD2
:1018100006960793A87B0B2801D84000425A0892ED
:10182000297B3C48818208305EF7FCFFE87800267F
:10183000092231465EF78EF868790A2231465EF752
:1018400089F801204602687B002805D0E87B002249
:10185000314613465EF7A0F8334668782F4E0128CC
:101860000ED1E87AA97A32885207FCD52A4A11802B
:101870001843108030884007FCD530888006FCD49F
:1018800002F08CF8A87A31884907FCD5224A1080EA
:1018900030884007FCD50320000210801C493089A5
:1018A0008006FCD01088C0B22080687B002808D059
:1018B0004B2080005DF75AFFE87B5EF78BF81449F8
:1018C0002080E8780B28AE4E02D84000079A42529A
:1018D00068790B2802D84000069A4252A87B0B2850
:1018E00002D84000089A42525FF702F801E0FF2058
:1018F0002080B77401F062FE01F08CFE20464CF7A8
:101900007DFA002009B0F0BD0108000011FE0000C2
:1019100006300050B842FC071013005070130050FE
:10192000F123FC0799F9F107B0B51D460C46E448D0
:10193000094A0123294659F7DFF905462078E64987
:10194000887401F03BFE00242C7028464CF756FAB0
:101950002046B0BD010800001EFE000000CFFC07BD
:10196000B0B51D460C46E748074A0123294659F7FA
:10197000C3F9002505704CF741FA20780349087037
:1019800040F75EFE2846B0BD1BFE00004CCCFC07B5
:1019900010B51946DB48054A012359F7ADF9002473
:1019A00004704CF72BFA204610BDC04618FE00000C
:1019B000F8B50E465148524D012419462A46234691
:1019C00059F79AF9002707704CF718FA4AF7C7FE3B
:1019D0003078022816D0012807D0002800D08BE0EC
:1019E0005148C7705348077086E002F01DF846481A
:1019F0000770B07871780A46024357D14A480221ED
:101A000001715EE002F010F83E4908200090088065
:101A10003D490F7072B63D4EB28904210A43B2812E
:101A2000B28880239A43B280B38840221343B380A4
:101A3000374B19803388374818403080F843364B8D
:101A40001860308AC006FCD47E35F0892840F081C9
:101A5000E543324B988828409880314807680F4307
:101A60000760B08A20430227B843B082B08A084397
:101A7000009FB843B082B0892043B08118882840C5
:101A800018800F2080029D8A05439D82A0039D8AB5
:101A900005439D82F08CC005224D17D4A8882043B1
:101AA000A880288860229043288017E01E4A14717D
:101AB0001E4A4A4319218901414388181C49096873
:101AC00048621948C4701B48047015E02888202417
:101AD000044394432C80988A10439882988A032266
:101AE00002439A82988A38439882988A88439882D7
:101AF00000BF00BF00BF30BF0020F8BD02080000DB
:101B000001FE0000003300504ECCFC0704000050E2
:101B100000020050FFF7000080E200E00C030050DC
:101B200010ED00E05200005018FAFC0700770100A9
:101B300058F9FC0778FAFC07BCB51C460D46B348BB
:101B40000E4A0023214659F7D7F804462878B54DA8
:101B50002871A87900280BD15F48483012215BF723
:101B600040FC297901A8017048F755FA0220A871B4
:101B700020464CF743F90020BCBDC0460CFE0000D7
:101B800000CFFC07B0B51946A0480A4A00242346F6
:101B900059F7B2F80546A3488079052808D101F025
:101BA000E5FE01F0B5FE9D48046028464CF726F995
:101BB0000020B0BD10FE00007CB51C460D469348C9
:101BC0001D4A0023214659F797F804462878954E78
:101BD00030716878F070B079002828D101AD2520E7
:101BE000687030792870F078A870FFF7DDF8284623
:101BF00048F797F90120C20388490B6813430B602B
:101C000082030B6893430B6002030B6893430B60E2
:101C10000A680A4B13400B600521B17101027D4A2D
:101C20001160BFF34F8FBFF36F8F7D49087020465F
:101C30004CF7E4F800207CBD0FFE000000FEFFFF23
:101C400080B50878774A1071487850718878D070DC
:101C500008790002C9784018108201F03BFE00208C
:101C600080BDC046B0B50C461548164A0125194638
:101C70002B4659F741F82178052900D80025057031
:101C80004CF7BCF84AF76BFD7D205DF76FFD2078BF
:101C9000052804D80CA1095C0DA2105C01E00B2101
:101CA00008200D4A1175D074032240F7FFFC002470
:101CB000204640F757FD40F71DFD2046B0BDC04609
:101CC0000108000015FE00000301060B00010000E2
:101CD00068341108011A000000CFFC0770B50C46EB
:101CE000FC48094A642519462B4659F705F806466B
:101CF00021462A465BF75CFB30464CF77FF8002014
:101D000070BDC0460108000014FE0000FEB50E467E
:101D1000F0483F4A002519462B4658F7EDFF044688
:101D2000307854282ED0522812D04F286CD101F090
:101D30001DFE3C4EB079062858D007285AD101F034
:101D4000E7FD0120C00735490A6882430A6051E077
:101D5000012528022F490860BFF34F8FBFF36F8F13
:101D60007678FFF721F802A8067048F754F92A4858
:101D7000401C2A490A6802430A602948057029481C
:101D8000072131E00127380222490860BFF34F8F55
:101D9000BFF36F8F70780190FFF706F8224D284649
:101DA000FEF786FF0C20061D342E05D02818FEF7FE
:101DB0007FFF00283046F6D13820061D582E05D06A
:101DC0002818FEF775FF00283046F6D11748032182
:101DD00001701748019A1018164A106016480160E1
:101DE0000F4807700F48062181710AE0124805600C
:101DF0005FF706FC012000021049086010490860E6
:101E0000B57120464BF7FAFF0020FEBD0108000027
:101E10000EFE000080E100E0FFFFFF7FE0000040D9
:101E20004DCCFC07DC42FC0770E0FC0705100040CD
:101E30000001620904300040AC10004000E100E005
:101E400080E200E0F0B58DB01A460D46A148A24EE2
:101E5000022311463246059358F74EFF044629786F
:101E600007291BD86878AA781202121879440979D0
:101E700049008F4415181B2E394403039749FE2847
:101E800009905DD100200E460C2853D00A880F23FC
:101E90001340012B52D0891C401CF5E70026D1E1EC
:101EA0008F48008830E08E4802802CE08C48018A00
:101EB0000122120280320A40802A06D1418AC906D4
:101EC000FCD47D36018A3140018203200002401D8E
:101ED00017E0264690B2FF210C1A81490B8800209A
:101EE0009C420ADB9A1807E026467D490B8894B28B
:101EF0000020A34201D39A1A0A80344604E001204C
:101F0000400276494881002020800026FD49C87B98
:101F10000A7C8B7B934205D1497C884202D1002008
:101F20000990BAE1032109020222002309935DF717
:101F300033FDB2E10C200990FF2000E0099031460A
:101F4000C7B200260C2F01D3304601E078004018BC
:101F50000B2F04902ED8029506880998C5B2284602
:101F600000F046FA284600F061FA002D0DD1F14844
:101F7000817B002909D1C07B002806D101204102C4
:101F80000020024603465DF707FD03940120009000
:101F90000002049908800299897800220C920B9221
:101FA00001920A92002907D001293FD1AF22930064
:101FB000D64A03E0042043E1D34AFA23D44D0A244D
:101FC000EC622B63AA63EC6314222A646E226A64B7
:101FD000EA6AEA642A6B2A656970696C69630B2F87
:101FE00024D8B90001A251588F46C0461D20FC07D5
:101FF0003520FC074520FC075520FC076520FC0721
:102000007520FC078520FC079520FC07A520FC0710
:10201000B520FC07C520FC07E520FC0703210902C9
:10202000B74B1A888A4302431A8062E0029D039CE0
:10203000019805E103210902B14B5A888A43024302
:102040005A8056E003210902AD4B9A888A43024325
:102050009A804EE003210902A94BDA888A430243A1
:10206000DA8046E003210902A54B1A898A4302431C
:102070001A813EE003210902A14B5A898A43024397
:102080005A8136E0032109029D4B9A898A43024313
:102090009A812EE003210902994BDA898A4302438F
:1020A000DA8126E003210902954B1A8A8A4302430A
:1020B0001A821EE003210902914B5A8A8A43024385
:1020C0005A8216E0032109028D4B9A8A8A43024301
:1020D0009A820EE00108000002FE00000630005067
:1020E0000200005003210902854BDA8A8A43024329
:1020F000DA82039C686BFEF745FD3846FEF744FC28
:102100000A900A98A96B884205D30A98A96B401ACD
:10211000E96B884219D90A98A96B884205D2A86B45
:102120000A99401AE96B88420FD90A98A96B88422C
:1021300013D9286D0790286DFEF724FD3846FEF769
:1021400023FC0C900020089012E034352868411CD4
:1021500074D0801C029D5FD06AE7E86C0890E86C40
:10216000FEF710FD3846FEF70FFC0B90002007909D
:10217000002406960A9AAB6B686B0A999A4202D9B8
:102180000B91089001E00C9107903D466048806BF0
:102190000B9B0BA90CAA0C9EB3420B4600D3134613
:1021A0001B680B9E0C9FBE4200D811460A68D11ACC
:1021B000121A089E0798801B50435BF795F8801908
:1021C000534E7063706BFEF7DDFC2F463546384684
:1021D000FEF7DAFB0A900A98B16B8842069E05D397
:1021E0000A98A96B401AE96B88420DD9601C0A99BC
:1021F000AA6B914205D2A96B0A9A891AEA6B91429D
:1022000002D9092C0446B5D3A878002806D00020AE
:10221000FEF7B8FC029D039C059811E00A98A96B93
:10222000EA6B891A8842039C05D30A98A96BEA6B6A
:102230005118884253D90020FEF7A4FC029D009853
:1022400020802978FE200840062822D10220304331
:102250001F21014003291CD1069603942E462E4CC3
:1022600025460998C7B238465DF7B4FB002804D06C
:102270006D1CF6D301E0641C04D238465DF7AAFB5E
:102280000028F8D07D2000015DF770FA3546039CE8
:10229000069E0998000600D138E620464BF7AEFDB1
:1022A0002878FE210140062916D1022030431F2143
:1022B0000140032910D1194D0998C4B220465DF799
:1022C00089FB002803D1681E29040546F6D104982D
:1022D000002801D00498068000200DB0F0BD0D4804
:1022E0000088A864A86CE96A884202D8A86C002813
:1022F000A4D1A86C296B8842A0D2483526E7C046F5
:102300000630005000CFFC0700127A00007C9200DB
:10231000DC42FC0702000050E708C9FFB68C000051
:1023200080B559F749FA49F7BCFEDF4801214173EE
:1023300080BDC04600CFFC0700BE704780B50E4888
:1023400000686821415A52224A430C490968891899
:10235000AF225200895A090A6830C07D081AC0B2FB
:1023600001F07AFB002047F76BF8CF480421417356
:102370005FF746F980BDC04648FBFC074CF9FC07F7
:1023800080B5012047F75CF880BD80B549F789FE2C
:10239000FEF7CEFC80BD000080B504480068B02187
:1023A000405C01F059FB47F797F880BD58F9FC07EE
:1023B00080B50D4801880122914301800B480078C7
:1023C000C00702D140F77EF904E0002040F7CAF9C7
:1023D00040F790F959F7D4F940F732F9FEF7A8FC25
:1023E000B1480021417380BD08330050C5F9FC0796
:1023F0000C490A8802280DD0D205920F052801D178
:10240000012A07D0012801D1022A03D00A2808D1C5
:10241000032A06D14888C006FCD40888024A024034
:102420000A807047120000507FFE000080B500282F
:1024300014D19D48817C022910D0C17B827B134638
:102440000B4301D102238374037C934204D1427C69
:102450008A4201D10121817401F0B0F880BDC046EB
:10246000FEB51446002918D005460127002B17D0C9
:10247000CA182388002D18D0087828706E1C0220F6
:10248000002B0FD002938B1C93420AD84B783370E9
:10249000029B012B0ED8AE1C04E00021084602E08E
:1024A0002E463846711B2180FEBD881C01269042B5
:1024B0003046F7D88E1C48788006000E02903146D0
:1024C0003018AE1C9042ECD8002D0CD0E8180190CA
:1024D0003046029F3A465AF76BFFF019019988423D
:1024E00003D8002002E0002001E001204000029912
:1024F0007618D7E770B51346024600200E4C102818
:1025000008D0255A9D4201D00830F8E720184468C9
:10251000002C0DD10020094C0546F02D0AD0665B39
:102520009E4201D00835F8E764196468002C01D098
:102530001846A04770BDC0468842FC07343DFC07E2
:10254000FEB51446002905D005460120022B04D211
:102550002E463FE0002088213DE02288AF18002D64
:1025600009D002970E784F786F702E70012A06D826
:10257000AE1C02202EE0032B05D202262AE0032BFC
:1025800003D2AE1C26E08A7805E08A78AA70EE1C99
:10259000029FBE42EDD80297CB180193C91C920648
:1025A000120E8B180093EE1C019B009F9F4211D8C6
:1025B000002D09D0304617465AF7FAFEF019029A54
:1025C000904204D8002003E00020174601E00120DB
:1025D0004000F619711B2180FEBD000080B5324815
:1025E000093006495EF74EFB80BDC04680B52E48D7
:1025F000093002495EF79AFA80BDC0464043FC07A5
:1026000070B5174EB06800F02DF82749CA6A00234C
:10261000CB621518084C284621465AF74FFE7061C8
:1026200006494143481901D0201A80B23061306810
:1026300008210143316070BD710200008FFDFFFF72
:1026400080B506480021016001F010F90120C007A3
:1026500003490A6882430A6080BDC0469CF9FC07B2
:102660003000004080B50246C00B09D00E48C06B58
:1026700000210B465AF74CFE8905800A401880BDA0
:102680000948C06B4243900A80BDC04680B5FFF741
:10269000E9FF80BD80B50449896B414303480818B0
:1026A00003495AF70BFE80BD00CFFC0720A10700AD
:1026B00040420F0000B5A1B0FA4808210B910180FB
:1026C000F94F388817AC20802088C046C046208843
:1026D0000422D1430842149202D00020388003E043
:1026E000B88901218843B881F04E30880B9D28437A
:1026F00030800124200211902C305DF737F870886B
:1027000080210A91084370800F208102BA8B0A430E
:10271000BA83F18D06239943F185A103BA8B0A434D
:10272000BA833188E24A0A4032807188079319439C
:10273000A9437180052109910D076A8DDD4BFF3397
:10274000F18D19407D23DB000703D0050893139713
:1027500016941CD5184618300143F185F08DD649E2
:102760000140E0030818F085CF4FB88B0B99084360
:10277000B883B88B149B9843B883F08DA043F08541
:10278000B88B40210143B98332463E4622E0032004
:1027900042021143F185F18D3943F185C24FB98B66
:1027A0000B9A9143B983B98B04229143B983718801
:1027B000C24A0A4072807188C14A0A40C002101899
:1027C0007080F08D2043F0853246149B3E46688D24
:1027D0004007FCD5B08B032110910843B0831088CB
:1027E00020210E910843402188431080288F022623
:1027F00030432887B3480380A888B3490140A980A3
:10280000B24F169C7C702004B1490860FFF7EEFEC1
:10281000159630465EF752F9AE480068C1B20C20FA
:10282000AA29014600D014992A8882438818288052
:10283000C046C046A8480088B886A84800683863E3
:102840002046C046C0468826A5480027875318ACB6
:10285000A4A1242220465AF7ABFDAB49A0483A4632
:1028600023465CF703FE9E4B985DC10701D000BE76
:10287000985D400898558920195CCA07089A01D0CC
:1028800000BE195C490819548420195A002900D146
:102890001A528621585A002816D1FF2002028D486C
:1028A0000068104035221202904209D00D22920297
:1028B000904203D033221202904204D1942000E0CF
:1028C0009020585200E00020804E70835CF7B8FCE6
:1028D0007F20B0707F4880698C498861FFF77EFE59
:1028E0008B49888850220D921043AF220C9290435E
:1028F00088808848006888498842099B00D0C7E0E2
:10290000864887495AF76DFD0720059001028548E2
:102910005AF767FDFDF7E8FC834884490160844865
:1029200084492A225AF744FD83480026C6718671DD
:1029300046710671C670867046703F21069101701F
:102940007E487FA140220F925AF732FD8C48C67113
:10295000867110994171FF210171C17081704170C0
:10296000017009204201874887495AF721FD172045
:10297000C04316991296139F00280DD081490A185A
:102980002723DB00D21881A10B18183352CB52C277
:10299000129E16990C30EFE7119B3833814A1E20A6
:1029A00000280FD0149077481946C3181446C1CC9C
:1029B000C1C314980B46139F129E1699401E0C33E8
:1029C0000C32EDE739200A46594948856D48C862FE
:1029D000754802707548764901607648764901600D
:1029E00076497748086077480A2101707648067072
:1029F0007648099901607648026076480160764819
:102A0000079901607548059C046075480B99016041
:102A10007449424808601198801D734908607349E1
:102A2000086000F07BFC5CF739FB5CF77DFBFF374F
:102A3000E88C384061020143E9845CF791FB35483A
:102A400000686B4A34498842664834462F4E00D1AC
:102A5000E7E000689060B069B074010E7175010C18
:102A60003175000AF0741198C03062490A46002896
:102A700000D1C3E0401E435C16783746109C2740C7
:102A8000224CE719BF7C5F4077401770521CEEE77D
:102A9000594858495A02974200D931E73A587A5072
:102AA0003F1DF7E700330050040300505200005070
:102AB000FFBF000000F0FFFFFF0F0000FFF9000064
:102AC000FFC7000000020050FFF7000000CFFC0726
:102AD00080E200E0D02FF807D82FF807D42FF807AE
:102AE000C0CBFC070533FC07D932FC078532FC0755
:102AF00000000000B132FC070000000000000000F0
:102B0000D02EF807C02FF807A000FC07DC42FC0716
:102B1000001500509CF8FC076587341200E0FC07A4
:102B2000AC14000000F9FC0724FAFC078C3FFC07FA
:102B3000C8F9FC075CDEF107A4F9FC073CFCFC07C4
:102B40002000800000C000000000040000002822D7
:102B5000000000000000040000F7FFFF7F000000FD
:102B600030F0070800000000000400000000000032
:102B70000000000000000000000000000000000055
:102B8000ACF9FC0750CCFC0724DDF10700FD070081
:102B90006142FC075D42FC0701FD07006142FC0742
:102BA0004842FC07243EFC07C5F9FC0750F9FC0726
:102BB000E036F20754F9FC07AC40FC0758F9FC0773
:102BC000A43FFC07A1F9FC07A2F9FC075CF9FC078C
:102BD00060F9FC0764F9FC0768F9FC076CF9FC076D
:102BE00070F9FC074CF9FC0748F9FC0744F9FC07AD
:102BF000000200405CCFFC0700F0FC07EA4E3746BD
:102C00005437EA491C2238465DF74EF9002800D0B7
:102C100000BE38465CF788FBE548E6490160129C37
:102C2000E54800683FF716FBE4480471C470169F3E
:102C3000B9070868119A104314910860FEF778F8F4
:102C4000384600F0CFFBB4711598F0703471252030
:102C5000707132203082D948C470D9480470F48130
:102C6000D848483012215AF7BCFBD748401CD74AF5
:102C7000116801431160E88A0A9908430F99884353
:102C8000E882FFF7DDFC0F20FDF764FB780202907D
:102C9000069880020190F8031390CD48CD4908189A
:102CA000CD4940188008401E0990119C28890006D3
:102CB00000D4D9E01498006B1399084200D0D3E0F7
:102CC000BE480088C00700D0CEE058F7F2FC0027CD
:102CD000384600F087FBBB48407B042800D093E0D7
:102CE000169800F07FFB179717A8042149F730FBCF
:102CF000002800D188E01698B849086008680028C4
:102D0000FCD11498C069AF49096A884202D2AD4922
:102D10000F623946411AC909192975D3A94E306283
:102D2000AF49088807904888069088880590C88829
:102D300004901997AB48189018A8FDF7A1FF0898C0
:102D40001730A74A11890140F1825189014031832E
:102D50001089019E3040029908431081508930400B
:102D6000084350815EF784F903908F494989F84AF6
:102D7000D28AF9480389334013430381F44A128B02
:102D80004389334013434381089E0398401A3146D8
:102D90004143002804DCF74A8918C017084001E0C5
:102DA00070189630F4495AF79FFA82091932E84EA2
:102DB000B0787F281DD0101A41B2C9114840401A7E
:102DC00040B2082816DBE24E706A401C7062039223
:102DD0005EF700FC00F00CFA00F048FC5EF738FCEF
:102DE0005EF7BEFBDD4870305EF764FC5EF708FC02
:102DF000039AB270D8480699418005998180049958
:102E0000C18007990180D34EDC48806DB1790129DA
:102E100004D1002802D1B77100F05CFDF089318A3D
:102E200088420DD3B07901280AD1F781D4483946B8
:102E3000D44A3B4657F760FF4AF7E0FF00F068FDD1
:102E400058F737FC1598C043C7490978C91E814215
:102E500003D86420CC49086028E7CB4A1068411E9B
:102E60001160002800DD21E7FDF772FF002800D186
:102E70001CE772B617A9129A0A70BA48007902289C
:102E8000104602D0B6480068406A189037461C3792
:102E90003846BE4A5EF784F9002831D1BC48806AC2
:102EA000002803D0AE480068406A189000F0DEFCAD
:102EB00018A938465EF7AAF9002821D14BF7CCF9BA
:102EC00000281AD049F748FE002816D018A85EF747
:102ED000BFF9002814D101205CF76EFC189A002A73
:102EE00000D1D2E01498006AAA494018DA28BF4FEE
:102EF00000D9CCE0521E1892C9E017A80021017039
:102F0000994800780128159800D0109817A90978D9
:102F1000042900D00846811E02292CD2298A0427C0
:102F200039432982022830D0032872D19049086899
:102F30003843086084490889169CA0430881688A40
:102F4000102630436882688A38436882FFF74EFB58
:102F5000688A30436882099892490860EFF31080CC
:102F600084F3108829880A9A9143298000283BD04D
:102F700084F310883BE0012800D084E0FDF7E8FEF0
:102F8000002800D17FE030BF7DE0794908683843F0
:102F900008606D490889169A90430881688A102153
:102FA0008843688233E0C046DC42FC075CCFFC0704
:102FB0009CF8FC07658734124CF9FC0718FAFC07EB
:102FC00078FAFC0700CFFC07FFFF1F00000200405B
:102FD000C84100001001FC07030004F8FC00004099
:102FE0000015005001040000002080F31088688D57
:102FF000119C2042574E0AD00020EB4948720B200A
:103000005CF70CFC5149C88D169A1043C885002006
:103010002883688D204208D14C4A9088169908432D
:1030200090801088602188431080A88C169CA04353
:10303000A8840D205CF79AFB68892043022188430D
:103040006881A88AC00602D53E480B99018030BF2E
:10305000A88A3E4908880E9A10430F9A9043088028
:1030600000F05CF9D24988880D9A10430C9A90437D
:10307000888000203B49C8703B4908703C4908687B
:10308000B8430860119C62B610E60022E04FB88B8E
:10309000316A0818706237487E30149FFB6B03401A
:1030A0000B43FB63F86B3C490840B16A890201435A
:1030B000F96317A804210170F86B2C490840716A64
:1030C00049050818F8633548824200D300BED04F46
:1030D000386C796C00235AF71BF90903000D41186D
:1030E000B06A821C8A4200D0481E1E4909794A1ED5
:1030F000914146F761FB2A48C06A80471499139AA8
:10310000086B1042FCD0F24A10682042FCD01068D4
:103110000A99884310600B484089452804D8462105
:10312000084A5181081AF8623FF7CFF8E8498868E1
:10313000B86208680006FCD528890A998843288166
:10314000DEE6C04600330050040300505200005039
:1031500000CFFC07DC42FC070015005000E0FC0734
:1031600058F9FC0718FAFC0778FAFC07FFFF1F0064
:1031700010ED00E082FBFFFFFC08000074FBFC0781
:10318000010800000BFE0000D042FC07950DFC0773
:1031900000FEFC07C8FEFFFFFF03E0FF40420F00F8
:1031A000E4FEFC072000F40780B549F772FD00F04B
:1031B0001FFC80BD80B54AF77AFF00F019FC80BD86
:1031C00070B514460D46064691480179012906D18D
:1031D000007A03210902022200235CF7DDFB30465E
:1031E0002946224649F7D2FA70BDC04600CFFC07F7
:1031F00010B5E44C2078401C20700D490968C3B21A
:10320000454800225CF784FA2078401E207010BDEB
:1032100010B5DC4C2078401C2070C3B23E480449F5
:1032200000225CF741FA2078401E207010BDC04695
:103230004443FC0770B514460D460646FFF7D6F921
:1032400002205DF73BFC2846314622465AF7B0F88B
:10325000FFF7C4F970BDF8B514460D460646002CBC
:103260000FD0FFF7C3F9B108012228465DF7DAFC59
:103270000746FFF7B3F9002F03D0641E2D1D361D3E
:10328000EDE7F8BD70B50C461D4811188925224E92
:10329000705DC00030183030A2005AF789F8705DB8
:1032A00000197055C0B20D2800D300BE70BDC046D5
:1032B0001348115809234B431058000C1A1A1204D2
:1032C000D214154B60331A8489B2401A0104890C58
:1032D0000818401CD883704770B50C460848111870
:1032E00088250D4E705DC0003018A2005AF760F8B6
:1032F000705D00197055C0B20D2800D300BE70BDBE
:10330000D42EF80788001018024940587C21024A40
:1033100050527047D02EF807C0CBFC07F8B5D24EFC
:1033200001200090B07400F049F9727A1B201F4907
:103330005CF7CCFA1E4801888024214301801D4897
:10334000002707605CF72DFA1B4808220280052041
:1033500000078188214381800324E10103885B0108
:103360000B40418A154D0D40E91841821448072150
:103370000180144DAF802F8083202881F07C0028AD
:1033800001D0317D03E00B213175F27410462246E5
:103390003FF78CF92C8100F03DF90B480188009A29
:1033A00011430180F8BDC04600CFFC074043FC0735
:1033B0000015005000000840003300507FFE000060
:1033C00088100050041000500C030050034801887E
:1033D000034A11408918091D0180704712000050EE
:1033E000FC7F000080B501469F480278012A0ED17B
:1033F000084A002903D011884907FCD402E011884B
:10340000490704D40021017038305BF7C3FE80BD4A
:1034100000CFFC070016005070470000F0B58BB0DD
:103420003022002181541F221204204B1C68944337
:103430000122550464191C601E4C1F4D45611F4D2F
:103440001F4E204F204BC36106624462184B8362BB
:10345000C5621E4B07604360D004564A136883431D
:103460001360282903D001A84154491CF9E71948E1
:103470000068403001A9282259F79AFFEE48082138
:1034800001705EF7A7F8FFF7C3FEFFF7B1FE00F08B
:10349000EDF85EF7DDF85EF7EFF85EF761F82548C6
:1034A0005EF728F95EF7ACF80BB0F0BD7400004091
:1034B000DD34FC07D934FC076135FC073516F2070B
:1034C000810BFC073935FC073B35FC071934FC0739
:1034D000000200404CF9FC070020704770470000D4
:1034E00080B51F20000401218A07536F83434804DD
:1034F0001818506710680721884310600C4801882D
:1035000008220A4302805EF765F8FFF781FEFFF7A5
:103510006FFE00F0ABF85EF79BF85EF7ADF805487C
:103520005EF7D8F85EF76CF80F20FCF713FF80BD4C
:103530000800005070E0FC07704780B5E62800D313
:10354000E620282800D82820FF22EC3242437D20A4
:10355000C100104659F7B2FE7E38C0B280BD0000EF
:10356000022902D0012900D000BE002802D0FF2885
:1035700004D000BE022901D10C207047AE4800786B
:103580007047C0464CCCFC0780B50A480168C907A3
:1035900003D0016802220A4302600168490204D58F
:1035A0000121890502680A43026003485DF7E0FDD6
:1035B00080BDC04600020040DC3CFC0710B5EA4874
:1035C000807C012815D000281BD15CF715FB002456
:1035D00020465CF7C7F9002815D10120410220469A
:1035E00022465CF7B7F914205CF7C0F8084804805D
:1035F00010BD074801210180002006225CF7EAFA8D
:1036000010BD5CF7F9FA02480121018010BDC046E7
:1036100000030050B0B5074D2878002807D10020DE
:10362000012401460246234600F06EFA2C7000F099
:1036300003F8B0BD4ECCFC0710B5F54C607C012200
:1036400000210B465CF7A8F9E07B217CA27B8A4233
:1036500003D1617C884200D110BD032109020222FE
:1036600000235CF799F910BD00CFFC07FCB57F2063
:1036700000025E494A6982430B200002101848612B
:10368000086880B25A4A801808608869594A02401E
:103690008A610320019000020A6B02430A63888F4B
:1036A000102202438A878888012200921043888072
:1036B0005148524901605249088810430880514ED0
:1036C00030461038504DA98B01401520440108198F
:1036D0005030A88368694D4901404D480818686119
:1036E000A8694C490140092040020818A8612868CF
:1036F000494901404948081828606868484901401C
:10370000484808186860A8684749014047480818B1
:10371000A860E8684649014046480818E860C120AA
:103720004001454909780906081844490860052000
:103730008102434A11804F1D9780178C55203843D2
:10374000AA27B8431084FF276C373846C930108544
:103750003C4B18460E3090853B4810869386C01D22
:1037600010870A312985A86B384901403848081864
:10377000A86338480780028F324021462031521812
:103780000287354D2A883240D219D5322A80AA883C
:1037900032401219AA802A893240511829813946AB
:1037A000213181802D480188314009196031018023
:1037B000818A19220A4306218A43828207841F4A8A
:1037C000908F2749014000984003081890870C4AC1
:1037D000106C01990843042188431064506A214900
:1037E0000140214808185062FCBDC046203000400E
:1037F00000006666FF00FEFF8000004059055C0780
:10380000401000401FFCFFFF042000400000E0FFCC
:1038100009601A00FEE1FFFFE0E000000809294905
:1038200000000303696A686C031FFFFF70600000FB
:10383000E0E0E0E00B0A0A084CCCFC070010004076
:1038400028130040260A0000510800002304E0FE6F
:10385000181A06010012004044120040881200406D
:10386000FF9F000000FE00FE50015001F8B58420CB
:1038700013490E5AC14FBC6B304660431149401882
:10388000114959F71BFD0546B8833C3666430D4880
:1038900030180D4959F712FD001D2A4908622818F1
:1038A000C01D8862094A1278022A01D1113088624B
:1038B000FEF7D8FE0649401880B257F78BFFF8BDD7
:1038C000C0CBFC0720A1070040420F0078FAFC079C
:1038D000E2040000BCB51B4CA079002800D0BCBDA0
:1038E0000020E081217901A8017061794170E178BF
:1038F000817046F716FB144DA86D002805D101A86C
:1039000046F70FFB0028F7D0FEE70120A071BCBDF1
:1039100010B50C4CA079012808D0A079022805D058
:10392000A079052802D0A079072807D10648806D24
:103930003EF721FF0020014657F70FFC0020A07141
:1039400010BDC046DC42FC0774FBFC07054801883B
:103950002022914301808949097B0907490F81840D
:103960007047C0460012005000CFFC070120C10381
:10397000074A1160BFF34F8FBFF36F8F05490A8865
:1039800082430A80044801880822914301807047DD
:1039900080E100E0003400500400005010B51248EF
:1039A000026801218A430260FF2212064368134025
:1039B0000E4C1B1943608368134083600368022424
:1039C000A343036003680424A343036003680B4319
:1039D00003600368DB03FCD58368134083600268DF
:1039E0008A43026010BDC04610E000E02F75000061
:1039F00010B5624C2079012808D106485CF779FEA1
:103A0000207A012200210B465BF7C6FF10BDC0469D
:103A100000CFFC07001000500248018801229143AA
:103A2000018070470411005010B5544C607C002197
:103A30000A460B465BF7B0FFE07B217CA27B8A4203
:103A400003D1617C884200D110BD00210A460B469B
:103A50005BF7A2FF10BDC046F0B587B004469020CA
:103A600028490858069094200F5C444DA86CEE6CD1
:103A7000296D0591696D0491294648310191098AA2
:103A8000039122063CD02946FAB20A235343069AF0
:103A9000D3185A88D50611D07F231A40761C0D46BC
:103AA000CE64D30703D00499491C049169651207B9
:103AB00021D50599491C059129651CE0DA88002863
:103AC00012D0451C02960E468D6403994143D0B234
:103AD0000818294659F7F2FB0199088280B2039031
:103AE00028463546029E06E001200D468864D2B283
:103AF000019903920A82641E7A1C07271740C0E7C7
:103B000007B0F0BDA4FAFC07F8B51D4616460C46F2
:103B100007460846FEF76CFC2846FEF769FC174B83
:103B20005D741E74DC739F73987C022811D0284644
:103B3000604031467940014348424841214639437B
:103B400001D0002805D0002801D1022000E000208B
:103B50009874FFF733FDB7420BD1AC4209D1074847
:103B6000047201220271002120460B465BF714FF0C
:103B7000F8BD002001490871F8BDC04600CFFC0720
:103B800010B51946FD2002020E48022357F7B4F87B
:103B900090214170002404704AF730F9204610BD8E
:103BA00010B519460748084A032357F7A5F8FF211F
:103BB000817091214170002404704AF71FF920465A
:103BC00010BDC0460108000001FD000002E008C869
:103BD000121F08C1002AFAD170477047002001E087
:103BE00001C1121F002AFBD17047000080B50248B6
:103BF0005AF772FF80BDC046A000FC07000000001D
:103C0000D43CFC07D842FC070100010001FC000085
:103C10001704FC0702FC00003104FC0703FC000051
:103C20004D04FC0705FC00006904FC0706FC0000CD
:103C30008304FC0707FC00009D04FC0708FC00004F
:103C4000B704FC0709FC0000D104FC070AFC0000D3
:103C5000EF04FC0710FC00000905FC0739FC00001C
:103C60009D05FC073AFC0000DF05FC0711FC000085
:103C70002106FC0730FC00005B06FC0731FC00005D
:103C80008B06FC0732FC0000BB06FC0735FC00007D
:103C9000DF06FC0736FC00003B07FC0737FC000092
:103CA0006D07FC0738FC0000E507FC073BFC000043
:103CB0003708FC0712FC00004B05FC0741FC000024
:103CC000E303FC0743FC0000C103FC0705080000F8
:103CD0008108FC07CC3CFC070100000080000000CC
:103CE0008B23FC07020000009923FC07080000005A
:103CF0003D23FC07000100008123FC0700020000B7
:103D000075C1F007400000003794F0071000000074
:103D1000C97BF00704000000B123FC07010000008C
:103D20002123FC07200000003923FC0700000000CD
:103D30000000000000FE0000390FFC0701FE00003B
:103D4000B119FC0702FE0000451EFC0703FE00003F
:103D5000C113FC0704FE00005113FC0705FE000020
:103D60003914FC0706FE00000D15FC0707FE0000D5
:103D70007D0EFC0708FE00006110FC0709FE000034
:103D8000990EFC070AFE0000F114FC070BFE000070
:103D9000411CFC070CFE0000391BFC070DFE000057
:103DA000690FFC070EFE00000D1DFC070FFE000052
:103DB000B91BFC0710FE0000851BFC0711FE00006C
:103DC0005D15FC0712FE0000E110FC0713FE000069
:103DD000A110FC0714FE0000DD1CFC0715FE00000E
:103DE000651CFC0716FE0000B10FFC0717FE000063
:103DF0007112FC0718FE00009119FC071AFE000062
:103E0000010EFC071BFE00006119FC071CFE0000F0
:103E1000190FFC071EFE00002919FC071DFE0000FB
:103E2000B514FC0700FE07006142FC077642FC0760
:103E300001FE07005C42FC070000000002FE0700D4
:103E40004842FC076942FC0703FE07005242FC0798
:103E50005242FC0704FE07016042FC076124FC0794
:103E600005FE07024125FC075D42FC0706FE070030
:103E70006F42FC076B42FC0707FE070000000000D2
:103E80000000000008FE0700000000004E42FC0792
:103E900009FE07004B42FC076942FC070AFE0700C7
:103EA0006342FC07000000000BFE07005A42FC07BB
:103EB000000000000CFE07006142FC07000000004B
:103EC0000DFE0700000000006642FC070EFE070022
:103ED0005D42FC07000000000FFE07005D42FC078A
:103EE0000000000010FE07000000000000000000BD
:103EF00011FE07005642FC076942FC0712FE07004C
:103F00005342FC076142FC0713FE07006142FC07B5
:103F10006142FC0714FE07004042FC074042FC07D8
:103F200015FE07006142FC076142FC0716FE070010
:103F3000000000006142FC0717FE07004542FC0735
:103F40006142FC0718FE07006142FC076142FC0762
:103F50001AFE07006142FC076942FC071BFE0700CE
:103F60006142FC076142FC071CFE07006142FC073E
:103F70006142FC071EFE07006142FC076142FC072C
:103F80001DFE07007342FC076142FC0700000000B1
:103F900000000000F4011600F4352348F40108C4C1
:103FA000140A000005000000484AFC070004000055
:103FB00068D3FC07B00200005CCFFC0700040000DF
:103FC00024D6FC07700500002003000000A60E00A8
:103FD00005000000D2000000320000003C0000009C
:103FE00001000000010000000200000002000000CB
:103FF00004000000030000000600000000000000B4
:1040000002000000020000000000000000000000AC
:104010000300000003000000050000000500000090
:10402000060000000A0000000A000000C8000000AE
:10403000B80B000002000000B80B0000B80B000035
:1040400010000000D4010000CC010000700200004C
:104050006A000000040000000100000020000000D1
:104060000C00000001000000E20400008A020000D1
:10407000DC050000AF0000002C42FC079C40FC0760
:10408000000000003442FC070000000000000000B7
:1040900000000000000000005E010000A8F8FC071E
:1040A000A0F8FC07B8F8FC07F8F8FC071D34FC077B
:1040B000E134FC07A7C6F00703C7F0070BC7F007FA
:1040C0005FC7F00777C7F007C131FC07AFC7F0073C
:1040D00031CBF007D5CDF00715CCF00735CCF00784
:1040E00055CCF007A931FC07A3CCF0070DE2F0078F
:1040F000C9DFF007E7DFF00703E0F0071DE0F00796
:1041000031E0F007B531FC07C7E0F007E3B0F10795
:104110006BB3F10707A9F007B5EFF10799F0F107C5
:1041200095F0F10791F0F1078D21F007CD33FC07F1
:104130000126FC074126FC079526FC078D26FC0777
:10414000057DF007D37BF007737CF007AD82F107A4
:104150004134F1075D19F207DD19F207811AF20700
:10416000BD1AF2074D1BF207851BF2070000000085
:104170000103FC071503FC077DB3F007D976F107AF
:10418000617DF107B181F1079780F107C549F1071A
:104190009759F107F10AF107A1ECF007DD0DFC07D3
:1041A000B901FC07DDBAF00725AAF00799AAF007C4
:1041B00049ABF007E72DF007A32EF007657FF00766
:1041C0002F7EF0070136F00700000000DF0DFC072E
:1041D000E70DFC07D70CFC0701A7F10783A7F10740
:1041E00007A8F107F10CFC07B5B7F00700000000C5
:1041F00000000000000000000000000000000000BF
:1042000000000000000000000000000000000000AE
:10421000000000000000000000000000000000009E
:10422000000000000000000000000000943FFC07B8
:1042300030CFFC070000000000000000000000007C
:1042400031303042003242003342003442003636D0
:10425000420042364200313742004242424242006E
:10426000484200424800484848480042424C004208
:104270004C4C004E554C4C00765F362E302E323270
:104280002E3134303100000000FD0000813BFC077E
:1042900001FD0000A13BFC07D842FC07D842FC0707
:1042A00070070000DC3BFC07C0CBFC07C0CBFC0761
:1042B0009C030000DC3BFC070000D0070800010065
:1042C00048004F0008001700010001000000010134
:0842D00064000000E0010000A1
:0400000507FC0111E2
:00000001FF
