:0200000407FCF7
:100000002057FC072501FC072D01FC074501FC07D3
:1000100000000000000000000000000000000000E0
:100020000000000000000000000000005D01FC076F
:1000300000000000000000005F01FC076101FC07F8
:100040004910FC070D38FC07A526F007A113FC0793
:10005000CD12FC076301FC070D10FC076301FC07D0
:100060001910FC076301FC07F110FC07FB10FC07EB
:100070000511FC070F11FC071911FC076301FC07B0
:10008000E513FC076301FC076301FC076301FC0740
:100090006301FC076301FC076301FC076301FC07C4
:0800A00000008E070E000000B5
:0200000407FCF7
:100110000348854600F068FF004800470121FC07BE
:100120002057FC070F4880470F48004704207146BE
:10013000084203D0EFF309800C490847EFF3088029
:100140000A49084704207146084203D0EFF30980AA
:1001500007490847EFF3088005490847FEE7FEE72F
:10016000FEE7FEE7693FFC071101FC07DD12FC0713
:100170004512FC07F8B5074601200023024600900F
:100180001946032049F73EF90446022180300170E8
:10019000FF4DFE482A6843881146FF31F7310B8630
:1001A00080884886FB48066A0123DB069E431E437F
:1001B0000662FF320020FF32383250829082D082B5
:1001C0001D200882F4484884F448C882F448088313
:1001D00000204882384649F755FC01462868FF3020
:1001E000F730C28B920992010A43C283ED484168FD
:1001F00000208847002C02D0204648F7ECFC20461F
:10020000F8BDFFB58BB0064616980027022821D00E
:100210000D9801881498814278D371880846403837
:100220003F2802D8159855F7E9FC0C98361D008830
:10023000149A80190E995EF75FFF0C980188149844
:1002400008180C9908800D9801881498081A0D99BF
:1002500008805CE100200E9D079069782C780902E7
:1002600021433180E978AC780902214371808C46C2
:10027000403904242D1D024603468E46402900D3F2
:100280002878614604291FD0052914D0062918D0E2
:1002900070463F283DD8159855F7B0FC0006000E73
:1002A00004D0C148008D0006C00F30D002230120C9
:1002B000BE4A002712E0697800290FD0BC4A1723F4
:1002C0000CE0BC4A0F2309E0522802D0D22802D009
:1002D00002E0142000E01520B74A1F23002A1AD09C
:1002E000984218D2800010580490002813D00020A3
:1002F0000890059070884038402803D3287805245A
:1003000030716D1C701D00900498B5E0FEE0302740
:10031000F0E03327EEE07088042872D10627E9E088
:10032000522862D00CDC4B283FD004DC41286AD034
:10033000422858D111E04C2820D0502853D140E019
:10034000632830D004DC572818D061284BD19BE0BB
:100350006C2864D0772846D109E00098297801708C
:100360000098641C401CA4B26D1C009081E00498AD
:10037000401C04900178089881427AD10098A41C0E
:10038000401C41084900881C009068782A780002C7
:10039000104308800599AD1CA4B2002969D00890CB
:1003A0000020059065E00120FBE710222946009817
:1003B0005EF7A2FE009810341030A4B21035009001
:1003C00057E0204640301499039088420BD84022D1
:1003D000294600985EF790FE009840300090039800
:1003E000403584B245E0342743E00822294600988E
:1003F0005EF782FE009808340830A4B208350090F9
:1004000037E068E0FFE70622294600985EF774FEB1
:100410000098A41D801DA4B2AD1D009029E0149881
:10042000001B80B203903088001B001D81B20120A8
:1004300007900498401C04900098401C400840001D
:1004400000900498007857281CD04228CBD10098FF
:100450000170090A417000982946801C0090039A97
:100460005EF74AFE03980399201884B2009840185A
:1004700000900498401C0490007800281ED0002FA3
:1004800017D01BE04908E2E71498001B81B20098DE
:100490000391401C40084000009001200A4607904C
:1004A000294600985EF728FE0399601884B20098E8
:1004B000DDE70D990988A14200D331E70D98008846
:1004C000A04208D304990978002904D1079900298A
:1004D00003D1A04201D034270CE00D99001B088005
:1004E0000C9801880098801B001F08180C99002F99
:1004F00008800CD07088042809D0062807D040381E
:10050000402804D30E984079707100E034273846B3
:100510000FB0F0BDFFB581B01F4616460C46104621
:100520005CF7AEFC00257F2802D02189062909D07E
:100530003B4632462146019855F7F3FE05462846CC
:1005400005B0F0BDC00601D50225F8E720780028E7
:10055000F5D1300AA11D42F77CF8F0E7F1B598B06B
:10056000189842F774FA0446189805210079134A3E
:100570004006C00F099068460184618B08460A381E
:10058000904276D2E08A062873D319E030BCFC078B
:100590004CB9FC07C0000040108000002941000059
:1005A0007671000058BFFC0748BEFC073803F2070D
:1005B0004003F2079C03F207D803F207770C000010
:1005C0001922D201904254D8228BFF23F5339A424C
:1005D0004FD8521C9300D2184243521C0A23521087
:1005E00059438A4245DC217F00290CD1617F0029D3
:1005F00009D1A17F002906D1E17F002903D1202163
:10060000095DC90635D0274620377978C906C90E55
:10061000491F0C292DD2A18A81422AD8E17C0029C8
:1006200027D0421E082A01D9082000E0401E81423E
:100630001FD8684646F7CCFA00281AD1FE4D06228C
:10064000286221460AA85EF757FDA8792E46803E0B
:1006500000287DD06079800901280BD00AA809996B
:100660004CF785FD010003D03820405C002870D095
:100670009BE008E1F06A807A012808D0042806D0BF
:100680000AA84CF7E1FD286200284ED054E0686AC1
:1006900006220AA932305EF753FD002806D00AA8C8
:1006A0004CF7D2FD2862002802D012E0686AF9E710
:1006B00000210AA84CF7DEFD2862F16A897A012937
:1006C00005D18B071A6849068A430A431A60002835
:1006D00011D0F16A286A0622253010315EF730FD0C
:1006E000002808D1286AF16A2030C07AC97B884284
:1006F00001D1286A1EE0D148D1490088C96880B27A
:1007000006225043081842F7A7F9014614A806220A
:1007100002305EF7F1FC13AA00213C2042F769FC8D
:100720000121B06D47F790FEA9E011A90AA84CF786
:10073000A1FD2862002838D00146253106220FA8E5
:100740005EF7DAFC286A08AA2030C17A0FA801E017
:1007500041E024E04CF7EEFB002812D0286A20305C
:10076000C07A002809D16846B649008C4BF755FB82
:1007700008AA0121B3484CF7DDFB68460AA9008CA2
:100780000AE008AA012111A84CF7D4FB00280CD0DC
:10079000296A6846008C32314BF755FB05E00A1890
:1007A000527D002A08D010286DDBF06A407A0228BA
:1007B00006D0032804D00EE0401C1028EFDBF4E73D
:1007C0006846008C052806D308AA0AA809994CF7A0
:1007D000B1FB002857D00022694620464CF753FC55
:1007E000002850D1F06A407A02280BD0032809D0A3
:1007F0000023684602880AA809994CF765FC00287E
:1008000002D02FE00123F4E7E18A68460181218BC1
:100810004181618B81817878062241096846817522
:100820007878C106C90E6846417521460E305EF7DC
:1008300063FC189800794006C10F6846017503886B
:10084000214602A8B26D47F7A5F90146B06502A896
:1008500042F71DFC0020B065214668461C31008827
:1008600046F709FA49F788FA734C2034207A0028B1
:1008700005D0002109205CF746FC002020720021F1
:1008800008465CF7E8FA19B0F0BDF8B56E4C0646BC
:1008900085000F4660594C21095C24290ED140691E
:1008A0001022791D2E305EF727FC6159252040313A
:1008B000087300221146304654F7F3FA60594C2170
:1008C000095C0C291FD140691022791D2E305EF77A
:1008D00013FC60595F214069095C09072DD401466A
:1008E0002E3110221E305EF72BFC00280CD06059F0
:1008F000092140300173304654F7F0FF01460022D1
:10090000304653F74DFEF8BD0421684601706A4633
:100910000521304653F7EEFF684601786020014319
:1009200068460170304654F7D9FF014668460278A0
:100930000123304653F749FFF8BD304654F7CEFF48
:10094000012809D060590721403001730022114667
:10095000304654F7A6FAF8BD615900204969C03104
:10096000887160590421426930461E3253F7C2FF34
:10097000605941694031897F002907D01A214030F0
:1009800001730021304654F716FBF8BD1B2140309F
:100990000173304654F764FBF8BDF8B52A4C0546A0
:1009A0008600A0594C22125C192A11D140224D30E8
:1009B000491D5EF7A1FBA059402224494D305EF746
:1009C000BFFB002805D02149284620395BF723FDCD
:1009D000F8BD0B21684601706A460521284653F789
:1009E00089FF684601786020014368460170284607
:1009F00054F774FF0146684602780123284653F7EE
:100A0000E4FEF8BDFFB581B003980C46060A002548
:100A10005CF736FA002827D0132825D0142823D0D5
:100A20000B48B700C0592030407BC00637D503982B
:100A30005CF726FA15280DE030BCFC0768B9FC0706
:100A400060BBFC0750F5F1073CBEFC07FCBDFC0792
:100A500078BBFC070CD0A07941F7ECFF304647F794
:100A600087F8032806D015E0A07941F7E3FF1FE0DF
:100A700002251DE03248C0592030407B400704D594
:100A80003D21304642F7D4FC04E03D2200213046AF
:100A900042F7DDFC3D21304646F7B2F808E020463B
:100AA000103828490181468120464EF79BFD0125DB
:100AB000284645E524485222006864308188C37E78
:100AC0005143224A12688918FF225F32525AFF317D
:100AD000120AD21A01310B8CD2B2DB0B09D00B8C6B
:100AE0005B045B0C0B84002A03D18088184A012127
:100AF00011547047FFB51746140A81B0104A029886
:100B0000A100515840780026114D002907D0295DD9
:100B1000002905D0002803D1204643F7EDFE2E55CD
:100B20003A46049B0299019844F777FE08E50A4883
:100B300008490160094941607047704770470000EB
:100B400078BBFC070608000084BBFC074CB9FC0717
:100B5000C08BFC070459F007C0000840490C00BFD7
:100B60007FB5E4486B460188428889186A4611803F
:100B700001214C0022181546403DED8F065B52883E
:100B8000AD19AA18491CC9B21A530729F1D3818992
:100B9000C089081881B2D981D888002821D0188945
:100BA000002820D0988800281FD0588900281ED0FF
:100BB000988900281DD0588800281CD000291CD0F6
:100BC000188800280BD00720062254001C5B8C429A
:100BD00001D22146D0B2521E52B2002AF5DA04B038
:100BE00070BD0320FBE70420F9E70220F7E70520AA
:100BF000F5E70620F3E70120F1E70720EFE7F0B57E
:100C000095B0EFF310801090012080F31088BA485F
:100C1000816B4A07520F69460A800A92816B012252
:100C2000C908C9008163B5498B8869464B80022495
:100C3000B24B00219980C16A09078B0F69468B80EE
:100C40000F93C16A0C2399430831C162052109073A
:100C500009880906CB0F6946CB800521090709934E
:100C600009888023194305231B071980A449898A11
:100C70004906CB0F69460B81A1490893898A402315
:100C800019439F4B9982016A09074B0F69464B81B3
:100C90000C93036A0E218B4303629B4D9948686055
:100CA000FF204030A8602888A043288097484168EA
:100CB0000B071B0F69468B810B93416809090901DA
:100CC00008314160416849064B0F6946CB810D935D
:100CD000416870239943603141608748403801681A
:100CE0008904CB0F69460B820293036841140B43BE
:100CF00003600168CB07DB0F69464B820E930168E6
:100D00001143016041688903CA0D69468A820392D2
:100D10004168CA05D20D6946CA8204928168890376
:100D2000CA0D69460A8301928168CA05D20D6946D7
:100D30004A8305924168764A11400322D2038918FA
:100D400041604168490A4902FF314131416081688F
:100D50006F4A11400322D203891881608168490AD1
:100D60004902FF3141318160642000F02DF9A889EA
:100D700069468007C00F8883A8892043A881002482
:100D8000604F288800260121084328800A2000F0AF
:100D90001BF9FF205F4941303A680A4200D0761CB7
:100DA000401E3F1D0004000CF6D1A88A8004FCD12F
:100DB0005149886B671CC208D2007807400F024374
:100DC0008A630A2000F000F960004A49FCB20E5222
:100DD000082CD5D348480A99826BD208D2000A431E
:100DE00082636946454A498891800F998A00C16AA1
:100DF0000C2399431143C1620999CA0105210907CE
:100E0000098880239943114305221207118008990C
:100E10008A013B49898A402399431143384A918288
:100E20000C994A00016A0E23994311430162374825
:100E30000B994268120912010A4342600D994268F7
:100E4000090170239A430A434260029841032A48E9
:100E50004038006801225203904308432649403934
:100E600008600E9809684908490001432248403843
:100E700001600398420220484038406824490840F5
:100E800010431D4A403A506004985268520A520278
:100E900002431948403842600198174A4002403ADC
:100EA00092680A400243144840388260124905980B
:100EB00040398968490A490201430F484038816036
:100EC0001098002800D0012080F3108815B0F0BDE4
:100ED00010B5114C2078002808D0FFF790FEFFF7DE
:100EE0003FFE0E4908700020207010BD02F07AFA13
:100EF0000120F9E7B84FFC078010004000120040C5
:100F000020300050B84AFC07003500504020004017
:100F1000FF01FCFFC0C0C0C0B58CFC07B38CFC0750
:100F200010B5FF22154901320A60BFF34F8FBFF39E
:100F30006F8F13490A6013490B6840241B0A1B0278
:100F400023430B601049898A0021C30700D0352153
:100F5000830702D57D231B021943430702D575235E
:100F60001B041943000702D53D2000060143064833
:100F70002038016301488038026010BD80E100E044
:100F800080E200E008E400E0A010004010B5062078
:100F900000F01AF810BD10B5092000F015F810BDCA
:100FA00010B5812000F010F810BD10B5044800F015
:100FB0000BF810BD10B5034800F006F810BD000096
:100FC000010200000108000000280CD000BF00BF93
:100FD00000BF00BF00BF00BF00BF00BF00BF00BF19
:100FE00000BF401EF0D17047064C0125064E05E0BB
:100FF000E36807CC2B430C3C98471034B442F7D33A
:10100000FFF78AF8904AFC07B04AFC070148012123
:10101000018070470E1500500A48011F0988CA0751
:1010200006D0028807239A436D4BDB781343038075
:10103000490706D5018807229143694A92790A43F4
:1010400002807047B8100040B0B505200007018845
:10105000302211430180038803210B430380204B7E
:101060001C886407FCD403889343038003888B4364
:1010700003805B4C638A4380238A9D1E194B5D80ED
:1010800007251D8005881543058005880D430580CB
:101090001D886D07FCD403889343038002888A432C
:1010A00002804289920702D042898A4342810189A3
:1010B00080220A430281018A042291430182818AAB
:1010C0008907FCD541F72DF9E06A07490860074810
:1010D0000168490700D500BE01684907FCD5B0BDCD
:1010E0000833005000160050080200401000004075
:1010F00080B50A2000F078F880BD80B50B2000F0A4
:1011000073F880BD80B50C2000F06EF880BD80B50E
:101110000D2000F069F880BD80B50E2000F064F865
:1011200080BD0000FEB5029201910546012000211C
:101130002A465EF725F806460F46F34C606D0840D8
:10114000216D31400143002900D100BE02980028E2
:1011500003D0284600F016F802E0284600F02AF8EE
:10116000019A606D3840216D31400143002900D162
:1011700000BE0320000210186900014A8852FEBD1B
:1011800006300050B0B5044601250021284622460D
:101190005DF7F6FFDC4A536D0B40116D01401943BA
:1011A000002900D100BEA54001480580B0BDC04661
:1011B00002300050B0B504460125002128462246E1
:1011C0005DF7DEFFD04A536D0B40116D01401943AE
:1011D000002900D100BEA54002480580B0BDC04630
:1011E000B08CFC0704300050B0B502460A3AD1B2C8
:1011F00004291FD801210C4694400F4A1388A343A9
:1012000025040CD00D4D2C400D4D651965406D0821
:10121000002401E0641C6D0C2D04FBD100E01024BF
:10122000A4B20D46A5401D4315801F2210408140E9
:1012300053480160B0BDC0460E140050FFFF0000CF
:10124000FFFF0100F8B5044601273E02052005070F
:10125000688DC00506D51B2002F0A2FC4A48018813
:10126000394301808036288840013040698A474AE6
:101270000A4002436A822168134801606168416044
:10128000A1688160E168C1602169016161694161B2
:10129000A1698161E169C16104623E490A684262F3
:1012A0004A6882628A68C2624A690263CA684263A3
:1012B00009698163334808210180A88AC00600D4E7
:1012C000FEE700BEF8BDC0460090FC07024800885B
:1012D0002B481021016070472C130050F8B50446CC
:1012E00005200507288A04210143298228894021F5
:1012F00001432981224801270760224808210180F3
:101300003E02688DC00506D51B2002F049FC1E4830
:101310000188394301808036288840013040698A3D
:101320001A4A0A4002436A822168194801606168CA
:101330004160A1688160E168C16021690161616902
:101340004161A1698161E169C161046211490A6871
:1013500042624A6882628A68C2624A690263CA68F3
:10136000426309698163A88AC00600D4FEE700BE13
:10137000688A09490840091D01436982F8BDC046D1
:1013800080E200E000330050800000507FFE00004B
:101390005090FC0728ED00E0FC7F00007047000043
:1013A00010B50F4C0FE02088022188432080208850
:1013B000802106E002F00CFC05E002F009FC208828
:1013C000012188432080A1880F2008400228EAD00C
:1013D0000428EFD00C28F0D00128F4D110BDC0466D
:1013E0000411005005210807028830239A43028027
:1013F000028803239A430280828812050DD5184A79
:1014000013880B40052B08D110880421014311805B
:10141000108801218843108070478188C90606D54D
:1014200010498A88D20702D00A88120610D4808810
:10143000C0060CD50B488188890708D50188C905E5
:1014400005D5022181800188074A0A400280704741
:101450000120888008888022904308807047C04619
:101460000002005000010050FFFE0000F8B50F2000
:10147000964F38560E4D2C461F340028214600DB6F
:1014800029467F2210400E1801F066FE39464A3187
:10149000062230465DF730FE3B7BF97A284622462D
:1014A00062F74AF80348044900F01EF97873F8BD62
:1014B0001C8DFC07B80B00006D14FC0770B5FD20F7
:1014C00041F781F901460F480424082522462B469E
:1014D0005BF790FA7D4EF18B491CF18302228280EA
:1014E0004580C180012141705BF79FFA20465BF780
:1014F000C7FC032804D16420044900F0F5F83083C8
:1015000070BDC04606FD0000B08CFC07BD14FC0792
:1015100070B52F4809210424182322465BF76AFA84
:1015200005461B202870FD26304662F7B5F80021DD
:10153000A982E96029616C606E80687028465BF75B
:1015400074FA70BDBFB5144600226D46AA606A6089
:10155000089A2A601A46234661F7CAFE04B0B0BD55
:1015600070B55A48017A01E0491C0172CAB2012AD9
:101570001CD0002AF8D10121017215480921042448
:101580000A2322465BF736FA05461B2028701426EC
:10159000304662F781F8FF21743129816C606E80DA
:1015A000687028465BF741FA002070BD417A012936
:1015B00003D100210181012070BD4A1C42721C2010
:1015C000484304490818C0688047002070BDC046E1
:1015D0001B0D0000C441FC07BFB5144601226D4637
:1015E000AA60054A6A60089A2A601A46234661F78B
:1015F0007FFE04B0B0BDC046C840FC0770B5194DB1
:101600002C68002C27D11848092104222C235BF7D1
:10161000F1F90446032020702C60172020840A2052
:1016200060700026668020460A3011215DF77DFD3E
:101630006684E683A6832020E0767E210B48415A0B
:10164000FB2900D3FB21E1848021405A08498842CC
:1016500000D30846208520465BF7E7F90020286084
:1016600070BDC046A48CFC07040D0000B0BBFC0795
:101670004808000070B5154D286B002800D070BDDB
:1016800013480921042252235BF7B4F90446286366
:101690000D202080FF20083020810026A6720D48F2
:1016A000E080A0801622E27220460C300A495DF7E5
:1016B00023FD2B20265420462B302C34082107A351
:1016C000224661F727FF286B70BDC046B08CFC072F
:1016D0000D0D00004C040000244AFC07444C472D2B
:1016E0005052504800000000B0B5024666488242A1
:1016F00000D300BE0020654B044604E01D68002DA9
:1017000004D01B1D641C092CF8D908E01960641C66
:10171000210604D0E0B2114600F020F92046C0B204
:10172000B0BDC046F8B50446401E09281BD8A0002D
:1017300056490818071F3868002816D0554DA8428A
:1017400013D050482018401C042631465BF7DBFCC0
:101750003D6008234B48314632465BF74BF9047035
:101760005BF763F9F8BD00BEF8BD00BEF8BDC0462A
:10177000BFB514460D226D46AA60054A6A60089AF4
:101780002A601A46234661F7B3FD04B0B0BDC046D7
:10179000D040FC07B0B50C468C4988421FD0384970
:1017A00088422DD0374988423CD12078401E0928F4
:1017B0003FD88000354A1158364B994257D03448AB
:1017C000814258D12E48042108230A465BF712F9BA
:1017D00021780170616841605BF727F94BE062682E
:1017E000002A01D100BE62682748824201D300BEB0
:1017F000626820782249401804215BF73AFC3AE0FD
:101800002078411ECAB2092A15D889001F4A5358A8
:101810001F4DAB422FD151188A6A0A60616800F0EF
:101820009DF828E01C49411889B2092905D90120F1
:10183000B0BD00BE1FE000BE1DE0011FC9B20929F6
:1018400013D8C01EC0B2411E8A00104B99580029FF
:1018500011D00F4CA1420ED00E4CA1420BD09A18C1
:10186000002313609362884705E000BE03E0101870
:10187000002101608162049900200870B0BDC0465B
:101880000304000002040000FDFF3F00808DFC0700
:10189000CF3BFC07CD3BFC07FCFBFFFFB0B50C4684
:1018A000002503E041F72BF860556D1C202DF9D180
:1018B0000020B0BD10B504460648074970225DF708
:1018C0001BFC0648011B064A11801430001B508087
:1018D00010BDC04670A0FC074C41FC07B8A0FFFF3C
:1018E00078A0FC0710B507480188074A1368114C17
:1018F00023405918116040885168214008185060F1
:1019000010BDC046183000408CA0FC0710B5074839
:101910000188074A1368074C234059181160408812
:10192000516821400818506010BDC0463830004052
:1019300098A0FC070000FFFF07481E214180018896
:1019400003220A430280018804220A430280F448E9
:10195000012101707047C0460016005070B50C465A
:10196000054619490888000618480ED5184A126815
:1019700012040AD4174A1288D20706D12818801CEC
:10198000042122465BF775FB70BDEFF31083012243
:1019900082F310880988090603D40F490E8816437C
:1019A0000E80002B02D082F3108802E0002181F328
:1019B0001088042108230A465BF71CF84460057070
:1019C0005BF733F870BDC04608000050010400000A
:1019D0003000004054BAFC07083300507047000044
:1019E00070B514460D4610465BF74AFA01282FD110
:1019F000287801020831AA791648002A0CD089B249
:101A0000062322465AF7F6FF0646A87860F70EFD31
:101A10003080A879307114E0AA8889B2921D93B2FF
:101A200022465AF7E7FF0646A87860F7FFFC002138
:101A300031713080A8887080701DAA88E91D5DF71B
:101A40005BFB30465AF7F1FF002120465BF703FAB3
:101A5000002070BD140C0000014605481C38027FB0
:101A6000FF2A03D01C308A42F9D17047002070470A
:101A7000C441FC077047704710B5044640793F28C1
:101A80000FD840F73CFF2070010EE170010CA170EF
:101A9000000A607040F733FF2071000AC021014343
:101AA000617110BD80B502F0B5F880BD6021D24AE9
:101AB000515A01807047C04680B53E22CE498A5CAB
:101AC0000270401C3F315DF717FB80BD7D21C18056
:101AD000002181801021418008210180704780B55C
:101AE00061F7EEFC002801D002F094F880BD000000
:101AF00010B50C46017801290CD0002910D142887C
:101B00003E21BD4B5A543F33011DD2B218465DF7FA
:101B1000F3FA03E040886021B74A5052002000E009
:101B20004820207010BDC0460020888048800120D9
:101B30000870704780B55FF71FFA80BDF8B5694639
:101B4000C870020A8A70020C4A70000E08700846BB
:101B50005FF7FAF98FBD000080B5474800210160AA
:101B6000FFF71EFA414800783F490A88404B13406E
:101B7000C006800DC018088080BDC04680B53D48B5
:101B800002210170FFF702FA80BDC046F8B51F467A
:101B90000C46087808280FD8072519A6784400793C
:101BA0004000874417040D04060610131600194E52
:101BB00010E00D25164E0DE000BE0026354609E06A
:101BC0000A2515A606E0082518A603E006250EA698
:101BD00000E014A6AB1C184839465AF70BFF07461D
:101BE00020787D703870002D04D0B81C31462A460C
:101BF0005DF782FA38465AF718FF002001B0F0BDB1
:101C000052656E6573617300FFEEDDCCBBAA000008
:101C1000B349FC07C149FC07312E302E302E302D40
:101C20004C45000001D2008005000100123456FF2F
:101C3000FE9ABCDE000000000314000080B50A48D4
:101C400001888905C90E094A11700188084A0A40AD
:101C500002800848012101700748017803220A43E5
:101C60000270FFF79DF980BD4C120040B04AFC079E
:101C70001FFC000006100040AC10004010B50C78AE
:101C8000012C03D0092C09D04C7802E04C78432C6D
:101C900002D0002C00D000BE02F064F8002010BD7D
:101CA000F8B51D4610460C465BF7EAF802280BD142
:101CB0000C202D0A0AD06843F149081800BE6221A1
:101CC0004554FF2D07D123E000BE25E06843EC49D1
:101CD0000818622145540C206843E9490F18632015
:101CE00001263E54042003215BF7B5F820886021CB
:101CF0007852607A64217854653721460A31062289
:101D000038465DF7F9F900212846324661F7ECFBC9
:101D10002846214601F0DCFF002001B0F0BDC0469E
:101D2000B08CFC07B0B51D4610460C465BF7A8F812
:101D300003280BD1280A0C214143EE4840186221A8
:101D4000FF224252204601F0FDFF00E000BE0020CD
:101D5000B0BDC046F0B58BB01D46087802282AD029
:101D6000012837D0002842D101923E20224F3E5C0C
:101D700000211F2E029101D82020811B03ACA01945
:101D800000945DF7D2F93F372046394632465DF779
:101D9000B3F933460A3317482946019A5AF72AFEFF
:101DA0000446468002982070201D009932465DF757
:101DB000A3F9204619E00F480A2329465AF71AFECC
:101DC0007D2101810021C180102181800821418075
:101DD000022109E0602008490E5A06480A232946D4
:101DE0005AF708FE4680012101705AF71EFE0020B6
:101DF0000BB0F0BD0B0E00001C8DFC07B0B50C78CD
:101E0000641E122C15D8C0467C4424796400A74473
:101E10000B101310101010101010100918090910D1
:101E2000090909000020B0BD487800280DD000BE87
:101E3000F8E701F097FFF5E74878002808D000BEE2
:101E4000F0E7487801F03EFFECE7FFF7D7FBE9E762
:101E5000FFF745FEE6E7000010B510465BF710F807
:101E6000002801D000BE09E0054809210422012410
:101E700023465AF7BFFD04705AF7D7FD002010BD66
:101E8000020D0000F0B589B0039316460C46FD2004
:101E90005FF7AEF90290002800D100BE08A9002724
:101EA0000F70208860F7D0FA05466088002800D0BF
:101EB00000BE002D78D1FD20FFF7CEFD002800D117
:101EC00000BE0399090A009108A90A781421514318
:101ED00043685D182D79022D24D159580988394B52
:101EE00099421FD1002005900490208860F747FA9E
:101EF000002800D100BE07A9002204AB4FF734F838
:101F00000120400207990140480A214660F722FA61
:101F1000C5B2002D29D1E28808A80178009860F7A1
:101F2000F4FB22E001968669002E3D4606D0A58886
:101F30006188A31D10462A46B047054605970497B9
:101F4000208804A94EF78BFD002D019E0DD108209D
:101F50000499085E002807DB6288A1882088A31DF9
:101F60004EF7E7FD054600E00025002D1CD1029844
:101F7000009F39465FF75AF90146A088801D83B259
:101F8000114832465AF736FD0546801DA288A11D2C
:101F90005DF7B2F808A800786880A0882F70A88044
:101FA00028465AF742FD0025084804230399324683
:101FB0005AF720FD2188857001805AF736FD0020F0
:101FC00009B0F0BD022900000AFD0000160C000057
:101FD00070B5EFF31085012484F3108805200607FF
:101FE000708DC00509D54348847001F0CFFD1149BB
:101FF00008701148008820404870308880210143D3
:1020000031800E4801680722914301604168490709
:10201000FCD53188090600D400BE0949016109498F
:102020004161002D02D084F3108870BD002080F340
:10203000108870BDC84FFC07800000500000F407F6
:102040000F009909090404A470B5184EB06800F097
:102050002FF828498A6A00238B621518094C2846F4
:1020600021465CF7CFFF706107494143481901D011
:10207000201A80B23061306808210143316070BDA0
:10208000B08CFC07710200008FFDFFFF80B5064891
:102090000021016001F040FD0120C00703490A68EA
:1020A00082430A6080BDC046A8B9FC0730000040EA
:1020B00080B50246C00B09D00E48006C00210B46CB
:1020C0005CF7CAFF8905800A401880BD0948006C8A
:1020D0004243900A80BDC04680B5FFF7E9FF80BD4E
:1020E00080B50449896B41430348081803495CF7EC
:1020F00089FF80BDB08CFC0720A1070040420F0083
:10210000A1B0E348C8211C91018000274780E14825
:10211000082303801E97E04C11E00020209008E087
:1021200030224A43A118209A920088502099491CD5
:102130002091209A1E990B2AF2DD481C1E901E98B1
:102140000028EADD1393616AF84317900120002903
:10215000014600D017994A02D04E336D1343726D79
:102160003365CB0DCD176D02EB1835461343736500
:102170006268002A00D01798C20FC3175B009A1834
:102180006B6D13432A6D6B65430013432B656F65BD
:102190002F65616260601E9734E0002027E03020E8
:1021A0001E9941436118209A92008958491C00D118
:1021B00000BE1E9941436118209A92008958002957
:1021C00013D01E9948432018209989004058C11700
:1021D000209A5CF7D5FF1E9A12015CF7D1FF6A6D59
:1021E0000A43296D6A65014329652098401C2090A7
:1021F00020980B2803DC20981E990B28CFD91E9815
:10220000401C1E901E980028C7DDA54E30881DACCE
:1022100020802088C046C046208804211B91C943E5
:1022200008420F9701D0378003E0B089012188432D
:10223000B081139BB08B9B49014007201090C002D6
:102240000818B083984F388818433880F88D0622D4
:102250009043F88501201A908003B18B0143B1832C
:10226000388892490140398078880C92104398430D
:102270007880052011900407618D0F2001900202E3
:10228000F88D90437D22D200C90504921AD51146DB
:1022900018310843F885F88D854908401A9AD1030A
:1022A0004018F885B08B1843B083B08B1B998843D6
:1022B000B083F88D9043F885B08B40218843B0837C
:1022C00016461AE0032149020843F8857948401C64
:1022D000F98D0143F985B08B9843B083B08B04210D
:1022E0008843B0837888744901407980F88D1A9EBC
:1022F0003043F885608D4007FCD530021690684960
:10230000888B032209921043888338882022104347
:1023100040231593DB4318403880088C18921043F3
:1023200018400884E08A80210E9108431840E0821A
:10233000208EFF2188432086208F1B9A104318216E
:102340000A9188432087208FA021014312931940CE
:1023500021875A480280A08859490140A1805948E4
:10236000401C59490860FFF733FE584F38681099F0
:1023700008401EA90870087802281FD0608D1699A1
:10238000084212D001F002FC0A2802D80B2001F00A
:1023900007FC4548C08DC00707D143480146C08DA2
:1023A0003043C885608D4007FCD538680221014361
:1023B00011988143396078684007FCD5444800682B
:1023C000C1B20C20AA29014600D01B992288824361
:1023D00088182080C046C0463E48008848210B919E
:1023E00068523D480068686468263C490F988853E5
:1023F00001201990C046C046394B181F0068394962
:10240000884200D090E11496019800071B900420A8
:1024100000210D9143E11E4600682090209B1B98EF
:10242000034009200507209AAB4272D1209B1D0A68
:10243000EBB21A93D2B2921F112A00D9FEE0920099
:1024400001A39A5833469746E924FC079F25FC07C9
:102450006126FC076126FC076126FC076126FC0754
:102460006126FC076126FC076126FC076126FC0744
:102470006126FC07CB25FC07F525FC072126FC0778
:102480004126FC076126FC074B26FC075326FC0768
:102490000031005002330050308CFC07B08CFC0738
:1024A00004030050FFC3000052000050FFBF0000B3
:1024B000FF0F0000FFEF0000FFF9000000020050D6
:1024C000FFF70000FFFF000080E200E00000F407DB
:1024D000D07FF807D87FF807D47FF807C48BFC07B4
:1024E000D47EF807A5A5A5A5C14802461498105C9E
:1024F000C00010181A9A92005CF7FEFD1499BC4AAD
:10250000505C40195054C0B2052800D296E000BE7D
:1025100094E0900F10D02098B64988420CD83846E5
:10252000083021462831209A8A422DD13346B959A4
:10253000B14A1180B14DB2E020981B9A1040109919
:102540000907884206D10020C046C046381DAB4D61
:102550003346A4E0209810400121C9078842A74DC6
:1025600002D1381D33469AE020981040119949074E
:102570008842334606D0209810400999490788427E
:1025800000D07EE0381D8AE0A11C209A8A426DD1DD
:10259000B9596622964B99523346984D7FE069228D
:1025A000089293480346805CC000181810301A9AAD
:1025B00092005CF7A1FD08998D4A505C4019505477
:1025C000C0B20D283AD300BE38E0F9584843FA5853
:1025D000120C801A00B2C0085623854DE8523346CB
:1025E00087480140501A8108864A11400818401C4B
:1025F000542113E0F9584843FA58120C801A00B2DB
:10260000C0085A237A4DE85233467D480140501A9B
:1026100081087C4A11400818401C582168521FE06C
:102620000D9DA8001EAA10181A9A92005CF764FD6E
:102630001A984519032D0D9500D300BE33460FE0BF
:10264000F85862216A4A50520AE0F8586849086509
:1026500006E0F8586421664A5052000400D100BEDA
:102660001A9880003818001D644D18E02146243166
:10267000209A8A42614D334609D1F9585E4A518009
:102680000DE02098401C12D000BE384607E02146DD
:102690002031209A8A4202D1F958574A9180074640
:1026A000C118081F1A46EC32904200D2B3E65C20F3
:1026B0001E994F4A1646115209201F9948430A0C89
:1026C000801A00B2C0086023F0524D480840101A2A
:1026D00081084C4A11400818401C5E217052149A1F
:1026E000B05CC10701D000BEB05C4008B0546920A6
:1026F000315CCA07444F01D000BE315C49083154F7
:102700006420315A002901D1049931526620325A8D
:10271000002A0CD13D490968C9B2AA290E9A00D0F5
:102720006E2233490A5202E0662031490A5A1B924E
:102730006A82A08C199EB043A0840D20FEF744FC51
:10274000608930430221149188436081608940068A
:10275000FCD51B9860800498FEF736FC60890999C7
:102760008843608160890006FCD57F206870274817
:10277000806927494860EFF31086199880F3108824
:1027800020880E9908432080386810998843386063
:1027900078684007FCD51F4838611F487861208859
:1027A0000E9988432080608D16990842199F0DD09C
:1027B0000F98A87016480546007801F0F1F91749FE
:1027C0006878002802D1C88DB843C885002E02D091
:1027D00087F3108802E0002080F310880F9B119D82
:1027E0000F4800680F49884228D00F480F4922E05F
:1027F000C48BFC074C420050A000FC07B08CFC07C7
:10280000FFFF0000FF3F00000000F407D07FF80743
:10281000C84FFC070F009909090404A45200005096
:102820009CB8FC076587341200B0FC07D08DFC070C
:102830001A585A501B1D6A029342F9D977487849B1
:102840005CF773FC109E310276485CF76EFCFEF775
:1028500075F9564856490160564857493022039247
:102860005CF74AFC55480027C771877147710771AB
:10287000C770877047703F211A910170504851A16D
:10288000159A5CF739FC5F4807705F485F49016043
:102890005F48604901606049FD480860FD480A21C1
:1028A0000170FD480770FD48322111910170FD480B
:1028B0000560FD482946199D0560FC480160FC48FB
:1028C0000C990160FB480660FB48139E06602802D5
:1028D0000290801DF9490860F9490860F948F049FB
:1028E000016000F095FC159A2089039988432081A6
:1028F00020890E9908432081208930432081208C33
:10290000A843208460890A99884360812089104304
:102910002081208A042188432082A08A8007FCD558
:10292000E08CF14908400B2109020143E184E08C6D
:10293000199E3043E0846089139908431021109157
:1029400088436081608CB0436084208990432081FB
:10295000E6483730B5072968014029601A984002D7
:10296000E34B19688143700308181860E148401C64
:10297000196801431960E0480068E049884216463A
:102980001B9573D0D7480068D9498860DC48024657
:1029900040681074010ED174010C9174000A5074D7
:1029A0000298C030D7490A464CE0C04660BAFC07DE
:1029B0004446FC0700BAFC077CFCF107DAB9FC07C7
:1029C000B0BCFC072000800000C0000000008400B4
:1029D00000002822000000000000040000F7FFFFB4
:1029E0007F00000030F0FF0F000000000004000036
:1029F00000000000000000000000000000000000D7
:102A000000000000FDB9FC0750B9FC07603FF20769
:102A100054B9FC07D447FC0758B9FC0700A0FC07D1
:102A2000AC14000000B9FC070B18179D5B5D15780E
:102A30006B40099E3540B24E75192D7C5D40157076
:102A4000401E521C0028EFD1AD4D1C35AD491C2253
:102A500028465EF7E5FA002800D000BE28465EF75B
:102A600073FAA548A5490160159E1B9D9D48006805
:102A70003FF7F0FBA4480771C77028680299084324
:102A80002860FEF759FF199800F074FC46209F4B10
:102A900000900B991954452050211954442052227A
:102AA0001A544320195442202D2119544120472102
:102AB00019544C20985560201F529348C770944871
:102AC0000770944D2F666F66AF669348D8870426CB
:102AD000924930465AF78DF91796304639465AF7DB
:102AE000BAF94A208E4929528E48E864AF728E495D
:102AF0001626864832465CF7FFFA2F73EE7260F7AF
:102B0000F7FD8148C77082480770FFF7BFFA0520BC
:102B1000FEF706FA85481C990180854813990180C3
:102B2000199948020A901A9880020B90C8031A90CB
:102B3000804881490818814940188008401E0C903F
:102B4000674D0D972089000600D48FE11B98006B1C
:102B50001A99084200D089E16B480088C00700D06C
:102B600084E15AF74AFC0026304600F003FC69482D
:102B70000079042800D079E1199800F0FBFB1E963B
:102B80001EA804210F914AF7D9FF002800D16DE15A
:102B900019986B49086008680028FCD11B98C06927
:102BA0005C4B196A884201D21E623146411ACA0939
:102BB0005979182A00D887E0002900D087E05549C4
:102BC0000862604F3888089078880790B888069027
:102BD000F88805903E800A9810307880159ABA805F
:102BE0005C20594B185AB881B88910430399C943DE
:102BF0000840B88155480260BFF34F8FBFF36F8F15
:102C0000388810433880F88810430840F8803888A6
:102C10000F9988433880B888C0B2B880F88870218E
:102C20000140402900D09BE06220185A0028484902
:102C3000049E00D00146324841804648401C414F26
:102C40003988014339801920FEF7BEF938880A9B7C
:102C500018433880388815990843388078880F9948
:102C60000843788078883C49084078800198400281
:102C70007988014379803948403079880140169835
:102C80008030084378807888099988437DE0C04681
:102C9000C846FC07B0B9FC07B1B9FC07D9B9FC07B5
:102CA00000A0FC075CB9FC0760B9FC0764B9FC072D
:102CB00068B9FC076CB9FC0770B9FC0748B9FC0798
:102CC00044B9FC074CB9FC07002900D1CEE01148FB
:102CD0000146406A401C486200F0FAFCC6E0C0466B
:102CE00058B9FC074CB9FC07FFF00000C8FEFFFF15
:102CF00000020040FFFF1F009CB8FC0765873412EC
:102D0000C84FFC07D08DFC0754BAFC071C8DFC078C
:102D1000B4BAFC07B08CFC0708440000B840FC07BC
:102D200005FF0000CDAB0000244AFC070031005035
:102D300002330050A44900001001FC07030004F80E
:102D4000FC00004000150050C48BFC0780E100E04F
:102D500040760000FF0F0000FF1F0000FFFD000095
:102D60003888E749084038807888F24908407880F8
:102D700078880999884378803888EA4908403880FB
:102D8000403178880840049E0A9B788038881999D9
:102D9000084338803046173039890140F84A91821B
:102DA00079890140D18238890B99084018433881CC
:102DB0007889084018437881388814990843388006
:102DC00038888007FCD41998F881388ACE49498818
:102DD000411A30464843012903DBD84940180D9F6A
:102DE00004E000290D9F01D0D3494018D4495CF775
:102DF0001FF9E3498A8A314618318A4200D300BE5E
:102E00008609C94800890B9B18401043C64A1081A7
:102E1000DB48C08A884200D300BE19360F96C249EB
:102E20000B4649890B9A1140014359811946F64EC8
:102E300070787F2810D00F99081A41B2C911401834
:102E40004840B94940B2082808DBEF4E706A401C80
:102E5000706200F03DFCB4490F987070079848808C
:102E6000069888800598C8800898088072B6AB4894
:102E700000790228384601D02868806A1E909D4853
:102E8000C088C00700D02EE159F783FB002800D18D
:102E900029E1A248C078002837D0A08AC00700D016
:102EA00093E09E48008800282FD1A648806A002819
:102EB00002D02868806A1E9000F02EFE9748817824
:102EC0001EA85AF75EF900281FD01B98006940061B
:102ED0001BD4924881781EA84AF730FE002814D0EF
:102EE0000B98FF3091490A46098801401698014322
:102EF00011801E9A002A0AD01B9D286A8449401816
:102F0000DA2806D8521E1E9203E030BFEBE0002202
:102F10001B9DE048008AE04B996808185861E86BEF
:102F2000894E30400843E863E86B88490840D96817
:102F300089020143E963E86B77490840596949050B
:102F40000818E8638248824200D300BED148014697
:102F5000806DC96D00235CF77FF80903000D4018F0
:102F6000411ECD48C068421C914200D008466B49C2
:102F70000A79002A199900D1114646F7F5FC7548DF
:102F8000C06A80471A99286B0842FCD00299614DAB
:102F900028680842FCD028680E9988432860554864
:102FA0000089452805D8009A101ABA498862514804
:102FB00002813FF78AF9A868B649C8622868000606
:102FC000FCD520890E998843208155480178208AB4
:102FD000179A104320825648034600681043186031
:102FE000454E3089199DA8433081608A012904D15A
:102FF000109988436082159B30E0109F38436082AF
:10300000608A10436082FEF7E3FF608A3843608283
:103010003C480C990162EFF3108085F310882188F9
:103020000E9A91432180002802D085F3108802E097
:10303000002080F31088159B608D169908420D9F23
:103040000CD00020DF4988700B2000F0A9FD159BF3
:103050002A480146C08D199A1043C8850020208354
:10306000608D1699084206D124480146008818430D
:10307000189A90430880308C1843189988433084FC
:10308000A08C199DA843A0840D20FDF79DFF6089A9
:10309000284314998843608160894006FCD51198C3
:1030A0006080A08AC006194D03D51248801E13996E
:1030B000018030BFA08AC006104A02D50D4813997E
:1030C0000180108818990843129B18401080308C9A
:1030D00008431840308400F09BF815480246006809
:1030E00017998843106062B601481C99018029E550
:1030F00000310050023300500403005052000050D1
:10310000FFEF00000000F407C84FFC0758B9FC07A8
:10311000C8FEFFFF00020040FFFF1F0054BAFC077B
:10312000B4BAFC07FFFD0000001500503830005015
:1031300010ED00E0FFE100002BFDFFFFD5020000D5
:10314000AA05000074BEFC0700FCFFFFFF03E0FFC0
:1031500040420F0058BFFC0710B54E2099490A5C49
:103160004F23CC5C2402A218521C0A54140ACC54DB
:1031700092B2044B9A4201D100220A5210BDC046BD
:10318000B08CFC07FFFF000069210B48415C103048
:1031900003E00CC81360491E00300029F9D17047C4
:1031A00068210548415C03E00CC81360491E0030EB
:1031B0000029F9D17047C046C48BFC07B0B5814CDB
:1031C000A17B002900D000BE88002518686B34352B
:1031D000002813D109020A310C4804220E2359F7A2
:1031E00009FC0921017028600021818141817D2233
:1031F0000281C180082141801021818059F715FC8E
:1032000000202860A072B0BDB08CFC070E0E00003C
:10321000B0B51E4C2088C0051D4D1AD56948807870
:10322000012803D100F0B2FC1B2812D8208DC00465
:1032300000D4A88AFF201C30CF4908801B2000F052
:10324000AFFC1648018801220A430280208840070B
:10325000FCD51348134918225BF74EFF1248134957
:103260001CC81CC1FDF763FC1148124901601D21F7
:10327000012420462246FDF755FF092000210A4679
:10328000FDF750FF288820432880B0BD2A00005059
:103290000C030050B08CFC07C84FFC0780000050A6
:1032A000200008407846FC076C46FC07C000FC077D
:1032B00000000840070010000549884200D000BE09
:1032C00004480188044A1140121D0A4302807047D5
:1032D0001111111112000050FC7F0000F8B50446D6
:1032E0000026234F0EE0BD19E88AFD2801D10749C9
:1032F00069605EF703F8002803D0826828462146FB
:1033000090471836302EEED1F8BDC046BC45FC07BC
:10331000B0B50025164C002813D126E0E08A5DF7F1
:10332000EDFF002802D04168204688470020E08158
:103330006060A060FF20E082207D59F7B4FD183462
:103340006D1C012DEAD912E0FF20E08200202060F0
:103350006060A060E060206128461030C0B2A082AA
:10336000214659F746FD18346D1C012DECD9B0BD2E
:10337000608CFC07B0B5D04D2978012921D11249C4
:10338000002803D008884007FCD402E008884007E2
:1033900017D400232B70C8888988000444181F2084
:1033A00040064921224660F75BF8A865E96564217B
:1033B0004143080CA86305486043800B401C40084B
:1033C0002864B0BDB08CFC0700160050111101003C
:1033D00010B5F24C082020701120FDF7F5FD0320F8
:1033E000607010BDFEB5624803250570614C204633
:1033F0001438016814220A436B218A430260A06AD0
:103400005D4988610020C043A06220683F21884355
:1034100020602068594908402060A0885849084029
:1034200001210191890202914018A080A0884021C9
:10343000014330208143A180A069524908400B21FB
:1034400049064018A061A0694F4908406902401828
:10345000A061A0691821014327208143A161432075
:1034600020714A4880474A4880474A488047404838
:103470000570009548480668484880474848804796
:10348000206848490840F105401820603B4E40360E
:1034900020683040490C0143216041272771A088F2
:1034A0003749084002994018A0803848804738487A
:1034B0008047384880472E480570374805683748A8
:1034C000804737488047206836490840E90540185A
:1034D000206020683040490C014321602771A0889A
:1034E0002749084002994018A0802848804728486A
:1034F0008047284880471E48009901702648006888
:103500002168284A1140C20589182160216831408C
:10351000254D0540A80108432060A08801998843F3
:10352000A080154EB069A06220681C2101432320B1
:10353000814321602068114908402060A069114939
:103540000840072189064018A061A0690E4908407B
:103550000F21C9014018A061A0691E21014321204B
:103560008143A1610D4880470D488047F586FEBD27
:103570000510004018300040C84FFC07FF7FFFFFD8
:10358000FFF90000FFFFFFC03FF0FFFF7D1BFC07BE
:103590003D1CFC07AB0FFC0788300040591BFC07A3
:1035A000970FFC07FFFF7F00FF010000704700003E
:1035B000F0B58BB0302200218154354A354B364C62
:1035C0004461364C364D374E374FC7610562436212
:1035D0008262C462354A066042601F200004344A99
:1035E000136883430124600418181060E004C74A7C
:1035F00013688343136002E001A84154491C282941
:10360000FAD12C480068403001A928225BF774FDEC
:10361000C24DEC71FFF7DCFEFFF7C2FDFFF7B4FD12
:1036200000F07EF900F0DCFA00F06AF8FFF7DAFE4D
:103630006C712248008807210140A971FDF748FC00
:10364000FEF750F9FEF762F91D490B881D48046822
:103650001D4A1440E31803601C4B1C888569154003
:103660002C1984615B88C4691440E318C3614B8AD8
:10367000046A1440E3180362898A436A13405918A4
:103680004162A44802218170002101800BB0F0BD8D
:10369000FD36FC07F936FC07E537FC07C937FC07A0
:1036A0009D13FC07A137FC07A337FC07AD35FC07CA
:1036B000740000404CB9FC07B08CFC07B810004007
:1036C0001030004088A0FC070000FFFF643000407D
:1036D00080B5FFF77DFEFFF757FD00F021F900F000
:1036E0007FFAFDF7F5FBFEF7FDF88A4802218170AD
:1036F0000021018080BDC046002070477047000057
:103700000E4908880E4A024001204302D2180A805E
:1037100041057E4A13688B431360810700224A6784
:103720001F2212044B6F934340041818486708681F
:10373000E0220243102082430A6070473830005074
:10374000FFFC000080B51F20000401218A07536F91
:103750008343480418185067106807218843106095
:103760000D48018808220A430280FFF731FEFFF767
:1037700017FDFFF709FD00F0D3F800F031FAFFF76D
:10378000BFFFFEF7C3F8634802218170002101806A
:103790000520FDF7C5FB80BD080000500410004067
:1037A000704780B54108732900D3E620282800D847
:1037B0002820F9214A0042437D20C10010465BF7D2
:1037C00021FC7F38C0B280BD0548016807220A434A
:1037D0000260012080044D490A6882430A607047F4
:1037E000300000404A1E022A00D300BE002802D04A
:1037F000FF2804D000BE022901D10C207047DC480C
:10380000C079002800D009207047C046F8B53F486D
:103810000168C90703D0016802220A43026001243B
:103820000168490203D5A10502680A430260270224
:1038300065023749009563E0300606D580200860B0
:103840004AF725F8FEF778F83149B00704D5022089
:10385000086045F71AFF2E49300714D50820086084
:10386000FDF728F93D4627460024204645F7C6FEC9
:1038700027490420BE4A10710220264A9070148005
:103880003C462F46009D3E4204D00F60012045F784
:10389000B5FE1F492E4203D00D604AF761F81C495E
:1038A000700604D54020086045F7A3FE1849F006CD
:1038B00004D51020086044F75FFA1549700710D549
:1038C00004200860144801460088A043088059F786
:1038D000FBFD3EF7B5FEFEF72FF80D490020F74A35
:1038E0001071F00707D00C6059F70AFE49F7CFFFB7
:1038F0000749F2480471B00602D52020086000BED6
:10390000084608380668002E96D1F8BD000200402F
:10391000180000400410004008330050B08CFC0731
:10392000FCB57F2000025C4A516981430B200002F4
:1039300008185061106880B25849401810609069AA
:10394000574B03400120410300915B189361032111
:1039500001910B02146B1C431463938F10241C43BE
:103960009487938803439380A8484E4A02604E4848
:1039700010384E4B9C8B04401520410108465030B6
:103980002043988358694A4C04404A48201858619B
:103990009869494C04400920400220189861186831
:1039A000464C04404648201818605868454C04406E
:1039B0004548201858609868444C044044482018F2
:1039C0009860D868434C044043482018D860E448C5
:1039D000C079002802D1C120400100E03F48404AA0
:1039E0001060052080023F4E3080401DB080308C3A
:1039F00055250543AA2085433584FF226C321046A5
:103A0000C9303085384807460E37B785374F378677
:103A1000B086F81D308736481885986B354E0640BD
:103A2000354830189863354E3280308F344C204002
:103A30000F46203738433087324B084619882140DB
:103A40001546D5350D431D80998821400918998068
:103A500019892140394319812132B2802A4B1988B2
:103A60002140603008431880998A19220A430621B0
:103A70008A439A821A4A908F244901400098081874
:103A80009087134622480168019A1143042291430A
:103A9000016020485866FCBD203000400000888846
:103AA000FF00FEFF59055C071FFCFFFF04200040DC
:103AB0000000E0FF09581A00FEE1FFFFE0E000000F
:103AC0000809294900000303696A686C031FFFFFA6
:103AD00070600000E0E0E0E00B0A0A08201800092E
:103AE0000010004028130040260A00005108000082
:103AF000070F00002F64E0FE101A060100120040BC
:103B00001FFC00004412004088120040FF9F00008C
:103B10008010004050015001F8B5642013490E5A3E
:103B2000F14FBC6B304660431249401812495BF7B5
:103B300069FA054638823C3666430E4830180E490D
:103B40005BF760FA021D0D49A818C01D8A60C860A5
:103B50000B4A1278022A01D11130C860FEF7A8FA88
:103B60000849401880B259F7D9FCF8BDC48BFC074E
:103B7000B08CFC0720A1070040420F00C84FFC0793
:103B8000B4BAFC07E2040000704700000C4801884A
:103B9000890918220A4000888004400F8018704765
:103BA00007490A88074B1340C20852021A430A8089
:103BB0000A88054B13404007800C1818088070478E
:103BC00054000050FFF90000FFC700007047704725
:103BD000024801880122914301807047041100507E
:103BE00081B00A4801680091FF210904009A0A4047
:103BF000052149045118064A009B1A400A43D9B2CC
:103C00000A311143016001B07047C0468000004096
:103C100000FF00FFF8B527482749FDF765FDC94EAD
:103C20007073FDF727FD0446C57A1C20401B06284B
:103C30000ADB60190C3031464A3106225BF75CFA28
:103C4000A81DE072F57319E02B20275C1F20C01B14
:103C5000062811DB20462B300090E0192C3031462D
:103C60004A3106225BF748FAB81D00990870802097
:103C70003843F073284601E000BEE07AF072214636
:103C80000C31C2B20E4D28465BF736FA2B20225C6F
:103C900032731F352C34284621465BF72DFAFDF789
:103CA000E9FC58F7C2FE002030630420022159F7D6
:103CB000D2F8F8BDB80B00006D14FC07B08CFC07FF
:103CC0001C8DFC0780B5442801D1FFF7A3FF80BD00
:103CD000F8B504460C2060439A4F3E186220305CD1
:103CE0006236FF2815D00D46BC73787BFDF71AFDB0
:103CF00068880838082805D8A888002802D1E888EC
:103D00007D2808D07D20C0000C49FDF7EDFCB8727D
:103D100001E0FFF77FFF3078FF280CD00025084E28
:103D200006E0002D03D070190169204688471C3534
:103D30001C2DF6D1F8BDFFF76DFFF8BDBD31FC07B6
:103D4000C441FC0710B57F4CA07A002803D0FDF7D2
:103D5000E9FC0020A072FFF7FFF9FFF75BFF10BD41
:103D6000B08CFC077CB50C465A49884223D05A498E
:103D7000884229D05949884249D05949884276D148
:103D80006088182874D0052877D0142870D00228AD
:103D90006DD16E4600253570A288A11D30465BF7B7
:103DA000ABF93078002800D17FE064205249FDF75C
:103DB0009BFC054680E04E48022519462B4658F7E5
:103DC00019FEA188018050E06088484D2E2838D126
:103DD0005C4EB08B401CB083FD203EF7F4FC0146E6
:103DE00004220A23284658F705FE21780C224A436C
:103DF000B1186222895C01706188002282710222FE
:103E000082804180B18BC171090A01722DE0668800
:103E10003448093080B2082519462B4658F7EAFD88
:103E200021780C224A43474989186222895C017033
:103E30006288002181804280172E00D00321817189
:103E400013E0082628461946334658F7D3FD217853
:103E50000C224A433B4989186222895C01706188BF
:103E60008022827100228280418058F7DEFD7CBD75
:103E7000A079194600F042F87CBD01AD0020287001
:103E8000A288A11D28465BF737F92878002816D0AC
:103E90000128ECD12B48416D006D800500D400BE97
:103EA00001204002134908807CBD2648008B002871
:103EB000DDD0C0B2FDF736FC224805837CBD214829
:103EC000416D006D800500D400BE0120400209490B
:103ED00048807CBD0D0C000004FD00000DFD0000BD
:103EE0000AFD000005FDFFFFB08CFC0705FD00008A
:103EF0000E0C000002300050BD14FC0710B5000687
:103F00001DD00C46FD203EF75EFC01460C48042205
:103F1000082358F76FFD210A0C224A4309498A18E1
:103F20006223D25C022383801323438002704A8B76
:103F3000C271130A8371521C4A8358F776FD10BD73
:103F400008FD0000B08CFC0702E008C8121F08C181
:103F5000002AFAD170477047002001E001C1121F0A
:103F6000002AFBD1704700001A4988880722904335
:103F70008880052000078A89D2070DD0098800298A
:103F80000AD115490A8802854A8882848988018471
:103F9000418A124A0A404282114906220A800121BE
:103FA000CA03104B1A60BFF34F8FBFF36F8F02220B
:103FB0001A60BFF34F8FBFF36F8F1960BFF34F8F3E
:103FC000BFF36F8F41890422914341810021018019
:103FD00062B6704704030050A000FC077FFE00009B
:103FE0000034005080E100E017B967984C664C013E
:103FF000963331B1915900152368EC521E62447416
:104000009A1BD18BAB75B66E9EE7BA08B9A948ABBF
:10401000A1AC031C2E0D296C20EE8D0CE1F04A0C96
:10402000B325DC536A68862D28D5E1C1E1C547294F
:10403000B55765C3BA47159E4F43313C939242E64C
:10404000A876FA3BEFB4875A8C09E0D181544240FC
:104050008E4FD2B377E32A7720EE8D0CE1F04A0C35
:10406000B325DC536A68862C4F43313C939242E679
:10407000A876FA3BEFB4875917B967984C664C019C
:10408000963331B1915900142368EC521E62447486
:104090009A1BD18BAB75B66D28D5E1C1E1C5472917
:1040A000B55765C3BA47159DF3D81C4511964D12F7
:1040B00013FED63BCC316C6E00000000583FF20777
:1040C000A88CFC0704000100021400008D1BFC07F3
:1040D000010D0000591EFC07000D0000FD1DFC072E
:1040E000000E00007D1CFC07010E0000A11CFC0757
:1040F000030E0000251DFC070A0E0000551DFC07DD
:104100000C0E00008531F2071C0D0000C731F207CC
:10411000100D00008530F2070F0E0000F931F20794
:104120002C0E00003932F207120C00005332F20755
:10413000080E00006F32F2077117FC079517FC0795
:10414000D915FC074515FC07F8000000080004908D
:104150000000000000000000030005D08B0035F0D7
:1041600010005CF0000010B0000018B000001AB0A1
:10417000030051F0000038B000003AB0000064B015
:10418000000066B0000022B0000024B0010005D09D
:10419000000000000A00008008030490000004F002
:1041A000030006D0000000000A000080080304900D
:1041B000000004F0030006D00000000003280028DF
:1041C00002290129FD000000FC41FC07300000002D
:1041D0001115FC07000000000000000000000000B6
:1041E000FF000000000000000000000000000000D0
:1041F000000000000000000000000000BE41FC07BD
:104200001000000001000000100010001146FC0723
:10421000BC41FC070200000001000000000000009B
:10422000000000001840FC07100000000800020019
:104230000100000000000000C241FC070200000075
:10424000010000000D000D00154AFC07BC41FC07F1
:10425000020000000100000000000000000000005B
:104260003840FC07100000000880000001800000BA
:1042700000000000C241FC07020000000100000035
:1042800009000900F349FC07BC41FC0702000000DB
:10429000010000000000000000000000E83FFC07F3
:1042A00010000000010200000200000000000000F9
:1042B000C041FC07020000000900020002000000EB
:1042C00000000000C241FC070200000001000000E5
:1042D0000B000B00A749FC07BC41FC0702000000D3
:1042E000010000000000000000000000F83FFC0793
:1042F00010000000010000000200000000000000AB
:10430000C241FC0702000000010000000B000B008E
:10431000C949FC07BC41FC07020000000100000085
:1043200000000000000000000840FC071000000032
:10433000010200000100000000000000C041FC0775
:10434000020000000900020002000000000000005E
:10435000C241FC0702000000010000000C000C003C
:10436000FD49FC07BC41FC07020000000100000001
:1043700000000000000000002840FC0710000000C2
:10438000410000001400000000000000C041FC07D4
:10439000020000000900020002000000000000000E
:1043A000C241FC0702000000010000000C000C00EC
:1043B000D549FC07BC41FC070200000001000000D9
:1043C00000000000000000004840FC071000000052
:1043D000090202003200000000000000C041FC079A
:1043E00002000000090002000200000000000000BE
:1043F000C241FC0702000000010000000A000A00A0
:104400000A4AFC07BE41FC07100000000100000042
:10441000100010002146FC07BC41FC070200000010
:104420000100000000000000000000005840FC07F0
:1044300010000000080002000180000000000000E1
:10444000C241FC0702000000010000000800080053
:10445000EA49FC07BC41FC07020000000100000023
:1044600000000000000000006840FC071000000091
:10447000088000000100000000000000C241FC07AD
:104480000200000001000000110011008449FC0737
:10449000BE41FC07100000000100000010001000E9
:1044A0003146FC07BC41FC0702000000010000008F
:1044B00000000000000000007840FC071000000031
:1044C000010200000200000000000000C041FC07E3
:1044D00002000000090002000200000000000000CD
:1044E000C241FC07020000000100000010001000A3
:1044F0009649FC07BC41FC070200000001000000D7
:1045000000000000000000008840FC0710000000D0
:10451000010000000200000000000000C241FC0792
:10452000020000000100000007000700E249FC074C
:10453000BC41FC0702000000010000000000000078
:10454000000000009840FC0710000000410000003F
:104550000200000000000000C041FC070200000053
:10456000090002000200000000000000C241FC0738
:104570000200000001000000120012007149FC0757
:10458000BC41FC0702000000010000000000000028
:1045900000000000A840FC0710000000010000001F
:1045A0000280000000000000C241FC070200000081
:1045B000010000000C000C006449FC07C445FC0726
:1045C00009000000130C00004B29F207150C000035
:1045D000851EFC07170C0000572BF207000C00008B
:1045E0002328F20706FD00005728F20703FD00000C
:1045F0003728F20708FD0000B328F2070EFD00007F
:104600000F29F20705FD0000E119FC07001A21300F
:1046100003595A08E4862A9E8FE911BC7C984342CC
:1046200018595A08E4862A9E8FE911BC7C7C4642C0
:1046300018595A08E4862A9E08E911BC7CD04742E2
:104640001800000001000001050AFC07010000023B
:10465000F50AFC070000000000000000F4010B0058
:10466000F4352348F40108C4140A00005D05FC0772
:104670008B08FC079B09FC07F99DF0070000000070
:10468000E3A1F107000000004FA4F10700000000C3
:1046900014000000ED14F207FD0000002126F207CF
:1046A000FF00000000000000FD15FC076115FC077D
:1046B0003C4AFC07653DFC073841FC07108DFC07B0
:1046C00000000000908CFC07050000002057FC074C
:1046D00000040000DC91FC07AC020000D08DFC0758
:1046E000000400009494FC07700500002003000003
:1046F00000A60E0004000000D200000032000000FE
:104700003C00000001000000010000000200000069
:10471000020000000400000003000000060000008A
:104720000000000002000000020000000000000085
:10473000000000000300000003000000050000006E
:1047400005000000060000000A0000000A0000004A
:10475000C8000000B80B000002000000B80B000009
:10476000B80B000010000000D4010000CC010000D4
:10477000700200006A000000040000000100000058
:10478000200000000A00000001000000E204000018
:104790008A020000DC050000AF0000005049FC0761
:1047A000B447FC07C447FC075849FC07A846FC0768
:1047B00000000000A8B8FC07A0B8FC07B8B8FC07C8
:1047C000F8B8FC070C46FC071046FC07FC41FC0748
:1047D000591AFC07B135FC074537FC0793DEF00793
:1047E000F1DEF007F9DEF00749DFF00761DFF007DF
:1047F00077DFF00799DFF00719E3F007BDE5F00771
:10480000FDE3F0071DE4F0073DE4F0077BE4F0076B
:104810008BE4F007F5F9F007B1F7F007CFF7F007F1
:10482000EBF7F00705F8F00719F8F00797F8F0072D
:10483000AFF8F007DFCDF10767D0F107DBB9F0077C
:10484000CD0DF207B10EF207AD0EF207A90EF20779
:104850008D21F007B932FC074920FC078D20FC07A9
:10486000E120FC07D920FC07B57EF007837DF00727
:104870007501FC07599EF107634CF1071133FC07E2
:10488000D110F207DD32FC07B111F2074112F20735
:104890007912F20700000000751AFC07771AFC076E
:1048A000B9C6F007D592F1070302FC075F9DF10737
:1048B0005F9CF1071505FC07EB72F107B922F107C0
:1048C0006B04F107DD19FC072BA4F007F1D2F00708
:1048D0005FBDF007D5BDF00785BEF007DB2DF00703
:1048E000752EF0071581F007DF7FF0070937F00715
:1048F00000000000351BFC073D1BFC079D18FC0752
:10490000F3C3F10775C4F107893BFC07B518FC0731
:104910000000000000000000000000000000000097
:104920000000000000000000000000000000000087
:104930000000000000000000000000000000000077
:104940000000000000000000000000000000000067
:104950005C46FC07F48CFC079046FC07608CFC0767
:104960000200000052656164206D652028524929CB
:104970000052656164206D652028696E6469636119
:10498000746529005772697465206D6520286E6F03
:1049900020727370290052656164206D6520286E55
:1049A0006F7469667929004144432056616C7565CE
:1049B000203100765F362E302E32322E31343031B7
:1049C0000044413134353331004144432056616C59
:1049D0007565203200496E64696361746561626C5B
:1049E000650052656164206D6500577269746520C9
:1049F0006D65004C454420537461746500427574C4
:104A0000746F6E205374617465004C6F6E6720562E
:104A1000616C756500436F6E74726F6C20506F69C6
:104A20006E74000003030A181107595A08E4862A15
:104A30009E8FE911BC7C984342180000D13CFC07D2
:104A4000453DFC070000000000000000DF1AFC07E5
:104A500000000000C53CFC0700000000A51AFC0790
:104A6000000000000000000000000000B91AFC0770
:104A7000AD1AFC07CD1AFC07F11AFC070000000074
:104A8000291BFC07791AFC07000000000000000049
:104A9000B44AFC07B84AFC07680C0000583FFC0702
:104AA000C08BFC07C08BFC0710020000583FFC07BE
:044AB0000E000000F4
:0400000507FC0111E2
:00000001FF
