:0200000407FCF7
:10000000806BFC072501FC072D01FC074501FC075F
:1000100000000000000000000000000000000000E0
:100020000000000000000000000000005D01FC076F
:1000300000000000000000005F01FC075D19FC07E4
:100040002916FC07094EFC07A526F0076119FC07D5
:100050005118FC076301FC07D915FC076301FC0775
:10006000E515FC076301FC073117FC073B17FC078C
:100070004517FC074F17FC075917FC070919FC0720
:10008000A519FC076301FC076301FC076301FC077A
:100090006301FC076301FC076301FC076301FC07C4
:0800A00000008E070E000000B5
:0200000407FCF7
:100110000348854601F04EFA00480047C938FC07FD
:10012000806BFC070F4880470F480047042071464A
:10013000084203D0EFF309800C490847EFF3088029
:100140000A49084704207146084203D0EFF30980AA
:1001500007490847EFF3088005490847FEE7FEE72F
:10016000FEE7FEE76D57FC071101FC076118FC076D
:10017000E917FC073EB50D4D6D1E14D002880A42EA
:10018000FAD16D1E0FD002880A42FAD0084A1368CD
:100190000124234313606D1E05D002880A42FAD160
:1001A000044A10683EBD00203EBD0000C0C62D00C0
:1001B00010E000E018E000E0F8B507460120002359
:1001C000024600901946032049F71CF90446022113
:1001D00080300170FF4DFE482A6843881146FF3188
:1001E000F7310B8680884886FB48066A0123DB06C8
:1001F0009E431E430662FF320020FF323832508297
:100200009082D0821D200882F4484884F448C88235
:10021000F448088300204882384649F733FC0146F9
:100220002868FF30F730C28B920992010A43C283DB
:10023000ED48416800208847002C02D0204648F74E
:10024000CAFC2046F8BDFFB58BB0064616980027BD
:10025000022821D00D9801881498814278D37188A2
:10026000084640383F2802D8159855F7C7FC0C9827
:10027000361D0088149A80190E995EF73DFF0C9880
:100280000188149808180C9908800D980188149812
:10029000081A0D9908805CE100200E9D079069788E
:1002A0002C78090221433180E978AC780902214396
:1002B00071808C46403904242D1D024603468E462B
:1002C000402900D32878614604291FD0052914D07D
:1002D000062918D070463F283DD8159855F78EFC52
:1002E0000006000E04D0C148008D0006C00F30D0BB
:1002F00002230120BE4A002712E0697800290FD0AE
:10030000BC4A17230CE0BC4A0F2309E0522802D054
:10031000D22802D002E0142000E01520B74A1F23A3
:10032000002A1AD0984218D2800010580490002851
:1003300013D000200890059070884038402803D3DF
:100340002878052430716D1C701D00900498B5E06C
:10035000FEE03027F0E03327EEE07088042872D109
:100360000627E9E0522862D00CDC4B283FD004DCA1
:1003700041286AD0422858D111E04C2820D050287A
:1003800053D140E0632830D004DC572818D06128CE
:100390004BD19BE06C2864D0772846D109E00098C7
:1003A000297801700098641C401CA4B26D1C009058
:1003B00081E00498401C04900178089881427AD129
:1003C0000098A41C401C41084900881C00906878D3
:1003D0002A780002104308800599AD1CA4B20029B8
:1003E00069D008900020059065E00120FBE710220D
:1003F000294600985EF780FE009810341030A4B2B1
:100400001035009057E02046403014990390884200
:100410000BD84022294600985EF76EFE00984030C7
:1004200000900398403584B245E0342743E0082229
:10043000294600985EF760FE009808340830A4B2A0
:100440000835009037E068E0FFE70622294600986B
:100450005EF752FE0098A41D801DA4B2AD1D009051
:1004600029E01498001B80B203903088001B001D07
:1004700081B2012007900498401C04900098401C11
:100480004008400000900498007857281CD042286B
:10049000CBD100980170090A417000982946801C50
:1004A0000090039A5EF728FE03980399201884B2FF
:1004B0000098401800900498401C04900078002890
:1004C0001ED0002F17D01BE04908E2E71498001B4C
:1004D00081B200980391401C400840000090012028
:1004E0000A460790294600985EF706FE03996018B1
:1004F00084B20098DDE70D990988A14200D331E765
:100500000D980088A04208D304990978002904D1E5
:100510000799002903D1A04201D034270CE00D999E
:10052000001B08800C9801880098801B001F081889
:100530000C99002F08800CD07088042809D0062858
:1005400007D04038402804D30E984079707100E0FD
:10055000342738460FB0F0BDFFB581B01F461646B0
:100560000C4610465CF78CFC00257F2802D02189C0
:10057000062909D03B4632462146019855F7D1FE5F
:100580000546284605B0F0BDC00601D50225F8E7AE
:1005900020780028F5D1300AA11D42F75AF8F0E77B
:1005A000F1B598B0189842F752FA04461898052108
:1005B0000079134A4006C00F099068460184618B98
:1005C00008460A38904276D2E08A062873D319E0AA
:1005D00030BCFC074CB9FC07C00000401080000094
:1005E000294100007671000058BFFC0748BEFC0797
:1005F0003803F2074003F2079C03F207D803F2071F
:10060000770C00001922D201904254D8228BFF238C
:10061000F5339A424FD8521C9300D2184243521CD1
:100620000A23521059438A4245DC217F00290CD10C
:10063000617F002909D1A17F002906D1E17F00292E
:1006400003D12021095DC90635D0274620377978A6
:10065000C906C90E491F0C292DD2A18A81422AD868
:10066000E17C002927D0421E082A01D9082000E099
:10067000401E81421FD8684646F7AAFA00281AD1C0
:10068000FE4D0622286221460AA85EF735FDA879AC
:100690002E46803E00287DD06079800901280BD04D
:1006A0000AA809994CF763FD010003D03820405C8B
:1006B000002870D09BE008E1F06A807A012808D019
:1006C000042806D00AA84CF7BFFD286200284ED0A7
:1006D00054E0686A06220AA932305EF731FD00282C
:1006E00006D00AA84CF7B0FD2862002802D012E01C
:1006F000686AF9E700210AA84CF7BCFD2862F16A94
:10070000897A012905D18B071A6849068A430A4369
:100710001A60002811D0F16A286A062225301031AB
:100720005EF70EFD002808D1286AF16A2030C07AF1
:10073000C97B884201D1286A1EE0D148D14900888E
:10074000C96880B206225043081842F785F901466D
:1007500014A8062202305EF7CFFC13AA00213C2029
:1007600042F747FC0121B06D47F76EFEA9E011A9E1
:100770000AA84CF77FFD2862002838D001462531B1
:1007800006220FA85EF7B8FC286A08AA2030C17AB2
:100790000FA801E041E024E04CF7CCFB002812D088
:1007A000286A2030C07A002809D16846B649008CF2
:1007B0004BF733FB08AA0121B3484CF7BBFB684653
:1007C0000AA9008C0AE008AA012111A84CF7B2FB83
:1007D00000280CD0296A6846008C32314BF733FB75
:1007E00005E00A18527D002A08D010286DDBF06A57
:1007F000407A022806D0032804D00EE0401C1028BE
:10080000EFDBF4E76846008C052806D308AA0AA89F
:1008100009994CF78FFB002857D0002269462046E3
:100820004CF731FC002850D1F06A407A02280BD0F6
:10083000032809D00023684602880AA809994CF7C2
:1008400043FC002802D02FE00123F4E7E18A684648
:100850000181218B4181618B818178780622410958
:10086000684681757878C106C90E6846417521468B
:100870000E305EF741FC189800794006C10F6846BB
:1008800001750388214602A8B26D47F783F9014636
:10089000B06502A842F7FBFB0020B0652146684620
:1008A0001C31008846F7E7F949F766FA734C2034A3
:1008B000207A002805D0002109205CF724FC0020C4
:1008C0002072002108465CF7C6FA19B0F0BDF8B5F1
:1008D0006E4C064685000F4660594C21095C242960
:1008E0000ED140691022791D2E305EF705FC61594A
:1008F00025204031087300221146304654F7D1FAC2
:1009000060594C21095C0C291FD140691022791DC6
:100910002E305EF7F1FB60595F214069095C0907E1
:100920002DD401462E3110221E305EF709FC00281E
:100930000CD06059092140300173304654F7CEFF86
:1009400001460022304653F72BFEF8BD04216846CD
:1009500001706A460521304653F7CCFF684601789E
:100960006020014368460170304654F7B7FF0146E6
:10097000684602780123304653F727FFF8BD30461A
:1009800054F7ACFF012809D06059072140300173AA
:1009900000221146304654F784FAF8BD6159002010
:1009A0004969C031887160590421426930461E325C
:1009B00053F7A0FF605941694031897F002907D072
:1009C0001A21403001730021304654F7F4FAF8BD83
:1009D0001B2140300173304654F742FBF8BDF8B597
:1009E0002A4C05468600A0594C22125C192A11D1C6
:1009F00040224D30491D5EF77FFBA059402224491B
:100A00004D305EF79DFB002805D02149284620394E
:100A10005BF701FDF8BD0B21684601706A460521B0
:100A2000284653F767FF684601786020014368460F
:100A30000170284654F752FF0146684602780123A8
:100A4000284653F7C2FEF8BDFFB581B003980C46A7
:100A5000060A00255CF714FA002827D0132825D0B1
:100A6000142823D00B48B700C0592030407BC00663
:100A700037D503985CF704FA15280DE030BCFC0765
:100A800068B9FC0760BBFC0750F5F1073CBEFC07EA
:100A9000FCBDFC0778BBFC070CD0A07941F7CAFF6E
:100AA000304647F765F8032806D015E0A07941F7EE
:100AB000C1FF1FE002251DE03248C0592030407BB5
:100AC000400704D53D21304642F7B2FC04E03D2208
:100AD0000021304642F7BBFC3D21304646F790F8F6
:100AE00008E02046103828490181468120464EF70B
:100AF00079FD0125284645E52448522200686430E6
:100B00008188C37E5143224A12688918FF225F32CE
:100B1000525AFF31120AD21A01310B8CD2B2DB0BBE
:100B200009D00B8C5B045B0C0B84002A03D18088FA
:100B3000184A012111547047FFB51746140A81B0B5
:100B4000104A0298A100515840780026114D002902
:100B500007D0295D002905D0002803D1204643F79E
:100B6000CBFE2E553A46049B0299019844F755FE58
:100B700008E50A4808490160094941607047704723
:100B80007047000078BBFC070608000084BBFC0728
:100B90004CB9FC07C08BFC070459F007C0000840A3
:100BA000490C00BF10B50F4903205CF722F9002162
:100BB00003205CF750F910BD10B5044601230A4A22
:100BC00000210A485BF716FF09498C4201D1032135
:100BD00003E008498C4201D1002101704EF702FD6B
:100BE00010BD0000EC57FC0711FC000001080000DC
:100BF000A5A5A5A5C3C3C3C37FB5E4486B460188BB
:100C0000428889186A46118001214C002218154635
:100C1000403DED8F065B5288AD19AA18491CC9B238
:100C20001A530729F1D38189C089081881B2D98163
:100C3000D888002821D01889002820D0988800283A
:100C40001FD0588900281ED0988900281DD05888A8
:100C500000281CD000291CD0188800280BD00720A1
:100C6000062254001C5B8C4201D22146D0B2521E97
:100C700052B2002AF5DA04B070BD0320FBE704206D
:100C8000F9E70220F7E70520F5E70620F3E7012062
:100C9000F1E70720EFE7F0B595B0EFF31080109083
:100CA000012080F31088BA48816B4A07520F6946C9
:100CB0000A800A92816B0122C908C9008163B54983
:100CC0008B8869464B800224B24B00219980C16A0F
:100CD00009078B0F69468B800F93C16A0C239943D8
:100CE0000831C1620521090709880906CB0F694649
:100CF000CB8005210907099309888023194305231F
:100D00001B071980A449898A4906CB0F69460B81C4
:100D1000A1490893898A402319439F4B9982016A0C
:100D200009074B0F69464B810C93036A0E218B43D5
:100D300003629B4D99486860FF204030A860288876
:100D4000A0432880974841680B071B0F69468B8199
:100D50000B9341680909090108314160416849065E
:100D60004B0F6946CB810D934168702399436031E5
:100D700041608748403801688904CB0F69460B827F
:100D80000293036841140B4303600168CB07DB0F38
:100D900069464B820E9301681143016041688903E3
:100DA000CA0D69468A8203924168CA05D20D694616
:100DB000CA82049281688903CA0D69460A83019236
:100DC0008168CA05D20D69464A8305924168764A10
:100DD00011400322D203891841604168490A49023F
:100DE000FF314131416081686F4A11400322D203D3
:100DF000891881608168490A4902FF314131816067
:100E0000642000F02DF9A88969468007C00F888307
:100E1000A8892043A8810024604F2888002601214A
:100E2000084328800A2000F01BF9FF205F49413069
:100E30003A680A4200D0761C401E3F1D0004000C98
:100E4000F6D1A88A8004FCD15149886B671CC2087E
:100E5000D2007807400F02438A630A2000F000F9AD
:100E600060004A49FCB20E52082CD5D348480A9972
:100E7000826BD208D2000A4382636946454A498898
:100E800091800F998A00C16A0C2399431143C16272
:100E90000999CA010521090709888023994311434B
:100EA00005221207118008998A013B49898A40234B
:100EB00099431143384A91820C994A00016A0E23E2
:100EC00099431143016237480B9942681209120194
:100ED0000A4342600D994268090170239A430A430C
:100EE0004260029841032A484038006801225203B8
:100EF000904308432649403908600E98096849081C
:100F000049000143224840380160039842022048CA
:100F1000403840682449084010431D4A403A506018
:100F200004985268520A52020243194840384260FB
:100F30000198174A4002403A92680A400243144816
:100F4000403882601249059840398968490A490247
:100F500001430F48403881601098002800D00120DC
:100F600080F3108815B0F0BD10B5114C2078002822
:100F700008D0FFF790FEFFF73FFE0E4908700020F3
:100F8000207010BD03F02AFD0120F9E7D863FC07AB
:100F9000801000400012004020300050D85EFC0756
:100FA0000035005040200040FF01FCFFC0C0C0C021
:100FB000FE8EFC07FF8EFC0710B5FF22154901329B
:100FC0000A60BFF34F8FBFF36F8F13490A60134955
:100FD0000B6840241B0A1B0223430B601049898ABB
:100FE0000021C30700D03521830702D57D231B02D2
:100FF0001943430702D575231B041943000702D583
:101000003D2000060143064820380163014880382E
:10101000026010BD80E100E080E200E008E400E052
:10102000A010004010B5062000F01AF810BD10B551
:10103000092000F015F810BD10B5812000F010F85F
:1010400010BD10B5044800F00BF810BD10B50348F2
:1010500000F006F810BD00000102000001080000C9
:1010600000280CD000BF00BF00BF00BF00BF00BF02
:1010700000BF00BF00BF00BF00BF401EF0D17047DF
:1010800010B50C460123FE4A0021FE485BF7B2FC76
:10109000FD4A21781170002101704EF7A3FA00205B
:1010A00010BD10B5F64A0C460123521E0021F5482A
:1010B0005BF7A0FCF54A21781170002101704EF712
:1010C00091FA002010BD10B5ED4A0C460123921E86
:1010D0000021EC485BF78EFCED49A2884A800A4665
:1010E0002388403AD387E2888A8062880A80002178
:1010F00001704EF777FA002010BD10B51A46822312
:101100000021E0485BF776FC112101704EF76AFA86
:10111000002010BDDA4A10B50123413A0021D94818
:101120005BF768FC112101704EF75CFA002010BDDE
:10113000D34A10B50123403A0021D2485BF75AFC4C
:10114000112101704EF74EFA002010BD10B51A465D
:1011500002230021CB485BF74DFC112101704EF7B3
:1011600041FA002010BD10B51A4601230021C548E0
:101170005BF740FC112101704EF734FA002010BDDE
:1011800010B51A4601230021BE485BF733FC11213C
:1011900001704EF727FA002010BD10B51A468223C1
:1011A0000021B8485BF726FC112101704EF71AFAAE
:1011B000002010BD10B51A4682230021B1485BF70C
:1011C00019FC00214170112101704EF70BFA00202B
:1011D00010BD10B51A4601230021AA485BF70AFC8E
:1011E000112101704EF7FEF9002010BDA44A10B580
:1011F0000823333A0021A3485BF7FCFB0446031D98
:10120000C21C811C401C5BF7CDF90146002000295F
:101210000BD0112121706070A070E070A080E08080
:1012200020464EF7DFF9002010BD2070F7E77FB5AC
:101230000025084600950195103802955BF71FFCC4
:101240005BF7C5FB00246E46039020465BF7B9FBB5
:1012500061008919641CE4B24880042CF5D3884AE3
:101260001023313A002187485BF7C4FB6E461ECE3F
:101270001EC0103805704EF7B5F9012004B070BDDE
:10128000F8B57F4A0F4608230A3A00217D485BF7EC
:10129000B1FB804D0446286B6E12B0433043286387
:1012A0007D493888496A88476060286BB0430021CF
:1012B000286338886080217020464EF793F900201B
:1012C000F8BDF8B56E4A0D460423093A00216D4871
:1012D0005BF790FB6F4E0446306B7712B843384390
:1012E00030636D4A2888926A69689047306BB843CA
:1012F0000021306328886080217020464EF772F903
:101300000020F8BD70B518460D465D4A0146012320
:10131000323A5C485BF76EFB04462878002802D01E
:10132000012805D101E05D4800E05D4841F71EFA63
:101330001220207020464EF755F9002070BD10B5E0
:1013400018460C464E4A01460823133A4D485BF7AF
:1013500051FB218801229207891809684160218880
:101360004180002101704EF73DF9002010BD10B5FD
:1013700018460C46424A01460423123A41485BF79C
:1013800039FB228801239B07D218616811602188EC
:101390004180002101704EF725F9002010BD10B5E5
:1013A0001C4608464BF738FE354A0123113A2146C0
:1013B00034485BF71FFB002101704EF713F9002042
:1013C00010BD70B50C8818461646032C00D30324B4
:1013D000CA788B78150252225443324A1D4313684F
:1013E000E318FF3301335D830B7911686118FF3116
:1013F00001318A8B120A12021A438A83204A01465B
:1014000001230E3A1F485BF7F5FA002101704EF7F1
:10141000E9F8002130465BF71EFD002070BD10B5D5
:1014200088781C46002801D0012200E000220888AC
:10143000114645F729FC124A01230D3A214611486D
:101440005BF7D8FA002101704EF7CCF8002010BDF0
:1014500070B518460C460A4A014601230C3A094861
:101460005BF7C8FA227852214A430E4900230D68DF
:101470005219FF3241325382227852256A4313E0D7
:1014800043FC000001080000B0B9FC07D9B9FC0713
:1014900030BCFC074000004058BFFC07C3C3C3C3B7
:1014A000A5A5A5A54CB9FC070D685219FF3241321C
:1014B000938222785224096862435118FF314131E6
:1014C000CB82002101704EF78DF8002070BD70B501
:1014D00018460C4601460123324A33485BF78AFA24
:1014E000227852214A43314900230D685219FF32B4
:1014F00041329381227852256A430D685219FF3296
:101500004132D38122785224096862435118FF3155
:1015100041310B82002101704EF764F8002070BD4C
:1015200070B5184616460D461E4A01460123D21CC8
:101530001D485BF75FFA04462888032800D3032080
:1015400047F75EFB002805D000212170A9786430A0
:10155000C17701E01220207020464EF743F80021A9
:1015600030465BF778FC002070BDF8B50E46104998
:101570001C4615460020C2008A5AA24209D1C0006A
:1015800040184768002F07D02A4631461846B8470A
:1015900002E0401C1928EED322463146284602F0CC
:1015A0004DF8F8BD38FC0000010800004CB9FC07FC
:1015B000FC57FC07064C0125064E05E0E36807CC06
:1015C0002B430C3C98471034B442F7D3FEF7A4FDEC
:1015D000A85EFC07C85EFC07014801210180704736
:1015E0000E1500500F48011F09880A0703D5D84A75
:1015F000D3895B1CD381CA070AD0028807239A4388
:10160000C54BDB7B13430380D14A93895B1C9381D9
:10161000490706D5018807229143BF4A127C0A4335
:1016200002807047B8100040B0B5B14B0820188058
:10163000052000070188302211430180048803211E
:101640000C4304801C896407FCD403889343038003
:1016500003888B430380B04CE38B4380238C9D1E17
:10166000184B5D8007251D8005881543058005887A
:101670000D4305801D886D07FCD4038893430380C8
:1016800002888A4302804289920702D042898A43B3
:101690004281018980220A430281018A0422914306
:1016A0000182818A8907FCD540F73BFE206B064901
:1016B000086006480168490700D500BE016849076F
:1016C000FCD5B0BD001600500802004010000040DC
:1016D000F8B500250095134E13497160B560316867
:1016E00004220A433260EFF31084012787F3108845
:1016F0003946814089B20D48FEF73CFD00903068C4
:10170000B8433060002C02D087F3108801E085F3E5
:1017100010880098414241418D4A91700249081A4F
:10172000F8BDC04610E000E0FFFFFF0000300050B1
:1017300080B50A2000F036F880BD80B50B2000F09F
:1017400031F880BD80B50C2000F02CF880BD80B54C
:101750000D2000F027F880BD80B50E2000F022F8A3
:1017600080BD000070B501258D404001064C049EEF
:10177000002E01D0055301E0261875801343201870
:1017800049004018838070BD023000508140012222
:1017900082400348038893430B4303807047C0464D
:1017A0001E30005070B5C0B203460A3B01210A4604
:1017B0009A4093B20A4C1C195C406608094B1C887D
:1017C0000025360402D06D1C760CFAE79443AAB2C9
:1017D0000D46954025431D8081404448016070BD01
:1017E000FFFF01000E14005010B50321CA010521AE
:1017F00009070B885B0113404A8A3E4C1440E218EB
:101800004A820368114A1360436853608368936097
:10181000C368D3600369136143695361836993614A
:10182000C369D361106235480368536243689362A9
:101830008368D36243691363C36853630069906329
:10184000888AC00600D4FEE700BE10BD0090FC07E9
:101850000248008825481021016070472C13005071
:1018600010B5052109070A8A042313430B820A894C
:10187000402313430B811D4A012313601C4A082394
:1018800013800322D2010B885B0113404A8A194C52
:101890001440E2184A820368174A13604368536091
:1018A00083689360C368D3600369136143695361BC
:1018B00083699361C369D3611062104803685362FE
:1018C000436893628368D36243691363C368536355
:1018D00000699063888AC00600D4FEE700BE488A8B
:1018E000074A10408018001D488210BD80E200E0C9
:1018F000003300507FFE00005090FC0728ED00E010
:10190000FC7F00007047000080B5F648C06A0028E0
:1019100001D003F0F1FD80BDF08EFC079949CA6A41
:10192000002802D0824200D9C86A0A6B904200D9CE
:10193000086B084A108048780221814006484843D5
:10194000002803D000BF00BF401EF9E77047C04623
:10195000EC63FC0702000050F10600007047000035
:1019600010B50F4CA1880F200840022806D004288B
:101970000BD00C280CD00128F4D110E020880221D3
:10198000884320802088802106E003F0E7FDE9E716
:1019900003F0E4FD2088012188432080E2E710BDA8
:1019A0000411005005210807028830239A43028061
:1019B000028803239A430280828812050DD5184AB3
:1019C00013880B40052B08D1108804210143118096
:1019D000108801218843108070478188C90606D588
:1019E00010498A88D20702D00A88120610D480884B
:1019F000C0060CD50B488188890708D50188C90520
:101A000005D5022181800188074A0A40028070477B
:101A10000120888008888022904308807047C04653
:101A20000002005000010050FFFE0000FEB5F74C20
:101A3000002121800327FD01294690316180402645
:101A4000A6805C22F2498A5AA281A28932433023BD
:101A50009A43A281464A1660BFF34F8FBFF36F8F40
:101A6000002800D17FE0019702952288B2430578D3
:101A7000AB0113432380E788702297434378190111
:101A80003943E180002D05D1E1880725A9431B09D1
:101A90000B43E38021880425A943C3789B000B43B3
:101AA000238001790902A388DBB25918A180E1885B
:101AB0001140304F40292DD16220D549085A0028C5
:101AC00000D12F482F49488101200003218801437C
:101AD00021801920FFF7C4FA029A1046803021882D
:101AE0000143218020883043208060882843608023
:101AF00060882549014061800F20400261880143D0
:101B00006180403760883840104360806088019968
:101B1000884327E02188184A0A40228081781029CA
:101B200000D300BE6288154B1340490219436180FF
:101B30006188019A914342790A4362808179002940
:101B4000029A01D10A4600E08032218839401143CF
:101B50002180C079082800D300BE40376188394011
:101B60008001084360802088012101432180FEBD5F
:101B700080E100E0FFFD0000FFEF0000FFE100005A
:101B800040760000EC63FC07FF1F000010B5016801
:101B900000290CD5036802680124A40700688000AE
:101BA000800C00195B0001D4028000E00270C80FB5
:101BB00010BDB0B50C460025202D04D040F79FFE87
:101BC00060556D1CF8E70020B0BD000010B504465C
:101BD0000548064970225DF78FFA0548001B054944
:101BE00008801430488010BD70A0FC07D458FC0752
:101BF000B8A0FFFF78A0FC0710B507480188074A86
:101C00001368114C234059181160408851682140D5
:101C10000818506010BDC046183000408CA0FC076A
:101C200010B507480188074A1368074C2340591824
:101C300011604088516821400818506010BDC046AE
:101C40003830004098A0FC070000FFFF07481E2125
:101C50004180018803220A430280018804220A434A
:101C60000280CA48012101707047C046001600502A
:101C700080B50D480078C00708D105205BF700F952
:101C800000280FD12A200A49085C04E00748417D5A
:101C9000012907D1007D41424141C21E50425041BD
:101CA000084380BD002080BDFDB9FC0788BDFC074E
:101CB00030BDFC0707480168B44A927D002A04D071
:101CC000064A1140064A891801E0034A11400160A2
:101CD0007047C046B810004077F7FFD577F7FFC0D0
:101CE0008808002AF08EFC07704780B55FF744F93A
:101CF00080BDF8B56946C870020A8A70020C4A7045
:101D0000000E087008465FF71FF98FBDF0B585B06B
:101D10000E46E7483A4A022519462B465AF76AFE0C
:101D2000074633783748029005220620002B1146DB
:101D300000D00146002B00D01046764A1288D2050A
:101D400000D5014602A841702F490391FFF76EFEAE
:101D50002320FFF785F92D490888284308800122B0
:101D6000130208888007FCD4CA81088A284D4C8851
:101D70002407009706D40E884024344006D02E460F
:101D8000563605E02E4660365E3506E02E465A365B
:101D9000002C01D0543500E0583500242F5F019409
:101DA000355FC0334C881C409C4205D04B88DB0516
:101DB0005B0F0624E31A01930B8893430B80154CA9
:101DC00060433E1931465DF71DF9074665432846D5
:101DD00031465DF72DF9391AA1420B4600D323464F
:101DE0000D4A002591422946009800D81946019ACB
:101DF000D14001804DF7F6FB284605B0F0BDC04646
:101E00001AFE000001050A00000301010015005040
:101E1000C48BFC07FFFF0000FEFF010010B5194650
:101E2000A348044A002423465AF7E4FD4DF7DAFBA1
:101E3000204610BD07FE0000FEB51C460F469C481C
:101E4000204A022321465AF7D5FD0446797801201D
:101E5000002202910C29034600D313463D786942C3
:101E600069411940FE780C2E034600D31346BF7813
:101E70007A427A411A400A404240228020464DF779
:101E8000B1FB208800281BD10F48FFF7E9F83F4835
:101E9000C17C807C0024009422462346FFF762FC2C
:101EA0003A48417D007D009422462346FFF75AFCC4
:101EB000284602993A46334603F0E4FB03F0BEF8A5
:101EC0000020FEBD09FE0000E2040000B0B51D4682
:101ED0000C46DD480E4A012329465AF78BFD0021A6
:101EE00001702278511E13468B4128498B75094990
:101EF0000B88DB0507D4531E9A4192024B8D064C8A
:101F00001C40A2184A854DF76DFB0020B0BDC046AD
:101F10001CFE00002A000050FFF90000B0B51D466D
:101F20000C467F204202C848042329465AF762FD26
:101F300021785F2903D0332901D103490988016041
:101F40004DF750FB0020B0BD0200005010B51946FF
:101F5000EF480D4A08235AF74DFD0446EF488079B3
:101F600002280ED103F0D0F90848816D2180416E1E
:101F70006180016EA1805830008AE08020464DF7D4
:101F800031FB002010BDC0460DFE0000F08EFC07A6
:101F9000F8B51946DE48264A012423465AF72AFD99
:101FA0000546244E378827400FD1308820433080A3
:101FB0003088282101435020814331803088062118
:101FC000014331801C48FFF74BF83088C00701D12E
:101FD000FF2021E00095194D68886C802888082131
:101FE00088432880288802210143A143298028882A
:101FF00004210143298000262888400706D5632E46
:1020000004D86420FFF72CF8761CF5E728884003F5
:1020100000B2C013009D074E2870002F02D13088F7
:10202000A043308028464DF7DDFA0020F8BDC046B9
:1020300016FE000022000050400D03000016005064
:1020400070B51946EE480C4A42235AF7D3FC0446B1
:102050000E250570801C094E31462A465DF74CF866
:1020600065702046223031462A465DF745F8204605
:102070004DF7B8FA002070BD08FE0000885EFC072E
:10208000B0B50D46DE480B4A0124194623465AF7DF
:10209000B1FC2A780B2A04D807490988D14021408D
:1020A00000E0FF2101704DF79DFA0020B0BDC04651
:1020B0000108000013FE000000300050F0B587B0AA
:1020C0000E46F048614A0124194623465AF792FC0D
:1020D0000490357800210B2D204600D808467279EF
:1020E000059232790392F778B27806927278032AD1
:1020F00011D8920002A39B580A460E469F46C0463E
:102100002F21FC071121FC072121FC072921FC07B5
:102110000122160206E0012046020022204606E0C7
:1021200001225602002202E00322160222460296F3
:10213000069B012B234600D80B46012F264600D8CC
:102140000E4605996429214601D8164031460029DA
:10215000214600D11946002900D10446FF26002C53
:102160006AD1284601F0E8F9284601F003FA0398FD
:10217000002818D0012F28D0002F049C5DD13548AD
:10218000418B0122914341835002AA4030490A8089
:102190006A00511848800699481E81412846FFF779
:1021A000F5FA002649E0781E41424141009100269F
:1021B00030462946029A3346FFF7D4FA0699481E5C
:1021C00081412846FFF7E2FA36E001242046A84084
:1021D0001F490880680040180326310217314180EA
:1021E0000699481E81412846FFF7D0FA4D480188DC
:1021F000082211430180018831430180154D688B0D
:1022000010436883688B0421884368837D20C10064
:102210000398414310485CF7F5FE401E288028884B
:1022200000266E80411C0598484364215CF7EAFE55
:10223000E881688B20436883049C267020464DF714
:10224000D1F9002007B0F0BD0108000012FE000027
:10225000043000500834005080841E00FEB50E4645
:10226000B2482C4A012519462B465AF7C3FB0446AF
:1022700077783678304601F05FF9002E01D1264894
:1022800005800B2E3DD8022F3BD20294234C002018
:102290000190E071267267722570E079217A0095CD
:1022A00003273E0210233246FFF75CFAE079207ADA
:1022B000617A4A1E9141FFF769FAE943184802889A
:1022C0000A400280174A938B0B409383118808239E
:1022D0000B43138011883943118001990180FF213C
:1022E0000906114A13688B43E90759181160E8364B
:1022F000468086800D49C18001882943018002986B
:1023000002E0FF20207020464DF76CF90020FEBD52
:102310000108000017FE000000030050EC63FC07FA
:1023200000340050040000500CE400E0FFFF000007
:10233000FEB51C460D467D48184AF22321465AF741
:1023400059FBAC781221002C22D03C2C20D82A88B2
:10235000FF21C90455180190471D0094002C14D08A
:1023600002AE04222846314602F014FAF81E029901
:102370000170B81E71780170781EB1780170F07824
:102380003870641E2D1D3F1DE8E700210198009C58
:10239000447001704DF726F90020FEBD04FE0000D8
:1023A000BCB51C460D466148164A072321465AF71C
:1023B00021FB044628782070032807D002281AD170
:1023C000611C1248062202F0E5F914E06879A97947
:1023D00009020818019028790006E978090408180C
:1023E000A9780902401869784018009006486946A3
:1023F000022202F0E1F920464DF7F4F80020BCBDBE
:102400000108000003FE0000D47F0000D47FF8071D
:10241000F0B585B01C460E4644481B4A02232146AF
:102420005AF7E8FA0446002103910291B778122086
:10243000002F1AD03C2F1DD8F51C01963688002F8E
:1024400015D0E8780006A978090408186978090207
:10245000401829784018029002A90122304602F063
:10246000ABF97F1E2D1D361DE9E70F4602E00198EE
:10247000877800206770207020464DF7B3F8002061
:1024800005B0F0BD0108000005FE000010B51946BA
:1024900026480A4A012423465AF7ACFA0021017063
:1024A0004DF7A0F806480821018006484480052120
:1024B000018001880906FCD1002010BD1DFE00002E
:1024C000023300500031005010B519461748044A35
:1024D000002423465AF78EFA4DF784F8204610BDA3
:1024E0000AFE0000B0B51D460C46FF48104A0823FE
:1024F00029465AF77FFA0021417022780270032A98
:1025000010D861687A441279520097440103060991
:10251000096803E0A2680A6004E00988416001E0FC
:10252000A2680A804DF75EF80020B0BD01080000E7
:1025300006FE0000F0B58FB01C460D46EA48EB4A97
:10254000022321465AF756FA04462878E84FFE7DC2
:10255000012800D198E0002800D0FAE0A8780028EF
:1025600000D0F4E0E8780B2800D9F0E029790029C0
:1025700000D0ECE069790B2900D9E8E0A9790029BD
:1025800000D0E4E0E9790B2900D9E0E0297A0029BC
:1025900000D0DCE0697A0B2900D9D8E0697B0029FA
:1025A00007D0A97B002900D0D1E0E97B0C2900D31A
:1025B000CDE00C96CF4EB0476879B047E879B04788
:1025C000687AB047687B002802D0E87B00F0B4FF4F
:1025D000A878002802D1E87800281AD028790028A5
:1025E00002D16879002814D0A879002802D1E879AE
:1025F00000280ED0287A002802D1687A002808D056
:10260000687B002809D0A87B002806D1E87B002839
:1026100003D10120F87502F0ADFCE8780022B6493C
:102620000B28134601D84000435A68790B281646F8
:1026300001D84000465AE8790B280A9202D8400097
:10264000405A0A90687A0B28099202D84000405AF2
:10265000099002960393E87B0B2801D84000425A68
:10266000EFF31080012181F310880E918E02A34BAD
:1026700019880896314319800028049200D13FE15F
:102680000E9880F310883EE1287900285FD16879A0
:102690000B285CD8A978002959D1E9780B2956D89C
:1026A000697B002905D0A97B002950D1E97B0C2941
:1026B0004DD200F041FFE87800F03EFF687B002833
:1026C00002D0E87B00F038FF2879002802D1687931
:1026D00000280ED0A878002802D1E878002808D079
:1026E000687B002809D0A87B002806D1E87B002859
:1026F00003D10120F87502F03DFCE8780023E84999
:102700000B281A4601D84000425A68790B280B93CF
:1027100002D84000405A0B9007920A94A87B0B28DD
:1027200001D84000435A297BDE480180EFF3108135
:10273000012484F31088DC48028820270D973A434F
:10274000028000290C960FD084F310880FE0FF2040
:102750002080FE7502F00EFC02F03AFC20464CF799
:1027600041FF00200FB0F0BD002181F310880893D5
:10277000CE4E31880E94A14331803188C907FCD1F7
:10278000CB4F0020099038864821B9824F213983E8
:102790000821B98317213984398806229143398069
:1027A0001F21C943BA8F0A40BA873A8F0A403A8735
:1027B000BC48048838880E9B1843388038884022EB
:1027C00002433A8038880D99084338803A881020AF
:1027D00082433A80B74A521CB98811402143B980DC
:1027E0003188194331803188C907FCD0B2490A6861
:1027F000802313437F2293430B60B0490860A8787D
:102800004001A74BC018E9784900092242522879B3
:102810004001C018697949000A2242520E984402C8
:10282000687B002806D0E97BA87B099B00932246A1
:10283000FEF798FF687801280DD1E87AA97AB28866
:102840005207FCD5398220433882B0884007FCD536
:10285000B0888006FCD402F025FEA87AB18849072A
:10286000FCD538820A9CB0884007FCD503200002C2
:102870003882B0898006FCD0388AC0B22080687B5C
:1028800000280ED04B208000FEF7EAFBA87B400119
:1028900083490818801F0088E97BC8400E990840CA
:1028A0002080E8780B289F4F7D4902D84000079A86
:1028B000425268790B2802D840000B9A4252A87BFA
:1028C0000B2802D84000089A425230880E9988435B
:1028D00030803088C007FCD1F84908880D9A9043B1
:1028E00008800C9E35E7C0460108000011FE00007C
:1028F000F08EFC073935FC0706300050040000500C
:10290000002080F310886E4A20200D90108090885F
:102910001C21069108436021884390809088032100
:102920000591884390809088802398439080387BDD
:10293000FE2101403973002696810B96108907937A
:1029400018431081387BF1210140881C38731089AD
:102950000721014378208143118110884021884359
:10296000108010880D9988431080E978A878009627
:10297000059A12020592534F069BB8476979287948
:1029800000961A2332464F4FB847E979A879009646
:102990001B23059F3A464B4EB047697A287A0E9E14
:1029A00000961D233A46474FB8470B9F687B002887
:1029B00006D0E97BA87B009772023B46FEF7D2FE69
:1029C0006878012810D1E87A0690AE7A02F012FDFC
:1029D000304602F0B5FC069802F0B2FC38498F840C
:1029E00008880D9A1043088002F05CFDAE7A02F070
:1029F00001FD07980643304602F0A2FC384602F07B
:102A00009FFC2F4A978411880D9B19431180C0B2F7
:102A10002080687B0028C74F0ED04B208000FEF737
:102A20001FFBA87B40011E490818801F0088E97B16
:102A3000C8400E9908402080E8780B280C9E184961
:102A40000E9B02D84000039A425268790B2802D8A4
:102A50004000029A4252E8790B2802D840000A9AB4
:102A60004252687A0B2802D84000099A4252A87B49
:102A70000B2802D84000049A4252EFF3108083F3EF
:102A800010888E4A1188089DA9431180002802D021
:102A900083F310885DE60B9880F3108859E6C046F2
:102AA000063000507A64FC07040000506C1300509C
:102AB00000130050FFFBFFFF04E400E000E100E032
:102AC000001200506517FC07B0B51D460C46E948DA
:102AD000084A0123294659F78DFF05462078EB491E
:102AE000C87502F047FA00242C7028464CF77AFD8E
:102AF0002046B0BD1EFE0000B0B51D460C46EE4897
:102B0000074A0123294659F775FF002505704CF740
:102B100069FD2078DD4948733FF792FD2846B0BD36
:102B20001BFE0000F08EFC0710B51946E248054A6E
:102B3000012359F75FFF002404704CF753FD204632
:102B400010BDC04618FE0000FEB50E465748584D51
:102B5000012419462A46234659F74CFF00270770DF
:102B60004CF740FD4BF7F0F93078022816D00128D9
:102B700007D0002800D096E05848C7705A48077020
:102B800091E002F0F3FC4C480770B07871780A4687
:102B9000024360D151480221017167E002F0E6FC76
:102BA00044490820088044490F7072B6434EB289E8
:102BB00004210A43B281B28880239A43B280B2884A
:102BC000402302931A43B2803D4A118032883D4B24
:102BD00013403380FA433C4B1A60328AD206FCD44D
:102BE0007E35F2892A40F281E243384B9D881540B8
:102BF0009D80374D2F680F432F60B58A25430227EC
:102C0000BD43B582B58A0D4301908543B582B58A2F
:102C1000102028432025A843B082B0892043B081EA
:102C2000188810401880988A2A4A02400720C0025B
:102C300010189882A0039A8A02439A82F08C264A3E
:102C40001688C00517D4602006431680988A032290
:102C50000243029F17E0214A1471214A4A43192175
:102C60008901414388181F49096848621B48C4709C
:102C70001D48047017E02E433846029FBE4316805D
:102C80009A8A0243A2439A82988A019A10439882B0
:102C9000988A88439882188B3843A843188300BFCA
:102CA00000BF00BF30BF0020FEBDC04602080000CC
:102CB00001FE000000330050308CFC07040000507F
:102CC00000020050FFF7000080E200E00C0300501B
:102CD00010ED00E0FFC300005200005054BAFC07A2
:102CE0000077010058B9FC07B4BAFC07BCB51C4614
:102CF0000D46B2480E4A0023214659F77BFE044692
:102D00002878B34D2871A87900280BD15F48583036
:102D100012215CF70AFA297901A8017047F736FFFA
:102D20000220A87120464CF75DFC0020BCBDC046C7
:102D30000CFE0000F08EFC07B0B519469F480A4A09
:102D40000024234659F756FE0546A14880790528F8
:102D500008D102F093FB02F0D7FA9C4804602846A1
:102D60004CF740FC0020B0BD10FE00007CB51C46B6
:102D70000D4692481D4A0023214659F73BFE044662
:102D80002878934E30716878F070B079002828D197
:102D900001AD2520687030792870F078A870FEF7B2
:102DA00089FF284647F765FE0120C20387490B6863
:102DB00013430B6082030B6893430B6002030B68A1
:102DC00093430B600A680A4B13400B600521B171F5
:102DD00000027C490860BFF34F8FBFF36F8F02F092
:102DE00019FB20464CF7FEFB00207CBD0FFE0000C7
:102DF00000FEFFFF80B50878754A10714878507161
:102E00008878D07008790002C9784018108202F0E2
:102E10005DFA002080BDC046B0B50C461548164A84
:102E2000012519462B4659F7E5FD2178052900D8DB
:102E3000002505704CF7D6FB4BF786F87D20FEF792
:102E40000FF92078052804D80CA1095C0DA2105CAC
:102E500001E00B2108200D4A5176107603223FF73E
:102E600025FC002420463FF77DFC3FF743FC20462D
:102E7000B0BDC0460108000015FE00000301060BAE
:102E80000001000068341108011A0000F08EFC07F0
:102E900070B50C46D048094A642519462B4659F7A7
:102EA000A9FD064621462A465CF726F930464CF72E
:102EB00099FB002070BDC0460108000014FE000010
:102EC000F8B50E46C4483E4A002519462B4659F728
:102ED00091FD0446307854282CD0522812D04F2827
:102EE0006AD102F0CBFA3A4EB079062854D00728BE
:102EF00058D102F009FA0120C00734490A68824318
:102F00000A604FE0012000022E490860BFF34F8F96
:102F1000BFF36F8F7578FEF7CDFE6846057047F7F3
:102F200035FE2948401C29490A6802430A6028489E
:102F300007212DE00120000222490860BFF34F8FD6
:102F4000BFF36F8F7678FEF7B5FE224D2846FEF769
:102F50001DFE0C20071D342F05D02818FEF716FE85
:102F600000283846F6D13820071D582F05D02818DC
:102F7000FEF70CFE00283846F6D1174803214170B1
:102F800016483018164A106016480160104806218D
:102F9000817102F03FFA0CE0124805600E480221F0
:102FA00081700580012000020F4908600F49086008
:102FB000B57120464CF716FB0020F8BD0108000053
:102FC0000EFE000080E100E0FFFFFF7FE000004018
:102FD000EC63FC0770A0FC070410004000016209CC
:102FE00004300040AC10004000E100E080E200E06E
:102FF000F0B58FB00D467848784F022419463A460E
:10300000234659F7F7FC0646297807291DD8687822
:10301000AA7812021218C0467944097949008F44EF
:1030200016191C2F394203036D49FE2802465AD156
:103030000F46891D00200C2850D00A880F2313400A
:10304000012B4ED0891C401CF5E70024D1E16548D6
:1030500000882DE06348028029E06248018A01224D
:10306000120280320A40802A06D1418AC906FCD465
:103070007D37018A3940018203200002401D14E09F
:1030800090B2FF210C1A57490B8800209C420FDB9D
:103090009A1806E053490B8894B20020A34207D344
:1030A0009A1A0A8004E001204002FE4908820020AA
:1030B00030800024FC4AD17C907C137D984204D15E
:1030C000527D914201D10027B9E1002217460092BA
:1030D000032212020223FEF745FBB0E10C22FF207F
:1030E00000E0024639460594C7B200240C2F01D3F4
:1030F000204602E078000818801D0B2F09902DD87B
:103100000496079504880392D6B2304600F014FA6C
:10311000304600F02FFA002E0BD1E348817C0029C5
:1031200007D1C07C002804D10120DE4988804002FC
:10313000C8800120019000020999088007998978C8
:1031400000220E920D9202920C92002908D00129C1
:103150004AD12546AF229300D54A04E0042046E137
:103160002546D24AFA23D34E0A24F4623363B2636B
:10317000F463142232646E227264F26AF264326B77
:1031800032657170716C71630B2F2C462CD8B900AD
:1031900001A251588F46C046C931FC07F331FC07E4
:1031A0000332FC071332FC072332FC073332FC07DF
:1031B0004332FC075332FC076332FC077332FC07CF
:1031C0008332FC079332FC0703210902B54BDA88EE
:1031D0008A430243DA8063E00108000002FE000037
:1031E0000030005002000050079D049E039A029890
:1031F000FDE003210902AB4B1A898A4302431A817D
:103200004EE003210902A74B5A898A4302435A819F
:1032100046E003210902A34B9A898A4302439A811B
:103220003EE0032109029F4BDA898A430243DA8197
:1032300036E0032109029B4B1A8A8A4302431A8211
:103240002EE003210902974B5A8A8A4302435A828D
:1032500026E003210902934B9A8A8A4302439A8209
:103260001EE0032109028F4BDA8A8A430243DA8285
:1032700016E0032109028B4B1A8B8A4302431A83FF
:103280000EE003210902874B5A8B8A4302435A837B
:1032900006E003210902834B9A8B8A4302439A83F7
:1032A000706BFEF73BFB3846FEF712FA0C900C9859
:1032B000B16B884205D30C98B16B401AF16B884210
:1032C0001AD90C98B16B884205D2B06B0C99401A90
:1032D000F16B884210D90C98B16B8842069415D9CD
:1032E000306D0A90306DFEF719FB3846FEF7F0F9A5
:1032F0000E9000200B9014E03436039A3068411C85
:1033000072D0801C079D049E5BD070E7F06C0B9020
:10331000F06CFEF703FB3846FEF7DAF90D9000205B
:103320000A90002408970C9AB36B706B0C999A4220
:1033300002D90D910B9001E00E910A90B06B0D9B9C
:103340000DA90EAA0E9FBB420B4600D313461B6865
:103350000D9F0E9DAF4200D811460A68D11A121A6D
:103360000B9D0A98401B50435BF762FE4019706347
:10337000706BFEF7D3FA0898FEF7AAF90C900C9838
:10338000B16B884205D30C98B16B401AF16B88423F
:103390000DD9601C0C99B26B914205D2B16B0C9A9D
:1033A000891AF26B914202D9092C0446BBD3B0783A
:1033B000002808D00020FEF7B1FA079D049E069C65
:1033C000039A059813E00C98B16BF26B891A884246
:1033D000069C05D30C98B16BF26B5118884250D9FA
:1033E0000020FEF79BFA039A079D049E0198308007
:1033F0002978FE200840062817461DD102202043C8
:103400001F210140032917D10694D1B20120884021
:1034100024492A4A13460C88204204D05B1CFAD364
:1034200001E0521C02D20B881842FAD07D20000124
:10343000FDF716FE069C3A46100600D13AE63046E5
:103440004CF7D0F82878FE210140062916D1022039
:1034500020431F210140032910D1F9B201208840E7
:10346000174A10490B88184203D1531E12041A46FA
:10347000F8D10998002801D00998048000200FB0E5
:10348000F0BD0D480088B064B06CF16A8842039AC0
:1034900002D8B06C0028A7D1B06C316B8842A3D29F
:1034A00048362BE700300050F08EFC0700127A00FF
:1034B000007C9200EC63FC0702000050E708C9FFA3
:1034C000B68C000080B51B4800210160FDF7B4FDFB
:1034D000164800781F214901134A13688B43C00620
:1034E000800DC018106080BD80B5114802210170A8
:1034F000FDF798FD80BDC04680B50B480168890581
:10350000C90E0A4A11701F21490102688A430260EC
:103510000748012101700748016803220A4302603D
:10352000FDF78AFD80BDC0464C120040CC5EFC0712
:1035300006100040AC1000400C490A8802280DD04B
:10354000D205920F052801D1012A07D0012801D107
:10355000022A03D00A2808D1032A06D14888C006C7
:10356000FCD40888024A02400A80704712000050CA
:103570007FFE000080B5002814D1D048C17D02290B
:1035800010D0C17C827C13460B4301D10223C3754A
:10359000037D934204D1427D8A4201D10121C1754C
:1035A00001F0E8FC80BDC046FEB51446002918D0E5
:1035B00005460127002B17D0CA182388002D18D0E4
:1035C000087828706E1C0220002B0FD002938B1CF1
:1035D00093420AD84B783370029B012B0ED8AE1C55
:1035E00004E00021084602E02E463846711B218087
:1035F000FEBD881C012690423046F7D88E1C4878C4
:103600008006000E029031463018AE1C9042ECD875
:10361000002D0CD0E81801903046029F3A465BF727
:103620006BFDF0190199884203D8002002E00020C8
:1036300001E00120400002997618D7E770B51346E3
:10364000024600200E4C102808D0255A9D4201D079
:103650000830F8E720184468002C0DD10020094CF0
:103660000546F02D0AD0665B9E4201D00835F8E78A
:1036700064196468002C01D01846A04770BDC0468C
:10368000985EFC074459FC07FEB51446002905D096
:1036900005460120022B04D22E463FE0002088215F
:1036A0003DE02288AF18002D09D002970E784F78A0
:1036B0006F702E70012A06D8AE1C02202EE0032B5C
:1036C00005D202262AE0032B03D2AE1C26E08A781C
:1036D00005E08A78AA70EE1C029FBE42EDD80297E0
:1036E000CB180193C91C9206120E8B180093EE1C86
:1036F000019B009F9F4211D8002D09D030461746EC
:103700005BF7FAFCF019029A904204D8002003E01B
:103710000020174601E001204000F619711B2180AE
:10372000FEBD000070B5EFF31081012080F310881A
:1037300005221207148880231C431480274C256817
:103740000726B543256065686D07FCD5244D2561C6
:10375000244D656114889C431480002902D080F3B5
:10376000108870BD002080F3108870BD18B51B490B
:103770000B68072213406C4623702378834206D0DF
:103780000B68934303430B6048684007FCD518BDA2
:10379000B0B5EFF31081012080F3108805221307E4
:1037A0001A88802414431C800C4A14680725AC43F3
:1037B000146054686407FCD51B881B0600D400BE47
:1037C000074B1361074B5361002902D080F3108827
:1037D000B0BD002080F31088B0BDC0460000F407E3
:1037E0000F009909090404A4B0B50D46044605204C
:1037F00000070088000600D400BE1046FFF7B6FFA1
:10380000FF20C004A90008582168091A484248410D
:10381000B0BD000070B5174EB06800F02DF8274914
:103820004A6B00234B631518084C284621465BF76A
:10383000E9FB706106494143481901D0201A80B262
:103840003061306808210143316070BD71020000B1
:103850008FFDFFFF80B506480021016001F000FDEB
:103860000120C00703490A6882430A6080BDC04640
:10387000A8B9FC073000004080B50246C00B09D053
:103880000E48006C00210B465BF7E6FB8905800AB9
:10389000401880BD0948006C4243900A80BDC04674
:1038A00080B5FFF7E9FF80BD80B50449896B4143CE
:1038B0000348081803495BF7A5FB80BDF08EFC07A1
:1038C00020A1070040420F0000B59BB089480825A1
:1038D0000580894E308816AC20802088C046C046BE
:1038E00020880422D1430842159202D00020308063
:1038F00003E0B08901218843B0813346B08B7F4912
:10390000014007200B90C0020818B0837C4F388814
:1039100028433880F88D06229043F8850124A003BF
:10392000B18B0143B183388876490140398078886A
:1039300005921043A8437880052010900607718DEA
:10394000714AFF32F88D10407D22D2000A950F2572
:1039500014952D03C9051394079206951BD40321D2
:1039600049020843F885F88D2843F885988B0A9911
:1039700088439883988B0421884398837888634987
:1039800001407980F88D13990843F885159D708D55
:103990004007FCD519E0114618310843F885F88D29
:1039A0005B490140139CE0030818F885988B0A993D
:1039B00008439883988B159DA8439883F88DA0435E
:1039C000F885988B402188439883988B03210F9129
:1039D000084398833988202211434020C043014086
:1039E0003980198C0C92114301401984F18A80228C
:1039F000099211430140F182318EFF2291433186B9
:103A0000318F29431822049291433187318FA022AC
:103A10000A43024032873F480580B0883E49014052
:103A2000B180139F38043D490860FFF7B1FE0220C2
:103A30001290FFF79BFE3A480068C1B20C20AA29F9
:103A4000014600D029463288824388183080C0461B
:103A5000C04634480068344909886824334A002540
:103A60001553334B1A464432918058643846C04649
:103A7000C046304F381F00682F49884200D02DE1E2
:103A80001194149800071590042000210E9104460B
:103A90003918081F3A46EC32904200D323E10068FF
:103AA0001790179B1598034009200707179ABB42E8
:103AB00058D1179B1F0AFBB21493D2B2921F112A3E
:103AC00000D9ECE05200C0467A44928852009744F4
:103AD00035008700E600E600E600E600E600E600C6
:103AE000E600E600E6009C00B000C400D300E6005B
:103AF000D900DE000033005004030050FFC3000073
:103B000052000050FFBF000000F0FFFFFFF900006F
:103B1000FF0F000000020050FFF7000080E200E00D
:103B2000D07FF807D47FF807D87FF807C48BFC074D
:103B3000F08EFC07D47EF807A5A5A5A5C44A119868
:103B4000105CC0001018149A92005BF7D5FA119916
:103B5000BF4A505CC0195054C0B2052800D29EE044
:103B600000BE9CE0900F0FD01798BA4988420BD83E
:103B70002046083031462831179A8A4226D1B64F5E
:103B8000E159B64A118082E71798159A10400B99AF
:103B90000907884205D10020C046C046201DAE4F0F
:103BA00075E7179810401399C9078842AA4F0BD0A0
:103BB0001798104010994907884205D0179810406F
:103BC0000F994907884279D1201D60E7B11C179AE7
:103BD0008A42A14F69D1E15966229D4B995256E71D
:103BE00069220D929A4B985CC00018181030149AF4
:103BF00092005BF781FA0D99954A505CC0195054B8
:103C0000C0B20D284BD300BE49E0934AA1584843A7
:103C1000A258120C801A00B2C0088D4B4033D882D3
:103C200088B2101A81088E4A11400818401C9882E8
:103C300035E0894AA1584843A258120C801A00B2B4
:103C4000C008834B4033588388B2101A8108844AD5
:103C500011400818401C188321E00E9FB80018AAD4
:103C60001018149A92005BF747FA1498C7190E9728
:103C7000032F14D300BE12E0774820586221744A03
:103C800050520CE0744820587149086507E07248AA
:103C9000205864216E4A5052000400D100BE14988E
:103CA00080002018001D6C4FF1E631462431179A30
:103CB0008A4209D1E159694A5180E8E61798401CC7
:103CC00011D000BE2046E2E631462031179A8A42E2
:103CD00000D0DCE6E159614A9180D8E666205C4973
:103CE0000C5A604A38E05A4C20464030189981837B
:103CF0000921199A5143130CC91A09B2C908018440
:103D000091B2591A8A08564B1A405118491CC1835E
:103D1000119AA05CC10701D000BEA05C4008A0546D
:103D20006920215CCA074F4A01D000BE215C4908C6
:103D300021546420215A002901D10799215266207B
:103D4000245A002C08D148490968C9B2AA29099CFB
:103D500000D06E243E490C52139F38020E90D4833B
:103D6000B08CB843B0840D20FDF77AF970893843E0
:103D700012998843708170894006FCD57480079839
:103D8000FDF76EF970890F9988437081708900067C
:103D9000FCD57F20334948703348806933498861B6
:103DA000FFF7C0FC324800683249884200D051E138
:103DB000314832495BF7B9F90B98010230485BF79B
:103DC000B4F9FCF7DDFE2F482F4901602F48304938
:103DD0002A225BF791F92F480021C171817141714D
:103DE0000171C1708170149141703F21089101707F
:103DF00029482AA1402211925BF77EF94B208200CC
:103E0000364837495BF778F91720C043354D00280D
:103E10000BD032490A1851239B00D21832A10B183B
:103E2000183392CB92C20C30F1E70E994431344AE8
:103E30001E20002866D01590284843181446A1CCAF
:103E4000A1C31598274D401E0C310C32F1E7C04636
:103E5000C48BFC074C420050D47EF807A000FC073E
:103E6000FF3F0000F08EFC07D07FF807EC63FC07F3
:103E70009CB8FC076587341200A0FC07AC14000056
:103E800000B9FC0760BAFC079C5BFC0700BAFC07A2
:103E90007CFCF107DAB9FC07B0BCFC07200080000D
:103EA00000C0000000008400000028220000000084
:103EB0000000040000F7FFFF7F00000030F0FF0F5C
:103EC00000000000000400000000000000000000EE
:103ED000000000000000000000000000348CFC071F
:103EE00038FBF1070033005000FD0700715EFC074E
:103EF0006D5EFC0701FD0700715EFC07585EFC0764
:103F0000345AFC073A20F1494885F148C862F14823
:103F1000139F0770F048F1490160F148F1490160D1
:103F2000F149F2480860F2480A210170F1481499F9
:103F30000170F14832210D910170F0481099016033
:103F4000EF480760EF480160EF4805990160EF48CE
:103F50000B990160EE480A9C0460EE48EE4901604E
:103F60000E98801DED490860ED49086000F076FC70
:103F70003089302188433081308909990843308164
:103F8000308920433081308CB84330847089049963
:103F9000884370813089119A10433081308A04211E
:103FA00088433082B08A8007FCD510910699FF3192
:103FB000F08C08400B2109020143F184F08C139B23
:103FC0001843F08470890A99084310210B918843A3
:103FD0007081708C98437084308990433081D148CF
:103FE00037309C07216801402160089F7802CE4A43
:103FF00011688143580308181060CC48411C1068B0
:10400000069108431060CA480068CA49884215945E
:104010003DD0C0480068C4498860C74A9069907420
:10402000010E5175010C1175000AD0740E98C03044
:10403000C2490A46002818D0401E435C1478254621
:104040000F9F3D40BC4F7D19AD7C5D4065401570B4
:10405000521CEFE7BA48B949109A5202954200D96A
:10406000A6E62A586A502D1DF6E7B34D5435B349DC
:104070001C2228465CF7D4FF002800D000BE28464A
:104080005CF762FFAA48AB490160AE4D159CA148A0
:1040900000683EF7DFF8AC48149F0771C7702068CE
:1040A0000E9908432060FDF7D1FD139C204600F0D7
:1040B0005DFCA1498F711298C8700F71252048715D
:1040C0000D980882A048C770A0480770CF81A0480B
:1040D000583012215BF729F893490868069A104373
:1040E000129F0860F08A0999084311998843F08269
:1040F000FFF7B0FB0F20FCF75FFF6002019008980C
:1041000080020690E40393489349081893494018A5
:104110008008401E08900F943089000600D435E1D5
:104120001598006B204200D030E187480088C00716
:1041300000D02BE159F761F90025284600F016FC64
:104140008348407C042800D094E0139800F00EFCD3
:10415000179517A8042149F7F1FC00287C4B00D1E2
:1041600088E013987E49086008680028FCD11598FB
:10417000C069596A884201D25D622946411ACA095A
:10418000997B182A01D8002974D0002905D0986A93
:10419000401C986200F09CFD6CE05862714C2088D5
:1041A000059060880490A0880390E088029019959B
:1041B0006D48189018A8FDF739FC654B0798173023
:1041C0002189014059836189014099832089069A98
:1041D00010400199084320816089104008436081A4
:1041E00020883843208020888007FCD41398E08101
:1041F000208A514949895A8B2389069C23401343BD
:10420000584A1381524A928B564B5B892340134381
:10421000544A5381401A07994143002804DC534A09
:104220008918C017084001E0514808180F9C5149EF
:104230005AF7FEFE83091933454A50787F280FD07C
:10424000181A41B2C9114840401A40B2082808DB88
:10425000906A401C9062009300F03AFD009B3C4A3B
:104260005370404804994180039981800299C1802C
:10427000059901804048806DF64A9179012905D160
:10428000002803D1957101F021F8F24AD089118AF2
:1042900088420DD3907901280AD1D581F648294664
:1042A000F64A2B4658F7A6FB4BF79CF901F02CF881
:1042B00059F7A3F8F843EE490978C91E81425DD841
:1042C0006420EF490860E04D26E7C04600BAFC07CD
:1042D000348CFC07FDB9FC0750B9FC07603FF207BE
:1042E00054B9FC07C05CFC0758B9FC07C45BFC0769
:1042F000B0B9FC07B1B9FC07D9B9FC075CB9FC0738
:1043000060B9FC0764B9FC0768B9FC076CB9FC0725
:1043100070B9FC074CB9FC0700A0FC0748B9FC07C2
:1043200044B9FC07C8FEFFFF00020040FFFF1F006A
:104330009CB8FC0765873412EC63FC075C8FFC07B4
:1043400000B0FC070033005054BAFC07B4BAFC07B5
:10435000F08EFC07C05D00001001FC07030004F8AC
:10436000FC00004000150050010400002BFDFFFF81
:10437000D5020000AA050000B0BBFC07C04A1068C7
:10438000411E11600028B04D00DDC5E6FDF770FC50
:10439000002800D1C0E672B6B4480079022814980B
:1043A00002D0AE480068406A18902889C00700D043
:1043B00047E158F7EEF8002800D142E1AB48C07859
:1043C000002861D0B08AC00700D0C0E0A7480088AC
:1043D000002859D1AB48806A002803D09F48006864
:1043E000406A189000F03CFFA048817818A858F760
:1043F000C8FE002848D015980069400644D49B4860
:10440000817818A849F79AFB00283DD04BF718FB94
:10441000002800D115E149F793FF002800D110E1F1
:104420009248817818A858F7ACFE002820D015983B
:10443000006940061CD48D48817818A849F77EFB96
:10444000002815D00698FF308F4A118801400E9839
:1044500001431180189A002A1DD01598006A8049DE
:104460004018DA28C74B1AD8521E0592189217E046
:1044700079480078C00702D13EF724F904E0002013
:104480003EF770F93EF736F9FDF7F2FB002800D150
:10449000D7E030BFD5E000200590BA4B00E0059290
:1044A000188C6C4A116A08185062159FF86B774B8C
:1044B00018400843F863F86B75490840916A89020F
:1044C0000143F963F86B68490840516A49050818C7
:1044D000F8637048059A824200D300BEA949086D6E
:1044E000496D00235AF7B8FD0903000D41185948DA
:1044F000806A821C8A4200D0481E5C4909794A1EA3
:10450000914145F731FA6448C06A80471599086BB4
:104510002042FCD00E99534F38680842FCD03868CE
:104520000999884338606889452804D846216981FB
:10453000081AF24948633DF7C8FEB868EF490863B6
:1045400038680006FCD5308909998843308148488D
:104550000178308A109B18433082464A106818430D
:1045600010603A4A1089139DA8431081708A01296E
:1045700003D10B99884370821EE00B9F38437082F1
:10458000708A18437082FFF703F9708A384370828B
:10459000089842490860EFF3108085F3108831884D
:1045A000099A91433180002802D085F3108802E0F7
:1045B000002080F31088254A119B0C9C0025358330
:1045C000708D0E99084204D1214908881843A043F0
:1045D0000880108C18432746A0431084B08C139C8D
:1045E000A043B0840D20FCF73BFD70892043129955
:1045F0008843708170894006FCD50D987080B08A20
:10460000C006134A0F9C02D50F480A99018030BF9B
:10461000B08A108838431199C943084010800B4A6A
:10462000108C38430840108400F018F90F48C5700A
:104630000F4805700F4A1068109988431060024DAA
:10464000129F62B668E5C046003300500403005074
:1046500052000050EC63FC07FDB9FC0758B9FC0799
:10466000C8FEFFFF00020040FFFF1F0054BAFC0716
:10467000B4BAFC0710ED00E0010800000BFE0000DA
:10468000C85EFC0774BEFC073830005000FCFFFF1A
:10469000FF03E0FF40420F0058BFFC072000F40773
:1046A00080B549F7EAFE00F045FF80BD80B54BF7C5
:1046B000F2F800F03FFF80BD7CB514460D4606467B
:1046C000BE488178012908D1017A00790022009240
:1046D000032212020223FDF745F8304629462246FE
:1046E00049F749FC7CBDC046F0B569212448415CCE
:1046F0001030B24A527B00230C4E8B4212D24768D4
:104700000A2A3C4606D33D46074C2540204C2468E7
:1047100064042C430568B54200D127462F60083059
:104720005B1CEAE7F0BDC046FFFF01FC38300040EB
:10473000F0B568211248415CA04A527B0023124D1B
:10474000134E8B421AD290C80838AC4212D1FC01E9
:10475000640C2C460ED00A2A2C460BD303242402C8
:104760003C403F04BF0E3C192C60C488074F3C40BE
:10477000346000E0276008305B1CE2E7F0BDC04613
:10478000C48BFC07F08EFC074C100040FF010000BA
:104790007C64FC0770B514460D460646FEF7F8FF2C
:1047A0000220FEF7E3FF2846314622465AF7A4FCD2
:1047B000FEF7B8FF70BD0000F0B585B0039202911E
:1047C0000546052007070024234E019703988442DD
:1047D00040D0FEF7DDFF3888000600D400BE3888E0
:1047E000000600D400BEA000E90B00D000BE029974
:1047F0000F180495AD080320FEF7B8FF00222846E5
:104800003946D20709D10A68B260706032689207EF
:10481000FCD5401C091D0122F3E73068C007FCD01D
:10482000042238462946FEF7DFFF002810D0052273
:1048300038462946FEF7D8FF002809D00320FEF7A6
:1048400095FFFEF76FFF641C049D2D1D019FBDE7C2
:10485000FEF768FF05B0F0BD0400F407F8B5274E79
:104860000125F57500F086FB25480188802739432E
:104870000180244824A118225AF73EFC28A02B4985
:104880001CC81CC1FCF775F929482A49016005209C
:104890000007018830229143018001880324A1434D
:1048A0000180254908220A80818839438180E101FD
:1048B00003885B010B40418A204F0F40F918418269
:1048C0001F48072101801F4F0020B88038808320B7
:1048D0003881307E002801D0717E03E01A48308391
:1048E0000B21104622463DF7E1FE3C8100F070FBB3
:1048F0001648018829430180F8BDC046F08EFC07A8
:104900000015005020000840F99DF007000000004D
:10491000E3A1F107000000004FA4F1070000000030
:10492000A105FC07CF08FC07DF09FC07C000FC0756
:104930000000084007001000003300507FFE000018
:104940008810005004100050080B00000C030050A9
:1049500003480188034A11408918091D01807047E6
:1049600012000050FC7F000070477047B0B5D24D78
:104970002978012921D11249002803D0088840074D
:10498000FCD402E00888400717D400232B70C888A5
:104990008988000444181F204006492122465EF7FA
:1049A0005FFD2865696564214143080CA8630548DB
:1049B0006043800B401C40082864B0BDF08EFC07AB
:1049C000001600501111010010B5F44C08202070A1
:1049D0001120FCF745FB0320607010BDFEB5634855
:1049E00003260670624C20461438016814220A43DC
:1049F0006B218A430260A06A5E49C8610020C043FF
:104A0000A06220683F218843206020685A490840FE
:104A10002060606859490840012101918902029192
:104A2000401860606068402101433020814361602C
:104A3000A069534908400B2149064018A061A069AC
:104A40005049084071024018A061A0691821014333
:104A500027208143A161432020714B4880474B4868
:104A600080474B4880474148067000964948056892
:104A70004948804749488047206849490840E90536
:104A8000401820603C4D403520682840490C4018B3
:104A90002060412727716068384908400299401812
:104AA00060603948804739488047394880472F48F7
:104AB000067038480668384880473848804720687C
:104AC00037490840F1054018206020682840490C0B
:104AD00040182060277160682849084002994018F2
:104AE00060602948804729488047294880471F48F7
:104AF00000990170274800682168294A1140C205C1
:104B00008918216021682940264D0540A801081810
:104B1000206060680199884360601648C069A0629F
:104B200020681C2101432320814321602068124911
:104B300008402060A06912490840072189064018F2
:104B4000A061A0690F4908400F21C9014018A06168
:104B5000A0691E21014321208143A1610E488047A5
:104B60000E48804710484581FEBDC04605100040F4
:104B700018300040EC63FC07FF7FFFFFFFF9FFFFE9
:104B8000FFFFFFC03FF0FFFFE934FC07F934FC07EB
:104B90004310FC0788300040C534FC072F10FC0789
:104BA000FFFF7F00FF0100005064FC07704700001A
:104BB000F0B58BB03022002181541F221204354BF6
:104BC0001D68954301246204AA181A60334B344DC2
:104BD0004561344D344E354F354AC26106624362F9
:104BE0002D4A8262C562334A07604260E004D94AB6
:104BF000136883431360282903D001A84154491C3A
:104C0000F9E7DA480068403001A928225AF774FA17
:104C1000EB4D09206873FFF7D7FEFFF789FDFFF71B
:104C200063FD00F027FA00F015FD00F069F8FFF7CA
:104C3000D5FEAC7321480088072101402974FCF798
:104C400093F9FCF7D9FFFCF7EBFF1D490B881D48D2
:104C500004681D4A1440E31803601C4B1C888569D6
:104C600015402C1984615B88C4691440E318C36142
:104C70004B8A046A1440E3180362898A436A13402A
:104C800059184162B54802218170002101800BB0A2
:104C9000F0BDC04674000040FD4CFC07F94CFC0719
:104CA000E54DFC07C94DFC070519FC07A14DFC07A4
:104CB000A34DFC07AD4BFC07F08EFC07B81000407D
:104CC0001030004088A0FC070000FFFF6430004067
:104CD00080B5FFF779FEFFF707FD00F0CBF900F094
:104CE000B9FCFCF741F9FCF787FF9C480221817071
:104CF0000021018080BDC046002070477047000041
:104D00000E4908880E4A024001204302D2180A8048
:104D10004105904A13688B431360810700224A675C
:104D20001F2212044B6F9343400418184867086809
:104D3000E0220243102082430A607047383000505E
:104D4000FFFC000080B51F20000401218A07536F7B
:104D5000834348041818506710680721884310607F
:104D60000D48018808220A430280FFF72DFEFFF755
:104D7000DFFCFFF7B9FC00F07DF900F06BFCFFF7FA
:104D8000BFFFFCF74DFF75480221817000210180B3
:104D90000F20FCF711F980BD0800005004100040FE
:104DA000704780B5E62800D3E620282800D82820C0
:104DB000F9214A0042437D20C10010465AF722F9EA
:104DC0007F38C0B280BD00000548016807220A4351
:104DD0000260012080045F490A6882430A607047CC
:104DE00030000040022902D0012900D000BE002876
:104DF00002D0FF2804D000BE022901D10C20704748
:104E00009B48407B7047C046F8B552480168C907C7
:104E100003D0016802220A430260012401684902AA
:104E200003D5A10502680A430260260265024A49C9
:104E30000095084608380768002F00D189E0380639
:104E400006D58020086048F722FDFCF7FFFE4249A6
:104E5000B8070AD50220086042480068B021405CCB
:104E600000F0A0FB44F711FC3B49380727D5082088
:104E700008603D4800686821415A52224A433B4934
:104E80000968711889185E22895A090A6830C07D3C
:104E9000081AC0B200F086FBFBF72EFE3546264608
:104EA0000024204644F7AAFB2B490420DE4A507414
:104EB00002202A4A9070148034462E46009D3742C4
:104EC00004D00E60012044F799FB23492F4203D000
:104ED0000D6048F745FD2049780604D5402008605C
:104EE00044F787FB1C49F80604D51020086042F7F8
:104EF00043FF194978071BD5042008601849088822
:104F0000A04308801A480078C00702D13DF7DAFBB9
:104F100004E000203DF726FC3DF7ECFB58F7D4FAFF
:104F20003DF78EFBFCF792FE0020E34948740A49E6
:104F3000F80707D00C6058F7E3FA48F7A8FC0649D1
:104F4000DD484474B80600D473E72020086000BE32
:104F50006FE7F8BD00020040180000400410004058
:104F60000833005058B9FC0784BBFC074CB9FC0758
:104F7000FDB9FC0710B5D048C07D012811D000282C
:104F800017D111480024048010480188C90613D1A4
:104F90000121490201801420FCF762F809480480CD
:104FA00010BD084801210180074806214180812168
:104FB00004E005480021018002480121018010BD64
:104FC000F08EFC07000300504000005006300050F7
:104FD00010B5184C2078002828D1174800780628EA
:104FE00022D8C0467844007940008744031D070B4F
:104FF0000E12170000200123014612E002210020BA
:1050000003230EE00020032105E0042100200523F6
:1050100007E00020052102460B4603E006210020A0
:105020000723024600F02EFB0120207000F006F856
:1050300010BDC046308CFC07D05EFC07BCB5F44DFB
:10504000697D287D0024009401232246FCF78AFB19
:10505000E97CA87C2A7D904203D16A7D914200D1EF
:10506000BCBD0094032212020223FCF77BFBBCBDF3
:10507000F08EFC07FCB57F200002594A516981433C
:105080000B20000208185061106880B25549401882
:1050900010609069544C044001235803009020187C
:1050A0009061032001900002146B04431463908FFD
:1050B0001024044394879088184390804B484C4AAE
:1050C00002604C4A104610384B4DAC8B0440152002
:1050D0004301E0185030A8836869484C04404848B0
:1050E00020186861A869474C044009204002201834
:1050F000A8612868444C0440444820182860686827
:10510000434C0440434820186860A868424C04405F
:1051100042482018A860E868414C044041482018E3
:10512000E860C1204001D04C647B240620183F4C2D
:105130002060052080023E4F3880401DB880388CAA
:1051400055260643AA2086433E84FF266C36304609
:10515000C9303885374908460E30B8853648388614
:10516000B986C01D388735482885A86B3449014069
:1051700034480818A863344D2E80288F10401F46ED
:105180002037C01928873148018811408919D53145
:10519000018081881140C918818001891140C91995
:1051A00001812136AE802A4801881140C91860313A
:1051B0000180818A19220A4306218A438282A08FB4
:1051C0002449014000980818A08723480168019AE3
:1051D000114304229143016020486066FCBDC04633
:1051E0002030004000008888FF00FEFF8000004063
:1051F00059055C071FFCFFFF042000400000E0FF92
:1052000009581A00FEE1FFFFE0E000000809294903
:1052100000000303696A686C031FFFFF70600000F1
:10522000E0E0E0E00B0A0A08F08EFC070010004006
:1052300028130040260A000051080000070F000054
:105240002F64E0FE101A06010012004044120040D4
:1052500088120040FF9F0000801000405001500164
:10526000F8B5642013490E5ACD4FBC6B30466043ED
:1052700012494018124959F7C5FE054638843C3694
:1052800066430E4830180E4959F7BCFE001DA5496B
:1052900008622818C01D88620A4A1278022A01D1C1
:1052A00011308862FEF7E8FA0749401880B258F7D3
:1052B00035F9F8BDC48BFC07F08EFC0720A1070070
:1052C00040420F00B4BAFC07E2040000BCB5954CA4
:1052D000A079002800D0BCBD0020E081217901A880
:1052E000017061794170E178817045F7C2FB134D1F
:1052F000A86D002805D101A845F7BBFB0028F7D011
:10530000FEE70120A071BCBD10B5864CA079012834
:1053100008D0A079022805D0A079052802D0A0796C
:10532000072807D10548806D3DF725FA0020014682
:1053300057F791FD0020A07110BDC046B0BBFC071F
:1053400010B532498A885206D20E1CD05308134336
:105350009C081C4312092243130A13431A0C1A43D4
:10536000D24353081F4C1C40121B1F4B94081A4079
:105370001C4012191309D2181C4B13401C4A5A43E3
:10538000120E1D3A00E003220B881F24A3430B805A
:105390000B8802241C430C800B8804241C430C80C3
:1053A0000B8801241C430C80D3175A40D21AD2B266
:1053B000022A01D300230B850884088BC004FCD487
:1053C000022A02D3088D020402E0002A03D0002240
:1053D000888B104301E0888BC0B218228A5E002AB5
:1053E000FBD410BD55555555333333330F0F0F0FC5
:1053F0000101010105480188202291430180BF4934
:10540000097B0907490F81847047C046001200508C
:10541000F08EFC07B0B5B948817D002900D0B0BD41
:105420001F490A88082313430B800A880323134368
:105430000B80EC4906220A80FF2212060B4B1C68E7
:1054400094430122D50764191C60094B4B8000234B
:105450008B80084CC462CB80D003074B186008884F
:1054600010430880B0BDC046F08EFC070CE400E09D
:10547000204E0000F954FC0700E100E00120C103C8
:10548000D94A1160BFF34F8FBFF36F8FD5490A8898
:1054900082430A80024801880822914301807047B4
:1054A0000400005010B51248026801218A430260CE
:1054B000FF221206436813400E4C1B194360836899
:1054C0001340836003680224A34303600368042439
:1054D000A343036003680B4303600368DB03FCD54D
:1054E00083681340836002688A43026010BDC0462F
:1054F00010E000E02F75000010B5094C0520206079
:105500001920FBF7ADFDFFF75FFA06488079401FD1
:10551000C0B2022803D8800003A10858206010BD43
:10552000AC100040EC63FC0700000000030000002A
:1055300000000000E0B57148817801290AD10649D0
:105540000A885206FCD5017A0079002200920123D4
:10555000FCF708F98CBDC0461410005002480188C1
:10556000012291430180704704110050BCB5634D86
:10557000697D287D0024009422462346FCF7F2F83A
:10558000E97CA87C2A7D904203D16A7D914200D1BA
:10559000BCBD009422462346FCF7E4F8BCBDC046DF
:1055A000F08EFC07F0B587B00446902028490858D3
:1055B000069094200F5C514DA86DEE6D296E0591FB
:1055C000696E0491294658310191098A0391220696
:1055D0003CD02946FAB20A235343069AD3185A8874
:1055E000D50611D07F231A40761C0D46CE65D30711
:1055F00003D00499491C04916966120721D50599C5
:10560000491C059129661CE0DA88002812D0451C47
:1056100002960E468D6503994143D0B2081829467B
:1056200059F7F0FC0199088280B20390284635466C
:10563000029E06E001200D468865D2B201990392D0
:105640000A82641E7A1C07271740C0E707B0F0BD26
:10565000E0BAFC0718B50848016800910099074AAC
:10566000009B1A40FF2424040C40D9B20919044BB2
:10567000C9181143016018BD8000004000FF00FF01
:105680000A000A00F8B51E4617460C4605460846AD
:10569000FDF752FF3046FDF74FFF184B5E751F7543
:1056A000DC749D74D87D022811D0304660403946A4
:1056B00069400143484248412146294301D000281E
:1056C00005D0002801D1022000E00020D875FFF7A6
:1056D00051FCBD420DD1B4420BD108480472057192
:1056E000012383700022009228462146FCF73AF8F5
:1056F000F8BD002001498870F8BDC046F08EFC0757
:1057000010B51946FD2002020E48022357F772F920
:10571000902141700024047049F764FF204610BDB9
:1057200010B519460748084A032357F763F9FF21C4
:105730008170912141700024047049F753FF204685
:1057400010BDC0460108000001FD000002E008C8CD
:10575000121F08C1002AFAD170477047002001E0EB
:1057600001C1121F002AFBD1704700001A49888826
:10577000072290438880052000078A89D2070DD030
:10578000098800290AD115490A8802854A88828435
:1057900089880184418A124A0A40428211490622BC
:1057A0000A800121CA03104B1A60BFF34F8FBFF369
:1057B0006F8F02221A60BFF34F8FBFF36F8F196094
:1057C000BFF34F8FBFF36F8F418904229143418113
:1057D0000021018062B6704704030050A000FC075E
:1057E0007FFE00000034005080E100E00000000077
:1057F000CC58FC07E863FC070100010001FC000035
:10580000FB10FC0702FC00001511FC0703FC000064
:105810003111FC0705FC00004D11FC0706FC0000DF
:105820006711FC0707FC00008111FC0708FC000061
:105830009B11FC0709FC0000B511FC070AFC0000E5
:10584000D311FC0710FC0000ED11FC0739FC00002F
:105850008112FC073AFC0000C312FC0711FC000097
:105860000513FC0730FC00003F13FC0731FC00006F
:105870006F13FC0732FC00009F13FC0735FC00008F
:10588000C313FC0736FC00001F14FC0737FC0000A4
:105890005114FC0738FC0000CF14FC073BFC00004F
:1058A0002115FC0712FC00002F12FC0741FC000030
:1058B000C710FC0742FC0000A310FC0743FC0000DB
:1058C0008110FC07050800006B15FC07C458FC0795
:1058D000010000000800049000000000000000002B
:1058E000030005D08B0035F010005CF0000010B014
:1058F000000018B000001AB0030051F0000038B0EA
:1059000000003AB0000064B0000066B0000022B0B1
:10591000000024B0010005D0000000000A00008053
:1059200008030490000004F0030006D0000000000B
:105930000A00008008030490000004F0030006D071
:105940000000000000FE00001D1FFC0701FE00001B
:10595000492BFC0702FE0000F12FFC0703FE0000AC
:10596000A123FC0704FE00003123FC0705FE000014
:105970001124FC0706FE0000E524FC0707FE0000DA
:105980001D1EFC0708FE00004120FC0709FE000068
:10599000391EFC070AFE0000C924FC070BFE0000AC
:1059A000F52DFC070CFE0000ED2CFC070DFE0000A1
:1059B0004D1FFC070EFE0000C12EFC070FFE00006D
:1059C0006D2DFC0710FE0000392DFC0711FE0000B4
:1059D0003525FC0712FE0000BD20FC0713FE000069
:1059E0008120FC0714FE0000912EFC0715FE00002C
:1059F000192EFC0716FE0000911FFC0717FE000081
:105A00005D22FC0718FE0000292BFC071AFE00008F
:105A10000D1DFC071BFE0000F92AFC071CFE000000
:105A2000CD1EFC071EFE0000C92AFC071DFE00005B
:105A30008D24FC0700FE0700715EFC07865EFC07F4
:105A400001FE07006C5EFC070000000002FE07007C
:105A5000585EFC07795EFC0703FE0700625EFC07E8
:105A6000625EFC0704FE0701705EFC07A935FC07B7
:105A700005FE07028936FC076D5EFC0706FE07007F
:105A80007F5EFC077B5EFC0707FE0700000000004E
:105A90000000000008FE0700000000005E5EFC073A
:105AA00009FE07005B5EFC07795EFC070AFE070043
:105AB000735EFC07000000000BFE07006A5EFC0737
:105AC000000000000CFE0700715EFC0700000000F3
:105AD0000DFE070000000000765EFC070EFE0700CA
:105AE0006D5EFC07000000000FFE07006D5EFC0706
:105AF0000000000010FE0700000000000000000091
:105B000011FE0700665EFC07795EFC0712FE0700C7
:105B1000635EFC07715EFC0713FE0700715EFC0705
:105B2000715EFC0714FE0700505EFC07505EFC0728
:105B300015FE0700715EFC07715EFC0716FE07008C
