:0200000407FCF7
:10000000E05AFC072501FC072D01FC074501FC0710
:1000100000000000000000000000000000000000E0
:100020000000000000000000000000005D01FC076F
:1000300000000000000000005F01FC076101FC07F8
:100040004910FC07D538FC07A526F0076513FC0707
:100050007D12FC076301FC070D10FC076301FC0720
:100060001910FC076301FC07F110FC07FB10FC07EB
:100070000511FC070F11FC071911FC075113FC07B0
:10008000A913FC076301FC076301FC076301FC077C
:100090006301FC076301FC076301FC076301FC07C4
:0800A00000008E070E000000B5
:0200000407FCF7
:100110000348854600F068FF00480047AD22FC0711
:10012000E05AFC070F4880470F48004704207146FB
:10013000084203D0EFF309800C490847EFF3088029
:100140000A49084704207146084203D0EFF30980AA
:1001500007490847EFF3088005490847FEE7FEE72F
:10016000FEE7FEE72D43FC071101FC078D12FC079B
:10017000F511FC07F8B50746012000230246009060
:100180001946032049F73EF90446022180300170E8
:10019000FF4DFE482A6843881146FF31F7310B8630
:1001A00080884886FB48066A0123DB069E431E437F
:1001B0000662FF320020FF32383250829082D082B5
:1001C0001D200882F4484884F448C882F448088313
:1001D00000204882384649F755FC01462868FF3020
:1001E000F730C28B920992010A43C283ED484168FD
:1001F00000208847002C02D0204648F7ECFC20461F
:10020000F8BDFFB58BB0064616980027022821D00E
:100210000D9801881498814278D371880846403837
:100220003F2802D8159855F7E9FC0C98361D008830
:10023000149A80190E995EF75FFF0C980188149844
:1002400008180C9908800D9801881498081A0D99BF
:1002500008805CE100200E9D079069782C780902E7
:1002600021433180E978AC780902214371808C46C2
:10027000403904242D1D024603468E46402900D3F2
:100280002878614604291FD0052914D0062918D0E2
:1002900070463F283DD8159855F7B0FC0006000E73
:1002A00004D0C148008D0006C00F30D002230120C9
:1002B000BE4A002712E0697800290FD0BC4A1723F4
:1002C0000CE0BC4A0F2309E0522802D0D22802D009
:1002D00002E0142000E01520B74A1F23002A1AD09C
:1002E000984218D2800010580490002813D00020A3
:1002F0000890059070884038402803D3287805245A
:1003000030716D1C701D00900498B5E0FEE0302740
:10031000F0E03327EEE07088042872D10627E9E088
:10032000522862D00CDC4B283FD004DC41286AD034
:10033000422858D111E04C2820D0502853D140E019
:10034000632830D004DC572818D061284BD19BE0BB
:100350006C2864D0772846D109E00098297801708C
:100360000098641C401CA4B26D1C009081E00498AD
:10037000401C04900178089881427AD10098A41C0E
:10038000401C41084900881C009068782A780002C7
:10039000104308800599AD1CA4B2002969D00890CB
:1003A0000020059065E00120FBE710222946009817
:1003B0005EF7A2FE009810341030A4B21035009001
:1003C00057E0204640301499039088420BD84022D1
:1003D000294600985EF790FE009840300090039800
:1003E000403584B245E0342743E00822294600988E
:1003F0005EF782FE009808340830A4B208350090F9
:1004000037E068E0FFE70622294600985EF774FEB1
:100410000098A41D801DA4B2AD1D009029E0149881
:10042000001B80B203903088001B001D81B20120A8
:1004300007900498401C04900098401C400840001D
:1004400000900498007857281CD04228CBD10098FF
:100450000170090A417000982946801C0090039A97
:100460005EF74AFE03980399201884B2009840185A
:1004700000900498401C0490007800281ED0002FA3
:1004800017D01BE04908E2E71498001B81B20098DE
:100490000391401C40084000009001200A4607904C
:1004A000294600985EF728FE0399601884B20098E8
:1004B000DDE70D990988A14200D331E70D98008846
:1004C000A04208D304990978002904D1079900298A
:1004D00003D1A04201D034270CE00D99001B088005
:1004E0000C9801880098801B001F08180C99002F99
:1004F00008800CD07088042809D0062807D040381E
:10050000402804D30E984079707100E034273846B3
:100510000FB0F0BDFFB581B01F4616460C46104621
:100520005CF7AEFC00257F2802D02189062909D07E
:100530003B4632462146019855F7F3FE05462846CC
:1005400005B0F0BDC00601D50225F8E720780028E7
:10055000F5D1300AA11D42F77CF8F0E7F1B598B06B
:10056000189842F774FA0446189805210079134A3E
:100570004006C00F099068460184618B08460A381E
:10058000904276D2E08A062873D319E030BCFC078B
:100590004CB9FC07C0000040108000002941000059
:1005A0007671000058BFFC0748BEFC073803F2070D
:1005B0004003F2079C03F207D803F207770C000010
:1005C0001922D201904254D8228BFF23F5339A424C
:1005D0004FD8521C9300D2184243521C0A23521087
:1005E00059438A4245DC217F00290CD1617F0029D3
:1005F00009D1A17F002906D1E17F002903D1202163
:10060000095DC90635D0274620377978C906C90E55
:10061000491F0C292DD2A18A81422AD8E17C0029C8
:1006200027D0421E082A01D9082000E0401E81423E
:100630001FD8684646F7CCFA00281AD1FE4D06228C
:10064000286221460AA85EF757FDA8792E46803E0B
:1006500000287DD06079800901280BD00AA809996B
:100660004CF785FD010003D03820405C002870D095
:100670009BE008E1F06A807A012808D0042806D0BF
:100680000AA84CF7E1FD286200284ED054E0686AC1
:1006900006220AA932305EF753FD002806D00AA8C8
:1006A0004CF7D2FD2862002802D012E0686AF9E710
:1006B00000210AA84CF7DEFD2862F16A897A012937
:1006C00005D18B071A6849068A430A431A60002835
:1006D00011D0F16A286A0622253010315EF730FD0C
:1006E000002808D1286AF16A2030C07AC97B884284
:1006F00001D1286A1EE0D148D1490088C96880B27A
:1007000006225043081842F7A7F9014614A806220A
:1007100002305EF7F1FC13AA00213C2042F769FC8D
:100720000121B06D47F790FEA9E011A90AA84CF786
:10073000A1FD2862002838D00146253106220FA8E5
:100740005EF7DAFC286A08AA2030C17A0FA801E017
:1007500041E024E04CF7EEFB002812D0286A20305C
:10076000C07A002809D16846B649008C4BF755FB82
:1007700008AA0121B3484CF7DDFB68460AA9008CA2
:100780000AE008AA012111A84CF7D4FB00280CD0DC
:10079000296A6846008C32314BF755FB05E00A1890
:1007A000527D002A08D010286DDBF06A407A0228BA
:1007B00006D0032804D00EE0401C1028EFDBF4E73D
:1007C0006846008C052806D308AA0AA809994CF7A0
:1007D000B1FB002857D00022694620464CF753FC55
:1007E000002850D1F06A407A02280BD0032809D0A3
:1007F0000023684602880AA809994CF765FC00287E
:1008000002D02FE00123F4E7E18A68460181218BC1
:100810004181618B81817878062241096846817522
:100820007878C106C90E6846417521460E305EF7DC
:1008300063FC189800794006C10F6846017503886B
:10084000214602A8B26D47F7A5F90146B06502A896
:1008500042F71DFC0020B065214668461C31008827
:1008600046F709FA49F788FA734C2034207A0028B1
:1008700005D0002109205CF746FC002020720021F1
:1008800008465CF7E8FA19B0F0BDF8B56E4C0646BC
:1008900085000F4660594C21095C24290ED140691E
:1008A0001022791D2E305EF727FC6159252040313A
:1008B000087300221146304654F7F3FA60594C2170
:1008C000095C0C291FD140691022791D2E305EF77A
:1008D00013FC60595F214069095C09072DD401466A
:1008E0002E3110221E305EF72BFC00280CD06059F0
:1008F000092140300173304654F7F0FF01460022D1
:10090000304653F74DFEF8BD0421684601706A4633
:100910000521304653F7EEFF684601786020014319
:1009200068460170304654F7D9FF014668460278A0
:100930000123304653F749FFF8BD304654F7CEFF48
:10094000012809D060590721403001730022114667
:10095000304654F7A6FAF8BD615900204969C03104
:10096000887160590421426930461E3253F7C2FF34
:10097000605941694031897F002907D01A214030F0
:1009800001730021304654F716FBF8BD1B2140309F
:100990000173304654F764FBF8BDF8B52A4C0546A0
:1009A0008600A0594C22125C192A11D140224D30E8
:1009B000491D5EF7A1FBA059402224494D305EF746
:1009C000BFFB002805D02149284620395BF723FDCD
:1009D000F8BD0B21684601706A460521284653F789
:1009E00089FF684601786020014368460170284607
:1009F00054F774FF0146684602780123284653F7EE
:100A0000E4FEF8BDFFB581B003980C46060A002548
:100A10005CF736FA002827D0132825D0142823D0D5
:100A20000B48B700C0592030407BC00637D503982B
:100A30005CF726FA15280DE030BCFC0768B9FC0706
:100A400060BBFC0750F5F1073CBEFC07FCBDFC0792
:100A500078BBFC070CD0A07941F7ECFF304647F794
:100A600087F8032806D015E0A07941F7E3FF1FE0DF
:100A700002251DE03248C0592030407B400704D594
:100A80003D21304642F7D4FC04E03D2200213046AF
:100A900042F7DDFC3D21304646F7B2F808E020463B
:100AA000103828490181468120464EF79BFD0125DB
:100AB000284645E524485222006864308188C37E78
:100AC0005143224A12688918FF225F32525AFF317D
:100AD000120AD21A01310B8CD2B2DB0B09D00B8C6B
:100AE0005B045B0C0B84002A03D18088184A012127
:100AF00011547047FFB51746140A81B0104A029886
:100B0000A100515840780026114D002907D0295DD9
:100B1000002905D0002803D1204643F7EDFE2E55CD
:100B20003A46049B0299019844F777FE08E50A4883
:100B300008490160094941607047704770470000EB
:100B400078BBFC070608000084BBFC074CB9FC0717
:100B5000288BFC070459F007C0000840490C00BF6F
:100B60007FB5E4486B460188428889186A4611803F
:100B700001214C0022181546403DED8F065B52883E
:100B8000AD19AA18491CC9B21A530729F1D3818992
:100B9000C089081881B2D981D888002821D0188945
:100BA000002820D0988800281FD0588900281ED0FF
:100BB000988900281DD0588800281CD000291CD0F6
:100BC000188800280BD00720062254001C5B8C429A
:100BD00001D22146D0B2521E52B2002AF5DA04B038
:100BE00070BD0320FBE70420F9E70220F7E70520AA
:100BF000F5E70620F3E70120F1E70720EFE7F0B57E
:100C000095B0EFF310801090012080F31088BA485F
:100C1000816B4A07520F69460A800A92816B012252
:100C2000C908C9008163B5498B8869464B80022495
:100C3000B24B00219980C16A09078B0F69468B80EE
:100C40000F93C16A0C2399430831C162052109073A
:100C500009880906CB0F6946CB800521090709934E
:100C600009888023194305231B071980A449898A11
:100C70004906CB0F69460B81A1490893898A402315
:100C800019439F4B9982016A09074B0F69464B81B3
:100C90000C93036A0E218B4303629B4D9948686055
:100CA000FF204030A8602888A043288097484168EA
:100CB0000B071B0F69468B810B93416809090901DA
:100CC00008314160416849064B0F6946CB810D935D
:100CD000416870239943603141608748403801681A
:100CE0008904CB0F69460B820293036841140B43BE
:100CF00003600168CB07DB0F69464B820E930168E6
:100D00001143016041688903CA0D69468A820392D2
:100D10004168CA05D20D6946CA8204928168890376
:100D2000CA0D69460A8301928168CA05D20D6946D7
:100D30004A8305924168764A11400322D2038918FA
:100D400041604168490A4902FF314131416081688F
:100D50006F4A11400322D203891881608168490AD1
:100D60004902FF3141318160642000F02DF9A889EA
:100D700069468007C00F8883A8892043A881002482
:100D8000604F288800260121084328800A2000F0AF
:100D90001BF9FF205F4941303A680A4200D0761CB7
:100DA000401E3F1D0004000CF6D1A88A8004FCD12F
:100DB0005149886B671CC208D2007807400F024374
:100DC0008A630A2000F000F960004A49FCB20E5222
:100DD000082CD5D348480A99826BD208D2000A431E
:100DE00082636946454A498891800F998A00C16AA1
:100DF0000C2399431143C1620999CA0105210907CE
:100E0000098880239943114305221207118008990C
:100E10008A013B49898A402399431143384A918288
:100E20000C994A00016A0E23994311430162374825
:100E30000B994268120912010A4342600D994268F7
:100E4000090170239A430A434260029841032A48E9
:100E50004038006801225203904308432649403934
:100E600008600E9809684908490001432248403843
:100E700001600398420220484038406824490840F5
:100E800010431D4A403A506004985268520A520278
:100E900002431948403842600198174A4002403ADC
:100EA00092680A400243144840388260124905980B
:100EB00040398968490A490201430F484038816036
:100EC0001098002800D0012080F3108815B0F0BDE4
:100ED00010B5114C2078002808D0FFF790FEFFF7DE
:100EE0003FFE0E4908700020207010BD02F0DEFAAF
:100EF0000120F9E77853FC07801000400012004001
:100F000020300050784EFC07003500504020004053
:100F1000FF01FCFFC0C0C0C0998CFC07978CFC0788
:100F200010B5FF22154901320A60BFF34F8FBFF39E
:100F30006F8F13490A6013490B6840241B0A1B0278
:100F400023430B601049898A0021C30700D0352153
:100F5000830702D57D231B021943430702D575235E
:100F60001B041943000702D53D2000060143064833
:100F70002038016301488038026010BD80E100E044
:100F800080E200E008E400E0A010004010B5062078
:100F900000F01AF810BD10B5092000F015F810BDCA
:100FA00010B5812000F010F810BD10B5044800F015
:100FB0000BF810BD10B5034800F006F810BD000096
:100FC000010200000108000000280CD000BF00BF93
:100FD00000BF00BF00BF00BF00BF00BF00BF00BF19
:100FE00000BF401EF0D17047064C0125064E05E0BB
:100FF000E36807CC2B430C3C98471034B442F7D33A
:10100000FFF78AF8544EFC07744EFC070148012193
:10101000018070470E1500500A48011F0988CA0751
:1010200006D0028807239A43CD4BDB791343038014
:10103000490706D5018807229143C94A927A0A4393
:1010400002807047B8100040B0B505200007018845
:10105000302211430180038803210B430380204B7E
:101060001C886407FCD403889343038003888B4364
:101070000380F14CA38B4380638B9D1E194B5D80D5
:1010800007251D8005881543058005880D430580CB
:101090001D886D07FCD403889343038002888A432C
:1010A00002804289920702D042898A4342810189A3
:1010B00080220A430281018A042291430182818AAB
:1010C0008907FCD541F72DF9A06B0749086007484F
:1010D0000168490700D500BE01684907FCD5B0BDCD
:1010E0000833005000160050080200401000004075
:1010F00080B50A2000F050F880BD80B50B2000F0CC
:101100004BF880BD80B50C2000F046F880BD80B55E
:101110000D2000F041F880BD80B50E2000F03CF8B5
:1011200080BD0000FEB501930092029106460127A2
:101130000021384632465EF723F8BF4A536E0B4013
:10114000156E05401D43002D00D100BE536E0B40AF
:10115000156E0540019C1D43002C06D0002D00D1CA
:1011600000BEB7400B4D2F8005E0002D00D100BE22
:10117000B740084D6F80536E0B40116E014019430C
:10118000002900D100BE0298009901437000401967
:101190008180FEBD02300050B0B502460A3AD1B29D
:1011A00004291FD801210C4694400F4A1388A343F9
:1011B00025040CD00D4D2C400D4D651965406D0872
:1011C000002401E0641C6D0C2D04FBD100E0102410
:1011D000A4B20D46A5401D4315801F22104081403A
:1011E00053480160B0BDC0460E140050FFFF000020
:1011F000FFFF0100F8B5044601273E020520050760
:10120000688DC00506D51B2002F02CFD4A480188D8
:10121000394301808036288840013040698A474A36
:101220000A4002436A822168134801606168416094
:10123000A1688160E168C160216901616169416102
:10124000A1698161E169C16104623E490A68426243
:101250004A6882628A68C2624A690263CA684263F3
:1012600009698163334808210180A88AC00600D437
:10127000FEE700BEF8BDC0460090FC0702480088AB
:101280002B481021016070472C130050F8B504461C
:1012900005200507288A0421014329822889402145
:1012A0000143298122480127076022480821018043
:1012B0003E02688DC00506D51B2002F0D3FC1E48F7
:1012C0000188394301808036288840013040698A8E
:1012D0001A4A0A4002436A8221681948016061681B
:1012E0004160A1688160E168C16021690161616953
:1012F0004161A1698161E169C161046211490A68C2
:1013000042624A6882628A68C2624A690263CA6843
:10131000426309698163A88AC00600D4FEE700BE63
:10132000688A09490840091D01436982F8BDC04621
:1013300080E200E000330050800000507FFE00009B
:101340005090FC0728ED00E0FC7F00007047000093
:1013500080B5EE48006B002801D002F0F1FE80BDA0
:10136000908CFC0710B50F4C0FE0208802218843B9
:1013700020802088802106E002F08CFC05E002F04D
:1013800089FC2088012188432080A1880F20084003
:101390000228EAD00428EFD00C28F0D00128F4D19C
:1013A00010BDC0460411005080B505210807028811
:1013B00030239A430280028803239A430280828862
:1013C00012050DD51A4A13880B40052B08D1108839
:1013D000042101431180108801218843108080BDC1
:1013E0008188C90606D513498A88D20702D00A889F
:1013F000120610D48088C00619D50E488188890746
:1014000015D50188C90512D50221818001880B4AB2
:101410000A4002800BE001208880088880229043E7
:101420000880FA48C06A002801D0804780BD80BD8E
:101430000002005000010050908CFC07FFFE0000ED
:101440005748018802220A43028001888907FCD498
:101450000121C181008A7047FEB5514C00212180D5
:101460000327FD012946903161804026A6805C2239
:101470004C498A5AA281A289324330239A43A281DD
:10148000494A1660BFF34F8FBFF36F8F002800D11A
:1014900080E00297019505782288B243AB0113439F
:1014A00023804378E7887022974319013943E1800C
:1014B000002D05D1E1880725A9431B090B43E380D3
:1014C000C17823880425002901D02B4300E0AB43D9
:1014D000238001790902A388DBB25918A180E18831
:1014E0001140324F40292DD162202E49085A002840
:1014F00000D131483149488001200003218801434F
:1015000021801920FFF760FD019A10468030218864
:1015100001432180208830432080608828436080F8
:1015200060882749014061800F20400261880143A3
:10153000618040376088384010436080608802993D
:10154000884326E021881A4A0A402280817810299F
:1015500000D300BE6288174B1340490219436180D3
:1015600041796288029B9A430A436280827921888A
:10157000002A03D0019A8032114300E039402180D3
:10158000C079082800D300BE403761883940800107
:10159000084360802088012101432180FEBDC046B0
:1015A000001500502C8BFC0780E100E0FFFD0000DF
:1015B000FFEF0000FFE10000407600008853FC07C9
:1015C000FF1F0000F8B51320904F3856CF4D2C4622
:1015D000333414350028214600DB29467F22104091
:1015E0000E1801F00FFE39465A31062230465DF7DB
:1015F00083FD3B7CF97B2846224661F79DFF61F71E
:10160000DDFFF8BD10B501F059FE804CE0780128EF
:1016100016D12078002802D08220607005E00948A9
:101620000121C17008480221017000F0FFF900207B
:10163000E070608C002803D0042100225BF70BFAD5
:1016400010BDC04654BAFC07B4BAFC0770B53048A8
:1016500009210424182322465BF7CCF905461B20F8
:101660002870FD26304662F717F80021A982E9604C
:1016700029616C606E80687028465BF7D6F970BD92
:10168000BFB5144600226D46AA606A60089A2A60B7
:101690001A46234661F72CFE04B0B0BD70B55B4816
:1016A000017B01E0491C0173CAB2012A1CD0002A47
:1016B000F8D1012101731648092104240A23224686
:1016C0005BF798F905461B2028701426304661F711
:1016D000E3FFFF21743129816C606E8068702846B9
:1016E0005BF7A3F9002070BD417B012903D10021E4
:1016F0008181012070BD4A1C42731C20484305496A
:101700000818C0688047002070BDC046908CFC0758
:101710001B0D00008C45FC07BFB5144601226D4629
:10172000AA60054A6A60089A2A601A46234661F749
:10173000DFFD04B0B0BDC0468444FC0770B5194D50
:101740002C68002C27D11848092104222C235BF790
:1017500051F90446032020702C60172020840A20B1
:1017600060700026668020460A3011215DF7DDFC9E
:101770006684E683A6832020E0767E210B48415ACA
:10178000FB2900D3FB21E1848021405A084988428B
:1017900000D30846208520465BF747F900202860E3
:1017A00070BDC0460C8CFC07040D0000B0BBFC07EC
:1017B00048080000F8B5D94EF06B002824D1144831
:1017C00009240422522321465BF714F90546F063ED
:1017D0000D202880FF20083028810027AF720D4897
:1017E000E880A8801622EA7228460C300A495DF784
:1017F00083FC2B202F5428462B302C35074B2146B9
:101800002A4661F787FEF06B01B0F0BD908CFC07B3
:101810000D0D00004C040000A44DFC07BC4DFC075E
:10182000B0B502467748824200D300BE0020764B16
:10183000044604E01D68002D04D01B1D641C092C07
:10184000F8D908E01960641C210604D0E0B2114602
:1018500000F066F92046C0B2B0BDC046F8B50446F7
:10186000401E09281BD8A00067490818071F3868C0
:10187000002816D0664DA84213D061482018401C9D
:10188000042631465BF73FFC3D6008235C48314647
:1018900032465BF7AFF804705BF7C7F8F8BD00BEDF
:1018A000F8BD00BEF8BDC046BFB514460E226D4659
:1018B000AA60054A6A60089A2A601A46234661F7B8
:1018C00017FD04B0B0BDC0468C44FC07B0B50E494E
:1018D0004018042801D9012413E00024052800D36E
:1018E000E043049D40B2002809DB8100F54A5058CE
:1018F000002805D0511800220A60804700E000BE91
:101900002C702046B0BDC046F2FBFFFF0C8DFC07DB
:10191000B0B50C46954988421FD0384988422DD031
:10192000374988423CD12078401E09283FD88000A2
:10193000354A1158364B994257D03448814258D1D4
:101940002E48042108230A465BF754F821780170D9
:10195000616841605BF769F84BE06268002A01D179
:1019600000BE62682748824201D300BE62682078C8
:101970002249401804215BF77CFB3AE02078411EA5
:10198000CAB2092A15D889001F4A53581F4DAB42C5
:101990002FD151188A6A0A60616800F0C1F828E006
:1019A0001C49411889B2092905D90120B0BD00BEE2
:1019B0001FE000BE1DE0011FC9B2092913D8C01ED7
:1019C000C0B2411E8A00104B9958002911D00F4C0B
:1019D000A1420ED00E4CA1420BD09A1800231360E6
:1019E0009362884705E000BE03E010180021016003
:1019F0008162049900200870B0BDC0460304000055
:101A000002040000FDFF3F00848DFC07933CFC07AF
:101A1000913CFC07FCFBFFFF80B504205BF730FA2C
:101A2000022801D102F058F980BD0000EFF31081C7
:101A3000012080F310884C4A1288120603D4064A0B
:101A4000138803431380002902D080F31088704765
:101A5000002080F31088704708330050B0B50C4662
:101A6000002503E040F74BFF60556D1C202DF9D198
:101A70000020B0BD10B504460648074970225DF746
:101A80003BFB0648011B064A11801430001B5080A6
:101A900010BDC04670A0FC071445FC07B8A0FFFFAE
:101AA00078A0FC0710B507480188074A1368114C55
:101AB000234059181160408851682140081850602F
:101AC00010BDC046183000408CA0FC0710B5074878
:101AD0000188074A1368074C234059181160408851
:101AE000516821400818506010BDC0463830004091
:101AF00098A0FC070000FFFF07481E2141800188D5
:101B000003220A430280018804220A430280EE482D
:101B1000012101717047C04600160050908CFC07EF
:101B200070B50C4605461048008800060F4E0ED5CD
:101B30000F48006800040AD40E480088C00706D188
:101B4000A819801C042122465BF793FA70BDFFF7A9
:101B50006DFF0421082330460A465AF74BFF4460C4
:101B600005705AF762FF70BD0800005001040000C4
:101B70003000004054BAFC077047000070B51446AE
:101B80000D4610465BF77CF901282FD12878010219
:101B90000831AA791648002A0CD089B206232246B9
:101BA0005AF728FF0646A87860F740FC3080A879ED
:101BB000307114E0AA8889B2921D93B222465AF776
:101BC00019FF0646A87860F731FC0021317130809A
:101BD000A8887080701DAA88E91D5DF78DFA3046CF
:101BE0005AF723FF002120465BF735F9002070BD2E
:101BF000140C0000014605481C38027FFF2A03D060
:101C00001C308A42F9D17047002070478C45FC0790
:101C10007047704710B5044640793F280FD840F709
:101C20006EFE2070010EE170010CA170000A607060
:101C300040F765FE2071000AC0210143617110BDAB
:101C400080B502F049F880BD7421D64A515A01800E
:101C50007047C04680B55222D2498A5C0270401C4F
:101C600053315DF749FA80BD7D21C180002181801B
:101C70001021418008210180704780B561F720FC68
:101C8000002801D002F028F880BD000010B50C46F5
:101C9000017801290CD0002910D142885221C14B72
:101CA0005A545333011DD2B218465DF725FA03E0AA
:101CB00040887421BB4A5052002000E04820207028
:101CC00010BDC0460C8DFC07002088804880012094
:101CD0000870704780B55FF74FF980BDF8B5694669
:101CE000C870020A8A70020C4A70000E087008461A
:101CF0005FF72AF98FBD000080B5474800210160D9
:101D0000FFF74EF9414800783F490A88404B13409D
:101D1000C006800DC018088080BDC04680B53D4813
:101D200002210170FFF732F980BDC046F8B51F46A9
:101D30000C46087808280FD8072519A6784400799A
:101D40004000874417040D04060610131600194EB0
:101D500010E00D25164E0DE000BE0026354609E0C8
:101D60000A2515A606E0082518A603E006250EA6F6
:101D700000E014A6AB1C184839465AF73BFE07464C
:101D800020787D703870002D04D0B81C31462A466A
:101D90005DF7B2F938465AF748FE002001B0F0BDB1
:101DA00052656E6573617300FFEEDDCCBBAA000067
:101DB000324DFC07404DFC07312E302E302E302D99
:101DC0004C45000001D2008005000100123456FF8E
:101DD000FE9ABCDE000000000314000080B50A4833
:101DE00001888905C90E094A11700188084A0A400C
:101DF00002800848012101700748017803220A4344
:101E00000270FFF7CDF880BD4C120040744EFC0705
:101E10001FFC000006100040AC10004010B50C780C
:101E2000012C03D0092C09D04C7802E04C78432CCB
:101E300002D0002C00D000BE02F0BEF9002010BD80
:101E4000F8B51D4610460C465BF71AF802280BD170
:101E50000C202D0A0AD06843F449081800BE7221EC
:101E60004554FF2D07D128E000BE2AE06843EF4922
:101E70000818722145540C206843EC490F18732050
:101E800001263E54042003215AF7E5FF20887021E3
:101E90007852607A74217854753721460A310622C7
:101EA00038465DF729F97A206843084908187821EF
:101EB000415C2846324661F717FB2846214601F06F
:101EC000DFFF002001B0F0BD908CFC07128CFC07F6
:101ED000B0B51D4610460C465AF7D2FF03280BD169
:101EE000280A0C214143EE4840187221FF22425239
:101EF000204602F049F800E000BE0020B0BDC04618
:101F0000F0B58BB01D46087802282AD0012837D0BA
:101F1000002842D101925220224F3E5C00211F2E08
:101F2000029101D82020811B03ACA01900945DF719
:101F3000FCF853372046394632465DF7DDF8334624
:101F40000A3317482946019A5AF754FD0446468039
:101F500002982070201D009932465DF7CDF820468A
:101F600019E00F480A2329465AF744FD7D210181D3
:101F70000021C1801021818008214180022109E0D7
:101F8000742008490E5A06480A2329465AF732FD9A
:101F90004680012101705AF748FD00200BB0F0BDCA
:101FA0000B0E00000C8DFC07B0B50C78641E122CD3
:101FB00015D8C0467C4424796400A7440B10131044
:101FC0001010101010101009180909100909090043
:101FD0000020B0BD487800280DD000BEF8E702F020
:101FE000EBF8F5E74878002808D000BEF0E748781D
:101FF00001F0D6FEECE7FFF7A1FBE9E7FFF73DFEB6
:10200000E6E7000010B510465AF73AFF002801D065
:1020100000BE09E0054809210422012423465AF79D
:10202000E9FC04705AF701FD002010BD020D00000C
:10203000F0B589B0039316460C46FD205FF7D8F83B
:102040000290002800D100BE08A900270F70208848
:1020500060F7FAF905466088002800D000BE002D20
:1020600078D1FD20FFF7C6FD002800D100BE0399FE
:10207000090A009108A90A781421514343685D18A0
:102080002D79022D24D159580988394B99421FD1F5
:10209000002005900490208860F771F9002800D195
:1020A00000BE07A9002204AB4EF75EFF01204002EC
:1020B00007990140480A214660F74CF9C5B2002D46
:1020C00029D1E28808A80178009860F71EFB22E079
:1020D00001968669002E3D4606D0A5886188A31D1D
:1020E00010462A46B047054605970497208804A95C
:1020F0004EF7B5FC002D019E0DD108200499085E15
:10210000002807DB6288A1882088A31D4EF711FDF7
:10211000054600E00025002D1CD10298009F39469D
:102120005FF784F80146A088801D83B211483246CB
:102130005AF760FC0546801DA288A11D5CF7DCFFF4
:1021400008A800786880A0882F70A88028465AF7D1
:102150006CFC002508480423039932465AF74AFCD0
:102160002188857001805AF760FC002009B0F0BD1D
:10217000022900000AFD0000160C000070B5EFF304
:102180001085012484F3108805200607708DC00592
:1021900009D54348847101F05BFD1149087011486D
:1021A00000882040487030888021014331800E48EB
:1021B000016807229143016041684907FCD53188D5
:1021C000090600D400BE0949016109494161002D99
:1021D00002D084F3108870BD002080F3108870BD99
:1021E0008853FC07800000500000F4070F00990995
:1021F000090404A470B5184EB06800F02FF82849FF
:102200004A6B00234B631518094C284621465CF79E
:10221000F9FE706107494143481901D0201A80B284
:102220003061306808210143316070BD908CFC073B
:10223000710200008FFDFFFF80B50648002101609C
:1022400001F0CEFC0120C00703490A6882430A60FE
:1022500080BDC046A8B9FC073000004080B50246EA
:10226000C00B09D00E48006D00210B465CF7F4FE50
:102270008905800A401880BD0948006D4243900AD4
:1022800080BDC04680B5FFF7E9FF80BD80B5044939
:10229000896C41430348081803495CF7B3FE80BDCD
:1022A000908CFC0720A1070040420F009DB006481B
:1022B000C821179101800023438004480827078024
:1022C0001A93034C18E0C04600310050023300500E
:1022D000988BFC070020199008E030224A43A1188F
:1022E000199A920088501999491C1991199A1A99AA
:1022F0000B2AF2DD481C1A901A980028EADDE16AE0
:102300000D93DA4301200029014600D011460892BE
:10231000CA02F24E336E1343726E33664B0DCD1705
:10232000ED02EB1813437366226A002A024600D0BE
:10233000089A130ED5172D02EB18756E1D43336ED8
:10234000756615021D4335666368002B00D008983A
:10235000C30FC5176D00EB18756E1D43336E7566A0
:1023600045001D4335660D9B73663366E16222624C
:1023700060601A9336E0002029E030201A9941432A
:102380006118199A92008958491C00D100BE1A9907
:1023900041436118199A92008958002915D01A9959
:1023A00048432018199989004058C117199A5CF7B9
:1023B000E7FE1A9A12015CF7E3FEC84A1346526E12
:1023C0000A43196E5A66014319661998401C199000
:1023D00019980B2803DC19981A990B28CDD91A984B
:1023E000401C1A901A980028C5DDC24D288818ACE8
:1023F00020802088C046C046208804211591C9430A
:10240000084202D00D98288003E0A8890121884362
:10241000A881A88BB849014007200C90C002081879
:10242000A883B64E308838433080F08D0622904322
:10243000F0853B46012016908003A98B0143A983B8
:102440003088AF4901403180708805921043B8430D
:10245000708005200A900407618DAA4AFF32F08D32
:1024600010407D22D2000F2713973F03C9050F9319
:10247000029206971AD5114618310843F085F08D5F
:10248000A1490140169AD0030818F085A88B18437B
:10249000A883A88B159FB843A883F08D9043F0853F
:1024A000A88B40218843A88311461AE003214902E2
:1024B0000843F085F08D3843F085A88B9843A883B6
:1024C000A88B04218843A8837088904901407180BB
:1024D000F08D169A1043F085159F1146608D4007C8
:1024E000FCD508021290A88B032109910843A88308
:1024F00030882021084340221192D243104030807E
:10250000288C1491084310402884E08A80210B9184
:1025100008431040E082208EFF2188432086208FD0
:1025200038431821049188432087208FA02101433C
:102530000E921140218776480780A0887549014096
:10254000A1807548401C75490860FFF717FE744A62
:1025500010680C9908401AA908700878022821D040
:10256000169E608D1299084213D001F071FB0A2863
:1025700002D80B2001F076FB6048C08DC007684A86
:1025800007D15E480146C08D3043C885608D400745
:10259000FCD51068022101430A98814311605068FC
:1025A0004007FCD55F480068C1B20C20AA2901464B
:1025B00000D039462288824388182080C046C04611
:1025C0005948008858274549C85358480068486505
:1025D000682657490D98885301252846C046C046AD
:1025E000544A101F006854498842159500D02BE1C9
:1025F0000197109613980007169004200021079168
:102600001646029D35E021462431199A8A42029DE0
:1026100027D1B959494A51802BE01998169A104090
:102620000C990907884200D1A0E0199810400121B7
:10263000C9078842029D0BD0199810400A99490792
:10264000884205D01998104009994907884201D15C
:10265000381D0EE01998401C00D1FCE000BE384641
:1026600007E021462031199A8A4202D1B959334AEA
:10267000918007468119081F3246EC32904200D300
:10268000E9E000681990199B169803400920050796
:10269000199AAB4215D0900FBFD01998284988429B
:1026A000BBD83846083021462831199A8A4262D070
:1026B000A11C199A8A42A6D1B95966221C4B99527B
:1026C0009FE7199B1D0AEBB21393D2B2921F112AF6
:1026D00000D9B4E002A39A5C52009744908CFC07A6
:1026E0003350B0B0B0B0B0B0B0B0B0667B91A0B075
:1026F000A5A9C04604030050FFC3000052000050CB
:10270000FFBF000000F0FFFFFF0F0000FFF9000017
:1027100000020050FFF70000FFFF000080E200E031
:102720000000F407D07FF807D87FF807D47FF807B8
:102730002C8BFC07D47EF807A5A5A5A5A000FC0757
:102740004C420050F14802461098105CC00010182E
:10275000139A92005CF7D0FC1099EC4A505C401937
:102760005054C0B205286AD300BE68E00020C046BD
:10277000C046381D45E7B959E54A118041E769224D
:102780000392E2480346805CC00018181030139A88
:1027900092005CF7B1FC0399DC4A505C401950543C
:1027A000C0B20D284BD300BE49E03246B959484368
:1027B000BA59120C801A00B2C0085623D34DE85201
:1027C000D4480140501A8108D34A11400818401CCF
:1027D000542113E03246B9594843BA59120C801AB1
:1027E00000B2C0085A23C94DE852CA480140501AE5
:1027F0008108C94A11400818401C019968521EE01E
:10280000079DA8001AAA1018139A92005CF774FC8E
:1028100013984519032D079511D300BE0FE0B85941
:102820006221BA4A50520AE0B859B849086506E030
:10283000B8596421B54A5052000400D100BE139823
:1028400080003818001DDCE66620B0490E5AB34AF5
:102850002F46029D3AE05C201A99AC4E3152092075
:102860001B9948430A0C801A00B2C0086023F0523A
:10287000A8480840101A8108A74A11400818401CAF
:102880005E217052109AB05CC10701D000BEB05CEE
:102890004008B0546920315CCA07A04A159F01D096
:1028A00000BE315C490831546420315A002900D1FE
:1028B00035526620365A002E08D199490968C9B2A6
:1028C000AA290B9E00D06E2690490E529683A08CAA
:1028D000B843A0840D20FEF777FB608938430221BE
:1028E00010918843608160894006FCD56680284647
:1028F000FEF76AFB60890999884360816089000658
:10290000FCD57F208549487185488069854A50609B
:10291000EFF3108687F3108820880B9A10432080ED
:10292000814A10680C9B984310600D9B0A9D50686B
:102930004007FCD57D4810617D48506120880B9A86
:1029400090432080608D129A10420FD08B71754891
:102950000546007801F086F968780A9D0D9B0028ED
:1029600004D174480146C08DB843C885002E02D0FA
:1029700087F3108802E0002080F310886E4800681A
:102980006E49884208D06E486E4902E01A585A5083
:102990001B1D6A029342F9D96B486C495CF7C5FB71
:1029A0000C9E31026A485CF7C0FBFEF7C7F8694825
:1029B0006949016069486A49302213925CF79CFBBF
:1029C00068480027C771877147710771C7708770A2
:1029D00047703F2116910170634864A1119A5CF71A
:1029E0008BFB7248077072487249016072487349E4
:1029F000016073497348086073480A210170734885
:102A00000770734832210D91017072480560724859
:102A10002946159D0560714801607148059901605E
:102A20007048066070480F9E066028020090801D66
:102A30006E4908606E4908606E484349016000F0C5
:102A40003DFC208913998843208120890B990843F4
:102A50002081208930432081208CA84320846089F4
:102A60000499884360812089119908432081208A34
:102A7000042188432082A08A8007FCD50699FF3173
:102A8000E08C08400B2109020143E184E08C159B96
:102A90001843E08460890F99084310210C91884302
:102AA0006081608C984360842089119988432081DB
:102AB000514837309D072968014029601698400227
:102AC0004E4A116881435803081810604C48401C56
:102AD0001168014311601848006818498842089E2F
:102AE0000A9500D1B0E043480068444988600D4829
:102AF000024640681074010ED174010C9174000AF2
:102B000050740098C0300F4A8AE0C0462C8BFC07F6
:102B1000A000FC07FFFF0000FF3F0000908CFC07B7
:102B2000D07FF8078853FC070000F4070F009909CD
:102B3000090404A4520000509CB8FC0765873412B5
:102B400000B0FC07D48DFC0700A0FC07AC1400000B
:102B500000B9FC0760BAFC07D049FC0700BAFC07C3
:102B60007CFCF107DAB9FC07B0BCFC072000800050
:102B700000C00000000084000000282200000000C7
:102B80000000040000F7FFFF7F00000030F0FF0F9F
:102B90000000000000040000000000000000000031
:102BA000000000000000000000000000FDB9FC076C
:102BB00050B9FC07603FF20754B9FC07604BFC07B3
:102BC00058B9FC07544AFC07B0B9FC07B1B9FC0777
:102BD000D9B9FC075CB9FC0760B9FC0764B9FC070C
:102BE00068B9FC076CB9FC0770B9FC0748B9FC0769
:102BF00044B9FC074CB9FC07C8FEFFFF00020040C7
:102C0000FFFF1F00D7490B189B5D15786B40099992
:102C10000D40D5494D192D7C5D401570401E521C4C
:102C20000028EFD1D04D1C35CE491C2228465EF736
:102C3000F7F9002800D000BE28465EF785F9CB489A
:102C4000CB490160159B0A9DCA4800681E463FF7A4
:102C500001FBC9480771C7702868009908432860BC
:102C6000FEF74AFF304600F0E9FBC44B1878002815
:102C70002E4602D00B98587004E00020BE49C87060
:102C8000BF4908705220BF4D09222A541F675F6751
:102C90009F6728465330BC495CF72EFA74202F52A8
:102CA0000425BA4928465AF7A4F813952846394608
:102CB0005AF7D1F85A20B649B04A1152B548AF492F
:102CC000C865AE488773AF481430B34916252A4605
:102CD0005CF712FAA9480774A848C57360F708FDA5
:102CE000A6490878002802D08220487005E001201B
:102CF000A149C870A24810990170FFF79DFA0520FC
:102D0000FEF70EF9A54817990180A5480F99018093
:102D1000159841020191169989020891C0031690F5
:102D2000A048A1490818A14940188008401E0990F0
:102D3000924B914A2089000600D4B6E0306B169978
:102D4000084200D0B1E01088C00700D0ADE05AF7CB
:102D500054FB0025284600F071FB874A874B187A00
:102D6000042800D0A1E0159800F068FB199519A877
:102D700004214AF7E3FE814B002800D194E0159826
:102D80008B49086008680028FCD1F069596A8842BC
:102D900001D25D622946411ACA09597A182A3BD9DB
:102DA00000293BD158628348014600880790488833
:102DB000069088880590C88804901B957E481A90D4
:102DC0001AA8FEF749FB7B4B6C480246029D284639
:102DD000173019890140D18359890140118418891C
:102DE000089A1040019908431881588910400843F7
:102DF0005881188810990843188018888007FCD4D7
:102E00001598D881188AED494988411A28464843BF
:102E100001290ADBF4490BE0002945D0986A401CDF
:102E2000986200F0B9FCE14B3EE0002901D0ED4989
:102E30004018EE495CF7FCF8FC4BDA8B2946183158
:102E40008A4200D300BE80090390E3480089089DB0
:102E500028401043E04A1081188C884200D300BEFD
:102E6000039D1935DC494989089A11400143DA4824
:102E7000418158797F280DD0281A41B2C9114018D4
:102E8000484040B2082806DB986A401C986200F06F
:102E900083FCE64B5D71D04806994180059981809D
:102EA0000499C18007990180C94A72B61079022835
:102EB000384602D0C2480068806AD978002939466D
:102EC00000D101461A91B848C088C00700D063E11C
:102ED00059F75FFBBE4AF74B002800D15CE1D07880
:102EE00000283CD0A08AC00700D0C3E0108800288A
:102EF00035D1BF48806A002806D0D878002803D191
:102F0000AF480068806A1A9000F06AFEB048054633
:102F100081781AA85AF735F92A46E64B00281ED0C0
:102F2000306940061BD491781AA84AF707FEA84AD0
:102F3000E04B002813D00898FF30A8490A460988BA
:102F400001401298014311801A9A002A36D0306A43
:102F50009C494018DA2832D8521E1A922FE030BF0E
:102F60001AE1C046D48DFC078853FC079CB8FC07C7
:102F7000658734124CB9FC0754BAFC07908CFC07E7
:102F8000B4BAFC070C8DFC07BC4DFC076C44FC0775
:102F900005FF0000CDAB0000A44DFC070031005040
:102FA00002330050684D00001001FC07030004F8D4
:102FB000FC00004000150050010400000022588B66
:102FC000E64DA96808186861F06B8A4D28400843EF
:102FD000F063F06B88490840E04DE96889020143DD
:102FE000F163F06B79490840696949050818F06395
:102FF0008248824200D300BE986ED96E00235CF7EF
:103000002BF80903000D4018411ED448C068421C2B
:10301000914200D008466E490A79002A159900D1DC
:10302000114646F7A1FC7648C06A80471699306B76
:103030000842FCD00099644A10680842FCD010682D
:103040000B998843106058480089452805D84621C7
:10305000081AC14A5063544801813FF736F95A4A69
:103060009068BD49886310680006FCD520890B99DB
:103070008843208157480178208A139B1843208277
:1030800057480246006818431060494A1089159D48
:10309000A8431081608A012903D10C99884360827A
:1030A00030E00C9E30436082608A18436082FFF7F4
:1030B00065F8608A304360823F4809990162EFF306
:1030C000108085F3108821880B9A91432180002875
:1030D00002D085F3108802E0002080F31088608D14
:1030E00012990842E949324A0A9E0BD000208871A1
:1030F0000B2000F0B7FD2E4A2E480146C08D159BCF
:103100001843C88500202083608D1299084207D19A
:10311000284801460088119B1843149B9843088057
:10312000108C11990843149988431084A08C159D24
:10313000A843A0840D20FDF747FF6089284310991C
:103140008843608160894006FCD50D986080A08A24
:10315000C00603D51448801E0F99018030BFA08A95
:10316000C006134A02D510480F9901801148014644
:103170000088149B18430E9D28400880108C18432B
:103180002840108400F09AF8154802460068139908
:1031900088431060BD4B0E4A62B602481799018001
:1031A000C8E5C0460031005002330050908CFC0747
:1031B00004030050520000500000F4078853FC073D
:1031C00058B9FC07C8FEFFFF00020040FFFF1F00C8
:1031D00054BAFC07B4BAFC07001500503830005050
:1031E00010ED00E02BFDFFFFD5020000AA05000056
:1031F00074BEFC0700FCFFFFFF03E0FF40420F002E
:1032000058BFFC0710B55E20A0490A5C5F23CC5C68
:103210002402A218521C0A54140ACC5492B2044B31
:103220009A4201D100220A5210BDC046908CFC0780
:10323000FFFF000069210B48415C103003E00CC81F
:103240001360491E00300029F9D1704768210548F4
:10325000415C03E00CC81360491E00300029F9D11D
:103260007047C0462C8BFC07B0B5884CA17C002968
:1032700000D000BE88002518286C4035002813D1E6
:1032800009020A310C4804220E2359F7B3FB092125
:10329000017028600021818141817D220281C180ED
:1032A000082141801021818059F7BFFB0020286050
:1032B000A073B0BD908CFC070E0E0000F8B5012481
:1032C00020020090224E3088C005224D19D56F484B
:1032D0008079012803D100F0BBFC1B2811D8308D68
:1032E000C00400D4A88AFF201C30D54908801B20C8
:1032F00000F0B8FC1A48018821430180308840075B
:10330000FCD51848184918225BF7F6FE17481849EB
:103310002CC82CC1FDF70BFC16481749016003208F
:1033200006021D22154D204631462346A8470B2094
:10333000002700993A463B46A8470820102231460C
:103340003B46A8470349088820430880F8BDC0468B
:103350002A0000500C030050908CFC078853FC0797
:103360008000005020000840044AFC07F849FC0790
:10337000C000FC0700000840070010002511FC07F2
:103380000549884200D000BE04480188044A114023
:10339000121D0A43028070471111111112000050D2
:1033A000FC7F0000F8B504460026234F0EE0BD194F
:1033B000E88AFD2801D1074969605DF79FFF002871
:1033C00003D082682846214690471836302EEED129
:1033D000F8BDC0464849FC07B0B50025164C00288A
:1033E00013D126E0E08A5DF789FF002802D041680A
:1033F000204688470020E0816060A060FF20E082D6
:10340000207D59F750FD18346D1C012DEAD912E0CA
:10341000FF20E082002020606060A060E06020610A
:1034200028461030C0B2A082214659F7E2FC183479
:103430006D1C012DECD9B0BDC88BFC07B0B5D04DCB
:103440002979012921D11249002803D00888400791
:10345000FCD402E00888400717D400232B71C888E9
:103460008988000444181F204006492122465FF73E
:10347000F7FFA866E96664214143080CA864054883
:103480006043800B401C40082865B0BD908CFC0751
:10349000001600501111010010B5F24C08202070E8
:1034A0001120FDF791FD0320607010BDFEB562484C
:1034B00003250570614C20461438016814220A4324
:1034C0006B218A430260A06A5D4988610020C04385
:1034D000A06220683F218843206020685949084045
:1034E0002060A08858490840012101918902029179
:1034F0004018A080A0884021014330208143A18052
:10350000A069524908400B2149064018A061A069F2
:103510004F49084069024018A061A0691821014381
:1035200027208143A161432020714A4880474A48AF
:1035300080474A48804740480570009548480668DB
:103540004848804748488047206848490840F10576
:10355000401820603B4E403620683040490C014303
:10356000216041272771A0883749084002994018F7
:10357000A0803848804738488047384880472E48E0
:1035800005703748056837488047374880472068C6
:1035900036490840E9054018206020683040490C51
:1035A000014321602771A0882749084002994018EB
:1035B000A0802848804728488047284880471E48E0
:1035C00000990170264800682168284A1140C20508
:1035D0008918216021683140254D0540A801084324
:1035E0002060A08801998843A080154EB069A06230
:1035F00020681C2101432320814321602068114958
:1036000008402060A0691149084007218906401838
:10361000A061A0690E4908400F21C9014018A061AE
:10362000A0691E21014321208143A1610D488047EB
:103630000D488047F586FEBD05100040183000405B
:103640008853FC07FF7FFFFFFFF90000FFFFFFC06B
:103650003FF0FFFF1D1DFC07DD1DFC07AB0FFC0746
:1036600088300040F91CFC07970FFC07FFFF7F0024
:10367000FF01000070470000F0B58BB03022002140
:103680008154354A354B364C4461364C364D374EB5
:10369000374FC761056243628262C462354A066081
:1036A00042601F200004344A1368834301246004ED
:1036B00018181060E004C74A13688343136002E0DF
:1036C00001A84154491C2829FAD12C4800684030EF
:1036D00001A928225BF710FDC24DEC72FFF7DCFE5A
:1036E000FFF7B4FDFFF7A6FD00F07EF900F0DAFA6F
:1036F00000F06AF8FFF7DAFE6C72224800880721B2
:103700000140A972FDF7E4FBFEF7CCF9FEF7DEF904
:103710001D490B881D4804681D4A1440E3180360C6
:103720001C4B1C88856915402C1984615B88C46911
:103730001440E318C3614B8A046A1440E31803621F
:10374000898A436A134059184162A4480221817052
:10375000002101800BB0F0BDC537FC07C137FC0765
:10376000AD38FC079138FC074D13FC076938FC079E
:103770006B38FC077536FC07740000404CB9FC0739
:10378000908CFC07B81000401030004088A0FC0767
:103790000000FFFF6430004080B5FFF77DFEFFF7BB
:1037A00049FD00F021F900F07DFAFDF791FBFEF7ED
:1037B00079F98A48022181700021018080BDC046CC
:1037C00000207047704700000E4908880E4A0240EA
:1037D00001204302D2180A8041057E4A13688B43B8
:1037E0001360810700224A671F2212044B6F934324
:1037F0004004181848670868E022024310208243FA
:103800000A60704738300050FFFC000080B51F2070
:10381000000401218A07536F834348041818506736
:1038200010680721884310600D48018808220A4368
:103830000280FFF731FEFFF709FDFFF7FBFC00F008
:10384000D3F800F02FFAFFF7BFFFFEF73FF9634808
:1038500002218170002101800520FDF761FB80BD00
:103860000800005004100040704780B541087329DB
:1038700000D3E620282800D82820F9214A00424316
:103880007D20C10010465BF7BDFB7F38C0B280BD14
:103890000548016807220A430260012080044D495F
:1038A0000A6882430A607047300000404A1E022ABC
:1038B00000D300BE002802D0FF2804D000BE022999
:1038C00001D10C207047DC48C07A002800D00920C4
:1038D0007047C046F8B53F480168C90703D0016882
:1038E00002220A43026001240168490203D5A105AE
:1038F00002680A430260270265023749009563E0C7
:10390000300606D58020086049F7C1FFFEF7F4F8BD
:103910003149B00704D50220086045F7B6FE2E49AC
:10392000300714D508200860FDF7C4F83D46274647
:103930000024204645F762FE27490420BE4A107243
:103940000220264A907014803C462F46009D3E423D
:1039500004D00F60012045F751FE1F492E4203D0CD
:103960000D6049F7FDFF1C49700604D54020086032
:1039700045F73FFE1849F00604D51020086044F7CB
:10398000FBF91549700710D504200860144801465A
:103990000088A043088059F797FD3EF751FEFEF7D7
:1039A000ABF80D490020A44A1072F00707D00C6054
:1039B00059F7A6FD49F76BFF0749F8480472B006AE
:1039C00002D52020086000BE084608380668002E90
:1039D00096D1F8BD000200401800004004100040DD
:1039E00008330050908CFC07FCB57F2000025C4A35
:1039F000516981430B20000208185061106880B2A1
:103A00005849401810609069574B0340012041030A
:103A100000915B189361032101910B02146B1C430D
:103A20001463938F10241C439487938803439380DB
:103A3000A7484E4A02604E4810384E4B9C8B0440BB
:103A400015204101084650302043988358694A4C5C
:103A500004404A48201858619869494C044009209C
:103A60004002201898611868464C044046482018C7
:103A700018605868454C04404548201858609868BC
:103A8000444C0440444820189860D868434C044093
:103A900043482018D860F648C07A002802D1C120D7
:103AA000400100E03F48404A1060052080023F4E40
:103AB0003080401DB080308C55250543AA208543B9
:103AC0003584FF226C321046C930308538480746AD
:103AD0000E37B785374F3786B086F81D30873648A2
:103AE0001885986B354E0640354830189863354E2A
:103AF0003280308F344C20400F4620373843308797
:103B0000324B0846198821401546D5350D431D8096
:103B100099882140091899801989214039431981D0
:103B20002132B2802A4B1988214060300843188026
:103B3000998A19220A4306218A439A821A4A908F47
:103B400024490140009808189087134622480168CC
:103B5000019A114304229143016020485866FCBD3C
:103B60002030004000008888FF00FEFF59055C07F8
:103B70001FFCFFFF042000400000E0FF09581A006E
:103B8000FEE1FFFFE0E0000008092949000003030F
:103B9000696A686C031FFFFF70600000E0E0E0E00E
:103BA0000B0A0A08201800090010004028130040E2
:103BB000260A000051080000070F00002F64E0FEF5
:103BC000101A0601001200401FFC000044120040C1
:103BD00088120040FF9F00008010004050015001FB
:103BE000F8B5642013490E5AE44FBC6C304660436C
:103BF0001249401812495BF705FA054678833C36AE
:103C000066430E4830180E495BF7FCF9021D0D495A
:103C1000A818C01D8A60C860DA4A1278022A01D149
:103C20001130C860FEF71AFB0749401880B259F7F7
:103C300075FCF8BD2C8BFC07908CFC0720A10700BD
:103C400040420F008853FC07E20400007047000068
:103C50000C480188890918220A4000888004400F16
:103C60008018704707490A88074B1340C208520260
:103C70001A430A800A88054B13404007800C181825
:103C80000880704754000050FFF90000FFC7000093
:103C900070477047024801880122914301807047B4
:103CA0000411005081B00A4801680091FF21090405
:103CB000009A0A40052149045118064A009B1A40FF
:103CC0000A43D9B20A311143016001B07047C046BE
:103CD0008000004000FF00FFF8B52E482E49FDF798
:103CE0009FFDBD4E7074FDF765FD0446C57A1C202E
:103CF000401B06280ADB60190C3031465A31062277
:103D00005BF7FAF9AA1DE272F57419E02B20275C23
:103D10001F20C01B062811DB20462B300090E01925
:103D20002C3031465A3106225BF7E6F9B81D00996E
:103D3000087080203843F0742A4601E000BEE27A21
:103D4000F273324D2846143021460C31D2B25BF763
:103D5000D3F92B20225C327433352C34284621468B
:103D60005BF7CAF93078002802D08220707005E035
:103D700083480121C170834802210170FDF71AFDBB
:103D800058F753FE0020F0630420022159F763F82E
:103D9000F8BDC046B80B0000C515FC07908CFC07A9
:103DA00010B544282ED1F4480121C170428C002A5C
:103DB0000DD0154BD218052A01D30022D24352B29E
:103DC000002A0FDB9200114B114C9C5014E0002292
:103DD0000E4B04E01C68002C06D01B1D521C042A4C
:103DE000F8D907E000BE07E0094C1C60094BD21867
:103DF000130400D1E24A4284074AC262C802282161
:103E000000F058FA10BDC046F2FBFFFF0C8DFC0716
:103E1000191AFC070E0400000516FC0770B5D64DF4
:103E2000686E286E000500D400BE0126F00211491C
:103E30000C880440E00A70402876FD203EF7C3FC61
:103E400001460D480422072358F7D4FD7221695C0E
:103E500086800F22428046700170297E817158F75A
:103E6000E4FD0648E8620A21204600F023FA70BD0E
:103E7000908CFC070030005006FD00001D3EFC0742
:103E8000F8B505460C206843BB4A17187220385C09
:103E90007237FF2800910CD000261B4C06E0002E44
:103EA00003D0A0190169284688471C361C2EF6D17C
:103EB00001E0FFF711FF3878FF281ED0AE4CA57443
:103EC000607CFDF7CBFC009948880838082805D8A5
:103ED0008888002802D1C8887D2805D07D20C000B0
:103EE0000A49FDF79DFCA073FFF798FF00F078F8F2
:103EF0002078002802D081206070F8BDE8480121B8
:103F0000C170E8480170F8BD8C45FC076932FC07B8
:103F1000E248817D01292FD1002181758278002A14
:103F200003D0521E827012061CD14278002A03D0A0
:103F3000417003231A4003E00278002A11D0521E78
:103F400002700170D0B2022806D001280AD1D448EC
:103F50000121C170D34804E0D1480121C170D1488A
:103F600002210170D0480188012291430180E34879
:103F700001880822914301807047C046908CFC075D
:103F800054BAFC07B4BAFC0710B5C44CA07B002897
:103F900003D0FDF763FC0020A073FFF7B9FFD849F9
:103FA000012088800A8880239A430A800B4A12885D
:103FB000D2070CD10A88120609D40988C90506D48B
:103FC0000004F9490860BFF34F8FBFF36F8FFFF70D
:103FD00019F9FFF781FE10BD908CFC07000200501C
:103FE000F0B587B0AD48C07D012800D095E04C4FBA
:103FF0007888000700D500BE38880590788804903E
:104000000020FDF729FA7888042101437980788817
:1040100044490140012042020346069088187880F6
:104020004148FC303988014039801E023046C0309A
:1040300079880143798038884021014339803F20C5
:1040400081023889084080183881788903910840B6
:10405000019280187881388880210143398038881E
:10406000324908403880FDF7EBF93988314339800F
:1040700003214E0280094000341AA0B2850A069836
:1040800080020290FDF7DCF98009002D00D000BE0F
:104090003989039A1140214339814000301A81B295
:1040A000029B994200D300BE798911400143798176
:1040B00038881E4908403880FDF7C2F981091E4A38
:1040C000904202D80198401A01E01A480818184C8A
:1040D000082800D300BE05983880049878801748D7
:1040E000FDF7BAF9FDF7ACF905463888069988431B
:1040F0003880FD203EF767FB014604220823204656
:1041000058F778FC7221654A515CC5800222828092
:104110000C224280017058F788FC07B0F0BDC04601
:1041200000150050FFE1000003FDFFFFFFFE00004F
:1041300003FD000000FEFFFF3F8000007C44FC0701
:10414000F8B50D4C257D0A2D13D1002525750B4E94
:104150000B483080677D78000AA1085A03215AF77E
:1041600051FF41007180B080781C19215AF74AFF35
:104170006175681C2075F8BD908CFC0702340050F6
:10418000FFFF00001604DB03FF02A40348017003D5
:104190003E0361020F03DF03E302DD03BA02C8013D
:1041A0009302FF006E02FE004B022A026D010B0219
:1041B000FB00ED01D201B801B0B50C46344988428C
:1041C00011D03449884218D16088022815D1A079CD
:1041D000032812D87844007940008744010F25292C
:1041E000FFF796FEB0BD2C48022519462B4658F71E
:1041F00001FCA188018058F718FCB0BD2749887DD3
:104200000028FAD1012088758A78521C8A700A78B1
:10421000002A18D1224A0024D470224A137814703C
:10422000012B0BD002460AE01C480021C175B0BD2D
:104230001A480121C175FFF7D3FEB0BD0222022B3F
:1042400000D103220A702D4A138808241C431480CD
:1042500013880324A3431380524A06231380FF23A9
:104260001B06124C25689D43C307EB1823607D2372
:10427000DC0054809B009380C823D3800C4B0B63DD
:10428000C103214B1960118801431180B0BDC046A4
:104290000D0C00000AFD00000E0C0000908CFC07C5
:1042A00054BAFC07B4BAFC07003400500CE400E038
:1042B0004141FC0710B5114A138810241C43148097
:1042C0000F4A042393803F23194014889C436118AC
:1042D0001180908100205080108880210843108038
:1042E0000120C3021381074A13680B437F218B43CC
:1042F000136000040449086010BDC046040000506B
:104300000001005010E400E000E100E002E008C815
:10431000121F08C1002AFAD170477047002001E03F
:1043200001C1121F002AFBD1704700001A4988887A
:10433000072290438880052000078A89D2070DD084
:10434000098800290AD115490A8802854A88828489
:1043500089880184418A124A0A4042821149062210
:104360000A800121CA03104B1A60BFF34F8FBFF3BD
:104370006F8F02221A60BFF34F8FBFF36F8F1960E8
:10438000BFF34F8FBFF36F8F418904229143418167
:104390000021018062B6704704030050A000FC07B2
:1043A0007FFE00000034005080E100E017B96798FC
:1043B0004C664C01963331B1915900152368EC528B
:1043C0001E6244749A1BD18BAB75B66E9EE7BA0819
:1043D000B9A948ABA1AC031C2E0D296C20EE8D0CA5
:1043E000E1F04A0CB325DC536A68862D28D5E1C17B
:1043F000E1C54729B55765C3BA47159E4F43313CC0
:10440000939242E6A876FA3BEFB4875A8C09E0D142
:10441000815442408E4FD2B377E32A7720EE8D0C41
:10442000E1F04A0CB325DC536A68862C4F43313CDB
:10443000939242E6A876FA3BEFB4875917B967988A
:104440004C664C01963331B1915900142368EC52FB
:104450001E6244749A1BD18BAB75B66D28D5E1C131
:10446000E1C54729B55765C3BA47159D000000004F
:10447000583FF207108CFC070400010001070200FE
:1044800000030000021400002D1DFC07010D0000B8
:104490000520FC07000D0000A91FFC07000E00000E
:1044A0001D1EFC07010E0000411EFC07030E00004C
:1044B000D11EFC070A0E0000011FFC070C0E0000B5
:1044C0008531F2071C0D0000C731F207100D000006
:1044D0008530F2070F0E0000F931F2072C0E0000B4
:1044E0003932F207120C00005332F207080E0000B6
:1044F0006F32F2071B0E00009F30F207A918FC076D
:104500001119FC07CD18FC071917FC078116FC07C9
:10451000F800000008000490000000000000000007
:10452000030005D08B0035F010005CF0000010B0E7
:10453000000018B000001AB0030051F0000038B0BD
:1045400000003AB0000064B0000066B0000022B085
:10455000000024B0010005D0000000000A00008027
:1045600008030490000004F0030006D000000000DF
:104570000A00008008030490000004F0030006D045
:10458000000000000328002802290129FD00000086
:10459000C445FC072D0000004D16FC07000000007C
:1045A0000000000000000000FF000000000000000C
:1045B00000000000000000000000000000000000FB
:1045C000000000008645FC0710000000010000000C
:1045D000100010009D49FC078445FC070200000004
:1045E000010000000000000000000000DC43FC07A8
:1045F00010000000080002000100000000000000A0
:104600008A45FC0702000000010000000D000D00BB
:10461000944DFC078445FC070200000001000000E7
:104620000000000000000000FC43FC071000000038
:104630000880000001800000000000008A45FC079F
:10464000020000000100000009000900724DFC0793
:104650008445FC070200000001000000000000008B
:1046600000000000AC43FC07100000000102000045
:1046700002000000000000008845FC070200000066
:104680000900020002000000000000008A45FC074B
:1046900002000000010000000B000B00264DFC078B
:1046A0008445FC070200000001000000000000003B
:1046B00000000000BC43FC071000000001000000E7
:1046C00002000000000000008A45FC070200000014
:1046D000010000000B000B00484DFC078445FC075F
:1046E00002000000010000000000000000000000C7
:1046F000CC43FC0710000000010200000100000094
:10470000000000008845FC070200000009000200CC
:1047100002000000000000008A45FC0702000000C3
:10472000010000000C000C007C4DFC078445FC07D8
:104730000200000001000000000000000000000076
:10474000EC43FC07100000004100000014000000D2
:10475000000000008845FC0702000000090002007C
:1047600002000000000000008A45FC070200000073
:10477000010000000C000C00544DFC078445FC07B0
:104780000200000001000000000000000000000026
:104790000C44FC0710000000090202003200000077
:1047A000000000008845FC0702000000090002002C
:1047B00002000000000000008A45FC070200000023
:1047C000010000000A000A00894DFC078645FC072D
:1047D000100000000100000010001000AD49FC07AF
:1047E0008445FC07020000000100000000000000FA
:1047F000000000001C44FC0710000000080002003C
:1048000001800000000000008A45FC070200000053
:104810000100000008000800694DFC078445FC0702
:104820000200000001000000000000000000000085
:104830002C44FC071000000008800000010000006C
:10484000000000008A45FC07020000000100000093
:1048500011001100034DFC078645FC071000000005
:104860000100000010001000BD49FC078445FC0752
:104870000200000001000000000000000000000035
:104880003C44FC0710000000010200000200000090
:10489000000000008845FC0702000000090002003B
:1048A00002000000000000008A45FC070200000032
:1048B0000100000010001000154DFC078445FC07A6
:1048C00002000000010000000000000000000000E5
:1048D0004C44FC0710000000010000000200000032
:1048E000000000008A45FC070200000001000000F3
:1048F00007000700614DFC078445FC07020000002B
:104900000100000000000000000000005C44FC0703
:104910001000000041000000020000000000000044
:104920008845FC07020000000900020002000000A8
:10493000000000008A45FC070200000001000000A2
:1049400012001200F04CFC075049FC07090000005F
:10495000130C00004B29F207150C00003120FC0756
:10496000170C0000572BF207000C00002328F20759
:1049700006FD00005728F20703FD00003728F20764
:1049800008FD0000B328F2070EFD00000F29F20712
:1049900005FD00007D1BFC07001A212D03595A0854
:1049A000E4862A9E8FE911BC7C98434218595A0824
:1049B000E4862A9E8FE911BC7C7C464218595A082D
:1049C000E4862A9E08E911BC7CD04742180000000A
:1049D00001000001050AFC0701000002F50AFC07BE
:1049E0000000000000000000F4010E00F435234830
:1049F000F40108C4140A00005D05FC078B08FC07DD
:104A00009B09FC07F99DF00700000000E3A1F107F6
:104A1000000000004FA4F107000000001400000097
:104A2000ED14F207FD0000002126F207FF00000050
:104A3000000000003D17FC079D16FC07C84DFC0751
:104A4000B941FC07FC44FC07008DFC07128CFC07F5
:104A5000F88BFC0705000000E05AFC07000400008A
:104A6000E091FC07AC020000D48DFC0700040000BC
:104A70009894FC07700500002003000000A60E00BB
:104A800004000000D2000000320000003C000000E2
:104A90000100000001000000020000000200000010
:104AA00004000000030000000600000000000000F9
:104AB00002000000020000000000000000000000F2
:104AC00003000000030000000500000005000000D6
:104AD000060000000A0000000A000000C8000000F4
:104AE000B80B000002000000B80B0000B80B00007B
:104AF00010000000D4010000CC0100007002000092
:104B00006A00000004000000010000002000000016
:104B10000A00000001000000E20400008A02000018
:104B2000DC050000AF000000DC4CFC07404BFC073C
:104B3000504BFC07E44CFC07344AFC070000000023
:104B4000A8B8FC07A0B8FC07B8B8FC07F8B8FC0781
:104B50009849FC079C49FC07C445FC07F51BFC076A
:104B60007936FC070D38FC0793DEF007F1DEF0071D
:104B7000F9DEF00749DFF00761DFF00777DFF007C4
:104B800099DFF00719E3F007BDE5F007FDE3F00753
:104B90001DE4F0073DE4F0077BE4F0078BE4F00749
:104BA000F5F9F007B1F7F007CFF7F007EBF7F007EB
:104BB00005F8F00719F8F00797F8F007AFF8F007D5
:104BC000DFCDF10767D0F107DBB9F007CD0DF207B4
:104BD000B10EF207AD0EF207A90EF2078D21F00714
:104BE0008133FC07F521FC073922FC078D22FC07E5
:104BF0008522FC07B57EF007837DF0077501FC0771
:104C0000599EF107634CF107D933FC07D110F20725
:104C1000A533FC07B111F2074112F2077912F2072E
:104C200000000000111CFC07131CFC07B9C6F007AC
:104C3000D592F1070302FC075F9DF1075F9CF10726
:104C40001505FC07EB72F107B922F1076B04F107B8
:104C5000791BFC072BA4F007F1D2F0075FBDF0072A
:104C6000D5BDF00785BEF007DB2DF007752EF007E8
:104C70001581F007DF7FF0070937F007000000001B
:104C8000D51CFC07DD1CFC075D1AFC07F3C3F1070C
:104C900075C4F1074D3CFC07751AFC0700000000C5
:104CA0000000000000000000000000000000000004
:104CB00000000000000000000000000000000000F4
:104CC00000000000000000000000000000000000E4
:104CD000000000000000000000000000E849FC07A0
:104CE000E48CFC071C4AFC07C88BFC070200000090
:104CF00052656164206D652028696E646963617422
:104D00006529005772697465206D6520286E6F20D3
:104D1000727370290052656164206D6520286E6F82
:104D20007469667929004144432056616C75652099
:104D30003100765F362E302E32322E313430310053
:104D400044413134353331004144432056616C7560
:104D500065203200496E64696361746561626C65E7
:104D60000052656164206D65005772697465206D3D
:104D700065004C4544205374617465004275747439
:104D80006F6E205374617465004C6F6E67205661BE
:104D90006C756500436F6E74726F6C20506F696E36
:104DA0007400000003030A181107595A08E4862A00
:104DB0009E8FE911BC7C984342180000444C472D5B
:104DC000534C454550000000813EFC07893FFC07DD
:104DD00000000000000000007B1CFC070000000039
:104DE000A13DFC0700000000411CFC070000000082
:104DF0000000000000000000551CFC07491CFC07D7
:104E0000691CFC078D1CFC0700000000C91CFC0786
:104E1000151CFC070000000000000000000000005E
:104E20000000000000000000000000000000000082
:104E30000000000000000000000000000000000072
:104E40000000000000000000000000000000000062
:104E500000000000784EFC07784EFC07680C00004C
:104E60001C43FC07288BFC07288BFC07AC020000C6
:084E70001C43FC070E000000CA
:0400000507FC0111E2
:00000001FF
